:020000040800F2
:10000000B84B01201D03000835980008B98B000883
:1000100031980008812B00081DF70008000000003F
:1000200000000000000000000000000039A10008EE
:100030004D2F0008000000007D9B000875A20008FD
:1000400037030008370300083703000837030008A8
:100050003703000837030008370300083703000898
:10006000370300083703000837030008052D000890
:10007000152D0008252D0008352D0008452D0008F8
:10008000552D000837030008370300083703000820
:100090003703000837030008370300083703000858
:1000A0003703000837030008370300083703000848
:1000B000370300088DA300089DA30008370300083C
:1000C0003703000837030008370300083703000828
:1000D0003703000837030008370300083703000818
:1000E0003703000837030008370300083703000808
:1000F000370300083703000837030008652D0008A0
:1001000037030008370300083703000837030008E7
:1001100037030008370300083703000837030008D7
:10012000752D0008852D0008952D0008A52D0008C7
:10013000B52D00080000000000000000B52B0008ED
:10014000852B0008952B0008A52B0008399800087E
:1001500037030008C52D0008D52D00083703000817
:100160003703000837030008370300083703000887
:1001700037030008370300080000000000000000FB
:10018000370300083703000800F002F800F0B6F863
:100190000AA090E8000C82448344AAF10107DA45E2
:1001A00001D100F0ABF8AFF2090EBAE80F0013F07E
:1001B000010F18BFFB1A43F00103184760520100FA
:1001C000805201000A444FF0000C10F8013B13F07C
:1001D000070408BF10F8014B1D1108BF10F8015BA0
:1001E000641E05D010F8016B641E01F8016BF9D193
:1001F00013F0080F1EBF10F8014BAD1C0C1B09D1EA
:100200006D1E58BF01F801CBFAD505E014F8016B5B
:1002100001F8016B6D1EF9D59142D6D370470000ED
:100220000023002400250026103A28BF78C1FBD8FF
:10023000520728BF30C148BF0B6070476E2900F0DD
:10024000EC85702900F04987662914F0B785652987
:1002500014F0B485672914F0B185612914F0B085D4
:1002600003681B0A28BF41F08001692900F07E81E4
:10027000642900F07B81752900F078816F2900F0F6
:10028000D686782900F01587E92900F07186E429DF
:1002900000F06E86F52900F06B86EF2900F0D3861A
:1002A000F82900F014870368DB0928BF41F08001BA
:1002B000632901F0DB83732901F0E083E32901F076
:1002C000EB83F32901F0F083002070471FB514F091
:1002D00070FD9DE8030000F0AFFC00F0C3FF0400D8
:1002E0000020002114F028FA401C6060002000214A
:1002F00014F038FAE0601FBD10B510BD01F0DCFD50
:100300001146FFF7E3FF13F005FB01F0ADFE03B468
:10031000FFF7F2FF03BC01F01DFF00000948804712
:1003200009480047FEE7FEE7FEE7FEE7FEE7FEE7D7
:10033000FEE7FEE7FEE7FEE704480549054A064BEF
:100340007047000035A3000889010008B88B002021
:10035000B84B0120B80B0120B80B012070B5A0FBF1
:100360000140B4F1805170F1000024BF002070BD45
:10037000204600F007F805001CBF214600F0E7FB0F
:10038000284670BD70B5064600F036FC056806F1DB
:100390000B0020F00704B4429CBF002070BD2B4628
:1003A0006A68BAB11068A04210D304F1080188420B
:1003B0003CBF5068586007D35168101941601168FC
:1003C000091B016058601460101D70BD134652680F
:1003D000002AE7D12146284600F01AFC0028DED189
:1003E00070BD70B50446051F00F006FC0068002CC7
:1003F00014BF446870BD002C18BFAC423CBF2046FF
:100400006468F8D301680A18AA4218BF456003D18E
:100410002A6805461144016028684119A1421CBFA1
:100420006C6070BD6168696021680844286070BDB7
:1004300053EA020C00F069802DE9F04B4FF0000602
:10044000002B1FBFB3FA83F503FA05F424FA05F66F
:100450005E4012BF1643B2FA82F502FA05F4C5F106
:1004600020051EBF22FA05FC44EA0C04203556EA9A
:10047000044C4FEA144418BF641C4FF000084FF0BE
:100480000009904271EB030C39D3002919BFB1FA6E
:1004900081F701FA07F6B0FA80F700FA07F6C7F11C
:1004A00020071EBF20FA07FC46EA0C062037B6FBE1
:1004B000F4FCA7EB0507103F07F01F0BCBF120065C
:1004C0000CFA0BFB2CFA06F644BFB3460026202F8D
:1004D000A4BF5E464FF0000B5BEA060C08BF4FF06E
:1004E000010B19EB0B09ABFB027C48EB0608C01BA8
:1004F00006FB02CC0BFB03CC71EB0C01C1E70B46F6
:10050000024641464846BDE8F08B13B54FF0000067
:100510004FF00001AFF30080BDE81C4070470000C1
:100520007CB51D4616460C00009001D02044401EAC
:10053000074B7B442A4669460190304600F087FC11
:1005400005461CB10020694600F094FC28467CBD9D
:10055000490900000FB4044910B503AA029800F03D
:1005600097FC10BC5DF814FB740000202DE9F041ED
:100570000646002410687529314616A510D000F0F3
:10058000B8FB002802DA404213A507E031688A0769
:1005900001D512A502E0490704D511A5012401E007
:1005A00000F0B0FB00210A2206F1240709E0B0FBAD
:1005B000F2FCB0FBF2F302FB1C003030785418461A
:1005C000491C0028F3D123462A463046BDE8F041B5
:1005D00000F0CABB000000002D0000002B0000004E
:1005E000200000002DE9F05F894604464FF0000A24
:1005F000DFF874B1FB44C0F820A02046E1688847CA
:10060000002874D0252806D0D4E901219047206A1B
:10061000401C2062F1E700265F462046E1688847DB
:100620002028054607DB312D05D2781910F8200C5B
:1006300008B10643F1E7B00701D526F00406C4F877
:100640001CA00027C4F818A02A2D09D028460FF0B6
:100650006FFA38B304EB8708303DC8F8185019E03A
:1006600059F8041B204604EB87029161E168884732
:10067000012F054618D1E069002820DA26F020066F
:100680001DE0D8F8180000EB800005EB4000303882
:10069000C8F818002046E168884705460FF048FA78
:1006A0000028EED1012F0AD02E2D08D12046E16876
:1006B00088477F1C0546022F46F02006C4DBA06950
:1006C000002803DA404246F00106A061F00701D09D
:1006D00026F010066C2D0BD0682D09D04C2D39D08A
:1006E0006A2D35D0742D35D07A2D33D016E038E010
:1006F000E1682F4620468847B842054609D16C2F4D
:1007000026D04FF48060E1680643204688470546BE
:1007100004E06C2F1AD04FF4807006430DB3A5F19E
:100720004100192802D8203546F400664A46294679
:10073000204626604E46FFF781FD80B101280BD090
:10074000F61D26F0070000F1080956E74020E4E70F
:100750008020D8E70020D6E706F104094DE72846B7
:1007600052E7206ABDE8F09F9D4C01000FB400B530
:100770008DB010A9099000910B904FF0FF300A90B6
:1007800000200C90064878440690064878446A4653
:1007900007900F9909A800F0BFFC0DB05DF814FB9D
:1007A000AF090000C70900002DE9FF5F1D464FF0AB
:1007B000FF3B91464FF000085F46D5E90146A96925
:1007C00001987F1C8847296A824688470028F6D10D
:1007D000BAF1FF3F0CD0002E24F4C06419DD60068E
:1007E00014D5BAF12B0F09D0BAF12D0F0ED103E0B9
:1007F000584604B0BDE8F09F44F48064A9690198AC
:100800007F1C8847761E8246002E02DDBAF1300F2B
:1008100003D0B9F1000F26D032E0A969761E019805
:100820007F1C44F400748847002E824605DDBAF12F
:10083000780F06D0BAF1580F03D0B9F1000F10D0DD
:100840001EE0B9F1000F02D0B9F1100F18D1A9695B
:10085000761E01987F1C24F400748847824610207D
:1008600002E0082000E00A20814609E0A96908FBAF
:100870000908761E01987F1C44F40074884782465C
:10088000002E05DD4946504600F032FC0028EDDA26
:10089000E96901988847A00502D46FF00100A8E734
:1008A000E00725D1600613D5600502D5C8F1000028
:1008B00000E0404629680A1D2A600968220501D522
:1008C000087015E0220701D5088011E008600FE0EC
:1008D0002868011D29600068210502D580F8008084
:1008E00006E0210702D5A0F8008001E0C0F80080F2
:1008F00038467EE72DE9F05F93460F468046044672
:10090000002600F07DF9D0F80090824614F8015BD3
:100910002DB100F069F90068405DC007F6D12B2DBC
:1009200002D02D2D1AD0641E0021CAF800105A469C
:100930003946204600F020FC014627B13868A04225
:1009400001D1C7F80080DAF80000022809D0CAF8FF
:100950000090700505D54842BDE8F09F46F48066DA
:10096000E2E70846F8E712F001BA0000014A00F099
:1009700053BC0000880B0020401ECAB210F8011FB3
:100980008A4202D00029F9D10020704710B5431CDB
:1009900002E010F8011B71B18107FAD14FF001326A
:1009A00002C88C1A8C4314EAC211F9D0C01A0A0684
:1009B00003D0C01E10BDC01A10BD0A0401D0801E95
:1009C00010BD0902FCD0401E10BD40EA010370B505
:1009D0009B072ED14FF00136042A2AD308C810C92C
:1009E0009D1B9D43121F15EAC61517D0D8B2E1B260
:1009F000401A50EA056110D198B2A1B2401A50EAEB
:100A000005410AD123F07F4024F07F41401A50EA8B
:100A1000052102D1180EA0EB146070BDA342DBD0FB
:100A200018BA21BA884201D9012070BD4FF0FF30B9
:100A300070BD0AB9002070BD10F8013B11F8014BE0
:100A400063B1A3420AD1521E08D010F8013B11F83D
:100A5000014B1BB1A34201D1521EEDD1181B70BD39
:100A6000032A40F2308010F0030C00F0158011F8DA
:100A7000013BBCF1020F624498BF11F801CB00F8B2
:100A8000013B38BF11F8013BA2F1040298BF00F806
:100A900001CB38BF00F8013B11F0030300F02580C3
:100AA000083AC0F0088051F8043B083A51F804CBEA
:100AB000A0E80810F5E7121D5CBF51F8043B40F8B0
:100AC000043BAFF30080D20724BF11F8013B11F8BB
:100AD00001CB48BF11F8012B24BF00F8013B00F8FF
:100AE00001CB48BF00F8012B704710B5203AC0F089
:100AF0000B80B1E81850203AA0E81850B1E818501F
:100B0000A0E81850BFF4F5AF5FEA027C24BFB1E85B
:100B10001850A0E8185044BF18C918C0BDE81040CC
:100B20005FEA827C24BF51F8043B40F8043B08BFD5
:100B30007047D20728BF31F8023B48BF11F8012B9C
:100B400028BF20F8023B48BF00F8012B70474FF048
:100B500000020429C0F0128010F0030C00F01B808A
:100B6000CCF1040CBCF1020F18BF00F8012BA8BF98
:100B700020F8022BA1EB0C0100F00DB85FEAC17C5C
:100B800024BF00F8012B00F8012B48BF00F8012B0F
:100B900070474FF0000200B5134694469646203940
:100BA00022BFA0E80C50A0E80C50B1F12001BFF426
:100BB000F7AF090728BFA0E80C5048BF0CC05DF88C
:100BC00004EB890028BF40F8042B08BF704748BFDA
:100BD00020F8022B11F0804F18BF00F8012B70474E
:100BE000704770477047000010B500F03BFB001DD8
:100BF00010BD00BF453B010000487047608B0020DE
:100C000000487047588B0020704770477047704706
:100C100038B504460A4600206946AFF30080002834
:100C200008BF38BD02460099204600F01FFB012096
:100C300038BD012001F01AB9F8B5AFF300800546C0
:100C400000200C46102000BF0646A819A0420DD96E
:100C5000324669460020AFF30080070008BF01F06C
:100C600005F90098A04218BF0546C419FFF7C4FF54
:100C700005600746F01D20F007004619284600F0E1
:100C80000AF8B44208BFF8BDA21B31463868BDE877
:100C9000F84000F0EBBA00210160C0E90110704794
:100CA0001020704770B5044685690068C10601D5FB
:100CB000302600E02026C00707D070BDD4E901210E
:100CC00030469047206A401C20626D1EF6D570BDEC
:100CD00070B5044685690078C00707D170BDD4E9B6
:100CE000012120209047206A401C20626D1EF6D50D
:100CF00070BD09684A0501D540B27047C905FCD5E9
:100D000000B2704709684A0501D5C0B27047C905ED
:100D1000FCD580B2704770B50C460546012A05D057
:100D20002878800600D5EA69002302E0012305E067
:100D30005B1C934202D2E05C0028F9D1A869E61856
:100D4000C01AA861286A184428622846FFF7AAFF3B
:100D500004E0D5E9012114F8010B9047B442F8D31F
:100D60002846FFF7B5FF70BD2DE9F0470D469946BF
:100D70009246044600F124080168880604D5E0691B
:100D800021F01001216000E00120A84201DD471B95
:100D900000E00027A1697A1902EB0900081AA06196
:100DA0002078C00602D42046FFF77CFF002608E02A
:100DB000D4E901211AF806009047206A401C761CED
:100DC00020624E45F4DB2078C0060AD52046FFF7A6
:100DD00069FF06E0D4E9012130209047206A401CD9
:100DE0002062381EA7F10107F4DC07E0D4E90121F5
:100DF00018F805009047206A401C2062281EA5F1C3
:100E00000105F3DC2046FFF763FF2078000602D5DA
:100E10000220BDE8F0870120FBE711680268006A44
:100E2000530501D508700AE0D30501D5088006E016
:100E3000130603D5C217C1E9000200E008600120D3
:100E40007047000001694A1C02610878704700B5CC
:100E50008FB0CDE901310021059105497944CDE9F3
:100E6000031011466846FFF7BDFB0FB000BD000040
:100E7000E5FFFFFF0A6802F8010B0A607047D1E93D
:100E800000239A4202D2531C0B601070704700007E
:100E9000074B70B50D467B44FFF7D9FF0446284643
:100EA00000F0C0FF10B14FF0FF3070BD204670BDA4
:100EB000DB2201002DE9FF5F15468A460446DFF874
:100EC000AC80F8440027D8E900103E46CDE9001078
:100ED00010E03AF816106A4602A800F0A7FF411C7D
:100EE00007D02178890603D5E269391891420DD8D7
:100EF0000744761C2078800602D5E069B84205DDFB
:100F0000AE42E6DB3AF816000028E2D1A069C01B29
:100F1000A0612046FFF7C6FED8E90010CDE9001019
:100F2000002017E03AF818106A4602A800F07EFF89
:100F3000B0F1FF3F81460BD000250DF1080B05E015
:100F4000D4E901211BF8050090476D1C4D45F7D3EE
:100F500008F10100B0428046E4DB206A3844206298
:100F60002046FFF7B5FEBDE8FF9F0000E243010009
:100F70002DE9F0418046D21D22F007020025D2E97A
:100F80000002F52915A614D0011E72F1000106DA3F
:100F90000023D0EB030063EB020211A608E0D8F8AF
:100FA00000108B0701D50FA602E0490701D50EA658
:100FB00001251146002408F1240704E000F070F92F
:100FC00030323A55641C50EA0102F7D12B463246C2
:100FD00021464046BDE8F041FFF7C6BE00000000D4
:100FE0002D0000002B0000002000000030B4002184
:100FF00000F1240408E002F00705D208303542EA87
:101000004372DB086554491C52EA0305F3D10468B6
:10101000002310A2250707D5A40600D421B1C46976
:1010200001230DA2641EC46130BCFFF79DBE10B544
:10103000044621461068FFF765FE02462046BDE8DB
:1010400010400023D2E7D21D22F00701D1E900238E
:10105000CCE700000000000030000000F0B40D46B6
:101060000188090502D5214C7C4402E01F4C7C44D8
:101070000E34002100F1240608E002F00F071209E7
:10108000E75D42EA03721B097754491C52EA0307E1
:10109000F3D102780023120704D5702D06D009B1D0
:1010A000022311342246F0BCFFF75EBE0123103448
:1010B000F8E770B504460D4621461068FFF722FE9A
:1010C000024629462046BDE870400023C6E7D21DEF
:1010D00022F00703D3E90023C0E70368126843F056
:1010E000200303600823C3610023B7E744420100E3
:1010F0003A2800D2303820F02002412A01D3A2F150
:101100003700884201D34FF0FF3070470268114426
:101110001378016018467047D160054979445161E0
:1011200004497944116200211161114600F0C0BCEC
:10113000EDFFFFFF05020000426842B1016811F8AF
:10114000013B23B1521EC0E900121846704701212D
:10115000C160881E704742685AB1C368016843B9CC
:1011600083688B4205D0491E521CC0E90012002042
:1011700070474FF0FF3070472DE9F05F824615460B
:101180008B4600270AF10104B9460078302801D0C7
:101190009DB113E014F8010B0127782803D05828DB
:1011A00001D045B10AE00DB1102D07D1002714F888
:1011B000010B102502E0082500E00A250026B046B4
:1011C0000EE005FB080005FB06F101271FFA80F879
:1011D00001EB1046B6F5803F00D3B94614F8010B79
:1011E0002946FFF785FF0028EBDABBF1000F05D099
:1011F0000FB1641E00E05446CBF80040B9F1000F77
:1012000006D0FFF7FDFC02210160C81EBDE8F09F7B
:1012100048EA0640FAE700002DE9F04115460E467F
:10122000040002D12C6804B90BA4204600F035FE5E
:101230000444207870B127463146384600F01DFE40
:101240000444207810B1002004F8010B38462C60CB
:10125000BDE8F0810027F9E7000000000048704772
:10126000588B002000487047788B00200346406868
:101270008C46002818BF88423CBF03464068F8D31C
:1012800018681844884207D00CF1030020F00700CA
:10129000001D411A521A0146081D0A60FFF7A1B845
:1012A00030B5B0F10A024FEA900E71F100034EEA38
:1012B000817EB0EB0E0061EB91014FEA101E4EEA09
:1012C000017E10EB0E0041EB11114FEA102E4EEA99
:1012D000016E10EB0E0041EB11214FEA104E4EEA69
:1012E000014E10EB0E0041EB1141401841F100019D
:1012F0004FEAD00040EA41704FEAD10110EB80057F
:101300004FEA810444EA907444EB01046D1944EB04
:101310000404521BA3414FF0000348BF0A3200D51A
:1013200030BD401C41F1000130BD10B50446FFF74F
:101330005BFC0068005D00F0010010BD70472DE906
:10134000FF4F0C461E464FF0FF378BB0D2E900012D
:10135000DDF860800A908A46C1F30A5505B93D461A
:10136000002108464FF00000BAF1000F00F44000E1
:1013700005DA00EB80004FF4400101EA50004FEA2B
:101380009059B9F1010F00DDB9460A9850EA4A00B8
:101390000ED044F61050A5F2FF3545432F14B8F196
:1013A000000F1ED07542291E1EDDC9F100021CE08F
:1013B000B8F1010F4FF0000001D0302103E0F243FB
:1013C00005E02154401CB042FBDB304600220021E6
:1013D00021540B99C1F80880C1E900200FB0BDE885
:1013E000F08FBD1B6D1CDEE74A4600DA694206A895
:1013F00000F0C8FD06AB93E8070003AB83E80700E5
:1014000050460A9900F0CCFE8DE80700A0F5005088
:101410001F3800900398002D0ADD42F21F014A4652
:101420000844002303A90390684601F035F909E058
:10143000A0F500504A461F38002303A903906846D0
:1014400001F03FF98DE807000004000C03D04FF0D5
:10145000FF30410800E01046B8F1000F03D0002231
:10146000009215461EE0751E05D4FFF719FF3032B5
:1014700062556D1EF9D5B3460122084302D0002201
:101480007F1C04E02078302801D100227F1E002A32
:10149000099784D01DE0112D07DAFFF701FF3032E4
:1014A00062556D1C50EA0102F5D1084302D0009844
:1014B000C8B10EE00021681E05E0235C625C635445
:1014C0002254401E491C8142F7DBAB46A81B401E3C
:1014D0000990002004F80B000B98099AC0F80880C6
:1014E000C0E9002B7AE711264FF0000857E72DE9F5
:1014F000F04F88460446D21D22F0070191B0D1E991
:101500000001CDE90A010EF061F902460B98C00F07
:1015100001D02D2007E02068810701D52B2002E0B3
:10152000202101EAC000032A099001D0072A05DB27
:1015300003464146204600F0E5FC0BE1207880069A
:1015400001D5E06900E00620B8F1650F814606D0BC
:10155000B8F1660F18D0B8F1670F70D131E00020F4
:10156000B9F1110F009001DB112301E009F1010332
:101570000AAA01A90CA8FFF7E2FEDDE90C7000261B
:1015800009F10105834647E001204B4600904FF0EA
:1015900000470AAA01A90CA8FFF7D1FEDDE90DB0AA
:1015A0000C995D46002610B909F101000D18B9EB40
:1015B000050003D4C0F1FF3609F10105A5EB0900D0
:1015C0002BE0B9F1010F01DA4FF001090020B9F168
:1015D000110F0090484601DD112300E003460AAADE
:1015E00001A90CA8FFF7ABFEDDE90C704D46002603
:1015F0008346207800070AD4AB4500DA5D4601A88F
:10160000012D04DD411911F8011C302907D04F4587
:1016100002DA17F1040F04DA012082460FE06D1E92
:10162000EEE7002F02DCED1B3E4403E0781CA842ED
:1016300000DD7D1CB81B00F1010A4FF00047207847
:10164000000703D4AA4501DB4FF0FF3A0021B7F1B0
:10165000004F0DF143088DF8431024D002202B23B6
:10166000002F01DA7F422D230A21021EA0F1010082
:1016700000DC5FB197FBF1FC97FBF1F201FB1C7CF6
:1016800017460CF1300C08F801CDEEE7A8F1010087
:1016900003702188090501D5452100E06521A0F1ED
:1016A000010800F8011C09980FA9A1EB0807FF1D0C
:1016B00000B10120411901EBEA70A1693844081A10
:1016C000401EA0612078C00602D42046FFF7EAFA47
:1016D000099828B1D4E901219047206A401C206272
:1016E0002078C00622D52046FFF7DCFA1EE0002E47
:1016F00004DBB34502DD01A8805D00E03020D4E9C1
:1017000001219047206A401C2062761CAAF101004A
:101710005FEA000A0AD1FFF7A5FDC0680168405CD6
:10172000D4E901219047206A401C2062281EA5F1BF
:101730000105DCDC07E0D4E9012118F8010B904732
:10174000206A401C2062381EA7F10107F3DC204606
:10175000FFF7BEFA032011B041E600002DE9F04F7B
:1017600004460D46D21D22F0070089B0D0E900974B
:10177000484639460EF02AF80246F80F01D02D23CC
:1017800007E02068810701D52B2302E0202101EA30
:10179000C0038DF820300BB1012000E00020032AA7
:1017A000824601D0072A04DB2946204600F0AAFB26
:1017B0003FE12078800601D40D2500E0E569C7F3FC
:1017C0000A560D2D49DA00214FEA175B08464FF003
:1017D0000000002F00F4400007DA00EB80004FF417
:1017E000400100EBD07001EA60008115012901DDA4
:1017F0004FF0FF3100224FEA850CBCF1180F06D3E1
:101800001346ACF118004FF08052C24003E04FF491
:10181000801323FA0CF30CF10C0CBCF1200F04D351
:10182000ACF1200C09FA0CF001E007FA0CF00029E9
:101830004FF0004801DD18B90FE00ED140450CD340
:1018400019EB02095F4121B9404502D19F4329EAC2
:101850000209BBEB175F00D0761C2088000502D57B
:101860007B48784402E07A487844193808AA302343
:1018700002F80A30037C0AF10101002E0AF1020A83
:1018800053546A4602DC4FF0300101E04FF0310161
:101890004FF001088DF8001002D0A6F2FF3603E0E9
:1018A00059EA470100D06B4E002D02DC2178090770
:1018B00004D54FF002082E218DF80110C4460021F6
:1018C0000BE0C7F303433F01C35C491C6D1E02F8E4
:1018D0000830052908F1010801DA002DF1DC0021AA
:1018E0000CE000EB1973491C1B786D1E082902F8E7
:1018F00008304FEA091908F1010801DA002DF0DC7F
:1019000021688B0602D516E0A8F10108E04505DD47
:1019100002EB080313F8013C302BF5D0B8F1000FAF
:1019200009DD02EB080313F8013C2E2B03D1090754
:1019300001D4A8F10108002D05DD3E2102F80810B0
:101940006D1E08F10108407C002E02F8080008F125
:10195000010804DA2D20764202F8080002E02B206C
:1019600002F808000A214FF47A70864208F1010853
:101970000BDB96FBF0F3303302F8083096FBF0F304
:1019800008F1010800FB136601E0642E0CDB642003
:1019900096FBF0F3303302F8083096FBF0F308F1D1
:1019A000010800FB136601E00A2E06DB96FBF1F04E
:1019B000303002F8080008F1010896FBF1F001FB55
:1019C0001060303002F80800A16908F1010808EB46
:1019D000050202EB0A00081AA0612078C00602D4B2
:1019E0002046FFF75FF9216A08AE01EB0A0020628A
:1019F00004E0D4E9012116F8010B9047BAF1010A7D
:101A0000F7D22078C00602D52046FFF74BF96E4684
:101A100009E016F8010B3E280FD0D4E901219047C8
:101A2000206A401C2062B8F10108F2D22046FFF77C
:101A30004FF909B00320BDE8F08F206A28442062E6
:101A400003E0D4E90121302090476D1EEBD3F8E785
:101A5000853A010002FCFFFF10B5436913B1AFF3F3
:101A6000008001E0FFF757F9012010BD127800F166
:101A700024010A7000224A700122EDE711684FF03C
:101A8000FF32E9E710B5436913B1AFF3008001E01D
:101A9000FFF710FA012010BD128800F124018284A2
:101AA0000022C2840122EDE711684FF0FF32E9E71E
:101AB0002DE9F34F4FF0000A0C4656468DB0012039
:101AC0000C9001F10C000B9062690B98012190477A
:101AD000051E2DD0252D2CD0216A8847C0B1626902
:101AE0000B9801219047216A88470028F7D1626945
:101AF000411E0B98904700E0761CA1690D9888471D
:101B0000216A88470028F7D1E1690D988847DBE70B
:101B1000A1690D988847A842074601D1761CD3E7F2
:101B2000E1690D9888477F1C02D1BAF1000F6FD090
:101B30006BE162690B9800273D46394690472A2899
:101B400004D162690B98012190470125DFF8D0820A
:101B500062690B9801219047A0F130010A290AD24D
:101B60004745E5DC07EB870100EB4107303FDFD459
:101B700045F01005ECE7E90601D46FF000476C284A
:101B80000AD04C2814D0682815D06A280DD07428A3
:101B90001CD07A281AD01DE062690B980121904769
:101BA0006C2802D045F0040514E045F002050DE074
:101BB00045F020050AE062690B98012190476828EA
:101BC00002D045F0080505E045F4006562690B9810
:101BD00001219047C4E9015765283DD019DC5828F8
:101BE0007AD00CDC452837D004DC252826D04128C3
:101BF0009ED131E046282FD0472899D12CE05B2890
:101C000077D0612828D063287CD0642823D15AE07B
:101C1000F6E06F2848D008DC66281DD067281BD066
:101C2000692821D06E2816D127E0702845D0732866
:101C300068D0752847D078280DD14DE0A1690D985E
:101C40008847252805463FF469AFE1690D98884724
:101C50006D1C3FF46AAFD8E00D9923466A466FF0D9
:101C60000100AFF30080C5E045F0400023464FF08F
:101C700000026060A80736D43EE0E8077FF447AF73
:101C80002068011D21600068290501D506701BE749
:101C9000290701D5068017E7A90703D5F117C0E981
:101CA000006111E706600FE745F0400023464FF062
:101CB00008026060A80716D41EE040F60E0125EA6F
:101CC0000100606016E045F0400023464FF00A0234
:101CD0006060A80707D40FE045F040006060A807E7
:101CE00008D5234610220D996FF00100AFF3008054
:101CF00080E007E0102223460D996FF00100FEF707
:101D000053FD77E04FF0000963284F46C8464B4625
:101D1000CB4602D05B2806D038E0E80601D401208B
:101D2000A060012732E06269D4F80CB00B98012161
:101D300090475E2807D14FF0010949466269D4F8FF
:101D40000CB00B989047216939B900210A4603ABC2
:101D500043F82120491C0829FADBD8B3216949B38B
:101D600008F1010862690B98012190475D28F4D1C0
:101D7000B9F1000F09D0002003A951F82020D24367
:101D800041F82020401C0828F7DB03AB206900281D
:101D900020794FEA40701ED05B462246CDF8008085
:101DA000CDE901970D9900286FF0010020DAAFF31B
:101DB00000801FE0C11703AA00EBD1614B1121F095
:101DC0001F0102EB8302411A13680120884003437C
:101DD0001360C7E719E00D99224600286FF0010053
:101DE000009702DAAFF3008004E0AFF3008001E077
:101DF000AFF3008000280ADA401C06D10C9820B10D
:101E00004FF0FF300FB0BDE8F08F5046FAE7E9071A
:101E100001D10AF1010A064400200C9054E60000AA
:101E2000CCCCCC0C007B00F08000704770B516461F
:101E30000C460546FEF7D8FE036893F80101012819
:101E400006D0FF2C0FD8185D68B101202C7070BD32
:101E5000D3F807013246214603F20713034428460C
:101E6000BDE8704018474FF0FF3070BD10B500F06E
:101E700009F9BDE8104000F000B930B503461D78FF
:101E80001DB10A4603E0AC4201D1181A30BD12F868
:101E9000014B002CF7D15B1CF1E730B503461D78F0
:101EA0003DB10A4612F8014B1CB1AC42FAD15B1CA1
:101EB000F5E7181A30BD70477546FFF7CFF9AE4603
:101EC00005006946534620F00700854618B020B546
:101ED000FEF732FABDE820404FF000064FF0000751
:101EE0004FF000084FF0000B21F00701AC46ACE8C2
:101EF000C009ACE8C009ACE8C009ACE8C0098D462F
:101F0000704700002DE9F0411F4604460326016892
:101F1000072A01F4006004DB08B116A505E016A548
:101F200003E008B115A500E015A521F01000206020
:101F3000A069C01EA0610FB1401EA0612046FEF73F
:101F4000B1FE4FB1D4E9012138469047206A401CC8
:101F50002062C01C206206E0206AFAE7D4E9012171
:101F600015F8010B9047761EF8D22046FEF7B0FE1A
:101F7000BDE8F0814E414E006E616E00494E460054
:101F8000696E66002DE9F047814616468AB03548ED
:101F900078440DC88DE80D0032487844801C03ACAD
:101FA0000DC884E80D0041F69B300844372190FBB2
:101FB000F1F290FBF1F5A5F1800501FB12041B3C49
:101FC00002D56442012000E00020DFF898A080469E
:101FD0000027FA44AAF1BE0A0EE0E0070AD0324612
:101FE000684607EB470101230AEB810100F069FB1A
:101FF0008DE8070064107F1C002CEED1194F7F4440
:10200000AE3F19E0E80715D007EB04100DF1180AF0
:1020100090E80E008AE80E00C068F04201D19819DD
:1020200008903246012306A903A800F04AFB03AB3F
:1020300083E807006D10641C002DE3D14FF001030D
:1020400032466946B8F1000F03A802D000F024FB25
:1020500001E000F036FBC9E90001C9F808200AB028
:10206000BDE8F087E833010010B50446AFF3008007
:102070002046BDE81040FEF74AB9002801D000F024
:1020800069B8704710B5012805D0002103A000F001
:1020900067F8012010BD09A1F8E700005349475235
:1020A000544D454D3A204F7574206F662068656128
:1020B00070206D656D6F7279000000003A204865F0
:1020C0006170206D656D6F727920636F72727570CB
:1020D000746564004FF0013C50F8042B51F8043B48
:1020E0009A4221D1A2EB0C03934313EACC1317D1EC
:1020F00050F8042B51F8043B9A4215D1A2EB0C0383
:10210000934313EACC130BD150F8042B51F8043B42
:102110009A4209D1A2EB0C03934313EACC13DBD010
:102120004FF00000704700BFD01A01BAB1FA81F138
:1021300001F0180122FA01F0CB40C1F12001DBB21D
:10214000C0B2C01A2CFA01F3D11A914311EAC3119B
:10215000E6D1704701491820ABBEFEE72600020019
:1021600070B505460C460A2000E06D1C00F011F821
:1021700035B128780028F8D102E0641C00F009F895
:1021800014B120780028F8D1BDE870400A20AFF3E0
:10219000008008B569468DF800000320ABBE08BD7D
:1021A0005FEA400C08BF91F0000F4FEA8C234FEA22
:1021B000C12243EA51514FEA1C5018BF00F5F040CC
:1021C0004FEA300018BF41F000415FEA6C5C00F05C
:1021D0002980BCF1FF3F08BF40F080407047130CDE
:1021E00006BF12044FF0100C4FF0000C130E04BF8A
:1021F00012020CF1080C130F04BF12010CF1040CB5
:10220000930F04BF92000CF1020CD30F04BF5200D5
:102210000CF1010C11464FF00002A0F11F00A0EBE1
:102220000C00704711F0004F08BF704731F00041BB
:102230003FF4D5AF0B0C06BF09044FF0100C4FF064
:10224000000C0B0E04BF09020CF1080C0B0F04BFAD
:1022500009010CF1040C8B0F04BF89000CF1020C76
:10226000CB0F04BF49000CF1010CCCF12003A0EB13
:102270000C0022FA03F302FA0CF241EA030100F126
:102280000100704720F07F4C80EA030023F07F4775
:10229000ACEB070303F57C5300F0004003F1FF03B0
:1022A0002DE980494FEA154B09B44FEA144325EA5A
:1022B0000B4E24EA03480FF2042606EB13274908C5
:1022C0003E785FEA320203FB0667C7F5000707FBAB
:1022D00006F64FEA54374FEAD64606F1020607FBE8
:1022E000066CCCF1005C4FEA1C472CEA074C07FB5C
:1022F00006F40CFB06F504EB15464FEA961634BFC0
:1023000000204FF000404FEAD13706FB07FC4FEAB0
:102310001C4C0CFB0BF7D21B03FB0CF761EB07010A
:102320000CFB0EF7B0EB074072EB17420CFB08F703
:1023300034BFA2EB0742B2EB074261EB17414FEA11
:102340000C444FEA910706FB07FC4FEA1C4C0CFBC0
:102350000BF7B0EBC74072EB573203FB0CF734BFFF
:10236000A2EBC742B2EBC74261EB57310CFB0EF751
:10237000B0EBC70072EB57720CFB08F734BFA2EB4F
:10238000C702B2EBC70261EB5771039F4FEA81614D
:1023900041EA921104EBCC044FEAD1374FEA826252
:1023A00006FB07FC42EA90124FEA80604FEA1C4CA1
:1023B0000CFB0BF7D21B03FB0CF761EB07010CFBCB
:1023C0000EF7B0EB074072EB17420CFB08F734BF77
:1023D000A2EB0742B2EB074261EB17414FEA8C5583
:1023E0004FEA910704EB9C2406FB07FC4FEA1C4CC8
:1023F0000CFB0BF7B0EBC74072EB573203FB0CF74B
:1024000034BFA2EBC742B2EBC74261EB57310CFBC2
:102410000EF7B0EBC70072EB57720CFB08F734BF36
:10242000A2EBC702B2EBC70261EB577115EB4C256B
:102430004FEA816141EA92114FEA82624FEAD13755
:1024400042EA901206FB07FC44F100044FEA806068
:102450004FEA1C4C0CFB0BF7D21B03FB0CF761EB98
:1024600007010CFB0EF7B0EB074072EB17420CFBB9
:1024700008F734BFA2EB0742B2EB074261EB17410A
:1024800015EB1C154FEA813141EA92414FEA823245
:1024900042EA90424FEA80304FEA0C7644F1000461
:1024A00048EA03434EEA0B484FF0000EB2EB080C2B
:1024B00071EB030724BF624639464EEB0E0E4FF018
:1024C000000B0018524149414BEB0B0BB2EB080CCF
:1024D00071EB03077BF1000B24BF624639464EEBDC
:1024E0000E0E4FF0000B0018524149414BEB0B0B05
:1024F000B2EB080C71EB03077BF1000B24BF6246C3
:1025000039464EEB0E0E51EA020718BF46F001069F
:1025100016EB0E7655F1000254F1000103D5BDE82B
:102520008901BDE80088BDE88901BDE80048B61909
:10253000524141EB0101A3F10103704780807F7E8E
:102540007D7C7B7A79787776767574737271717029
:102550006F6E6E6D6C6C6B6A6A69686867666665DB
:102560006464636362616160605F5F5E5E5D5D5C69
:102570005C5B5B5A5A5959585857575656555555DA
:102580005454535352525251515050504F4F4F4E3A
:102590004E4D4D4D4C4C4C4B4B4B4A4A4A49494988
:1025A00048484847474747464646454545444444CA
:1025B000444343434342424242414141002B9C46F3
:1025C00030D477002BD01CB54FEA370703B44FF057
:1025D00010004FF01001BAF1000F06D0BCF1000F4F
:1025E000DCBF40F0080040F008014FF000000FBCD5
:1025F000BDE810400BF1010BBBF1010F08BF5FEA12
:10260000170722BF12F1010211F101014FF0004141
:1026100043F1000300F0004043EA00007047F9D3A3
:102620005708D0E746EA064613F1400F4FEA164630
:102630001FDD13F1200FDFBF16430A4600212033B0
:102640005B42BED0C3F1200746EA064602FA07F70E
:102650004FEA164646EA0706C3F1200722FA03F2BC
:1026600001FA07F721FA03F14FF0000342EA0702EB
:10267000A7E746EA020646EA06464FEA164646EA53
:102680000106BCBF46EA0646360C4FF000034FF089
:1026900000024FF0000194E72DE9804C9A469346E2
:1026A00070B491E8380007C831EA400C48BF34EAFA
:1026B000430C03D5FFF7E6FDFFF780FFF0BCBDE854
:1026C000008C2DE9804C9A46934670B491E838000E
:1026D00007C810F0804F08BF13F0804F03D100F0FF
:1026E00005F8FFF76BFFF0BCBDE8008C20F07F47DA
:1026F00080EA030023F07F4C07EB0C03A3F57C5327
:1027000000F00040A3F1FE0392F0000F00F0B38050
:1027100095F0000F00F077802DE901494FEA114054
:102720004FEA144621EA004800FB06FC24EA06476B
:1027300008FB06F607FB08F800FB07F718EB06484E
:102740004CEB164C4FEA124B18EB07484FEA154674
:102750004CEB174022EA0B4E0BFB06FC25EA064722
:102760000EFB06F607FB0EFE0BFB07F71EEB064EF5
:102770004CEB164C4FF000061EEB074E4CEB174B84
:1027800018EB0B0840F1000018EB0E0B58EB00089B
:1027900040F100008F1A4FF000013CBFC943661B97
:1027A00014BFB5EB040C00213CBFC943F61B4FEA34
:1027B00017444EEA8E0E27EA04454FEA1C4704FBF5
:1027C00007622CEA074C05FB07F70CFB05F604FB38
:1027D0000CFC16EB074642EB174216EB0C4642EB9D
:1027E0001C421BEB060658EB0202414146EA9E06DC
:1027F00001D5BDE80189B619524141EB0101A3F1B0
:102800000103BDE801894FEA14454FEA114724EA64
:10281000054621EA074C05FB07F406FB07F70CFB0E
:1028200006F105FB0CFC11EB074144EB17444FEAA2
:10283000124711EB0C4144EB1C4422EA074C05FB08
:1028400007F206FB07F70CFB06F605FB0CFC16EB84
:10285000074642EB174216EB0C4642EB1C456A1842
:1028600054F1000148BF7047B619524141EB0101D4
:10287000A3F10103704795F0000F37D04FEA1142E2
:102880004FEA144721EA024624EA074C02FB07F10B
:1028900006FB07F70CFB06F402FB0CFC14EB0744E9
:1028A00041EB17414FEA154714EB0C4441EB1C4137
:1028B00025EA074C02FB07F506FB07F70CFB06F6BB
:1028C00002FB0CFC16EB074645EB174516EB0C46D6
:1028D00045EB1C42121951F1000148BF7047B6196F
:1028E000524141EB0101A3F1010370474FEA144546
:1028F0004FEA114724EA054621EA074C05FB07F198
:1029000006FB07F70CFB06F24FF0000605FB0CFC7C
:1029100012EB074241EB174112EB0C4251EB1C4109
:1029200048BF7047921841EB0101A3F101037047C2
:1029300070B50546AC6B206C00F0500050BB206CAD
:1029400040F4007020642068806800F04050E8B9CE
:10295000207ED8B92068C06A00F4700020B12068D9
:10296000806800F4806088B92068406820F020000A
:1029700021684860206C20F480702064206C00F492
:10298000805018B9206C40F001002064204601F00E
:1029900019F80BE0206C00F0100018B1204601F08F
:1029A00028F803E0A06BC16C2846884770BD70B55D
:1029B0000546AC6B40202064606C40F0040060640D
:1029C000204601F016F870BD70B50446A56B284688
:1029D00001F00EF870BD000055494A6822F44032FB
:1029E0004A604A6843681A434A600268526822F49F
:1029F000807203685A6002685368026943EA0222DF
:102A000003685A600268526822F0407203685A6094
:102A10000268526883681A4303685A6002689268C1
:102A200022F4006203689A6002689268C3681A43DD
:102A300003689A603F4B826A9A4218D00268926893
:102A400022F0706203689A6002689268836A1A438F
:102A500003689A600268926822F0405203689A60A4
:102A600002689268C36A1A4303689A600BE00268BE
:102A7000926822F0706203689A600268926822F09D
:102A8000405203689A600268926822F0020203686A
:102A90009A6002689368027E43EA420203689A6081
:102AA0002022125CA2B10268526842F400620368FC
:102AB0005A600268526822F4604203685A600268F1
:102AC0005368426A521E43EA423203685A6005E084
:102AD0000268526822F4006203685A600268D26A8F
:102AE00022F470020368DA620268D36A828B521E93
:102AF00043EA02520368DA620268926822F40072C2
:102B000003689A600268936890F8302043EA422292
:102B100003689A600268926822F4806203689A608F
:102B200002689368426943EA822203689A607047A8
:102B3000002301400100000F70B5044614B94FF0A6
:102B4000FF3070BD02F0C2FA051900200A49086082
:102B50000CE00CF021FE084800680849096888422A
:102B600002D14FF0FF30ECE70DF03CF802F0AEFA86
:102B7000A842EED30020E4E7C8050020CC050020E1
:102B800000BFFEE710B5024801F0A2FA10BD000038
:102B9000340F002010B5024801F09AFA10BD000071
:102BA000340F002010B5024801F092FA10BD000069
:102BB000340F002010B5024801F08AFA10BD000061
:102BC000340F0020042812DD0A4A202802D02128D0
:102BD0000DD106E00868506088881081887990726D
:102BE00005E05068086010898880907A887100201C
:102BF00070470000F408002010B5034C20680CF06A
:102C00005AFF2060002010BDF408002010B50022FB
:102C10000A490B4807F04EFF0A49094807F044FFEC
:102C20004FF4006001460CF059FF0749002307A24A
:102C3000086009480CF0AAFF002010BD587F002052
:102C4000BC74002058770020F4080020434443203F
:102C5000706F6C6C000000005D2C000870B5104CAB
:102C600005460068D4F89012002817D0D1F8141245
:102C700049B9406840220B490CF0C1FE18B181B23D
:102C8000084800F029F894F87402042805D194F853
:102C90007502032801D100202860284670BD00007D
:102CA000BC740020587F002070B50C4605460146D4
:102CB000074807F0F9FE064807F0DAFE0548006805
:102CC00020B12268006829460CF0B5FE002070BDD6
:102CD000BC740020F4080020094A10B5D2F89022F4
:102CE000D2F814220AB1012010BD0A460146044858
:102CF00007F0E0FEBDE81040014807F039BF0000D2
:102D0000BC74002010B5024801F074FD10BD000035
:102D10005C14002010B5024801F06CFD10BD0000ED
:102D20003C13002010B5024801F064FD10BD000006
:102D30009C13002010B5024801F05CFD10BD00009E
:102D4000DC12002010B5024801F054FD10BD000057
:102D5000FC13002010B5024801F04CFD10BD00002E
:102D60007C12002010B5024801F044FD10BD0000A7
:102D70001C12002010B5024801F03CFD10BD0000FF
:102D8000D40E002010B5024801F034FD10BD000043
:102D9000FC10002010B5024801F02CFD10BD000011
:102DA0005C11002010B5024801F024FD10BD0000A8
:102DB000BC14002010B5024801F01CFD10BD00003D
:102DC0001C15002010B5024801F014FD10BD0000D4
:102DD000BC11002010B5024801F00CFD10BD000030
:102DE0007C1500200146087810381823B0FBF3F258
:102DF0000848805CC865032A05D908686FF3090094
:102E0000001D886503E008686FF309008865886D18
:102E100070470000D84D0108014600208A6A8B697E
:102E2000CBB932B1012A0DD0022A03D0032A10D126
:102E30000EE000BFCB6A03F08073B3F1807F00D156
:102E4000012007E0CB6AB3F1C07F00D1012001E08F
:102E500000E000BF34E08B69B3F5005F1AD132B1F6
:102E6000012A07D0022A03D0032A11D10AE000BFA9
:102E700001200EE0CB6A03F08073B3F1807F00D1B4
:102E8000012006E0CB6AB3F1C07F00D1012000E051
:102E900000BF15E032B1012A05D0022A04D0032A6E
:102EA0000CD103E000BF00BF012008E0CB6A03F0B3
:102EB0008073B3F1807F00D1012000E000BF00BF2C
:102EC000704730B50468246824F4802405682C60B9
:102ED000046863608468402C04D10468A2600468BC
:102EE000E16003E00468A1600468E26030BD01466F
:102EF000002200BF05E0002301F5617040F8223098
:102F0000521C0F2AF7D3002204E0002301F58E7033
:102F10008354521CB2F5007FF7D30020087048702C
:102F2000012088700020C1F8C40301230B764023E0
:102F30008B7100234B7681F81C33012381F81D33FC
:102F4000002381F81F3381F81E337047704700005B
:102F50002DE9F04104460D468DB32A48006820B99A
:102F600002F0B4F8143027490860002124E0002062
:102F70001FE06A5C012383401A40CAB104EB44039A
:102F8000DA00D31702EB537301EBE3060123B340DE
:102F900000EB001606EB46061B4F07EB860676682D
:102FA000334300EB001606EB460607EB860673601C
:102FB000401C0628DDDB491C0329D8DB20E0FFE7A5
:102FC00004EB4400C600F11706EB9171881005224E
:102FD000002111F0D5FA002610E002F077F800F594
:102FE0007A7004EB4401CF00F91707EB917106EBFF
:102FF000A10205490C3141F82200761C062EECDBBB
:10300000BDE8F0815005002088000020F1B5ADF545
:10301000387D0024B89840B9802101A80EF0A8FAA4
:1030200001A987A00CF08CFD08E1B89800783D2834
:103030007ED00CDC302813D004DC2B2879D02D284E
:1030400078D1BAE0312817D03C28F9D143E03E28A6
:1030500079D046281CD049282CD05028F0D11FE028
:10306000012279A121A80EF047FF04461CB976A0E1
:103070000EF016FA0446E0E0012275A121A80EF038
:103080003BFF04461CB972A00EF00AFA0446D4E0D5
:103090006DA00FF077FD04460CB907F04FF8CCE0B7
:1030A0004FF0FF300FF08EFD054629466AA0FDF770
:1030B00051FAC2E009F020F830B102F007F800F54B
:1030C0007A706749486005E002F000F800F57A7010
:1030D00063490860B1E0B899491C08461022B891CC
:1030E000B8A9FDF707FCAF9000BF02E0B898401CFC
:1030F000B890B89800782028F8D00020B3900BE062
:103100001022B8A9B898FDF7F5FBC1B2B6A8B39ADA
:103110008154B398401CB390B898007810B1B3981C
:103120000828EDD34F49096824220868AFA903E0B5
:103130004AE039E04FE006E00CF07DFCB8980078FA
:103140000028D2D179E0B899491C08461022B891DC
:10315000B8A9FDF7CFFBAF9000BF02E0B898401CC4
:10316000B890B89800782028F8D00020B3900BE0F1
:103170001022B8A9B898FDF7BDFBC1B2B6A8B39AA2
:103180008154B398401CB390B898007810B1B398AC
:103190000828EDD3B6A9B39AAF9806F0FFFFB89808
:1031A00000780028D9D148E0B899491C0846B89160
:1031B00000F0A0F80DF5397DF0BDB899491C08461E
:1031C000B89100F059F8F5E7B899491C0846B8914C
:1031D00000F04EF8EEE7002523A1B898FDF7C6FBF6
:1031E00019A941F8250008E01FA10020FDF7BEFB4A
:1031F000691C0D4619AA42F8210019A850F82500AB
:103200000028F1D1002614E01998FDF7BFFB07460E
:10321000164A52F836103A461998FDF7D6FB38B9D7
:10322000124800EBC60019A9426828469047C1E73A
:10323000761C092EE8D3062400BF00BF2046B9E75C
:103240000D0A25733E000000464C4153483A0000E9
:103250005553423A000000002E2E2E256400000037
:10326000DC0500209C050020202C000054050020D7
:10327000014600207047000001B5684610F0ABFF22
:103280000078442802D0742829D11BE0202100981E
:10329000FDF772FB00900EE00099491C08460A22D7
:1032A00000916946FDF726FB012181400E48006828
:1032B00088430D490860009818B1009800780028EC
:1032C000EAD10EE00122D103084801F0F9FE01F035
:1032D000FDFEC8300649086006F030FF01E0062018
:1032E00008BD00BF0020FBE7C0050020000402402D
:1032F000DC05002001B5684610F06DFF0078442819
:1033000002D074282FD120E020210098FDF734FB53
:1033100000900FE00099491C08460A220091694676
:10332000FDF7E8FA012101FA00F0114909680843A4
:103330000F490860009818B1009800780028E9D17A
:103340000C4800680C4908600FE000224FF400416F
:103350000A4801F0B5FE01F0B9FEC83008494860DE
:1033600006F0ECFE01E0062008BD00BF0020FBE7F0
:10337000C005002074000020A005002000040240C9
:10338000DC05002070B5D4B005460E460024012DA2
:1033900007DD19A2694646A873680EF0A7F804462F
:1033A00006E016A314A2694646A80EF09FF804464C
:1033B000FCB900BF0DF1160111A00CF0C1FB9DF886
:1033C000080000F0100020B10FA110A00CF0B8FB15
:1033D00003E010A000990CF0B3FB694646A80EF07C
:1033E0009AF8044604B103E09DF816000028E1D1E4
:1033F00000BF204654B070BD000000002A0000004D
:103400000D0A252D313673002F000000252D38734D
:1034100000000000252D3864000000007047000007
:1034200010B52548FDF79FFA044623480068406917
:1034300030B908210120FCF791FF1F490968486154
:103440001B2C0BD11C4800684069046001F03EFE53
:103450000A3019490968496948602AE0601CB0B916
:10346000154800684069406800B301F02FFE12491A
:1034700009684969496888421BD900200E490968D2
:10348000496948600C4800684069006810BD0A48F6
:1034900000684069406850B10748006840690068AA
:1034A00044EA0020044909684969086001E02046AF
:1034B000ECE74FF0FF30E9E77800002030B5044634
:1034C0000D4600222946204600F002F830BD0000DB
:1034D000F0B50346012500241148807B02281CDA40
:1034E00000200F4EB67B0E4FB8553846867B001D28
:1034F00040F82630001F867B0C3082553E46B07B5C
:10350000461CBE73044604F1300008703A2048702F
:103510002F2088700020C87000252846F0BD0000CC
:10352000C81C002070B586B004460D4601F0F4FBBF
:10353000002001900220059003940495694601A89B
:1035400001F03EFB064601F091FB304606B070BD2F
:1035500010B5002201B909E0012901D10A0205E0F4
:10356000022901D10A0201E04FF440720E4B1B68A0
:1035700023F440730C4C236023461B6813432360E1
:1035800023461B6823F0F803236023461B680224AC
:1035900044EAC0042343044C236023461B6843F4DD
:1035A0008033236010BD0000103C02401C480068BE
:1035B00000F40070B0B11A48006820F40070184997
:1035C000086000BF0846006840F4006008600846D4
:1035D000006820F40060086000BF0846006840F4FE
:1035E000007008600E48006800F48060B0B10C48BC
:1035F000006820F480600A49086000BF084600683F
:1036000040F4805008600846006820F4805008604C
:1036100000BF0846006840F4806008607047000002
:10362000003C02400A4A126822F44072084B1A60B9
:103630001A46126842F004021A601A4612684FF4E1
:10364000803343EA00231A43014B1A60704700009D
:10365000103C024070B505460C46F2200A4908604D
:103660002868A0420DD001F057FB00BF224600237E
:103670002946022001F004FB0646022EF6D001F096
:10368000F5FA304670BD00000C3C0240074A126853
:1036900022F44072054B1A601A4612681A601A46E4
:1036A000126842F001021A6001707047103C02403B
:1036B00010B50D49096821F440710B4C2160214679
:1036C000096841F4407121602146096841F0010117
:1036D0002160026000BF00BF00BFBFF36F8F00BF5B
:1036E00000BF00BF436010BD103C0240084A126892
:1036F00022F44072064B1A601A46126842F4807235
:103700001A601A46126842F001021A60018070477E
:10371000103C0240084A126822F44072064B1A60BC
:103720001A46126842F400721A601A46126842F091
:1037300001021A6001607047103C02402348006893
:1037400000F0100040B12248C06940F0100020494C
:10375000C86110201D4908601C48006800F0200066
:1037600040B11B48C06940F008001949C8612020D9
:10377000164908601548006800F0400040B1144840
:10378000C06940F004001249C86140200F49086038
:103790000E48006800F0800040B10D48C06940F05C
:1037A00002000B49C861802008490860074800688A
:1037B00000F0020040B10648C06940F02000044912
:1037C000C861022001490860704700000C3C0240BB
:1037D000781C002070B50446002500201449C861FB
:1037E00001F074FC054609E0601C38B124B101F019
:1037F0006DFC401BA04201D9032070BD0D4800683C
:1038000000F480300028EFD10A48006800F0010081
:1038100010B10120074908600648006800F0F20076
:1038200018B1FFF78BFF0120E7E70020E5E7000074
:10383000781C00200C3C024038B502460020009065
:1038400000BF92F83C00012801D1022038BD0120C0
:1038500082F83C0000BF0868092816D91068C068C3
:103860000C780A3C04EB44050724AC40A0431468E0
:10387000E0600C780A3C04EB44048868A0401468BB
:10388000E46820431468E06013E0106800690C7875
:1038900004EB44050724AC40A043146820610C7875
:1038A00004EB44048868A040146824692043146829
:1038B00020614868072817D21068406B0C79641E95
:1038C00004EB84051F24AC40A0431468606308889F
:1038D00080B20C79641E04EB8404A0401468646B0D
:1038E00020431468606331E048680D2817D21068DF
:1038F000006B0C79E41F04EB84051F24AC40A0434B
:1039000014682063088880B20C79E41F04EB8404F7
:10391000A0401468246B20431468206316E01068EC
:10392000C06A0C790D3C04EB84051F24AC40A04315
:103930001468E062088880B20C790D3C04EB8404C2
:10394000A0401468E46A20431468E062194B1A4CE2
:103950001068A04206D10868122803D1586840F4C4
:1039600080005860144C1068A0421CD108681028D0
:1039700002D00868112816D1586840F40000586039
:10398000086810280FD10D4800680D4CB0FBF4F00A
:1039900000EB80004000009002E00098401E009084
:1039A00000980028F9D100BF002082F83C0000BF39
:1039B00000BF4BE7002301400020014040000020F1
:1039C00040420F0030B504460021002200230020B1
:1039D00009E0064D2D882944044D6D882A44034D85
:1039E000AD882B44401C8028F3D330BD8C0B0020C5
:1039F0007047704770B5044600250CB9012070BDB2
:103A00001549A06A884200D000BF206C30B920461A
:103A100000F024F80020606484F83C00206C00F082
:103A2000100088B9206C20F4885040F00200206417
:103A30002046FEF7D1FF00206064206C20F00200D9
:103A400040F00100206400E0012500BF002084F860
:103A50003C0000BF2846D2E70100000F10B586B039
:103A60000446142101A8FDF794F82B4920688842E8
:103A70004FD100BF002000902848006840F48070BB
:103A8000264908600846006800F48070009000BF76
:103A900000BF00BF0020009020481438006840F0AC
:103AA00004001E49143908600846006800F004004C
:103AB000009000BF00BF03200190029000200390FF
:103AC00001A9174801F0F4F91648174908600020C9
:103AD0004860002114488160C1604FF48061016139
:103AE00049004161890081614911C1610021016280
:103AF00004214162032181620021C162016300F05F
:103B000099FF08B1FFF78AFC00BF0748A0638463F0
:103B100000BF06B010BD0000002001404438024044
:103B20000008024010640240D40E0020F8B504469C
:103B30000D4616460020009000BF94F83C00012876
:103B400001D10220F8BD012084F83C0000BF2068AC
:103B5000806800F00100A0B92068806840F0010092
:103B600021688860494800684949B0FBF1F000EBE2
:103B70004000009002E00098401E0090009800284D
:103B8000F9D12068806800F0010000287CD0206C0A
:103B900040F20161884340F48070206420684068EE
:103BA00000F4806028B1206C20F4005040F4805074
:103BB0002064206C00F48050B0F5805F04D1606C0C
:103BC00020F00600606401E00020606400BF002077
:103BD00084F83C0000BF2F4F2F48A16BC8632F48CB
:103BE000A16B08642E48A16BC8646FF022002168A5
:103BF00008602068406840F0806021684860206864
:103C0000806840F4807021688860226802F14C016D
:103C100033462A46A06B00F083FF786800F01F004F
:103C200018BB20492068884213D01F492068884269
:103C300004D1381D006800F01F0050B11B492068F6
:103C4000884221D11348001D006800F01F00102891
:103C50001AD22068806800F0405028B92068806837
:103C600040F08040216888600EE00E49206888425C
:103C70000AD12068806800F0405028B92068806828
:103C800040F080402168886000205BE74000002011
:103C900040420F000023014031290008C9290008D3
:103CA000AF2900080020014000210140002201400E
:103CB00010B5024692F82030012B01D0022B06D11C
:103CC00010684069084314686061002010BD506AA4
:103CD00040F4802050620120F8E7F0B504460D461C
:103CE0001E4694F8207020688368A86800B900E038
:103CF00000BF012F01D0022F7CD103F0806030B9CA
:103D000003F0006018B903F08050002873D0C3F3AB
:103D10000161022905D9606A40F400006062012057
:103D2000F0BD012088403060A86860B9B5F800C0D7
:103D3000E86840EA4C5C206800F5C07000EB0110B8
:103D4000C0F800C00FE0D5E901C040EACC00D5F8CA
:103D50000CC040EA0C00D4F800C00CF5C07C0CEBA1
:103D6000011CCCF80000D5F810C0206800F5C07028
:103D700000EB0110C0F804C0287D01280ED1206896
:103D800000F5C07000EB0110406840F4807C2068B2
:103D900000F5C07000EB0110C0F804C0D079000637
:103DA00092F806C040EA0C4092F805C040EA0C2C9C
:103DB00010794CEA000C206800F5C07000EB01108F
:103DC000C0F80CC0D078000692F802C040EA0C405F
:103DD00092F801C040EA0C2092F800C040EA0C00C2
:103DE000D4F800C00CF5C07C0CEB011CCCF808002A
:103DF000206801E016E00FE000F5C07000EB011054
:103E0000006840F0010C206800F5C07000EB011064
:103E1000C0F800C0002083E7606A40F400106062D0
:103E200001207DE7606A40F480206062012077E72E
:103E3000F0B504460A46216894F82050012D01D0BF
:103E4000022D7ED1424901F50071086840F0010061
:103E50000860086820F47C5008600868566A40EAE8
:103E600006200860107D00F01F06012000FA06F30E
:103E7000C8699843C861A1F50071D069C8B9D1F883
:103E80000C029843C1F80C02908880B2968940EAEF
:103E9000064601F51070576940F83760108880B207
:103EA000168940EA064601F51070576900EBC70015
:103EB0004660D069012819D1D1F80C021843C1F825
:103EC0000C02908880B2168840EA064601F5107010
:103ED000576940F83760908980B2168940EA0646F3
:103EE00001F51070576900EBC7004660906928B96A
:103EF000D1F804029843C1F8040204E0D1F80402A6
:103F00001843C1F80402106928B9D1F81402984383
:103F1000C1F8140204E0D1F814021843C1F81402E5
:103F2000106A012804D1D1F81C021843C1F81C0200
:103F3000D1F8000220F00100C1F800020020F0BD1D
:103F4000FFE7606A40F4802060620120F7E700002C
:103F500000640040704770B5044694F82050012D6D
:103F600001D0022D7DD151B92068C06800F0030056
:103F700080B9606A40F400106062012070BD206862
:103F8000006900F0030028B9606A40F40010606224
:103F90000120F3E7206800F5D87000EB01100068FD
:103FA00000F004009060906840B9206800F5D87077
:103FB00000EB01100068400D106007E0206800F57C
:103FC000D87000EB01100068C0085060206800F550
:103FD000D87000EB0110006800F00200D06020688B
:103FE00000F5D87000EB0110406800F00F00106180
:103FF000206800F5D87000EB0110406800F47F40A5
:10400000000A9061206800F5D87000EB011040684C
:10401000000C5061206800F5D87000EB011080683A
:104020001870206800F5D87000EB0110806800F46B
:104030007F40000A5870206800F5D87000EB01102E
:10404000806800F47F00000C9870206800F5D8703C
:1040500000EB01108068000ED870206800F5D87061
:1040600000E02FE000EB0110C0681871206800F537
:10407000D87000EB0110C06800F47F40000A58714E
:10408000206800F5D87000EB0110C06800F47F00D4
:10409000000C9871206800F5D87000EB0110C06822
:1040A000000ED87131B92068C06840F02000266841
:1040B000F06005E02068006940F02000266830616B
:1040C00000205BE7606A40F480206062012055E7D1
:1040D0002DE9F05F04460025206846692068D0F885
:1040E0000490206887682068D0F80CA02068D0F879
:1040F00010B02068D0F8188006F00100002855D0D4
:1041000007F00100C0B101202168886007F00200BB
:1041100018B1204600F080FA0EE007F0040010B15C
:1041200045F4006508E007F0080010B145F480553B
:1041300002E0204600F06FFA07F48070C8B14FF437
:1041400080702168886007F4007018B1204600F084
:104150006AFA0EE007F4806010B145F4005508E0FB
:1041600007F4006010B145F4804502E0204600F0FD
:1041700059FA07F48030C8B14FF480302168886064
:1041800007F4003018B1204600F054FA0EE007F4AE
:10419000802010B145F4004508E007F4002010B17C
:1041A00045F4803502E0204600F043FA06F00800AE
:1041B00038B10AF0100020B145F4007510202168D4
:1041C000C86006F0040040B10AF0080028B10820D9
:1041D0002168C860204600F0D1F906F0020038B12D
:1041E0002068C06800F0030010B1204600F0C8F954
:1041F00006F0400038B10BF0100020B145F48065A6
:1042000010202168086106F0200040B10BF0080082
:1042100028B1082021680861204600F0C5F906F0A1
:10422000100038B12068006900F0030010B120468A
:1042300000F0BBF906F4003040B109F0100028B1DD
:10424000102021684860204600F0B5F906F480305F
:1042500040B109F0080028B10820216848602046D4
:1042600000F000FA06F4004088B309F0040078B3C7
:1042700006F4807020B108F0010008B145F0010596
:1042800006F4007020B108F0020008B145F0020504
:1042900006F4806020B108F0040008B145F0040580
:1042A00006F40060A0B108F0700088B108F070005A
:1042B000402817D006DC10280BD020280CD030283E
:1042C00019D10CE0502810D0602814D110E01DE066
:1042D00019E045F008050FE045F010050CE045F049
:1042E000200509E045F0400506E045F0800503E0C3
:1042F00045F4807500E000BF00BF2068806920F0B1
:104300007000216888610420216848602DB1606ACE
:10431000284360622046FFF71DFEBDE8F09F70B5A0
:1043200004460CB9012070BD94F8200010B9204655
:1043300000F0B0F82068006820F0020021680860F2
:1043400000F0C4FE05460DE000F0C0FE401B0A2848
:1043500008D9606A40F400306062052084F82000CB
:104360000120E0E72068406800F002000028EBD15F
:104370002068006840F001002168086000F0A6FE97
:1043800005460DE000F0A2FE401B0A2808D9606A2D
:1043900040F400306062052084F820000120C2E76C
:1043A0002068406800F001000028EBD0207E012842
:1043B00006D12068006840F080002168086005E0B0
:1043C0002068006820F0800021680860607E012875
:1043D00006D12068006840F040002168086005E0D0
:1043E0002068006820F0400021680860A07E012855
:1043F00006D12068006840F020002168086005E0D0
:104400002068006820F0200021680860E07E012814
:1044100006D12068006820F010002168086005E0DF
:104420002068006840F0100021680860207F0128A3
:1044300006D12068006840F008002168086005E0A7
:104440002068006820F0080021680860607F01286B
:1044500006D12068006840F004002168086005E08B
:104460002068006820F0040021680860D4E9020197
:10447000084321690843616908436168491E08438C
:104480002168C86100206062012084F820000020BB
:1044900049E7000010B586B00446142101A8FCF7D6
:1044A00078FB3349206888425FD100BF002000902C
:1044B0003048006840F080602E4908600846006877
:1044C00000F08060009000BF00BF00BF002000909F
:1044D0000846006840F0007008600846006800F078
:1044E0000070009000BF00BF00BF00200090214876
:1044F0001038006840F002001E4910390860084674
:10450000006800F00200009000BF00BF4FF4405070
:1045100001900220029001200390032004900920C2
:10452000059001A9144800F0C3FC002203213F209C
:1045300001F006FA3F2001F0F3F9002203214020A8
:1045400001F0FEF9402001F0EBF9002203214120A7
:1045500001F0F6F9412001F0E3F9002203214220A5
:1045600001F0EEF9422001F0DBF906B010BD0000C9
:1045700000680040403802400004024070470000DC
:1045800010B58AB0044608AB01AA00212046FFF707
:10459000E2FC044909682422086801A90BF04BFADF
:1045A0000AB010BD9C050020704710B50446204697
:1045B000FFF7E6FF10BD704770B5044694F8200081
:1045C000012822D1022084F820002068006820F011
:1045D00001002168086000F079FD05460DE000F05B
:1045E00075FD401B0A2808D9606A40F400306062FB
:1045F000052084F82000012070BD2068406800F08C
:1046000001000028EBD16062F6E7606A40F4002008
:1046100060620120F0E7704710B50446204600F0C4
:1046200009F810BD704710B50446204600F002F8A6
:1046300010BD704710B58AB00446084909682022A9
:10464000486802A90BF0DBF928B101AB08AA02A95E
:104650000348FFF742FB0AB010BD00009C05002094
:10466000340F0020704770B503460C460020022529
:104670005D711D68AD6845F001051E68B5600021DB
:1046800004E054F821501E683560491C9142F8D36B
:104690001D68286801255D7170BD10B504460CB910
:1046A000012010BD607920B900202071204600F063
:1046B00005F8012060710020F3E7000008B50A4A00
:1046C000016891420FD100BF00210091074909689C
:1046D00041F48051054A11601146096801F4805186
:1046E000009100BF00BF08BD0030024030380240DA
:1046F00070B503460024002500BF5879012801D178
:10470000022070BD0120587100BF02201871186886
:10471000046840F6FE7090408443D1E9000640EA08
:10472000060505FA02F00443186804601868066874
:10473000C02090408643186806600120187100BFB1
:104740000020587100BF00BFDBE710B504460CB96C
:10475000012010BD207920B900206071204600F0B2
:1047600009F8022020710020206101202071002022
:10477000EFE7000010B586B00446142101A8FCF74D
:1047800008FA1949206888422BD100BF0020009008
:104790001648006840F00050144908600846006858
:1047A00000F00050009000BF00BF00BF002000904C
:1047B0000E481038006840F001000C4910390860BC
:1047C0000846006800F00100009000BF00BF3020E4
:1047D0000190032002900020039001A9044800F0FA
:1047E00067FB06B010BD0000007400404038024076
:1047F00000000240F8B50446002000908C48006894
:104800004FF41651B0FBF1F7A56D2E6894F85C10CB
:1048100008208840304098B12068006800F004000B
:1048200070B12068006820F004002168086094F8E6
:104830005C1008208840A860606D40F00100606551
:1048400094F85C1001208840304068B120684069CD
:1048500000F0800040B194F85C1001208840A8600E
:10486000606D40F00200606594F85C1004208840A0
:10487000304068B12068006800F0020040B194F850
:104880005C1004208840A860606D40F00400606502
:1048900094F85C1010208840304078B3206800689D
:1048A00000F0080050B394F85C1010208840A86015
:1048B0002068006800F4802080B12068006800F45F
:1048C000002028B9206CC8B12046216C884715E02B
:1048D000A06C98B12046A16C88470FE02068006862
:1048E00000F4807028B92068006820F00800216872
:1048F0000860206C10B12046216C884794F85C1049
:10490000202088403040002865D02068006800F0F2
:10491000100000285FD094F85C1020208840A86028
:1049200094F83500052828D12068006820F016008A
:10493000216808602068406920F080002168486193
:10494000206C08B9A06C28B12068006820F008002D
:104950002168086094F85C103F208840A86000BF80
:10496000002084F8340000BF012084F83500206D59
:1049700010B12046216D8847F8BD2068006800F41A
:10498000802080B12068006800F4002028B9606CA5
:1049900010B12046616C88471DE0E06BD8B120461D
:1049A000E16B884717E02068006800F4807068B900
:1049B0002068006820F010002168086000BF002017
:1049C00084F8340000BF012084F83500E06B10B19A
:1049D0002046E16B8847606D38B3606D00F00100E0
:1049E000F0B1052084F835002068006820F001004F
:1049F0002168086000BF0098401C0090B84200D9B0
:104A000005E02068006800F001000028F3D100BF35
:104A100000BF002084F8340000BF012084F8350076
:104A2000E06C10B12046E16C884700BFA4E70000AD
:104A3000400000202DE9F0410446002500F046FB2F
:104A4000074614B90120BDE8F081606A00B100BFDB
:104A500000BF002084F8340000BF022084F8350035
:104A60002068006820F00100216808600AE000F07A
:104A70002DFBC01B052805D920206065032084F884
:104A80003500E0E72068006800F001000028EED162
:104A90002068056821480540D4E901010843E16820
:104AA00008432169084361690843A1690843E16932
:104AB0000843216A08430543606A042803D1D4E906
:104AC0000B0108430543206805602068456925F00F
:104AD0000705606A0543606A04280DD1A06A054392
:104AE000E06A48B12046FEF797F928B1402060659A
:104AF000012084F83500A6E7206845612046FEF7CE
:104B000071F9064694F85C103F208840B0600020A0
:104B10006065012084F83500002094E73F8010F0A4
:104B20002DE9F04704460D4616461F464FF0000893
:104B3000D4F8589000BF94F83400012802D1022024
:104B4000BDE8F087012084F8340000BF94F83500F8
:104B5000012825D1022084F83500002060653B46FD
:104B6000324629462046FEF7ACF994F85C103F2007
:104B70008840C9F808002068006840F016002168E5
:104B80000860206C28B12068006840F008002168A7
:104B900008602068006840F001002168086006E0B5
:104BA00000BF002084F8340000BF4FF002084046E8
:104BB000C6E710B5044620460BF04EF810BD0000C5
:104BC0002DE9F04104460E460127002500BF254887
:104BD000007E012802D10220BDE8F0810120214998
:104BE000087600BF4CF25030FEF7F4FD0746002F68
:104BF00031D1401E3060206801280FD1207C6168CF
:104C0000FEF710FD4CF25030FEF7E4FD0746164863
:104C1000006820F00400144908601AE0A56812E05A
:104C2000217C2846FEF794FC4CF25030FEF7D2FD72
:104C300007460D48006820F0FA000B4908600FB1E4
:104C4000356005E06D1CD4E902100844A842E7D89D
:104C500000BFFEF7ABFC00BF00200249087600BF92
:104C60003846B9E7781C0020103C02400348006831
:104C700040F000400149086000207047103C0240AD
:104C80002DE9F04106460F4614461D464FF0010837
:104C900000BF1F48007E012802D10220BDE8F0813C
:104CA00001201B49087600BF4CF25030FEF792FD00
:104CB0008046B8F1000F23D126B9E1B23846FEF79D
:104CC000E5FC12E0012E04D1A1B23846FEF70EFD3C
:104CD0000BE0022E04D121463846FEF71BFD04E00E
:104CE00022462B463846FEF7E3FC4CF25030FEF7E6
:104CF00071FD80460748006820F001000549086002
:104D000000BF00200249087600BF4046C6E7000009
:104D1000781C0020103C024000200949096801F07D
:104D2000004159B10749064A0C3A11600649116021
:104D30000349096801F0004101B1012070470000FA
:104D4000103C024023016745AB89EFCDF0B50C461E
:104D5000002500220023002192E0012606FA01F539
:104D600004EA0502AA427DD1474E8F0856F8273043
:104D70008E07370F0F26BE403340444EB04201D15C
:104D8000002623E0424EB04201D101261EE0414EF2
:104D9000B04201D1022619E03F4EB04201D10326B4
:104DA00014E03E4EB04201D104260FE03C4EB0422A
:104DB00001D105260AE03B4EB04201D1062605E0AE
:104DC000394EB04201D1072600E008268F073F0F79
:104DD000BE409E4222D1354E36689643334F3E60E8
:104DE0003E1D366896433F1D3E603E1D3668964325
:104DF0003F1D3E603E1D366896433F1D3E608E0758
:104E0000370F0F2606FA07F31F4E8F0856F8276054
:104E10009E431D4F4FEA910C47F82C6006684FEAFD
:104E2000410C032707FA0CF7BE430660CF0800F1D8
:104E3000200656F827604F074FEAD76C0F2707FA6E
:104E40000CF7BE434FEAD10C00F1200747F82C6065
:104E5000C6684FEA410C032707FA0CF7BE43C66049
:104E6000466800E00BE001278F40BE43466086683D
:104E70004FEA410C032707FA0CF7BE438660491C32
:104E80001029FFF46AAFF0BD08380140000002406D
:104E90000004024000080240000C024000100240E2
:104EA0000014024000180240001C0240003C014077
:104EB000F8B502460B460025002400200021DCE066
:104EC000012606FA01F51E6806EA0504AC4273D114
:104ED0005E68012E08D05E68022E05D05E68112E35
:104EE00002D05E68122E13D190684F000326BE4098
:104EF000B0434F00DE68BE403043906050680126EA
:104F00008E40B0431E79C6F300168E403043506089
:104F1000D0684F000326BE40B0434F009E68BE409D
:104F20003043D0605E68022E02D05E68122E13D12C
:104F3000CF0802F1200656F827004E07F70E0F267D
:104F4000BE40B0434F07FF0E1E69BE403043CF083E
:104F500002F1200646F8270010684F000326BE40E5
:104F6000B0431E7906F003064F00BE403043106088
:104F70005E6806F08056B6F1805F7DD100BF0026E6
:104F80000096404E366846F480463E4F3E603E46B0
:104F9000366806F48046009600BF00BF3A4E8F0880
:104FA00056F827008E07370F0F26BE40B043374E06
:104FB000B24202D1002624E05EE0354EB24201D179
:104FC00001261EE0334EB24201D1022619E0324ED4
:104FD000B24201D1032614E0304EB24201D1042680
:104FE0000FE02F4EB24201D105260AE02D4EB2420B
:104FF00001D1062605E02C4EB24201D1072600E081
:1050000008268F073F0FBE4030431F4E8F0846F8DB
:105010002700264E3068A0435E6806F48036B6F559
:10502000803F00D12043214E3060361D3068A043C0
:105030005E6806F40036B6F5003F00D120431B4EF3
:10504000361D3060361D3068A0435E6806F4801659
:10505000B6F5801F00D12043144E08363060361D4F
:105060003068A0435E6806F40016B6F5001F00D154
:1050700020430E4E0C363060491C1029FFF420AF3F
:10508000F8BD0000443802400838014000000240EA
:105090000004024000080240000C024000100240E0
:1050A0000014024000180240001C0240003C014075
:1050B000024613690B400BB1012000E0002070474D
:1050C0000AB1816101E00B04836170470148006807
:1050D000704700003400002010B50446D4F8C00228
:1050E00007F0FDF810BD10B50446D4F8C00207F073
:1050F00001F910BD10B50446206809F043FD10BD4C
:1051000010B50446206809F057FD10BD024601EBBA
:10511000810302F1380000EBC30090F824007047CF
:10512000024601EB810302F1380000EBC300406945
:10513000704770B504460D46002600BF94F8B802CB
:10514000012801D1022070BD012084F8B80200BFFF
:105150002946206809F041FD00BF002084F8B8020C
:1051600000BF3046EFE72DE9FE4F04460D461646D8
:105170001F46DDE90D9ADDF8308000BF94F8B802D3
:10518000012802D10220BDE8FE8F012084F8B80278
:1051900000BF002105EB850204F1380000EBC200DE
:1051A000417105EB850104F1380000F8317005EB21
:1051B000850100EBC100A0F808A005EB850104F112
:1051C000380000EBC100457005EB850104F13800A3
:1051D00000EBC10080F8079006F07F0105EB850227
:1051E00004F1380000EBC200817006F080008028D6
:1051F00008D1012105EB850204F1380000EBC20063
:10520000C17007E0002105EB850204F1380000EBD6
:10521000C200C17005EB850104F1380000EBC1004C
:1052200080F804808DE800073B4632462946206816
:1052300009F08EFD834600BF002084F8B80200BF4D
:105240005846A0E770472DE9F05F04460D46164624
:105250001F46DDE90C9BDDE90A8A05EB850104F1B7
:10526000380000EBC100C67005EB850104F1380081
:1052700000EBC100C771B8F1000F10D1032105EB9D
:10528000850204F1380000EBC200817205EB850154
:1052900004F1380000EBC10080F805B007E00221FE
:1052A00005EB850204F1380000EBC200817237B1D2
:1052B000012F74D0022F2BD0032F71D15DE0B8F1F4
:1052C000010F24D11EBBB9F1000F07D1012105EB5D
:1052D000850204F1380000EBC200417605EB850140
:1052E00004F1380000EBC100407E40B9002105EB1D
:1052F000850204F1380000EBC200817207E0022150
:1053000005EB850204F1380000EBC200817275E004
:10531000CEB905EB850104F1380000EBC100407EF9
:1053200040B9002105EB850204F1380000EBC20012
:10533000817221E0022105EB850204F1380000EBC7
:10534000C200817218E005EB850104F1380000EB22
:10535000C100007E40B9002105EB850204F1380050
:1053600000EBC200817207E0022105EB850204F127
:10537000380000EBC200817240E0DEB905EB850128
:1053800004F1380000EBC100407E50B9002105EB6C
:10539000850204F1380000EBC200817223E023E0B3
:1053A0002BE0022105EB850204F1380000EBC2007E
:1053B000817218E005EB850104F1380000EBC100B3
:1053C000007E40B9002105EB850204F1380000EBB6
:1053D000C200817207E0022105EB850204F138006A
:1053E00000EBC200817209E0002105EB850204F1A7
:1053F000380000EBC200817200E000BF00BF05EB87
:10540000850104F1380000EBC100C0F80CA005EBE9
:10541000850104F1380000EBC100C0F810900021B4
:1054200005EB850204F1380000EBC20080F824107F
:1054300005EB850204F1380000EBC200416105EB89
:10544000850104F1380000EBC1004570002105EB37
:10545000850204F1380000EBC20080F82510227CA0
:1054600005EB850C04F1380303EBCC01206809F04F
:1054700051FDBDE8F09F2DE9F0410446D4F80080CD
:105480004746206809F0A4FB012870D1206809F084
:1054900007FF08B9BDE8F081206809F001FF00F4BA
:1054A0000010B0F5001F03D14FF4001021684861CF
:1054B000206809F0F5FE00F48010B0F5801F03D1DC
:1054C0004FF4801021684861206809F0E9FE00F07F
:1054D0008060B0F1806F03D14FF080602168486137
:1054E000206809F0DDFE00F00200022801D12168E9
:1054F0004861206809F0D4FE00F00050B0F1005F70
:105500000FD14FF0005021684861D7F8400400F0F7
:10551000010030B92046FFF7E6FD0121206809F0BF
:1055200063FE206809F0BCFE00F08070B0F1807F5F
:1055300002D1204603F06FF9206809F0B1FE00F0B7
:105540000800082805D1204600F0ECF80820216862
:105550004861206809F0A4FE00F00070B0F1007FFF
:1055600027D1206809F0CFFC064600251AE035E077
:1055700005F00F0101208840304090B107F5A06090
:1055800000EB4510006800F40040B0F5004F04D176
:10559000E9B2204602F065FB03E0E9B2204602F0E2
:1055A00095FE6D1CA068A842E2D84FF000702168FB
:1055B0004861206809F074FEC0F3001070B12068E3
:1055C000806920F0100021688861204603F07EF990
:1055D0002068806940F010002168886100BF59E7A9
:1055E00030B58BB0044614B901200BB030BD25682E
:1055F00094F8B90228B9002084F8B802204600F0D7
:1056000029F8032084F8B902E86B00F4807008B927
:1056100000212161206808F0D5FE282204F1100144
:105620006846FBF762FA94E80F0008F0ADFC012130
:10563000206809F069FE282204F110016846FBF792
:1056400054FA94E80F0009F04FFD012084F8B902E4
:105650000020CAE710B586B00446142101A8FBF764
:1056600098FA2068B0F1A04F42D100BF002000900E
:105670002048006840F001001E49086008460068A4
:1056800000F00100009000BF00BF4FF4C050019037
:105690000220029000200390032004900A2005902D
:1056A00001A91548FFF704FC00BF1248001D00685F
:1056B00040F080000F49091D086000BF00200090E5
:1056C0000C481430006840F480400A4914310860E6
:1056D0000846006800F48040009000BF00BF00BF93
:1056E00000220321432000F02BF9432000F018F999
:1056F00006B010BD303802400000024010B504462C
:10570000D4F8C00206F0BAFE10BD10B50446D4F8B5
:10571000C00206F0B7FE10BD10B50446206809F0BF
:10572000D5FD10BD10B50446D4F8C00206F04FFEFA
:1057300010BD10B5044600BF94F8B802012801D18D
:10574000022010BD012084F8B80200BF206809F0D3
:10575000E3F90121206808F05FFE00BF002084F813
:10576000B80200BF00BFECE710B5044600BF94F8D4
:10577000B802012801D1022010BD012084F8B8022E
:1057800000BF206809F09CFE00BF002084F8B8022A
:1057900000BF00BFF0E770B504460CB9012070BD32
:1057A0004CF6CC402168086045F2555021680860ED
:1057B000D4E9001048602168A0688860FFF786FC83
:1057C000054606E0FFF782FC401B302801D9032084
:1057D000E5E72068C0680028F4D14AF6AA202168CD
:1057E00008600020DBE701464AF6AA200A6810603C
:1057F00000207047034800680349097808440149BC
:1058000008607047340000203C00002010B50D48AF
:10581000006840F400700B4908600846006840F4D6
:10582000806008600846006840F4807008600320CB
:1058300000F0C4F8002000F007F800F02BF800207A
:1058400010BD0000003C024070B504460E480078D0
:105850004FF47A71B1FBF0F00C490968B1FBF0F537
:10586000284601F0F5F908B1012070BD102C07D2CF
:1058700000222146501E00F063F80548046001E054
:105880000120F2E70020F0E73C000020400000206B
:105890003800002008B500BF002000900E480068C6
:1058A00040F480400C4908600846006800F48040DD
:1058B000009000BF00BF00BF00200090081F0068DC
:1058C00040F08050091F08600846006800F08050D2
:1058D000009000BF00BF08BD4438024010B501462B
:1058E0000846002817DB00F01F0301229A400B4BEB
:1058F000440943F8242000BF00BF00BFBFF34F8F0F
:1059000000BF00BF00BF00BF00BF00BFBFF36F8F6D
:1059100000BF00BF00BF00BF10BD000080E100E07D
:1059200001460846002809DB00F01F0301229A40C7
:1059300043099B0003F1E023C3F8002100BF704737
:105940002DE9F05F80460D461646002709F056FF08
:10595000074639462A46334601F00700C0F1070AD8
:10596000BAF1040F02D94FF0040A01E0C0F1070AAE
:10597000D14600F1040ABAF1070F02D24FF0000A33
:1059800001E0A0F1030AD4464FF0010A0AFA09FA2D
:10599000AAF1010A0AEA020A0AFA0CFA4FF0010B0C
:1059A0000BFA0CFBABF1010B0BEA030B4AEA0B04FD
:1059B0002146404609F02AFFBDE8F09F00BF00F0F5
:1059C0000702064B19684FF6FF031940044B0B43BF
:1059D00043EA0221014B196000BF70470CED00E063
:1059E0000000FA0570470068416200207047F0B57A
:1059F0000368586A39B19C6A4FF4827600EB14440C
:105A000000204D1E0AE040EA024098620FE006EBDB
:105A10008007DF59401C04EB1744C0B2A842F6D3FC
:105A200044EA02404FF4807202EB8101585000209A
:105A3000F0BDD0F8040405F007BBC1EBC10200EBD8
:105A40008202D0F80404926C05F051BAC1EBC10295
:105A500000EB8202D0F80404D2F8082205F0AABABA
:105A600010B504000CD0032084F8BD03204600F0DC
:105A700095FC204600F0DCFB002084F8BD0310BD3F
:105A8000012010BDD0F8040405F0E0BA70B504465A
:105A90000B0601F00F00C0EBC00104EB81014FF0D9
:105AA00001024FF0000503D581F83D203C3103E0B1
:105AB00081F8FD5101F5FE71087094F8BC030128CE
:105AC00008D084F8BC23206808F0C6FA84F8BC53D8
:105AD000002070BD022070BD70B5044601F00F00BB
