:020000040800F2
:10800000703C0120218300084F0C01085500010835
:108010004D0C01082DB70008C756010800000000EC
:10802000000000000000000000000000A51701088B
:108030000BB90008000000004D100108E919010803
:108040003B8300083B8300083B8300083B83000818
:108050003B8300083B8300083B8300083B83000808
:108060003B8300083B8300083B83000861B700089E
:108070006DB7000879B7000885B7000891B7000808
:108080009DB70008A9B700083B8300083B830008A0
:108090003B8300083B8300083B8300083B830008C8
:1080A0003B8300083B8300083B8300083B830008B8
:1080B0003B830008C51A0108D11A01083B83000858
:1080C0003B8300083B8300083B8300083B83000898
:1080D0003B8300083B8300083B8300083B83000888
:1080E0003B8300083B8300083B830008DD1A01083E
:1080F0003B8300083B8300083B830008B5B70008BA
:108100003B8300083B8300083B8300083B83000857
:108110003B8300083B8300083B8300083B83000847
:10812000C1B70008CDB70008D9B70008E5B7000807
:10813000F1B70008000000000000000055B700087B
:1081400031B700083DB7000849B70008510C0108D5
:108150003B830008FDB7000809B800083B8300080E
:108160003B8300083B8300083B8300083B830008F7
:108170003B8300083B830008000000000000000073
:108180003B8300083B83000800F002F800F0B6F8DB
:108190000AA090E8000C82448344AAF10107DA4562
:1081A00001D100F0ABF8AFF2090EBAE80F0013F0FE
:1081B000010F18BFFB1A43F00103184724560100B2
:1081C000445601000A444FF0000C10F8013B13F034
:1081D000070408BF10F8014B1D1108BF10F8015B20
:1081E000641E05D010F8016B641E01F8016BF9D113
:1081F00013F0080F1EBF10F8014BAD1C0C1B09D16A
:108200006D1E58BF01F801CBFAD505E014F8016BDB
:1082100001F8016B6D1EF9D59142D6D3704700006D
:108220000023002400250026103A28BF78C1FBD87F
:10823000520728BF30C148BF0B6070476E2900F05D
:108240003185702900F07B86662913F0A9856529A0
:1082500013F0A685672913F0A385612913F0A28581
:1082600003681B0A28BF41F08001692900F0DE8401
:10827000642900F0DB84752900F0D8846F2900F0B0
:108280000886782900F04786E92900F0A385E429CB
:1082900000F0A085F52900F09D85EF2900F0058606
:1082A000F82900F046860368DB0928BF41F0800109
:1082B000632901F0B384732901F0B884E32901F044
:1082C000C384F32901F0C884002070471FB513F060
:1082D0005AFD9DE8030000F005FC01F043F804009E
:1082E0000020002112F08EFE401C60600020002162
:1082F00012F09EFEE0601FBD10B510BD01F0B0FE93
:108300001146FFF7E3FF11F043FD02F0FDF903B45E
:10831000FFF7F2FF03BC02F06DFA0000C0BA70472D
:108320000948804709480047FEE7FEE7FEE7FEE709
:10833000FEE7FEE7FEE7FEE7FEE7FEE70448054945
:10834000054A064B70470000791A01088981000828
:10835000707C0020703C012070FC002070FC00202C
:1083600070B5A0FB0140B4F1805170F1000024BF52
:10837000002070BD204600F007F805001CBF214614
:1083800000F011FB284670BD70B5064600F08AFB70
:10839000056806F10B0020F00704B4429CBF0020E2
:1083A00070BD2B466A68BAB11068A04210D304F1C0
:1083B000080188423CBF5068586007D351681019C3
:1083C00041601168091B016058601460101D70BD88
:1083D00013465268002AE7D12146284600F06EFB7A
:1083E0000028DED170BD70B50446051F00F05AFBB1
:1083F0000068002C14BF446870BD002C18BFAC424C
:108400003CBF20466468F8D301680A18AA4218BF26
:10841000456003D12A680546114401602868411966
:10842000A1421CBF6C6070BD61686960216808442E
:10843000286070BD53EA020C00F069802DE9F04B12
:108440004FF00006002B1FBFB3FA83F503FA05F4C3
:1084500024FA05F65E4012BF1643B2FA82F502FA1C
:1084600005F4C5F120051EBF22FA05FC44EA0C0400
:10847000203556EA044C4FEA144418BF641C4FF0F0
:1084800000084FF00009904271EB030C39D300292A
:1084900019BFB1FA81F701FA07F6B0FA80F700FACE
:1084A00007F6C7F120071EBF20FA07FC46EA0C06B4
:1084B0002037B6FBF4FCA7EB0507103F07F01F0BB6
:1084C000CBF120060CFA0BFB2CFA06F644BFB346A0
:1084D0000026202FA4BF5E464FF0000B5BEA060C7F
:1084E00008BF4FF0010B19EB0B09ABFB027C48EB0B
:1084F0000608C01B06FB02CC0BFB03CC71EB0C0186
:10850000C1E70B46024641464846BDE8F08B13B52D
:108510004FF000004FF00001AFF30080BDE81C40B9
:10852000704700007CB51D4616460C00009001D037
:108530002044401E074B7B442A4669460190304642
:1085400000F0C9FB05461CB10020694600F0D6FBCF
:1085500028467CBDCD0700000FB400B58DB010A932
:10856000099000910B904FF0FF300A9000200C9082
:10857000064878440690064878446A4607900F9962
:1085800009A800F0BFFD0DB05DF814FBAF0B0000B3
:10859000C70B00002DE9FF5F1D464FF0FF3B9146E2
:1085A0004FF000085F46D5E90146A96901987F1C94
:1085B0008847296A824688470028F6D1BAF1FF3FEA
:1085C0000CD0002E24F4C06419DD600614D5BAF175
:1085D0002B0F09D0BAF12D0F0ED103E0584604B08D
:1085E000BDE8F09F44F48064A96901987F1C884726
:1085F000761E8246002E02DDBAF1300F03D0B9F1AB
:10860000000F26D032E0A969761E01987F1C44F441
:1086100000748847002E824605DDBAF1780F06D037
:10862000BAF1580F03D0B9F1000F10D01EE0B9F124
:10863000000F02D0B9F1100F18D1A969761E019868
:108640007F1C24F4007488478246102002E0082032
:1086500000E00A20814609E0A96908FB0908761EA6
:1086600001987F1C44F4007488478246002E05DD83
:108670004946504600F032FD0028EDDAE9690198DC
:108680008847A00502D46FF00100A8E7E00725D1D4
:10869000600613D5600502D5C8F1000000E0404631
:1086A00029680A1D2A600968220501D5087015E0AD
:1086B000220701D5088011E008600FE02868011D3D
:1086C00029600068210502D580F8008006E02107B6
:1086D00002D5A0F8008001E0C0F8008038467EE7AF
:1086E00070B5064600F0E2F90468054630460A22F5
:1086F000002100F0D9FD2C6070BD2DE9F05F93469C
:108700000F4680460446002600F0D0F9D0F80090CD
:10871000824614F8015B2DB100F0BCF90068405DA1
:10872000C007F6D12B2D02D02D2D1AD0641E0021AA
:10873000CAF800105A463946204600F013FD01469B
:1087400027B13868A04201D1C7F80080DAF80000EC
:10875000022809D0CAF80090700505D54842BDE846
:10876000F09F46F48066E2E70846F8E7014A00F029
:10877000D3BD0000500C0020401ECAB210F8011FEB
:108780008A4202D00029F9D10020704740EA010353
:10879000024630B59B0710D14FF0013400E008C20B
:1087A00008C91D1B9D4315EAC41FF8D013F0FF0133
:1087B00002F8011B0DD01B0AF8E711F8013B002B52
:1087C00002F8013B05D011F8013B002B02F8013BF8
:1087D000F3D130BD10B5431C02E010F8011B71B19C
:1087E0008107FAD14FF0013202C88C1A8C4314EA87
:1087F000C211F9D0C01A0A0603D0C01E10BDC01A9B
:1088000010BD0A0401D0801E10BD0902FCD0401E1C
:1088100010BD40EA010370B59B072ED14FF0013621
:10882000042A2AD308C810C99D1B9D43121F15EAAC
:10883000C61517D0D8B2E1B2401A50EA056110D17E
:1088400098B2A1B2401A50EA05410AD123F07F4004
:1088500024F07F41401A50EA052102D1180EA0EB06
:10886000146070BDA342DBD018BA21BA884201D986
:10887000012070BD4FF0FF3070BD0AB9002070BDFF
:1088800010F8013B11F8014B63B1A3420AD1521E0B
:1088900008D010F8013B11F8014B1BB1A34201D1E4
:1088A000521EEDD1181B70BD032A40F2308010F02B
:1088B000030C00F0158011F8013BBCF1020F62447B
:1088C00098BF11F801CB00F8013B38BF11F8013B0C
:1088D000A2F1040298BF00F801CB38BF00F8013BB9
:1088E00011F0030300F02580083AC0F0088051F829
:1088F000043B083A51F804CBA0E80810F5E7121D34
:108900005CBF51F8043B40F8043BAFF30080D20752
:1089100024BF11F8013B11F801CB48BF11F8012B1E
:1089200024BF00F8013B00F801CB48BF00F8012B41
:10893000704710B5203AC0F00B80B1E81850203ACB
:10894000A0E81850B1E81850A0E81850BFF4F5AFEF
:108950005FEA027C24BFB1E81850A0E8185044BF79
:1089600018C918C0BDE810405FEA827C24BF51F8E6
:10897000043B40F8043B08BF7047D20728BF31F8DA
:10898000023B48BF11F8012B28BF20F8023B48BF2B
:1089900000F8012B704702F0FF0343EA032242EA8A
:1089A000024200F002B84FF000020429C0F0128029
:1089B00010F0030C00F01B80CCF1040CBCF1020F92
:1089C00018BF00F8012BA8BF20F8022BA1EB0C0167
:1089D00000F00DB85FEAC17C24BF00F8012B00F85D
:1089E000012B48BF00F8012B70474FF0000200B583
:1089F000134694469646203922BFA0E80C50A0E8C2
:108A00000C50B1F12001BFF4F7AF090728BFA0E86F
:108A10000C5048BF0CC05DF804EB890028BF40F83B
:108A2000042B08BF704748BF20F8022B11F0804F7D
:108A300018BF00F8012B704710B5044610F0030F63
:108A400008BF11F0030F40F015804FF0013E121FD8
:108A5000C0F20E8051F8043BA3EB0E0C2CEA030C81
:108A60001CEACE1C08BF40F8043BF0D0A1F1040181
:108A700002F10402521E08DB11F8013B002B00F842
:108A8000013BF7D11146FFF78EFF204610BD70471E
:108A90007047704710B500F065FC001D10BD00BFA9
:108AA0006525010000487047187C00200048704789
:108AB000107C0020704770477047704738B50446F7
:108AC0000A4600206946AFF30080002808BF38BD81
:108AD00002460099204600F049FC012038BD0120E3
:108AE00001F098BAF8B5AFF30080054600200C46B7
:108AF000102000BF0646A819A0420DD9324669468B
:108B00000020AFF30080070008BF01F083FA00984F
:108B1000A04218BF0546C419FFF7C4FF0560074609
:108B2000F01D20F007004619284600F00AF8B4426C
:108B300008BFF8BDA21B31463868BDE8F84000F018
:108B400015BC00210160C0E901107047102070477A
:108B500010B5FFF7ABFF006810BD10B50446FFF776
:108B6000A5FF046010BD70B5044685690068C106A4
:108B700001D5302600E02026C00707D070BDD4E91B
:108B8000012130469047206A401C20626D1EF6D5B8
:108B900070BD70B5044685690078C00707D170BD07
:108BA000D4E9012120209047206A401C20626D1EDC
:108BB000F6D570BD09684A0501D540B27047C905B0
:108BC000FCD500B2704709684A0501D5C0B27047AC
:108BD000C905FCD580B2704770B50C460546012A20
:108BE00005D02878800600D5EA69002302E0012339
:108BF00005E05B1C934202D2E05C0028F9D1A86931
:108C0000E618C01AA861286A184428622846FFF7A7
:108C1000AAFF04E0D5E9012114F8010B9047B44202
:108C2000F8D32846FFF7B5FF70BD00002DE9F041ED
:108C30000646002410687529314616A510D0FFF7A6
:108C4000B9FF002802DA404213A507E031688A071D
:108C500001D512A502E0490704D511A5012401E0C0
:108C6000FFF7B1FF00210A2206F1240709E0B0FB5B
:108C7000F2FCB0FBF2F302FB1C00303078541846D3
:108C8000491C0028F3D123462A463046BDE8F0416E
:108C900000F0D4BB000000002D0000002B000000FD
:108CA0002000000011680268006A530501D50870B1
:108CB0000AE0D30501D5088006E0130603D5C217E4
:108CC000C1E9000200E008600120704701694A1C08
:108CD00002610878704700B58FB0CDE901310021FD
:108CE000059105497944CDE903101146684600F025
:108CF00031F90FB000BD0000E5FFFFFF0A6802F880
:108D0000010B0A607047D1E900239A4202D2531C3A
:108D10000B601070704700002DE9FF5F15468A4612
:108D20000446DFF8AC80F8440027D8E900103E463E
:108D3000CDE9001010E03AF816106A4602A801F0DA
:108D400049F9411C07D02178890603D5E269391811
:108D500091420DD80744761C2078800602D5E06940
:108D6000B84205DDAE42E6DB3AF816000028E2D153
:108D7000A069C01BA0612046FFF7F5FED8E90010EE
:108D8000CDE90010002017E03AF818106A4602A852
:108D900001F020F9B0F1FF3F81460BD000250DF125
:108DA000080B05E0D4E901211BF8050090476D1C74
:108DB0004D45F7D308F10100B0428046E4DB206A5C
:108DC000384420622046FFF7E4FEBDE8FF9F000024
:108DD000B24801002DE9F0418046D21D22F0070281
:108DE0000025D2E90002F52915A614D0011E72F162
:108DF000000106DA0023D0EB030063EB020211A6A8
:108E000008E0D8F800108B0701D50FA602E049074B
:108E100001D50EA601251146002408F1240704E01F
:108E200000F0BEFA30323A55641C50EA0102F7D124
:108E30002B46324621464046BDE8F04100F0FEBADE
:108E4000000000002D0000002B00000020000000AA
:108E500030B4002100F1240408E002F00705D20834
:108E6000303542EA4372DB086554491C52EA030577
:108E7000F3D10468002310A2250707D5A40600D467
:108E800021B1C46901230DA2641EC46130BC00F08D
:108E9000D5BA10B5044621461068FFF794FE024685
:108EA0002046BDE810400023D2E7D21D22F0070182
:108EB000D1E90023CCE700000000000030000000F2
:108EC000F0B40D460188090502D5214C7C4402E02E
:108ED0001F4C7C440E34002100F1240608E002F00F
:108EE0000F071209E75D42EA03721B097754491C18
:108EF00052EA0307F3D102780023120704D5702D3C
:108F000006D009B1022311342246F0BC00F096BA13
:108F100001231034F8E770B504460D462146106869
:108F2000FFF751FE024629462046BDE87040002367
:108F3000C6E7D21D22F00703D3E90023C0E7036888
:108F4000126843F0200303600823C3610023B7E7DE
:108F5000144701002DE9F05F894604464FF0000AEE
:108F6000DFF874B1FB44C0F820A02046E1688847D0
:108F7000002874D0252806D0D4E901219047206A22
:108F8000401C2062F1E700265F462046E1688847E2
:108F90002028054607DB312D05D2781910F8200C62
:108FA00008B10643F1E7B00701D526F00406C4F87E
:108FB0001CA00027C4F818A02A2D09D028460CF0C0
:108FC000C5FE38B304EB8708303DC8F8185019E0E7
:108FD00059F8041B204604EB87029161E168884739
:108FE000012F054618D1E069002820DA26F0200676
:108FF0001DE0D8F8180000EB800005EB4000303889
:10900000C8F818002046E168884705460CF09EFE27
:109010000028EED1012F0AD02E2D08D12046E1687C
:1090200088477F1C0546022F46F02006C4DBA06956
:10903000002803DA404246F00106A061F00701D0A3
:1090400026F010066C2D0BD0682D09D04C2D39D090
:109050006A2D35D0742D35D07A2D33D016E038E016
:10906000E1682F4620468847B842054609D16C2F53
:1090700026D04FF48060E1680643204688470546C5
:1090800004E06C2F1AD04FF4807006430DB3A5F1A5
:109090004100192802D8203546F400664A46294680
:1090A000204626604E46FFF7C9F880B101280BD054
:1090B000F61D26F0070000F1080956E74020E4E716
:1090C0008020D8E70020D6E706F104094DE72846BE
:1090D00052E7206ABDE8F09FA44601003A2800D27A
:1090E000303820F02002412A01D3A2F13700884213
:1090F00001D34FF0FF3070470268114413780160CC
:1091000018467047D1600549794451610449794452
:10911000116200211161114600F0A2BDEDFFFFFFB9
:1091200019030000426842B1016811F8013B23B104
:10913000521EC0E90012184670470121C160881E06
:10914000704742685AB1C368016843B983688B426B
:1091500005D0491E521CC0E90012002070474FF094
:10916000FF3070472DE9F05F824615468B46002799
:109170000AF10104B9460078302801D09DB113E00E
:1091800014F8010B0127782803D0582801D045B1E5
:109190000AE00DB1102D07D1002714F8010B10259E
:1091A00002E0082500E00A250026B0460EE005FB97
:1091B000080005FB06F101271FFA80F801EB1046B5
:1091C000B6F5803F00D3B94614F8010B2946FFF7E6
:1091D00085FF0028EBDABBF1000F05D00FB1641E4C
:1091E00000E05446CBF80040B9F1000F06D0FFF77D
:1091F0005DFC02210160C81EBDE8F09F48EA064000
:10920000FAE700000FB4002300B589B00CA9009163
:109210000B99CB60214B7B440693214B7B440793F6
:1092200004236FF00042CDE901321E4A7A446B46B6
:1092300008920246002012F017FE09B05DF814FBF8
:1092400070B506464FF0FF3015460C46324686B0E4
:109250000091CDE9010169460020049004A8FFF7C0
:10926000D1FF02460498211825B108B1084600E054
:1092700020462860049800280DD0002A02DD0098BE
:10928000884208D03246081B69460094CDE90104A3
:1092900004A8FFF7B7FF06B070BD00000BFFFFFF8B
:1092A00023FFFFFFFB0100002DE9F04791460F4629
:1092B00080460446002614F8015B2DB1FFF7EAFB57
:1092C0000068405DC007F6D12B2D02D02D2D18D09F
:1092D000641E4A4639462046FFF744FF27B13968E5
:1092E000A14201D1C7F800804FF0020471050BD5EF
:1092F0004042002803DDFFF7D9FB0460A007BDE86A
:10930000F08746F48066E4E70028F8DAFFF7CEFB42
:1093100004606FF00040F2E72DE9F04115460E467B
:10932000040002D12C6804B90BA4204600F089FE89
:109330000444207870B127463146384600F071FE6B
:109340000444207810B1002004F8010B38462C604A
:10935000BDE8F0810027F9E70000000000487047F1
:10936000107C002000487047307C00200346406895
:109370008C46002818BF88423CBF03464068F8D39B
:1093800018681844884207D00CF1030020F0070049
:10939000001D411A521A0146081D0A60FFF723B842
:1093A00030B5B0F10A024FEA900E71F100034EEAB7
:1093B000817EB0EB0E0061EB91014FEA101E4EEA88
:1093C000017E10EB0E0041EB11114FEA102E4EEA18
:1093D000016E10EB0E0041EB11214FEA104E4EEAE8
:1093E000014E10EB0E0041EB1141401841F100011C
:1093F0004FEAD00040EA41704FEAD10110EB8005FE
:109400004FEA810444EA907444EB01046D1944EB83
:109410000404521BA3414FF0000348BF0A3200D599
:1094200030BD401C41F1000130BD10B50446FFF7CE
:1094300031FB0068005D00F0010010BD2DE9F04730
:109440000D4699469246044600F1240801688806B4
:1094500004D5E06921F01001216000E00120A8425C
:1094600001DD471B00E00027A1697A1902EB090022
:10947000081AA0612078C00602D42046FFF773FBCB
:10948000002608E0D4E901211AF806009047206A76
:10949000401C761C20624E45F4DB2078C0060AD5BD
:1094A0002046FFF760FB06E0D4E901213020904719
:1094B000206A401C2062381EA7F10107F4DC07E097
:1094C000D4E9012118F805009047206A401C206269
:1094D000281EA5F10105F3DC2046FFF75AFB207892
:1094E000000602D50220BDE8F0870120FBE77047A7
:1094F0002DE9FF4F0C461E464FF0FF378BB0D2E9E7
:109500000001DDF860800A908A46C1F30A5505B96A
:109510003D46002108464FF00000BAF1000F00F46C
:10952000400005DA00EB80004FF4400101EA5000F2
:109530004FEA9059B9F1010F00DDB9460A9850EA97
:109540004A000ED044F61050A5F2FF3545432F14C3
:10955000B8F1000F1ED07542291E1EDDC9F10002B0
:109560001CE0B8F1010F4FF0000001D0302103E002
:10957000F24305E02154401CB042FBDB30460022A0
:10958000002121540B99C1F80880C1E900200FB0D7
:10959000BDE8F08FBD1B6D1CDEE74A4600DA69426C
:1095A00006A801F03FF806AB93E8070003AB83E899
:1095B000070050460A9901F080FB8DE80700A0F5EE
:1095C00000501F3800900398002D0ADD42F21F0161
:1095D0004A460844002303A90390684601F02CFE84
:1095E00009E0A0F500504A461F38002303A9039064
:1095F000684601F04BFE8DE807000004000C03D024
:109600004FF0FF30410800E01046B8F1000F03D0E2
:109610000022009215461EE0751E05D4FFF7C0FE1D
:10962000303262556D1EF9D5B3460122084302D08F
:1096300000227F1C04E02078302801D100227F1E08
:10964000002A099784D01DE0112D07DAFFF7A8FE44
:10965000303262556D1C50EA0102F5D1084302D048
:109660000098C8B10EE00021681E05E0235C625C32
:1096700063542254401E491C8142F7DBAB46A81BB1
:10968000401E0990002004F80B000B98099AC0F8BE
:109690000880C0E9002B7AE711264FF0000857E751
:1096A0002DE9F04F88460446D21D22F0070191B003
:1096B000D1E90001CDE90A010CF058F802460B98F7
:1096C000C00F01D02D2007E02068810701D52B2095
:1096D00002E0202101EAC000032A099001D0072AF4
:1096E00005DB03464146204600F0E0FC0BE1207814
:1096F000800601D5E06900E00620B8F1650F8146DB
:1097000006D0B8F1660F18D0B8F1670F70D131E00C
:109710000020B9F1110F009001DB112301E009F1E4
:1097200001030AAA01A90CA8FFF7E2FEDDE90C700B
:10973000002609F10105834647E001204B460090D1
:109740004FF000470AAA01A90CA8FFF7D1FEDDE9F6
:109750000DB00C995D46002610B909F101000D18F5
:10976000B9EB050003D4C0F1FF3609F10105A5EB03
:1097700009002BE0B9F1010F01DA4FF001090020D7
:10978000B9F1110F0090484601DD112300E00346B6
:109790000AAA01A90CA8FFF7ABFEDDE90C704D4643
:1097A00000268346207800070AD4AB4500DA5D46E0
:1097B00001A8012D04DD411911F8011C302907D041
:1097C0004F4502DA17F1040F04DA012082460FE058
:1097D0006D1EEEE7002F02DCED1B3E4403E0781C1B
:1097E000A84200DD7D1CB81B00F1010A4FF00047C4
:1097F0002078000703D4AA4501DB4FF0FF3A00218F
:10980000B7F1004F0DF143088DF8431024D002202A
:109810002B23002F01DA7F422D230A21021EA0F103
:10982000010000DC5FB197FBF1FC97FBF1F201FB5B
:109830001C7C17460CF1300C08F801CDEEE7A8F1BE
:10984000010003702188090501D5452100E065214B
:10985000A0F1010800F8011C09980FA9A1EB080765
:10986000FF1D00B10120411901EBEA70A1693844E4
:10987000081A401EA0612078C00602D42046FFF7D7
:1098800072F9099828B1D4E901219047206A401C57
:1098900020622078C00622D52046FFF764F91EE03A
:1098A000002E04DBB34502DD01A8805D00E030201E
:1098B000D4E901219047206A401C2062761CAAF15D
:1098C00001005FEA000A0AD1FFF74CFDC068016899
:1098D000405CD4E901219047206A401C2062281E88
:1098E000A5F10105DCDC07E0D4E9012118F8010B42
:1098F0009047206A401C2062381EA7F10107F3DC64
:109900002046FFF746F9032011B041E62DE9F04F5C
:1099100004460D46D21D22F0070089B0D0E9009719
:10992000484639460BF022FF0246F80F01D02D239E
:1099300007E02068810701D52B2302E0202101EAFE
:10994000C0038DF820300BB1012000E00020032A75
:10995000824601D0072A04DB2946204600F0A6FBF8
:109960003FE12078800601D40D2500E0E569C7F3CA
:109970000A560D2D49DA00214FEA175B08464FF0D1
:109980000000002F00F4400007DA00EB80004FF4E5
:10999000400100EBD07001EA60008115012901DD72
:1099A0004FF0FF3100224FEA850CBCF1180F06D3AF
:1099B0001346ACF118004FF08052C24003E04FF460
:1099C000801323FA0CF30CF10C0CBCF1200F04D320
:1099D000ACF1200C09FA0CF001E007FA0CF00029B8
:1099E0004FF0004801DD18B90FE00ED140450CD30F
:1099F00019EB02095F4121B9404502D19F4329EA91
:109A00000209BBEB175F00D0761C2088000502D549
:109A10007B48784402E07A487844193808AA302311
:109A200002F80A30037C0AF10101002E0AF1020A51
:109A300053546A4602DC4FF0300101E04FF031012F
:109A40004FF001088DF8001002D0A6F2FF3603E0B7
:109A500059EA470100D06B4E002D02DC217809073E
:109A600004D54FF002082E218DF80110C4460021C4
:109A70000BE0C7F303433F01C35C491C6D1E02F8B2
:109A80000830052908F1010801DA002DF1DC002178
:109A90000CE000EB1973491C1B786D1E082902F8B5
:109AA00008304FEA091908F1010801DA002DF0DC4D
:109AB00021688B0602D516E0A8F10108E04505DD16
:109AC00002EB080313F8013C302BF5D0B8F1000F7E
:109AD00009DD02EB080313F8013C2E2B03D1090723
:109AE00001D4A8F10108002D05DD3E2102F808107F
:109AF0006D1E08F10108407C002E02F8080008F1F4
:109B0000010804DA2D20764202F8080002E02B203A
:109B100002F808000A214FF47A70864208F1010821
:109B20000BDB96FBF0F3303302F8083096FBF0F3D2
:109B300008F1010800FB136601E0642E0CDB6420D1
:109B400096FBF0F3303302F8083096FBF0F308F19F
:109B5000010800FB136601E00A2E06DB96FBF1F01C
:109B6000303002F8080008F1010896FBF1F001FB23
:109B70001060303002F80800A16908F1010808EB14
:109B8000050202EB0A00081AA0612078C00602D480
:109B90002046FEF7E8FF216A08AE01EB0A002062CA
:109BA00004E0D4E9012116F8010B9047BAF1010A4B
:109BB000F7D22078C00602D52046FEF7D4FF6E46C5
:109BC00009E016F8010B3E280FD0D4E90121904797
:109BD000206A401C2062B8F10108F2D22046FEF74C
:109BE000D8FF09B00320BDE8F08F206A2844206226
:109BF00003E0D4E90121302090476D1EEBD3F8E754
:109C00001A3C010002FCFFFF10B5436913B1AFF32A
:109C1000008001E0FEF7E0FF012010BD127800F1A6
:109C200024010A7000224A700122EDE711684FF00A
:109C3000FF32E9E710B5436913B1AFF3008001E0EB
:109C4000FFF76AF8012010BD128800F12401828418
:109C50000022C2840122EDE711684FF0FF32E9E7EC
:109C60002DE9F34F4FF0000A0C4656468DB0012007
:109C70000C9001F10C000B9062690B980121904748
:109C8000051E2DD0252D2CD0216A8847C0B16269D0
:109C90000B9801219047216A88470028F7D1626913
:109CA000411E0B98904700E0761CA1690D988847EB
:109CB000216A88470028F7D1E1690D988847DBE7DA
:109CC000A1690D988847A842074601D1761CD3E7C1
:109CD000E1690D9888477F1C02D1BAF1000F6FD05F
:109CE0006BE162690B9800273D46394690472A2868
:109CF00004D162690B98012190470125DFF8D082D9
:109D000062690B9801219047A0F130010A290AD21B
:109D10004745E5DC07EB870100EB4107303FDFD427
:109D200045F01005ECE7E90601D46FF000476C2818
:109D30000AD04C2814D0682815D06A280DD0742871
:109D40001CD07A281AD01DE062690B980121904737
:109D50006C2802D045F0040514E045F002050DE042
:109D600045F020050AE062690B98012190476828B8
:109D700002D045F0080505E045F4006562690B98DE
:109D800001219047C4E9015765283DD019DC5828C6
:109D90007AD00CDC452837D004DC252826D0412891
:109DA0009ED131E046282FD0472899D12CE05B285E
:109DB00077D0612828D063287CD0642823D15AE04A
:109DC000F6E06F2848D008DC66281DD067281BD035
:109DD000692821D06E2816D127E0702845D0732835
:109DE00068D0752847D078280DD14DE0A1690D982D
:109DF0008847252805463FF469AFE1690D988847F3
:109E00006D1C3FF46AAFD8E00D9923466A466FF0A7
:109E1000010012F029F8C5E045F0400023464FF05C
:109E200000026060A80736D43EE0E8077FF447AF41
:109E30002068011D21600068290501D506701BE717
:109E4000290701D5068017E7A90703D5F117C0E94F
:109E5000006111E706600FE745F0400023464FF030
:109E600008026060A80716D41EE040F60E0125EA3D
:109E70000100606016E045F0400023464FF00A0202
:109E80006060A80707D40FE045F040006060A807B5
:109E900008D5234610220D996FF00100AFF3008022
:109EA00080E007E0102223460D996FF00100FEF7D5
:109EB00071FB77E04FF0000963284F46C8464B46D8
:109EC000CB4602D05B2806D038E0E80601D401205A
:109ED000A060012732E06269D4F80CB00B98012130
:109EE00090475E2807D14FF0010949466269D4F8CE
:109EF0000CB00B989047216939B900210A4603AB91
:109F000043F82120491C0829FADBD8B3216949B359
:109F100008F1010862690B98012190475D28F4D18E
:109F2000B9F1000F09D0002003A951F82020D24335
:109F300041F82020401C0828F7DB03AB20690028EB
:109F400020794FEA40701ED05B462246CDF8008053
:109F5000CDE901970D9900286FF0010020DAAFF3E9
:109F600000801FE0C11703AA00EBD1614B1121F063
:109F70001F0102EB8302411A13680120884003434A
:109F80001360C7E719E00D99224600286FF0010021
:109F9000009702DAAFF3008004E0AFF3008001E045
:109FA000AFF3008000280ADA401C06D10C9820B1DB
:109FB0004FF0FF300FB0BDE8F08F5046FAE7E907E9
:109FC00001D10AF1010A064400200C9054E6000079
:109FD000CCCCCC0C70B516460C460546FEF75AFDA7
:109FE000036893F80101012806D0FF2C0FD8185DF3
:109FF00068B101202C7070BDD3F8070132462146AC
:10A0000003F2071303442846BDE8704018474FF099
:10A01000FF3070BD10B500F085FBBDE8104000F0CA
:10A020007CBB30B503461D781DB10A4603E0AC4247
:10A0300001D1181A30BD12F8014B002CF7D15B1C6E
:10A04000F1E730B503461D783DB10A4612F8014BE1
:10A050001CB1AC42FAD15B1CF5E7181A30BD704751
:10A060007546FFF77BF9AE4605006946534620F07A
:10A070000700854618B020B5FEF760F9BDE820401E
:10A080004FF000064FF000074FF000084FF0000BB4
:10A0900021F00701AC46ACE8C009ACE8C009ACE867
:10A0A000C009ACE8C0098D46704700002DE9F041B9
:10A0B0001F46044603260168072A01F4006004DBFA
:10A0C00008B116A505E016A503E008B115A500E046
:10A0D00015A521F010002060A069C01EA0610FB17D
:10A0E000401EA0612046FEF73EFD4FB1D4E901219C
:10A0F00038469047206A401C2062C01C206206E05F
:10A10000206AFAE7D4E9012115F8010B9047761E81
:10A11000F8D22046FEF73DFDBDE8F0814E414E00ED
:10A120006E616E00494E4600696E66002DE9FF4F74
:10A1300006468BB00878FF2806D0491C2D2805D08C
:10A1400000244FF0000908E000200CE00124F8E7AB
:10A1500009EB8903491C00EB43090878FF28F7D174
:10A1600014B1C9F100008146107800252C46AA469A
:10A1700029462D2801D02B2804D1521C2D2813D07C
:10A18000002082468B461078FF280FD04FF0000C3D
:10A190000A21521CA5FB017804FB018105FB0C116F
:10A1A000C5194BEB0104EEE70120EAE70021084660
:10A1B0004FF00000BAF1000F02D000EB8000400821
:10A1C000C0F38157012F01DD4FF0FF370E9955EA9B
:10A1D000040009EB01080BD04FF0020918F5FA7FD3
:10A1E00016DA4FEACA70002F706008DD012007E020
:10A1F0004FEACA70C6E900B00FB0BDE8F08F00208A
:10A200003060FEF753FCC0F800901821084616E0B5
:10A21000B8F5FA7F18DD002F02DAF748784401E03C
:10A22000F6487844D0E90010C6E9001040EACA7048
:10A230007060FEF73BFCC0F80090142108460FB098
:10A24000BDE8F04F11F0A9BD002108464FF0000015
:10A25000B8F10001099002DAC7F1000200E03A46C5
:10A2600001DAC8F1000106A800F0DCF906AB93E8BA
:10A27000070003AB83E8070044F23E005BEA0401F9
:10A280000090584604D144F21E012C465D460091D0
:10A29000210C0904014306D10099240444EA154421
:10A2A0002D041039009104F07F41014306D100993B
:10A2B000240244EA15642D020839009104F070412B
:10A2C000014306D10099240144EA15742D01091FA8
:10A2D000009104F04041014306D10099A40044EAF2
:10A2E0009574AD00891E009104F00041084304D12B
:10A2F00000986D196441401E00904FF001033A46EA
:10A300006846B8F1000FCDE9014503A902DD00F070
:10A31000D2FF01E000F0A5FFBAF1000F04460D46A0
:10A3200001D084F00044002108464FF00000099954
:10A3300040F2FF77484010F00C0F07D124F00040A6
:10A34000284303D0C4F30A50B84212D1FEF7AEFB43
:10A35000C0F80090C4F30A50B8420AD1A848784423
:10A36000D0E90010C6E9001004F000410843706015
:10A3700042E7C6E900543FE72DE9FF4F1F464FF083
:10A38000000A4FF0FF38454691B0D7E90146CDF8B5
:10A390003CA0FEF7E7FFC0680168405C1090B96917
:10A3A00012986D1C8847396A814688470028F6D183
:10A3B000B9F1FF3F0AD0002E24F4D06411DDB9F1C9
:10A3C0002B0F08D0B9F12D0F0BD102E0404615B08C
:10A3D00013E744F48064B96912986D1C8847761EAF
:10A3E0008146600504A901D52D2000E02B20002E18
:10A3F00001F1010B0DF130088DF810003FDDB9F1CE
:10A40000690F08D0B9F1490F05D0B9F16E0F02D02C
:10A41000B9F14E0F1CD13B4601A8009580E85002CF
:10A42000DDE912126FF0020011F022FDC11CCED145
:10A430000EE0B96912986D1C884781461398761E04
:10A4400044F4007405600F98401C002E0F9016DD38
:10A45000B9F1300FEDD0B9F1780F02D0B9F1580F42
:10A460000DD10F9801280AD13B46CDE90054DDE912
:10A470001212001F029611F0F9FCC11CA7D110990D
:10A4800089453ED144F0800406E01399681CAAF186
:10A49000010A44F400740860B9696D1C1298761EB4
:10A4A000884730288146F0D02BE01099894505D1A6
:10A4B000200603D4761E44F0800418E048460BF0D2
:10A4C00045FC08B3761E0DF123018B4544F400745E
:10A4D00008D2A9F130000BF8010B200607D5AAF12C
:10A4E000010003E0200602D40AF101008246A00523
:10A4F00002D51399681C0860B96912986D1C8847C9
:10A500008146002ED1DC53E0002E51DDB9F1650FFC
:10A5100002D0B9F1450F4BD1A00549D5B9696D1CE1
:10A520001298761E24F440748847002E81460CDD74
:10A530002B2804D0B9F12D0F07D144F48074B969E8
:10A5400012986D1C8847761E8146E00501D52D21A5
:10A5500000E02B2108F8011BCDF8008021E0761ED9
:10A560000DF13901884544F400740CD2A9F1300092
:10A5700010F0FF0088F8000002D10099884509D941
:10A5800008F1010806E0E00501D51E4801E042F2AD
:10A590000F708246B96912986D1C884781461398DE
:10A5A0000560002E04DD48460BF0D0FB0028D6D114
:10A5B000F96912988847FF2053468BF8000088F805
:10A5C000000000200A900B9004AA0CA90AA8FFF72B
:10A5D000ADFDA00502D46FF00100F8E614F0240FE1
:10A5E00012D0E0071CD13868DDE90A12031D3B6078
:10A5F0000068C0E9001213E0E8350100DA35010017
:10A600009E340100F1D8FFFF0AA968460BF0D0FA8A
:10A61000E00705D13868009A011D396000680260C2
:10A620002846D4E62DE9F047814616468AB03548DB
:10A6300078440DC88DE80D0032487844801C03AC86
:10A640000DC884E80D0041F69B300844372190FB8B
:10A65000F1F290FBF1F5A5F1800501FB12041B3C22
:10A6600002D56442012000E00020DFF898A0804677
:10A670000027FA44AAF1BE0A0EE0E0070AD03246EB
:10A68000684607EB470101230AEB810100F0FEFD5C
:10A690008DE8070064107F1C002CEED1194F7F4419
:10A6A000AE3F19E0E80715D007EB04100DF1180ACA
:10A6B00090E80E008AE80E00C068F04201D19819B7
:10A6C00008903246012306A903A800F0DFFD03AB82
:10A6D00083E807006D10641C002DE3D14FF00103E7
:10A6E00032466946B8F1000F03A802D000F0A4FD7D
:10A6F00001E000F0CBFDC9E90001C9F808200AB06B
:10A70000BDE8F0878C30010010B50446AFF300803F
:10A710002046BDE81040FDF7FABD002801D000F04A
:10A7200069B8704710B5012805D0002103A000F0DA
:10A7300067F8012010BD09A1F8E70000534947520E
:10A74000544D454D3A204F7574206F662068656101
:10A7500070206D656D6F7279000000003A204865C9
:10A760006170206D656D6F727920636F72727570A4
:10A77000746564004FF0013C50F8042B51F8043B21
:10A780009A4221D1A2EB0C03934313EACC1317D1C5
:10A7900050F8042B51F8043B9A4215D1A2EB0C035C
:10A7A000934313EACC130BD150F8042B51F8043B1C
:10A7B0009A4209D1A2EB0C03934313EACC13DBD0EA
:10A7C0004FF00000704700BFD01A01BAB1FA81F112
:10A7D00001F0180122FA01F0CB40C1F12001DBB2F7
:10A7E000C0B2C01A2CFA01F3D11A914311EAC31175
:10A7F000E6D1704701491820ABBEFEE726000200F3
:10A8000070B505460C460A2000E06D1C00F011F8FA
:10A8100035B128780028F8D102E0641C00F009F86E
:10A8200014B120780028F8D1BDE870400A20AFF3B9
:10A83000008008B569468DF800000320ABBE08BD56
:10A840002DE9FF4F1F464FF03C0987B04FF0004203
:10A85000DDE9141001F10108DDF858A002EA4050CA
:10A860000390002005908346054604460490B9698C
:10A87000461E08988847AAF1010A0290BAF1000F13
:10A880003BDD02982E2815D01021FEF727FC00286A
:10A890002EDB4FF0010B0599014317D0B9F1000FE2
:10A8A0000BDB4A46C11700F0F5F905430C43A9F14B
:10A8B000040905E0012004900BE008B145F0010512
:10A8C00001200590049820B9361D02E0049800B1DB
:10A8D000361FB969089808F101088847BBF1000FD5
:10A8E000AAF1010A0290C9D00999C1F80080C5E710
:10A8F0000298702808D0502806D0F969089888472F
:10A90000BBF1000F14D04FE0002002900120BBF1FA
:10A91000000F049009D0B969089808F10108884728
:10A92000AAF10109B9F1000F07DCF9690898884715
:10A930006FF001000BB0BDE8F08F2B2804D02D285C
:10A940000CD14FF0FF300490B969089808F1010864
:10A950008847A9F10109B9F1000FE6DD411CE4D0F7
:10A960000A21FEF7BBFB0028DFDB029908F1010892
:10A9700001EB810100EB41000290B969089888471A
:10A980000A21FEF7ABFB099AA9F10109B9F1000F01
:10A99000C2F8008001DD0028E7DAF96908988847E5
:10A9A0000499029800FB016655EA040004D004F003
:10A9B0004041090002D006E0039898E0A40044EA70
:10A9C0009574AD00B61E04F00041080002D16D1967
:10A9D0006441761E159810F0240F03D04FF00B0938
:10A9E0005C4803E04FF028096FF07D008246564531
:10A9F00007DAAAEB06018944B9F1410F01DD4FF0F6
:10AA0000410901200021A9F1010200F043F90246A9
:10AA100028400B462140084301D0012100E00021DD
:10AA2000501E029143F1FF3128402140084301D0DC
:10AA3000012000E000200299834651EA0B014FD02B
:10AA4000002108464FF00000039900F4400039B19E
:10AA500000EB80004FF4400100EBD07001EA600091
:10AA60008015012802DD4FF0FF3000E013D0401CBC
:10AA700036D0029860B3BBF1000F0CD14A460120DA
:10AA8000002100F007F928402140084301D00120AF
:10AA900000E00020E0B101204A46002100F0FAF871
:10AAA000034640190A4661412D1A8C4111D3B9F170
:10AAB000400F09DD159810F0240F02D0AAF13406DA
:10AAC00003E0AAF1170600E0761C00254FF00044D1
:10AAD00006E05B1E42F1FF3220EA030521EA020490
:10AAE000CAF10100B04206DA1B49039808430190FD
:10AAF000002000900EE0039AC4F3D321E80A0A4331
:10AB0000164940EA44500A433146CDE900026846FE
:10AB10000BF063F8159810F0240F0BD01598C007B0
:10AB200015D13868DDE90012031D3B600068C0E9FB
:10AB300000120CE002A869460BF03AF81598C0071D
:10AB400005D13868029A011D3960006802604046EC
:10AB5000F0E6000002FCFFFF0000F07F0000F03F85
:10AB60002DE9FF4F92461D4685B04FF00041DDE9CB
:10AB7000124BDDE914727F1E01EA4B50414940F04F
:10AB8000FF4940EA0108002122F0200049280491F1
:10AB900002D04E2828D04CE03BA0012607C88DE803
:10ABA0000700A9690698641C88477F1E014606D4E1
:10ABB0001DF8060018B121F0200181420BD0E9698F
:10ABC00006988847032E34D0082E32D06FF001004B
:10ABD00009B0BDE8F08F761C032E01D0082EE0D11D
:10ABE000601CCAF80000DCE7A9690698641C884765
:10ABF0007F1E2AD420F02000412826D1A96906987A
:10AC0000641C88477F1E20D420F020004E281CD1D1
:10AC1000A9690698641C88477F1E48F4002849F4F7
:10AC20008009CAF8004001D4282806D0E9690698AE
:10AC300088475FEACB7012D022E0A9690698641CAD
:10AC400088477F1E01D4002803DAE96906988847FF
:10AC5000BCE72928F1D1641CCAF80040E9E71BF0E1
:10AC6000240F07D028680499031D2B600068C0E9F1
:10AC7000001805E02868021D2A600068C0F80090EE
:10AC80002046A5E70000F07F494E46494E495459F9
:10AC900000000000B2F120030AD5C2F1200301FA3E
:10ACA00002F120FA03F300FA02F041EA03017047CF
:10ACB00000FA03F14FF0000070475FEA400C08BF54
:10ACC00091F0000F4FEA8C234FEAC12243EA515121
:10ACD0004FEA1C5018BF00F5F0404FEA300018BF93
:10ACE00041F000415FEA6C5C00F02980BCF1FF3F5D
:10ACF00008BF40F080407047130C06BF12044FF0AD
:10AD0000100C4FF0000C130E04BF12020CF1080CD3
:10AD1000130F04BF12010CF1040C930F04BF920037
:10AD20000CF1020CD30F04BF52000CF1010C1146C0
:10AD30004FF00002A0F11F00A0EB0C00704711F0D3
:10AD4000004F08BF704731F000413FF4D5AF0B0C06
:10AD500006BF09044FF0100C4FF0000C0B0E04BF9F
:10AD600009020CF1080C0B0F04BF09010CF1040CD3
:10AD70008B0F04BF89000CF1020CCB0F04BF4900FC
:10AD80000CF1010CCCF12003A0EB0C0022FA03F330
:10AD900002FA0CF241EA030100F10100704720F0D1
:10ADA0007F4C80EA030023F07F47ACEB070303F5F9
:10ADB0007C5300F0004003F1FF032DE980494FEA86
:10ADC000154B09B44FEA144325EA0B4E24EA034815
:10ADD0000FF2042606EB132749083E785FEA320299
:10ADE00003FB0667C7F5000707FB06F64FEA543773
:10ADF0004FEAD64606F1020607FB066CCCF1005C72
:10AE00004FEA1C472CEA074C07FB06F40CFB06F53F
:10AE100004EB15464FEA961634BF00204FF0004071
:10AE20004FEAD13706FB07FC4FEA1C4C0CFB0BF733
:10AE3000D21B03FB0CF761EB07010CFB0EF7B0EB29
:10AE4000074072EB17420CFB08F734BFA2EB074236
:10AE5000B2EB074261EB17414FEA0C444FEA91070E
:10AE600006FB07FC4FEA1C4C0CFB0BF7B0EBC74092
:10AE700072EB573203FB0CF734BFA2EBC742B2EBC5
:10AE8000C74261EB57310CFB0EF7B0EBC70072EB1A
:10AE900057720CFB08F734BFA2EBC702B2EBC70234
:10AEA00061EB5771039F4FEA816141EA921104EB14
:10AEB000CC044FEAD1374FEA826206FB07FC42EA34
:10AEC00090124FEA80604FEA1C4C0CFB0BF7D21B30
:10AED00003FB0CF761EB07010CFB0EF7B0EB07402F
:10AEE00072EB17420CFB08F734BFA2EB0742B2EB40
:10AEF000074261EB17414FEA8C554FEA910704EB8B
:10AF00009C2406FB07FC4FEA1C4C0CFB0BF7B0EB38
:10AF1000C74072EB573203FB0CF734BFA2EBC742BA
:10AF2000B2EBC74261EB57310CFB0EF7B0EBC70039
:10AF300072EB57720CFB08F734BFA2EBC702B2EBFF
:10AF4000C70261EB577115EB4C254FEA816141EA6D
:10AF500092114FEA82624FEAD13742EA901206FB21
:10AF600007FC44F100044FEA80604FEA1C4C0CFBE4
:10AF70000BF7D21B03FB0CF761EB07010CFB0EF781
:10AF8000B0EB074072EB17420CFB08F734BFA2EBA3
:10AF90000742B2EB074261EB174115EB1C154FEA74
:10AFA000813141EA92414FEA823242EA90424FEACD
:10AFB00080304FEA0C7644F1000448EA03434EEA3D
:10AFC0000B484FF0000EB2EB080C71EB030724BFE7
:10AFD000624639464EEB0E0E4FF0000B0018524100
:10AFE00049414BEB0B0BB2EB080C71EB03077BF108
:10AFF000000B24BF624639464EEB0E0E4FF0000B9D
:10B000000018524149414BEB0B0BB2EB080C71EBB2
:10B0100003077BF1000B24BF624639464EEB0E0E50
:10B0200051EA020718BF46F0010616EB0E7655F1FD
:10B03000000254F1000103D5BDE88901BDE8008894
:10B04000BDE88901BDE80048B619524141EB010154
:10B05000A3F10103704780807F7E7D7C7B7A7978C5
:10B06000777676757473727171706F6E6E6D6C6CCD
:10B070006B6A6A696868676666656464636362616F
:10B080006160605F5F5E5E5D5D5C5C5B5B5A5A59F0
:10B09000595858575756565555555454535352525C
:10B0A0005251515050504F4F4F4E4E4D4D4D4C4CB4
:10B0B0004C4B4B4B4A4A4A494949484848474747FD
:10B0C000474646464545454444444443434343423A
:10B0D000424242414141000046EA0646A3F5705310
:10B0E0004FEA164646EA42564FEAD22242EA415217
:10B0F00010B54FEAD121A3F1010300F02FF820F0A1
:10B10000004000F1020C00F0004701EB0050114636
:10B11000BCF5006F40EA070000D210BDBAF1000F85
:10B120000AD01CB503B44FF004004FF004014FF0F7
:10B1300000000FBCBDE810404FF00001BBF1010F53
:10B14000B9BF04484FF0FF310348002140EA07002F
:10B1500010BD00BFFFFFEF7F0000F07F002B9C467B
:10B1600030D477002BD01CB54FEA370703B44FF02B
:10B1700010004FF01001BAF1000F06D0BCF1000F23
:10B18000DCBF40F0080040F008014FF000000FBCA9
:10B19000BDE810400BF1010BBBF1010F08BF5FEAE6
:10B1A000170722BF12F1010211F101014FF0004116
:10B1B00043F1000300F0004043EA00007047F9D378
:10B1C0005708D0E746EA064613F1400F4FEA164605
:10B1D0001FDD13F1200FDFBF16430A460021203385
:10B1E0005B42BED0C3F1200746EA064602FA07F7E3
:10B1F0004FEA164646EA0706C3F1200722FA03F291
:10B2000001FA07F721FA03F14FF0000342EA0702BF
:10B21000A7E746EA020646EA06464FEA164646EA27
:10B220000106BCBF46EA0646360C4FF000034FF05D
:10B2300000024FF0000194E72DE9804C9A469346B6
:10B2400070B491E8380007C831EA400C48BF34EACE
:10B25000430C03D5FFF7A3FDFFF780FFF0BCBDE86B
:10B26000008C2DE9804C9A46934670B491E83800E2
:10B2700007C831EA400C48BF34EA430C03D5FFF756
:10B280008EFDFFF729FFF0BCBDE8008C2DE9804C56
:10B290009A46934670B491E8380007C810F0804F82
:10B2A00008BF13F0804F03D100F01AF8FFF756FFE4
:10B2B000F0BCBDE8008C2DE9804C9A46934670B4F2
:10B2C00091E8380007C810F0804F08BF13F0804F96
:10B2D00003D100F005F8FFF7FFFEF0BCBDE8008CDD
:10B2E00020F07F4780EA030023F07F4C07EB0C033C
:10B2F000A3F57C5300F00040A3F1FE0392F0000F91
:10B3000000F0B38095F0000F00F077802DE901493F
:10B310004FEA11404FEA144621EA004800FB06FCC0
:10B3200024EA064708FB06F607FB08F800FB07F7C8
:10B3300018EB06484CEB164C4FEA124B18EB07483B
:10B340004FEA15464CEB174022EA0B4E0BFB06FC6E
:10B3500025EA06470EFB06F607FB0EFE0BFB07F77A
:10B360001EEB064E4CEB164C4FF000061EEB074E44
:10B370004CEB174B18EB0B0840F1000018EB0E0BD1
:10B3800058EB000840F100008F1A4FF000013CBF5D
:10B39000C943661B14BFB5EB040C00213CBFC94375
:10B3A000F61B4FEA17444EEA8E0E27EA04454FEA91
:10B3B0001C4704FB07622CEA074C05FB07F70CFB54
:10B3C00005F604FB0CFC16EB074642EB174216EBA6
:10B3D0000C4642EB1C421BEB060658EB02024141B5
:10B3E00046EA9E0601D5BDE80189B619524141EBF6
:10B3F0000101A3F10103BDE801894FEA14454FEAB9
:10B40000114724EA054621EA074C05FB07F406FB31
:10B4100007F70CFB06F105FB0CFC11EB074144EBB5
:10B4200017444FEA124711EB0C4144EB1C4422EA4B
:10B43000074C05FB07F206FB07F70CFB06F605FBBE
:10B440000CFC16EB074642EB174216EB0C4642EBA0
:10B450001C456A1854F1000148BF7047B6195241A3
:10B4600041EB0101A3F10103704795F0000F37D0C4
:10B470004FEA11424FEA144721EA024624EA074CF8
:10B4800002FB07F106FB07F70CFB06F402FB0CFCC2
:10B4900014EB074441EB17414FEA154714EB0C44FA
:10B4A00041EB1C4125EA074C02FB07F506FB07F7B9
:10B4B0000CFB06F602FB0CFC16EB074645EB1745AA
:10B4C00016EB0C4645EB1C42121951F1000148BF26
:10B4D0007047B619524141EB0101A3F101037047D6
:10B4E0004FEA14454FEA114724EA054621EA074C82
:10B4F00005FB07F106FB07F70CFB06F24FF0000611
:10B5000005FB0CFC12EB074241EB174112EB0C421E
:10B5100051EB1C4148BF7047921841EB0101A3F168
:10B520000103704710B50146806B026C12F0500F9A
:10B5300005D0026CD20626D501F05DF810BD016C75
:10B5400041F40071016401688A6812F0405F17D10C
:10B55000027EAAB9CA6A12F4700F02D08A68520534
:10B560000ED44A6822F020024A60016C21F48071F6
:10B570000164016CC90403D4016C41F00101016450
:10B5800000F0FEFF10BD806BC26CBDE810400846A5
:10B59000104710B5806B40210164416C41F00401FB
:10B5A000416401F028F810BD10B5806B01F022F85D
:10B5B00010BD0000464910B54A6822F440324A6086
:10B5C0004A6843681A434A6001684A6822F48072F4
:10B5D0004A6001684A68036942EA03224A600168D6
:10B5E0004A6822F040724A6001684A6883681A43D8
:10B5F0004A6001688A6822F400628A6001688A6889
:10B60000C3681A438A60816A6FF07062D142016830
:10B610008A6822F070628A6001688A680CD0836A46
:10B620001A438A6001688A6822F040528A60016881
:10B630008A68C36A1A4301E022F040528A600168B6
:10B640008A6822F002028A6001688A68037E42EA00
:10B6500043028A6090F82010002901684A680FD0E0
:10B6600042F400624A6001684A6822F460424A601B
:10B6700001684A68174C436A04EB43331A4301E0FC
:10B6800022F400624A600168CA6A22F47002CA6247
:10B690000168CA6A838B104C04EB03531A43CA62D5
:10B6A00001688A6822F400728A6001688A6890F8EA
:10B6B000303042EA43228A6001688A6822F480625C
:10B6C0008A6001688A68406942EA8020886010BD0B
:10B6D0000023014000E0FFFF0000F0FF2DE9F041F2
:10B6E0000F4C05004FF0FF3726680AD002F040F9F2
:10B6F00005440020206009E00AF01AF8206886421C
:10B7000002D13846BDE8F0810AF09AFB02F030F928
:10B71000A842F1D303A00AF021FB0020F2E70000C9
:10B720002C0400202E2E2E6572720000FEE7000011
:10B73000014801F0E4B90000A80F0020014801F021
:10B74000DEB90000A80F0020014801F0D8B90000C0
:10B75000A80F0020014801F0D2B90000A80F002076
:10B76000014801F095BC00009C150020014801F043
:10B770008FBC00007C140020014801F089BC00004F
:10B78000DC140020014801F083BC00001C140020E0
:10B79000014801F07DBC00003C150020014801F08B
:10B7A00077BC0000BC130020014801F071BC000010
:10B7B00034790020014801F06BBC00005C130020CC
:10B7C000014801F065BC0000DC110020014801F0D7
:10B7D0005FBC00003C120020014801F059BC000091
:10B7E0009C120020014801F053BC0000FC15002011
:10B7F000014801F04DBC00005C160020014801F03A
:10B8000047BC0000FC120020014801F041BC0000D0
:10B81000BC16002001681823CAB2103AB2FBF3F23A
:10B82000054B6FF30901032A9B5CC36500D9091D11
:10B830008165084670470000B8BE010810B5014692
:10B8400000208B698A6A4FF0C07453B1B3F5005F72
:10B8500015D072B1012A0CD0022A0AD0032A09D1CC
:10B8600004E01AB1012A06D0022A03D1C96AC9012B
:10B8700000D5012010BDC96AA142FAD010BD002A2E
:10B88000F7D0012AF2D0022AF3D0032AF3D010BD58
:10B8900030B50468256825F4802525600468636058
:10B8A0008368402B036803D099600068C26030BD94
:10B8B0009A600068C16030BD10B500224FEA0201F5
:10B8C00000EB8203521CC3F884130F2AF8D3002222
:10B8D0004FF400738418521C84F81C119A42F9D357
:10B8E0000170417001228270C0F8C41302764023B7
:10B8F0008371417680F81C1380F81D2380F81F1394
:10B9000080F81E13002010BD704770472DE9F047E6
:10B91000334C07460D46606820B102F029F8616893
:10B9200088423DD30021A04607EB47006160DFF865
:10B93000B090C40009F10C09E6179DB3D8F80000D7
:10B9400020B902F015F81430C8F80000254850F866
:10B95000271011B9696840F82710D8F8081000209E
:10B960002B5C13F0780F16D003F007038B4212D331
:10B9700003EBC30101EB410309EB830104EB5677B1
:10B9800000EBE70C01274B6807FA0CF73B434B60D1
:10B99000295C01F00701401C0328E1DBC8F808100E
:10B9A000BDE8F087FFE701F0E3FF00F57A7004EBF4
:10B9B0009675C8F80400A810052200210FF04AFA75
:10B9C00000244E4601F0D4FF04EBA50106EB8101F3
:10B9D00000F57A70641CC860062CF3DBE0E7000019
:10B9E00088000020586F0020F1B5AAB000242A98E2
:10B9F00098B12AA80FF02BF800783F2874D03BDCD0
:10BA00004FF0000627AD3C2878D030DC2B286DD0D5
:10BA10002D286CD02F283BD147E08248007820B1F8
:10BA2000802168460CF01EF940B17FA16846FCF702
:10BA3000ADFE69467DA00AF091F9EAE003227DA1FE
:10BA40006846FCF7E6FE00284FF03A01684608D049
:10BA5000FCF792FE014678480078313001F8010C7D
:10BA6000E7E7FCF789FE552100F8011CE1E73D28D6
:10BA700070D03E280CD16EE0562813D004DC492843
:10BA800028D0552804D119E0752817D0762809D078
:10BA900000256AA12A98FCF769FE00906C465DF8C3
:10BAA0002500A2E00EF096FCB3E0012264A16648F6
:10BAB0000CF0DEFC04000CD161A007E0012263A1C0
:10BAC00061480CF0D5FC040003D160A00CF06EF8C6
:10BAD00004469EE007F060FA5E4D48B101F048FF71
:10BAE00000F57A70686094E05FE007E064E069E088
:10BAF00001F03EFF00F57A7028608AE02A98102253
:10BB0000401C2AA92A90FCF7F8FD534F209001E031
:10BB1000401C2A902A9801782029F9D0249608E020
:10BB200010222AA9FCF7E9FD249948552498401CC5
:10BB300024902A98017811B124990829F0D3386803
:10BB4000242220A900680AF097F82A980078002893
:10BB5000E0D15EE03CE02A981022401C2AA92A90FD
:10BB6000FCF7CBFD209001E0401C2A902A98017838
:10BB70002029F9D0249608E010222AA9FCF7BDFD5F
:10BB8000249948552498401C24902A98017811B192
:10BB900024990829F0D32946249A209805F09CFE80
:10BBA0002A9800780028E1D133E02A98401C2A9096
:10BBB00000F076F82BB0F0BD2A98401C2A9000F0D7
:10BBC000D5F9F7E72A98401C2A9000F04DF9F1E7E3
:10BBD0002A98401C2A9000F041F8EBE717A10020BA
:10BBE000FCF7C4FD6D1C44F825000028F6D10D4E6D
:10BBF00000241836009840B1FCF7ECFD024656F8D8
:10BC000034100098FCF705FE28B1641C0F2CF1D30A
:10BC100006242046CEE706EBC40069464268284663
:10BC20009047C7E7880300203F3A2F000D0A25738D
:10BC300000000000303A2F0034040020202C0000C7
:10BC4000464C4153483A0000686F00205553423A31
:10BC500000000000700900202004002031B5684673
:10BC60000EF0F5FE0078552803D0752801D0062087
:10BC700038BD20210098FCF77FFD084C009006E0BD
:10BC8000401C0A2269460090FCF737FD20610098AD
:10BC900010B101780029F3D1002038BD88030020BD
:10BCA0002DE9F1412DED048B85B009A80EF0CFFEF2
:10BCB0000078742878D0752870D0762876D0062041
:10BCC00005B0BDEC048BBDE8F881DFF83081D8F811
:10BCD00008030FF0A2FC9FED4A8B53EC182B0FF0DA
:10BCE000EBFC9FED499B53EC192B0FF0A5FA9FED50
:10BCF000481B53EC112B0FF0EBFE9FED471B53EC51
:10BD0000112B0FF099FA9FED461B53EC112B0FF0FE
:10BD1000D7F90FF0A3F90FF0C5FF0646D8F80403D2
:10BD20000F46A0F6FF7040420FF077FC9FED3E1BE0
:10BD300053EC112B0FF0C0FC53EC182B0FF0F0FD5F
:10BD40000FF08CF90FF0AEFF04460D46D8F8000353
:10BD50000FF063FC53EC182B0FF0AEFC53EC192BD7
:10BD60000FF06AFA9FED321B53EC112B0FF0A4FC7D
:10BD70009FED311B53EC112B0FF05EFA0FF06EF9B3
:10BD80000FF090FF8DE8F00041EC100B2CA053EC6D
:10BD9000102B09F0E3FFC8200AF088F82D480DF0B9
:10BDA00023FA401C91D026E01BE0FFE70EF012FBC7
:10BDB00021E000BF01F0DCFDB0FBF5F0B0FBF4F1D9
:10BDC00004FB1103B0FBF4F1B1FBF4F204FB12121B
:10BDD000B0FBF6F120A009F0C1FFC8200AF066F818
:10BDE00004E04FF47A753C244FF4616619480DF075
:10BDF000FBF9401CDED0002062E70000540C00205C
:10BE00006666666666660A400000000000FEAF4097
:10BE100052B81E85EB51E83F7B14AE47E17A643F90
:10BE20000000000000003940166001166001763FF6
:10BE30009A99999999194840333333333333F33FFF
:10BE40000D252E3166562C252E3166562C252E3189
:10BE5000662743007C0000200D253032643A2530EF
:10BE600032643A2530326400F1B568460EF0EFFDD9
:10BE700000780026394D0124642811D008DC4428BC
:10BE80000ED0452842D04D2826D0522806D158E061
:10BE900065283BD06D281FD0722852D00620F8BDEF
:10BEA00020210098FCF768FC009070B96E6011E0EA
:10BEB000401C0A2269460090FCF71FFC696804FADE
:10BEC00000F081436960009810B101780029EFD13A
:10BED000686820BB6E613EE020210098FCF74CFCB6
:10BEE0001F4D009070B92E6035E0401C0A22694653
:10BEF0000090FCF702FC296804FA00F081432960F5
:10BF0000009860B101780029EFD124E02021009849
:10BF1000FCF732FC009080B94FF0FF30E8601AE087
:10BF2000401C0A2269460090FCF7E7FB04FA00F186
:10BF3000E8680143E960009868B101780029EFD111
:10BF400009E00122D103074801F00CFD01F010FDCA
:10BF50000549C83008600020F8BD000088030020B3
:10BF600038040020000402407009002031B5684602
:10BF70000EF06DFD00780124384D642811D008DCE6
:10BF800044280ED0452842D04D2824D0522806D12E
:10BF900057E065283BD06D281DD0722851D006206F
:10BFA00038BD20210098FCF7E7FB00900BE0401C17
:10BFB0000A2269460090FCF7A0FB04FA00F16868C9
:10BFC00001436960009810B101780029EFD124483D
:10BFD0000068686140E020210098FCF7CDFB214D0E
:10BFE000009080B94FF0FF30286035E0401C0A22F5
:10BFF00069460090FCF781FB04FA00F128680143D0
:10C000002960009840B301780029EFD124E0202175
:10C010000098FCF7B1FB009078B90020E8601BE0C5
:10C02000401C0A2269460090FCF767FBE96804FAA5
:10C0300000F08143E960009870B101780029EFD1E8
:10C040000AE000224FF40041074801F08BFC01F0A8
:10C050008FFC0649C8304860002038BD88030020A6
:10C0600078000020380400200004024070090020FD
:10C0700010B5D4B0012801DD4B6800E012A313A273
:10C08000694646A80BF0B4FD00281AD10DF116043C
:10C0900021460FA009F062FE9DF80800C00602D5F7
:10C0A0000DA10EA001E00FA0009909F057FE69460E
:10C0B00046A80BF0ADFD002803D19DF8161000290D
:10C0C000E6D154B010BD00002A00000000000000BE
:10C0D0000D0A252D313673002F000000252D3873F1
:10C0E00000000000252D38640000000070470000AB
:10C0F00070B51F480DF078F81D4C054620680068A3
:10C10000406930B908210120FCF72AF92168096843
:10C1100048611B2D0BD0681C20680068406912D054
:10C12000416801B3016845EA012101601DE0206812
:10C1300000684069056001F01BFC21680A3009684D
:10C140004969486011E0406878B101F011FC22684B
:10C15000116849694B68984207D900204860106807
:10C160004069006870BD284670BD4FF0FF3070BD5B
:10C170007C000020002200F001B8000030B50E4B1A
:10C18000054601209C7B022C15D2987B00241C5470
:10C19000987B03EB800045609D7B03F10C002A54E3
:10C1A000987B421C9A73303008703A2048702F20D8
:10C1B0008870CC70002030BD081E002030B587B0DC
:10C1C0000C46054601F01CFA002000900220029562
:10C1D000CDE9034005A9684601F0CEF8044601F018
:10C1E0009DF907B0204630BD002229B101291AD09F
:10C1F00002291BD04FF440720E490B6823F44073A0
:10C200000B600B6813430B600A6822F0F8020A60A7
:10C210000A68022303EBC00002430A60086840F486
:10C220008030086070474FF48072E5E74FF4007289
:10C23000E2E70000103C02401348016889050FD571
:10C24000016821F400710160016841F4006101603E
:10C25000016821F400610160016841F4007101602E
:10C26000016849050FD5016821F48061016001680A
:10C2700041F480510160016821F48051016001683E
:10C2800041F4806101607047003C024008490A683F
:10C2900022F440720A600A6842F004020A600A68E6
:10C2A0004FF4803343EA002002430A6070470000E5
:10C2B000103C024070B50C460A490546F220086061
:10C2C0002868A0420CD001F09BF9224600232946A1
:10C2D000022001F057F906460228F6D001F01EF9B7
:10C2E000304670BD0C3C0240064A136823F440738C
:10C2F000136013681360136843F001031360017047
:10C3000070470000103C0240094910B50C6824F445
:10C3100040740C600C6844F440740C600C6844F089
:10C3200001040C600260BFF36F8F436010BD00001A
:10C33000103C0240074A136823F4407313601368EB
:10C3400043F480731360136843F0010313600180AA
:10C3500070470000103C0240074A136823F4407302
:10C360001360136843F400731360136843F0010310
:10C370001360016070470000103C024017490868D4
:10C38000C206174805D5C26942F01002C2611022E8
:10C390000A600A68920605D5C26942F00802C261C5
:10C3A00020220A600A68520605D5C26942F00402DA
:10C3B000C26140220A600A68120605D5C26942F0CD
:10C3C0000202C26180220A600A68920705D5C2692A
:10C3D00042F02002C2610220086070470C3C02401B
:10C3E000B81D002070B5114904460020C86101F055
:10C3F000BFFA06460E4D09E0601C07D024B101F0DB
:10C40000B7FA801BA04201D9032070BD2868C00381
:10C41000F2D42868C00701D001202860286810F0F5
:10C42000F200F2D0FFF7AAFF012070BDB81D002076
:10C430000C3C024078B50024009490F83C20012A7E
:10C4400019D0012280F83C200A6807230568092AD0
:10C4500013D9EE680A3A02EB420293409E43EE6023
:10C460000B788A680A3B03EB43039A400368DD6854
:10C470002A43DA6010E0022078BD2E6902EB420206
:10C4800093409E432E610B788A6803EB43039A40E6
:10C4900003681D692A431A614A681F23072A13D2B9
:10C4A00005686E6B521E02EB820293409E436E63E0
:10C4B0000B790A885B1E92B203EB83039A400368F0
:10C4C0005D6B2A435A6327E005680D2A12D22E6B52
:10C4D000D21F02EB820293409E432E630B790A889F
:10C4E000DB1F92B203EB83039A4003681D6B2A4360
:10C4F0001A6311E0EE6A0D3A02EB820293409E430A
:10C50000EE620B790A880D3B92B203EB83039A40EB
:10C510000368DD6A2A43DA62164B0568144A9D42B5
:10C5200006D10D68122D03D1556845F4800555607C
:10C5300005689D4218D10B68102B01D0112B13D127
:10C54000536843F400035360096810290CD10A4969
:10C550000A4A0968B1FBF2F101EB8101490000E0F0
:10C56000491E00910029FBD180F83C40002078BD95
:10C5700000230140002001403C00002040420F0009
:10C5800030B51B480021C0F80413C0F80013C0F8F0
:10C59000081300BF01EB410300EB4302D0F808434E
:10C5A0009588491C2C44C0F8084330F81330D0F863
:10C5B000004380292344C0F800335288D0F8043364
:10C5C0001A44C0F80423E5D3D0F80823B2FBF1F2F3
:10C5D000C0F80823D0F80023B2FBF1F2C0F8002322
:10C5E000D0F80423B2FBF1F1C0F8041330BD000011
:10C5F000540C00207047704770B504004FF00005E0
:10C6000003D0206C002610B107E0012070BD204649
:10C6100000F01CF8666484F83C60206CC00610D4FE
:10C62000206C20F4885040F0020020642046FEF781
:10C63000C1FF6664206C20F0020040F0010020641D
:10C6400000E0012584F83C60284670BDF0B587B055
:10C65000064614216846FCF7C8F91F49306888422D
:10C6600037D11E480025016841F4807101600068DF
:10C6700000F48070059019481438016841F00401F5
:10C6800001600068032700F0040000970590CDE9E1
:10C6900001756946124801F07DF8134C1148C4E950
:10C6A00000050015A560C4E90350400060618000EA
:10C6B000A0614011C4E9070504206062C4E90A755D
:10C6C0002046256300F0B4FD08B1FFF70FFDB46309
:10C6D000A66307B0F0BD00000020014044380240CE
:10C6E0000008024010640240DC110020F8B50E463C
:10C6F00000210446009190F83C00012807D0012059
:10C7000084F83C0020688368DB0702D011E0022037
:10C71000F8BD836843F0010383603748374B0068F6
:10C72000B0FBF3F000EB400000E0401E009000285A
:10C73000FBD120688368DB075CD0236C40F2016585
:10C74000AB4343F4807323644068400505D5206CF7
:10C7500020F4005040F480502064206CC00404D5C4
:10C76000606C20F00600606400E0616484F83C10B6
:10C77000A16B2448224DC863A16B23480864A16BB8
:10C780002248C86421686FF0220008602068416870
:10C7900041F0806141602068816841F4807181606E
:10C7A0002168134632464C31A06B00F0ABFD68683F
:10C7B0001749C006206806D088421BD1816811F055
:10C7C000405F13D016E08842F8D0124A904203D15D
:10C7D000D1F80423D206F1D00F4A90420AD1D1F801
:10C7E000041301F01F011029E8D303E0816841F030
:10C7F000804181600020F8BD3C00002040420F00D5
:10C800000023014025B50008A9B5000893B500082C
:10C8100000200140002101400022014090F820202A
:10C82000012A07D0022A05D0416A41F480214162E1
:10C8300001207047006842690A4342610020704746
:10C84000F0B590F820500468A468012D05D0022DA1
:10C8500003D0416A41F4802153E014F0406F01D1CC
:10C86000E5004BD5C4F30164022C03D9416A41F4BD
:10C87000000146E00125A5401D608D684FF4C0739E
:10C880009DB1CE6835434E6845EAC605066803EBA0
:10C890000417F5514FF4C275076805EB04150E69CE
:10C8A0007E51097D012905D009E00E88CD6845EA51
:10C8B0004655EBE701684E5946F480764E511179A2
:10C8C000D2F805504FF4C67641EA0525016806EB1B
:10C8D00004168D511178D2F801204FF4C47541EA45
:10C8E0000221026805EB04155151006803EB0411A5
:10C8F000425842F0010242500020F0BD416A41F42A
:10C90000001141620120F0BD10B590F82020012AED
:10C9100007D0022A05D0416A41F4802141620120FA
:10C9200010BD3B48D0F8002242F00102C0F80022BE
:10C93000D0F8002222F47C52C0F80022D0F8002265
:10C940004B6A42EA0322C0F800220A7D02F01F036C
:10C9500001229A40D0F81C329343C0F81C32CB69B4
:10C96000B3B9D0F80C329343C0F80C328C894B68C1
:10C9700064F31F434C6900EBC404C4F840320C89D3
:10C980000B6864F31F434C6900EBC404C4F84432E1
:10C99000CB69012B16D1D0F80C321343C0F80C32FE
:10C9A0000C884B6864F31F434C6900EBC404C4F863
:10C9B00040320C89CB6864F31F434C6900EBC4041C
:10C9C000C4F844328B69002BD0F804320ED01343E4
:10C9D000C0F804320B69002BD0F8143208D013438E
:10C9E000C0F81432096A012904D008E09343EFE744
:10C9F0009343F5E7D0F81C121143C0F81C12D0F88D
:10CA0000001221F00101C0F80012002010BD00004A
:10CA100000640040704730B590F82040012C05D0EC
:10CA2000022C03D0416A41F480215DE004680029B2
:10CA300055D02469A40754D04FF4D874056804EB8A
:10CA400001142D5915F00405956005682D594ED037
:10CA5000ED08556005682C5904F00204D4604FF4C9
:10CA6000DA74056804EB01142D5905F00F05156102
:10CA700005682D59C5F30725956105682C59240CC7
:10CA800054614FF4DC72046802EB0112A4581C706C
:10CA90000468A458240A5C700468A458240C9C7090
:10CAA0000468A258120EDA704FF4DE72046802EBCA
:10CAB0000112A4581C710468A458240A5C7104680B
:10CAC000A458240C9C710468A258120EDA710068F4
:10CAD00081B1016941F020010161002030BDE468AD
:10CAE000A8E7416A41F400114162012030BD6D0D9B
:10CAF0001560AFE7C16841F02001C160EDE72DE9A5
:10CB0000F05F0546006800244669D0F80490876805
:10CB1000D0F80CB0D0F810A0D0F81880F10748D0A9
:10CB2000F90714D001218160B80703D5284600F029
:10CB300020FA0CE0780702D54FF4006407E03807CC
:10CB400002D54FF4805402E0284600F011FAF805AF
:10CB500016D529684FF480708860B80503D528463B
:10CB600000F00AFA0CE0780502D544F4005407E01E
:10CB7000380502D544F4804402E0284600F0FBF971
:10CB8000F80316D529684FF480308860B80303D5C0
:10CB9000284600F0F5F90CE0780302D544F400448F
:10CBA00007E0380302D544F4803402E0284600F060
:10CBB000E5F9300707D55FEACB6004D52968102076
:10CBC00044F40074C86070074FF0080707D55FEAA7
:10CBD0000B7004D52868C760284600F079F9B007C3
:10CBE00006D52868C068800702D0284600F072F990
:10CBF000700607D55FEACA6004D52968102044F49E
:10CC000080640861B00607D55FEA0A7004D5286819
:10CC10000761284600F07CF9F00606D5286800690F
:10CC2000800702D0284600F074F9B00308D55FEA07
:10CC3000C96005D5296810204860284600F06BF9C6
:10CC4000F00307D55FEA097004D5286847602846D5
:10CC500000F0AEF9300446D55FEA497040D5F005E2
:10CC600004D55FEAC87001D044F00104B00504D5D2
:10CC70005FEA887001D544F00204700504D55FEACC
:10CC8000487001D544F00404300529D518F0700F20
:10CC900026D008F07000402815D006DC102809D0F6
:10CCA00020280AD0302816D10AE050280ED060285B
:10CCB00011D10EE044F008040DE044F010040AE045
:10CCC00044F0200407E044F0400404E044F0800411
:10CCD00001E044F480742868816921F07001816169
:10CCE000296804204860002C05D0686A20436862E7
:10CCF0002846FFF78FFEBDE8F09F70B5040003D013
:10CD000094F8200010B104E0012070BD204600F02E
:10CD100081F82068016821F00201016000F028FE1E
:10CD20000546052604E000F023FE401B0A2811D822
:10CD3000206840688007F6D42068016841F001014E
:10CD4000016000F015FE05460BE000F011FE401BEF
:10CD50000A2806D9606A40F40030606284F82060D6
:10CD6000D2E720684068C007EFD0207E0128206805
:10CD700001683DD021F080010160607E01282068BB
:10CD8000016838D021F040010160A07E01282068B0
:10CD9000016833D021F020010160E07E0128206885
:10CDA00001682ED041F010010160207F0128206829
:10CDB000016829D021F008010160607F0128206806
:10CDC000016824D021F004010160D4E90201084384
:10CDD000D4E90412114308436168491E08432168DD
:10CDE000C86100206062012084F82000002070BD2E
:10CDF00041F08001C0E741F04001C5E741F020016A
:10CE0000CAE721F01001CFE741F00801D4E741F073
:10CE10000401D9E710B586B0044614216846FBF733
:10CE2000E4FD28492068884249D12748016841F03B
:10CE300080610160016801F080610591016841F045
:10CE400000710160006800F0007005901E48103805
:10CE5000016841F0020101600068694600F00200CB
:10CE600005904FF440500090022001900120029064
:10CE70000320039009200490144800F08BFC00224A
:10CE800003213F2001F0CCF93F2001F0BCF9002242
:10CE90000221402001F0C4F9402001F0B4F9002241
:10CEA0000221412001F0BCF9412001F0ACF900223F
:10CEB0000321422001F0B4F9422001F0A4F906B0A8
:10CEC00010BD0000006800404038024000040240ED
:10CED0007047000000B589B06A46002107ABFFF734
:10CEE0009AFD0098A0F50071153904D10648006834
:10CEF000406AADF82200054824226946806800682F
:10CF000008F0BAFE09B000BDDC0F002018040020B4
:10CF10007047FFF7DFBF704770B5044690F82000F8
:10CF2000012804D0606A40F40020606218E002200A
:10CF300084F820002068016821F00101016000F000
:10CF400017FD05460EE000BF00F012FD401B0A2849
:10CF500008D9606A40F400306062052084F820003F
:10CF6000012070BD20684068C007EDD1606270BDCF
:10CF7000704700F005B8704700F002B87047000035
:10CF8000094800B5806889B020224068694608F0E9
:10CF90005DFE002805D008AB6946044806AAFFF7E5
:10CFA0004FFC09B000BD000018040020A80F0020AD
:10CFB000704730B50223437103689C6844F0010454
:10CFC0009C60002304E0056851F823402C605B1C42
:10CFD0009342F8D30168096801224271084630BDC6
:10CFE00010B5040002D0607910B106E0012010BD38
:10CFF00000202071204600F005F80120607100201B
:10D0000010BD000008B500680649884208D10648EE
:10D01000016841F480510160006800F48050009084
:10D0200008BD0000003002403038024070B50400F6
:10D030002BD094F83500022826D02068016821F012
:10D0400001010160206800250560206845602068B6
:10D0500085602068C56020680561216821204861DD
:10D060002046FEF7D7FBE56325646564A564E564A7
:10D07000256594F85C203F2191408160656584F8C6
:10D08000355084F83450002070BD012070BD000080
:10D090002DE9F84304464FF00009CDF800906348AD
:10D0A0004FF41651A56D0068B0FBF1F72E6894F8A7
:10D0B0005C10082000FA01F131420FD021680A68A3
:10D0C00052070BD50A6822F004020A6094F85C103B
:10D0D0008840A860606D40F00100606594F85C10C5
:10D0E0004FF0010808FA01F0304208D02168496980
:10D0F000090604D5A860606D40F00200606594F8F0
:10D100005C1004208840304208D0216809688907F3
:10D1100004D5A860606D40F00400606594F85C1070
:10D1200010208840304218D021680968090714D5BA
:10D13000A86020680168490304D50068000308D589
:10D14000A16C07E00168C90503D4016821F008015A
:10D150000160216C09B12046884794F85C102020BA
:10D160008840304231D021680968C9062DD5A860B1
:10D1700094F8350005282068016806D0490347D592
:10D18000006800031DD4616C1CE021F016010160F1
:10D190002068416921F080014161206C08B9A06CD0
:10D1A00020B12068016821F00801016094F85C104A
:10D1B0003F208840A86084F8349084F83580216D41
:10D1C0001FE0E16B09B120468847606D00282BD035
:10D1D000606DC00714D0052084F835002068016810
:10D1E00021F0010101600098401C0090B84203D872
:10D1F00020680068C007F6D184F8349084F8358040
:10D20000E16C002910D001B02046BDE8F04308478A
:10D210000168C905D5D4016821F01001016084F8C6
:10D22000349084F83580CCE7BDE8F8833C000020DA
:10D230002DE9F041044600F09BFB06465CB1002559
:10D2400084F83450022084F835002068016821F009
:10D25000010101600DE00120BDE8F08100F088FBD4
:10D26000801B052805D920206065032084F835003F
:10D27000F2E720680068C007F0D1226811682048F2
:10D280000140D4E901031843D4E90336334318437A
:10D2900063691843A3691843E3691843236A184371
:10D2A0000843616A042903D1D4E90B1319430843E5
:10D2B000106020684069666A20F0070130460E431E
:10D2C000012704280CD1A06A0643E06A40B1204639
:10D2D000FEF7B4FA20B14020606584F83570BAE7F3
:10D2E000206846612046FEF795FA94F85C203F21BD
:10D2F00091408160656584F835700020ACE70000DE
:10D300003F8010F02DE9F0410446866D90F834001E
:10D31000002501280DD0012084F8340094F83570E0
:10D320000020012F07D084F8340002252846BDE8EC
:10D33000F0810220FBE7022784F835706065204603
:10D34000FEF7A6FA94F85C103F208840B060206891
:10D35000016841F016010160206C20B1206801686D
:10D3600041F0080101602068016841F0010101609D
:10D37000DCE708F09BBD00002DE9F0470446224899
:10D380000F46017E01290AD00121804601764CF228
:10D3900050394846FFF726F8020003D02FE002205C
:10D3A000BDE8F0874FF0FF3038602068174D012846
:10D3B00001D0A6681CE0207C6168FEF767FF484644
:10D3C000FFF710F80246286820F00400286014E0F7
:10D3D000217C3046FEF708FF4846FFF703F80200BD
:10D3E000286820F0FA00286001D03E6005E0761C35
:10D3F000D4E902100844B042EAD8FEF71DFF00212C
:10D4000088F818101046CBE7B81D0020103C0240E9
:10D410000F2101600D49098881600C4AAA21521E22
:10D420001378CC2B0FD01278AA2A00D05521016195
:10D430000649891E0A6802F0E0020276097801F0C6
:10D440000C0141617047CC21F1E70000163C02401D
:10D450002DE9F0472E49044601200A7E012A11D009
:10D46000012288460A7621784CF2503AC90715D035
:10D470006068284D0128A668504606D0FEF7B2FF26
:10D4800048B10BE00220BDE8F087FEF7ABFF28B9FA
:10D490002988B14301E0298831432980217889070F
:10D4A00007D5257C5046FEF79DFF10B91949491E46
:10D4B0000D702178DFF86090490713D5207E00F0C9
:10D4C000200700F0400500F080065046FEF78AFF76
:10D4D00040B999F8002002F01F02154335433D433F
:10D4E00089F8005021784FF0000209070CD5207D03
:10D4F00099F8003023F00C0389F8003099F80030D7
:10D50000034389F80030104688F81820BBE7000074
:10D51000B81D0020163C0240143C0240034801683C
:10D5200041F000410160002070470000103C0240C3
:10D530000448017841F0020101704CF25030FEF7CE
:10D5400051BF0000143C02400348016841F0010152
:10D550000160002070470000143C0240064800684B
:10D56000C00707D0044805490C3801600449016030
:10D570000020704701207047143C02403B2A1908E4
:10D580007F6E5D4C2DE9F0471B4E05461446307EFC
:10D590001F468946012808D0012030764CF25038C9
:10D5A0004046FEF71FFF18B114E00220BDE8F087E7
:10D5B0009DB1012D16D0022D19D022463B4648467A
:10D5C000FEF7A2FE4046FEF70DFF0C490A6822F066
:10D5D00001020A6000213176E8E7E1B24846FEF731
:10D5E00083FEEFE7A1B24846FEF7A4FEEAE7214634
:10D5F0004846FEF7B1FEE5E7B81D0020103C0240AA
:10D60000074900200A68002A09DA054A054B0C3A46
:10D610001360054B13600968002900DA0120704788
:10D62000103C024023016745AB89EFCD2DE9F04F57
:10D630000022DFF838B101264FF00F0906FA02F494
:10D6400001EA0403A3427DD122F003075F44D7F827
:10D65000088895074FEA157C09FA0CFA0AEA0805CA
:10D66000DFF80C81404502D14FF0000832E0DFF8CE
:10D670000481404502D14FF001082BE0DFF8F8802B
:10D68000404502D14FF0020824E0DFF8F080404529
:10D6900002D14FF003081DE0DFF8E480404502D1DD
:10D6A0004FF0040816E0DFF8DC80404502D14FF06F
:10D6B00005080FE0DFF8D080404502D14FF00608A2
:10D6C00008E0DFF8C880404502D14FF0070801E0CC
:10D6D0004FF0080808FA0CF8A84522D12C4DD5F8CF
:10D6E00000C02CEA030CC5F800C005F1040CDCF8FE
:10D6F00000509D43CCF800500CF10405D5F800C053
:10D700002CEA030CC5F800C02D1DD5F800C02CEA8A
:10D71000030CC5F800C0D7F8085825EA0A05C7F871
:10D720000858056857000323BB409D430560D50892
:10D7300000EB8505D5F820C057074FEAD76809FAEE
:10D7400008F700E00CE02CEA070CC5F820C0C5681B
:10D750009D43C5604568A543456084689C438460DB
:10D76000521C102AFFF46AAFBDE8F08F0030014070
:10D77000000002400004024000080240000C024089
:10D78000001002400014024000180240001C024039
:10D79000003C01402DE9F84F00224FF0010803251D
:10D7A0004FF00F0E0B6808FA02F42340A3426ED12B
:10D7B0004E68012E05D0022E03D0112E01D0122E5C
:10D7C00012D186684FEA420C05FA0CF7BE43CF68C7
:10D7D00007FA0CF7374387604668A6430C79C4F311
:10D7E0000014944034434460C668570005FA07FCAF
:10D7F0008C6826EA0C06BC403443C4604C68022C9A
:10D8000001D0122C13D1D40800EB8404A346D4F821
:10D81000209054074FEAD46A0EFA0AF629EA06095C
:10D820000E6906FA0AF646EA0906CBF82060066891
:10D830000C7926EA0C0604F00304BC40344304606F
:10D840004C68E40065D5364C266846F48046266070
:10D85000246822F0030604F480440094314C3444DC
:10D86000A446D4F808489607370F0EFA07F6B443D3
:10D870002D4EB04201D1002624E02C4EB04201D101
:10D8800001261FE02A4EB04202D102261AE040E0F3
:10D89000284EB04201D1032614E0274EB04201D1F8
:10D8A00004260FE0254EB04201D105260AE0244EA1
:10D8B000B04201D1062605E0224EB04201D1072632
:10D8C00000E00826BE402643CCF808681E4E3468A7
:10D8D0004F689C43FF0300D51C4334601A4C241D41
:10D8E00026684F689E43BF0300D51E432660164E30
:10D8F000083634684F689C43FF0200D51C433460EF
:10D90000114E0C3634684F689C43BF0200D51C434F
:10D910003460521C102AFFF445AFBDE8F88F0000B8
:10D920004438024000300140000002400004024040
:10D9300000080240000C02400010024000140240A7
:10D9400000180240001C0240003C014000690840F1
:10D9500000D001207047426931EA020200D1090477
:10D96000816170470AB1816170470904FBE70000DB
:10D97000014880687047000030000020D0F8C002E5
:10D9800005F0E8BBD0F8C00205F0EEBB006806F079
:10D99000C9BD006806F0CABD01EB810100EBC10002
:10D9A00090F85C00704701EB810100EBC100C06C96
:10D9B000704710B5044690F8B802012809D001203C
:10D9C00084F8B802206806F0BCFD002084F8B80294
:10D9D00010BD022010BD2DE9FE430546DDE90B70A8
:10D9E00095F8B842DDF828C0012C1CD001EB810469
:10D9F0004FF0010905EBC40485F8B892002684F8BD
:10DA00003D6084F83830A4F8400084F8391084F878
:10DA10003F7002F07F0884F83A805FEA026805D51B
:10DA200084F83B9004E00220BDE8FE8384F83B606C
:10DA300084F83CC0CDF800C0CDE90170286806F03C
:10DA4000E1FD85F8B862EFE770472DE9F0030E4677
:10DA5000DDE906C9DDE9087401EB860100EBC101CF
:10DA6000022581F83B2081F83F30BCF1000F0AD03D
:10DA700081F8425000246BB1012B2DD0022B12D023
:10DA8000032B16D10FE04FF0030881F8428081F894
:10DA90003D40EFE7BCF1010F0BD152B9CFB90122E4
:10DAA00081F8512003E0A2B191F85020A2B181F891
:10DAB0004250C1E9119781F85C40CC6481F839602B
:10DAC00081F85D40027C0068BDE8F003383106F063
:10DAD00015BE91F85120E9E781F84240E9E70000DE
