:020000040800F2
:10800000584D01201D830008CB00010875F60008BB
:10801000C9000108C5AB0008914A01080000000032
:1080200000000000000000000000000081090108BD
:10803000D5AE000800000000C50301089D0A010834
:108040003783000837830008378300083783000828
:108050003783000837830008378300083783000818
:1080600037830008378300083783000839AD0008DC
:1080700045AD000851AD00085DAD000869AD0008D0
:1080800075AD000837830008378300083783000880
:1080900037830008378300083783000837830008D8
:1080A00037830008378300083783000837830008C8
:1080B00037830008790B0108850B01083783000816
:1080C00037830008378300083783000837830008A8
:1080D0003783000837830008378300083783000898
:1080E0003783000837830008378300083783000888
:1080F00037830008378300083783000881AD000804
:108100003783000837830008378300083783000867
:108110003783000837830008378300083783000857
:108120008DAD000899AD0008A5AD0008B1AD0008FF
:10813000BDAD00080000000000000000EDAB00082D
:10814000C9AB0008D5AB0008E1AB0008CD000108C1
:1081500037830008C9AD0008D5AD00083783000893
:108160003783000837830008378300083783000807
:10817000378300083783000800000000000000007B
:10818000378300083783000800F002F800F0B6F8E3
:108190000AA090E8000C82448344AAF10107DA4562
:1081A00001D100F0ABF8AFF2090EBAE80F0013F0FE
:1081B000010F18BFFB1A43F001031847902101007B
:1081C000B02101000A444FF0000C10F8013B13F0FD
:1081D000070408BF10F8014B1D1108BF10F8015B20
:1081E000641E05D010F8016B641E01F8016BF9D113
:1081F00013F0080F1EBF10F8014BAD1C0C1B09D16A
:108200006D1E58BF01F801CBFAD505E014F8016BDB
:1082100001F8016B6D1EF9D59142D6D3704700006D
:108220000023002400250026103A28BF78C1FBD87F
:10823000520728BF30C148BF0B6070476E2900F05D
:108240000386702900F05F87662911F04E85652945
:1082500011F04B85672911F04885612911F0478598
:1082600003681B0A28BF41F08001692900F07E8164
:10827000642900F07B81752900F078816F2900F076
:10828000EC86782900F02B87E92900F08786E4291D
:1082900000F08486F52900F08186EF2900F0E98658
:1082A000F82900F02A870368DB0928BF41F0800124
:1082B000632901F02984732901F02E84E32901F058
:1082C0003984F32901F03E84002070471FB511F076
:1082D00002FD9DE8030000F0BBFC01F011F8040072
:1082E0000020002110F0A8FE401C6060002000214A
:1082F00010F0B8FEE0601FBD10B510BD01F02AFE01
:108300001146FFF7E3FF10F0BDF801F0FBFE03B4E8
:10831000FFF7F2FF03BC01F06BFF00000948804744
:1083200009480047FEE7FEE7FEE7FEE7FEE7FEE757
:10833000FEE7FEE7FEE7FEE704480549054A064B6F
:10834000704700002D0B010889810008588D00201E
:10835000584D0120580D0120580D012070B5A0FB8B
:108360000140B4F1805170F1000024BF002070BDC5
:10837000204600F007F805001CBF214600F0F3FB83
:10838000284670BD70B5064600F042FC056806F14F
:108390000B0020F00704B4429CBF002070BD2B46A8
:1083A0006A68BAB11068A04210D304F1080188428B
:1083B0003CBF5068586007D351681019416011687C
:1083C000091B016058601460101D70BD134652688F
:1083D000002AE7D12146284600F026FC0028DED1FD
:1083E00070BD70B50446051F00F012FC0068002C3B
:1083F00014BF446870BD002C18BFAC423CBF20467F
:108400006468F8D301680A18AA4218BF456003D10E
:108410002A6805461144016028684119A1421CBF21
:108420006C6070BD6168696021680844286070BD37
:1084300053EA020C00F069802DE9F04B4FF0000682
:10844000002B1FBFB3FA83F503FA05F424FA05F6EF
:108450005E4012BF1643B2FA82F502FA05F4C5F186
:1084600020051EBF22FA05FC44EA0C04203556EA1A
:10847000044C4FEA144418BF641C4FF000084FF03E
:108480000009904271EB030C39D3002919BFB1FAEE
:1084900081F701FA07F6B0FA80F700FA07F6C7F19C
:1084A00020071EBF20FA07FC46EA0C062037B6FB61
:1084B000F4FCA7EB0507103F07F01F0BCBF12006DC
:1084C0000CFA0BFB2CFA06F644BFB3460026202F0D
:1084D000A4BF5E464FF0000B5BEA060C08BF4FF0EE
:1084E000010B19EB0B09ABFB027C48EB0608C01B28
:1084F00006FB02CC0BFB03CC71EB0C01C1E70B4676
:10850000024641464846BDE8F08B13B54FF00000E7
:108510004FF00001AFF30080BDE81C407047000041
:108520007CB51D4616460C00009001D02044401E2C
:10853000074B7B442A4669460190304600F09DFC7B
:1085400005461CB10020694600F0AAFC28467CBD07
:10855000750900000FB4044910B503AA029800F091
:10856000ADFC10BC5DF814FB740000202DE9F04157
:108570000646002410687529314616A510D000F073
:10858000CFFB002802DA404213A507E031688A07D2
:1085900001D512A502E0490704D511A5012401E087
:1085A00000F0C7FB00210A2206F1240709E0B0FB16
:1085B000F2FCB0FBF2F302FB1C003030785418469A
:1085C000491C0028F3D123462A463046BDE8F04135
:1085D00000F0E1BB000000002D0000002B000000B7
:1085E000200000002DE9F05F894604464FF0000AA4
:1085F000DFF874B1FB44C0F820A02046E16888474A
:10860000002874D0252806D0D4E901219047206A9B
:10861000401C2062F1E700265F462046E16888475B
:108620002028054607DB312D05D2781910F8200CDB
:1086300008B10643F1E7B00701D526F00406C4F8F7
:108640001CA00027C4F818A02A2D09D028460CF039
:108650002FFC38B304EB8708303DC8F8185019E0F8
:1086600059F8041B204604EB87029161E1688847B2
:10867000012F054618D1E069002820DA26F02006EF
:108680001DE0D8F8180000EB800005EB4000303802
:10869000C8F818002046E168884705460CF008FC39
:1086A0000028EED1012F0AD02E2D08D12046E168F6
:1086B00088477F1C0546022F46F02006C4DBA069D0
:1086C000002803DA404246F00106A061F00701D01D
:1086D00026F010066C2D0BD0682D09D04C2D39D00A
:1086E0006A2D35D0742D35D07A2D33D016E038E090
:1086F000E1682F4620468847B842054609D16C2FCD
:1087000026D04FF48060E16806432046884705463E
:1087100004E06C2F1AD04FF4807006430DB3A5F11E
:108720004100192802D8203546F400664A462946F9
:10873000204626604E46FFF781FD80B101280BD010
:10874000F61D26F0070000F1080956E74020E4E78F
:108750008020D8E70020D6E706F104094DE7284637
:1087600052E7206ABDE8F09FC31B01000FB400B5BB
:108770008DB010A9099000910B904FF0FF300A9036
:1087800000200C90064878440690064878446A46D3
:1087900007900F9909A800F0D5FC0DB05DF814FB07
:1087A000DB090000F30900002DE9FF5F1D464FF0D3
:1087B000FF3B91464FF000085F46D5E90146A969A5
:1087C00001987F1C8847296A824688470028F6D18D
:1087D000BAF1FF3F0CD0002E24F4C06419DD60060E
:1087E00014D5BAF12B0F09D0BAF12D0F0ED103E039
:1087F000584604B0BDE8F09F44F48064A96901982C
:108800007F1C8847761E8246002E02DDBAF1300FAB
:1088100003D0B9F1000F26D032E0A969761E019885
:108820007F1C44F400748847002E824605DDBAF1AF
:10883000780F06D0BAF1580F03D0B9F1000F10D05D
:108840001EE0B9F1000F02D0B9F1100F18D1A969DB
:10885000761E01987F1C24F40074884782461020FD
:1088600002E0082000E00A20814609E0A96908FB2F
:108870000908761E01987F1C44F4007488478246DC
:10888000002E05DD4946504600F048FC0028EDDA90
:10889000E96901988847A00502D46FF00100A8E7B4
:1088A000E00725D1600613D5600502D5C8F10000A8
:1088B00000E0404629680A1D2A600968220501D5A2
:1088C000087015E0220701D5088011E008600FE06C
:1088D0002868011D29600068210502D580F8008004
:1088E00006E0210702D5A0F8008001E0C0F8008072
:1088F00038467EE770B5064600F08EF904680546F6
:1089000030460A22002100F09CFC2C6070BD2DE94D
:10891000F05F93460F4680460446002600F07CF93F
:10892000D0F80090824614F8015B2DB100F068F990
:108930000068405DC007F6D12B2D02D02D2D1AD036
:10894000641E0021CAF800105A463946204600F03D
:1089500029FC014627B13868A04201D1C7F8008040
:10896000DAF80000022809D0CAF80090700505D591
:108970004842BDE8F09F46F48066E2E70846F8E723
:108980000FF0DCB8014A00F095BC00000C0D00208F
:10899000401ECAB210F8011F8A4202D00029F9D144
:1089A0000020704710B5431C02E010F8011B71B1A4
:1089B0008107FAD14FF0013202C88C1A8C4314EAB5
:1089C000C211F9D0C01A0A0603D0C01E10BDC01AC9
:1089D00010BD0A0401D0801E10BD0902FCD0401E4B
:1089E00010BD40EA010370B59B072ED14FF0013650
:1089F000042A2AD308C810C99D1B9D43121F15EADB
:108A0000C61517D0D8B2E1B2401A50EA056110D1AC
:108A100098B2A1B2401A50EA05410AD123F07F4032
:108A200024F07F41401A50EA052102D1180EA0EB34
:108A3000146070BDA342DBD018BA21BA884201D9B4
:108A4000012070BD4FF0FF3070BD0AB9002070BD2D
:108A500010F8013B11F8014B63B1A3420AD1521E39
:108A600008D010F8013B11F8014B1BB1A34201D112
:108A7000521EEDD1181B70BD032A40F2308010F059
:108A8000030C00F0158011F8013BBCF1020F6244A9
:108A900098BF11F801CB00F8013B38BF11F8013B3A
:108AA000A2F1040298BF00F801CB38BF00F8013BE7
:108AB00011F0030300F02580083AC0F0088051F857
:108AC000043B083A51F804CBA0E80810F5E7121D62
:108AD0005CBF51F8043B40F8043BAFF30080D20781
:108AE00024BF11F8013B11F801CB48BF11F8012B4D
:108AF00024BF00F8013B00F801CB48BF00F8012B70
:108B0000704710B5203AC0F00B80B1E81850203AF9
:108B1000A0E81850B1E81850A0E81850BFF4F5AF1D
:108B20005FEA027C24BFB1E81850A0E8185044BFA7
:108B300018C918C0BDE810405FEA827C24BF51F814
:108B4000043B40F8043B08BF7047D20728BF31F808
:108B5000023B48BF11F8012B28BF20F8023B48BF59
:108B600000F8012B70474FF000020429C0F012807A
:108B700010F0030C00F01B80CCF1040CBCF1020FD0
:108B800018BF00F8012BA8BF20F8022BA1EB0C01A5
:108B900000F00DB85FEAC17C24BF00F8012B00F89B
:108BA000012B48BF00F8012B70474FF0000200B5C1
:108BB000134694469646203922BFA0E80C50A0E800
:108BC0000C50B1F12001BFF4F7AF090728BFA0E8AE
:108BD0000C5048BF0CC05DF804EB890028BF40F87A
:108BE000042B08BF704748BF20F8022B11F0804FBC
:108BF00018BF00F8012B704770477047704700009E
:108C000010B500F07DFB001D10BD00BF2D0401005C
:108C100000487047FC8C002000487047F48C00200E
:108C2000704770477047704738B504460A460020C1
:108C30006946AFF30080002808BF38BD024600999E
:108C4000204600F061FB012038BD012001F05CB935
:108C5000F8B5AFF30080054600200C46102000BF99
:108C60000646A819A0420DD9324669460020AFF346
:108C70000080070008BF01F047F90098A04218BF24
:108C80000546C419FFF7C4FF05600746F01D20F034
:108C900007004619284600F00AF8B44208BFF8BD9C
:108CA000A21B31463868BDE8F84000F02DBB00211A
:108CB0000160C0E9011070471020704710B5FFF740
:108CC000ABFF006810BD10B50446FFF7A5FF0460B8
:108CD00010BD70B5044685690068C10601D530260F
:108CE00000E02026C00707D070BDD4E9012130463E
:108CF0009047206A401C20626D1EF6D570BD70B58D
:108D0000044685690078C00707D170BDD4E9012108
:108D100020209047206A401C20626D1EF6D570BD51
:108D200009684A0501D540B27047C905FCD500B2B3
:108D3000704709684A0501D5C0B27047C905FCD51E
:108D400080B2704770B50C460546012A05D02878D8
:108D5000800600D5EA69002302E0012305E05B1CE0
:108D6000934202D2E05C0028F9D1A869E618C01A43
:108D7000A861286A184428622846FFF7AAFF04E081
:108D8000D5E9012114F8010B9047B442F8D32846E5
:108D9000FFF7B5FF70BD2DE9F0470D4699469246A5
:108DA000044600F124080168880604D5E06921F032
:108DB0001001216000E00120A84201DD471B00E016
:108DC0000027A1697A1902EB0900081AA06120782E
:108DD000C00602D42046FFF77CFF002608E0D4E955
:108DE00001211AF806009047206A401C761C206278
:108DF0004E45F4DB2078C0060AD52046FFF769FF10
:108E000006E0D4E9012130209047206A401C20620E
:108E1000381EA7F10107F4DC07E0D4E9012118F8B6
:108E200005009047206A401C2062281EA5F101051C
:108E3000F3DC2046FFF763FF2078000602D502200E
:108E4000BDE8F0870120FBE711680268006A53055E
:108E500001D508700AE0D30501D5088006E01306A5
:108E600003D5C217C1E9000200E008600120704785
:108E700001694A1C02610878704700B58FB0CDE9DE
:108E800001310021059105497944CDE903101146CE
:108E90006846FFF7A7FB0FB000BD0000E5FFFFFF2E
:108EA0000A6802F8010B0A607047D1E900239A4270
:108EB00002D2531C0B60107070470000074B70B556
:108EC0000D467B44FFF7D9FF0446284600F0F8FF23
:108ED00010B14FF0FF3070BD204670BD8BEF000029
:108EE0002DE9FF5F15468A460446DFF8AC80F8445A
:108EF0000027D8E900103E46CDE9001010E03AF80E
:108F000016106A4602A800F0DFFF411C07D0217846
:108F1000890603D5E269391891420DD80744761CB9
:108F20002078800602D5E069B84205DDAE42E6DB76
:108F30003AF816000028E2D1A069C01BA0612046C3
:108F4000FFF7C7FED8E90010CDE90010002017E0B8
:108F50003AF818106A4602A800F0B6FFB0F1FF3FD9
:108F600081460BD000250DF1080B05E0D4E9012165
:108F70001BF8050090476D1C4D45F7D308F1010023
:108F8000B0428046E4DB206A384420622046FFF786
:108F9000B6FEBDE8FF9F0000DA1201002DE9F041A6
:108FA0008046D21D22F007020025D2E90002F529F1
:108FB00015A614D0011E72F1000106DA0023D0EBD1
:108FC000030063EB020211A608E0D8F800108B073B
:108FD00001D50FA602E0490701D50EA601251146CD
:108FE000002408F1240704E000F0A8F930323A55D3
:108FF000641C50EA0102F7D12B4632462146404616
:10900000BDE8F041FFF7C7BE000000002D000000E2
:109010002B0000002000000030B4002100F12404E7
:1090200008E002F00705D208303542EA4372DB0857
:109030006554491C52EA0305F3D10468002310A2C9
:10904000250707D5A40600D421B1C46901230DA2C8
:10905000641EC46130BCFFF79EBE10B504462146B5
:109060001068FFF766FE02462046BDE81040002368
:10907000D2E7D21D22F00701D1E90023CCE700009E
:109080000000000030000000F0B40D460188090522
:1090900002D5214C7C4402E01F4C7C440E3400215C
:1090A00000F1240608E002F00F071209E75D42EA2A
:1090B00003721B097754491C52EA0307F3D1027863
:1090C0000023120704D5702D06D009B102231134F4
:1090D0002246F0BCFFF75FBE01231034F8E770B5FD
:1090E00004460D4621461068FFF723FE0246294636
:1090F0002046BDE870400023C6E7D21D22F00703DA
:10910000D3E90023C0E70368126843F0200303603B
:109110000823C3610023B7E73C1101003A2800D2BD
:10912000303820F02002412A01D3A2F137008842D2
:1091300001D34FF0FF30704702681144137801608B
:1091400018467047D1600549794451610449794412
:10915000116200211161114600F0F8BCEDFFFFFF24
:1091600075020000426842B1016811F8013B23B169
:10917000521EC0E90012184670470121C160881EC6
:10918000704742685AB1C368016843B983688B422B
:1091900005D0491E521CC0E90012002070474FF054
:1091A000FF3070472DE9F05F824615468B46002759
:1091B0000AF10104B9460078302801D09DB113E0CE
:1091C00014F8010B0127782803D0582801D045B1A5
:1091D0000AE00DB1102D07D1002714F8010B10255E
:1091E00002E0082500E00A250026B0460EE005FB57
:1091F000080005FB06F101271FFA80F801EB104675
:10920000B6F5803F00D3B94614F8010B2946FFF7A5
:1092100085FF0028EBDABBF1000F05D00FB1641E0B
:1092200000E05446CBF80040B9F1000F06D0FFF73C
:10923000F3FC02210160C81EBDE8F09F48EA064029
:10924000FAE72DE9F04791460F468046044600268E
:1092500014F8015B2DB1FFF7D3FC0068405DC00737
:10926000F6D12B2D02D02D2D18D0641E4A4639463A
:109270002046FFF797FF27B13968A14201D1C7F80F
:1092800000804FF0020471050BD54042002803DD39
:10929000FFF7C2FC0460A007BDE8F08746F48066D3
:1092A000E4E70028F8DAFFF7B7FC04606FF000404D
:1092B000F2E700002DE9F04115460E46040002D108
:1092C0002C6804B90BA4204600F035FE0444207835
:1092D00070B127463146384600F01DFE0444207820
:1092E00010B1002004F8010B38462C60BDE8F08175
:1092F0000027F9E70000000000487047F48C0020C8
:1093000000487047148D0020034640688C460028B2
:1093100018BF88423CBF03464068F8D31868184419
:10932000884207D00CF1030020F00700001D411A0D
:10933000521A0146081D0A60FFF753B830B5B0F164
:109340000A024FEA900E71F100034EEA817EB0EB03
:109350000E0061EB91014FEA101E4EEA017E10EB08
:109360000E0041EB11114FEA102E4EEA016E10EB88
:109370000E0041EB11214FEA104E4EEA014E10EB68
:109380000E0041EB1141401841F100014FEAD000BD
:1093900040EA41704FEAD10110EB80054FEA8104A9
:1093A00044EA907444EB01046D1944EB0404521B2D
:1093B000A3414FF0000348BF0A3200D530BD401C26
:1093C00041F1000130BD10B50446FFF719FC0068FB
:1093D000005D00F0010010BD70472DE9FF4F0C4605
:1093E0001E464FF0FF378BB0D2E90001DDF86080F8
:1093F0000A908A46C1F30A5505B93D460021084640
:109400004FF00000BAF1000F00F4400005DA00EB65
:1094100080004FF4400101EA50004FEA9059B9F141
:10942000010F00DDB9460A9850EA4A000ED044F612
:109430001050A5F2FF3545432F14B8F1000F1ED090
:109440007542291E1EDDC9F100021CE0B8F1010FB2
:109450004FF0000001D0302103E0F24305E0215439
:10946000401CB042FBDB30460022002121540B9906
:10947000C1F80880C1E900200FB0BDE8F08FBD1B26
:109480006D1CDEE74A4600DA694206A800F0C8FD16
:1094900006AB93E8070003AB83E8070050460A9940
:1094A00000F0CCFE8DE80700A0F500501F380090BA
:1094B0000398002D0ADD42F21F014A4608440023AA
:1094C00003A90390684601F035F909E0A0F50050C2
:1094D0004A461F38002303A90390684601F03FF96C
:1094E0008DE807000004000C03D04FF0FF30410866
:1094F00000E01046B8F1000F03D00022009215469C
:109500001EE0751E05D4FFF719FF303262556D1E3F
:10951000F9D5B3460122084302D000227F1C04E0A3
:109520002078302801D100227F1E002A099784D09C
:109530001DE0112D07DAFFF701FF303262556D1C77
:1095400050EA0102F5D1084302D00098C8B10EE0FC
:109550000021681E05E0235C625C63542254401EB7
:10956000491C8142F7DBAB46A81B401E0990002036
:1095700004F80B000B98099AC0F80880C0E9002B8A
:109580007AE711264FF0000857E72DE9F04F88469B
:109590000446D21D22F0070191B0D1E90001CDE9C6
:1095A0000A010BF0CBFA02460B98C00F01D02D2018
:1095B00007E02068810701D52B2002E0202101EA85
:1095C000C000032A099001D0072A05DB0346414663
:1095D000204600F0E5FC0BE12078800601D5E0692B
:1095E00000E00620B8F1650F814606D0B8F1660F9D
:1095F00018D0B8F1670F70D131E00020B9F1110F28
:10960000009001DB112301E009F101030AAA01A97D
:109610000CA8FFF7E2FEDDE90C70002609F1010558
:10962000834647E001204B4600904FF000470AAACE
:1096300001A90CA8FFF7D1FEDDE90DB00C995D463C
:10964000002610B909F101000D18B9EB050003D48B
:10965000C0F1FF3609F10105A5EB09002BE0B9F1D6
:10966000010F01DA4FF001090020B9F1110F00904C
:10967000484601DD112300E003460AAA01A90CA80F
:10968000FFF7ABFEDDE90C704D46002683462078DF
:1096900000070AD4AB4500DA5D4601A8012D04DDC0
:1096A000411911F8011C302907D04F4502DA17F192
:1096B000040F04DA012082460FE06D1EEEE7002F52
:1096C00002DCED1B3E4403E0781CA84200DD7D1C5B
:1096D000B81B00F1010A4FF000472078000703D4BF
:1096E000AA4501DB4FF0FF3A0021B7F1004F0DF121
:1096F00043088DF8431024D002202B23002F01DAD9
:109700007F422D230A21021EA0F1010000DC5FB17F
:1097100097FBF1FC97FBF1F201FB1C7C17460CF167
:10972000300C08F801CDEEE7A8F1010003702188A4
:10973000090501D5452100E06521A0F1010800F8E7
:10974000011C09980FA9A1EB0807FF1D00B101201A
:10975000411901EBEA70A1693844081A401EA06162
:109760002078C00602D42046FFF7B3FA099828B142
:10977000D4E901219047206A401C20622078C0066D
:1097800022D52046FFF7A5FA1EE0002E04DBB345E4
:1097900002DD01A8805D00E03020D4E9012190477E
:1097A000206A401C2062761CAAF101005FEA000AD0
:1097B0000AD1FFF7A5FDC0680168405CD4E901212A
:1097C0009047206A401C2062281EA5F10105DCDCC0
:1097D00007E0D4E9012118F8010B9047206A401CEA
:1097E0002062381EA7F10107F3DC2046FFF787FA55
:1097F000032011B041E600002DE9F04F04460D466C
:10980000D21D22F0070089B0D0E9009748463946BA
:109810000BF094F90246F80F01D02D2307E02068E1
:10982000810701D52B2302E0202101EAC0038DF836
:1098300020300BB1012000E00020032A824601D035
:10984000072A04DB2946204600F0AAFB3FE12078E6
:10985000800601D40D2500E0E569C7F30A560D2DF9
:1098600049DA00214FEA175B08464FF00000002F4D
:1098700000F4400007DA00EB80004FF4400100EBF9
:10988000D07001EA60008115012901DD4FF0FF3140
:1098900000224FEA850CBCF1180F06D31346ACF139
:1098A00018004FF08052C24003E04FF4801323FAB7
:1098B0000CF30CF10C0CBCF1200F04D3ACF1200C18
:1098C00009FA0CF001E007FA0CF000294FF000480B
:1098D00001DD18B90FE00ED140450CD319EB020998
:1098E0005F4121B9404502D19F4329EA0209BBEB00
:1098F000175F00D0761C2088000502D57B4878448D
:1099000002E07A487844193808AA302302F80A306D
:10991000037C0AF10101002E0AF1020A53546A463F
:1099200002DC4FF0300101E04FF031014FF001084F
:109930008DF8001002D0A6F2FF3603E059EA470185
:1099400000D06B4E002D02DC2178090704D54FF0C2
:1099500002082E218DF80110C44600210BE0C7F348
:1099600003433F01C35C491C6D1E02F80830052902
:1099700008F1010801DA002DF1DC00210CE000EB18
:109980001973491C1B786D1E082902F808304FEA2C
:10999000091908F1010801DA002DF0DC21688B06B5
:1099A00002D516E0A8F10108E04505DD02EB080349
:1099B00013F8013C302BF5D0B8F1000F09DD02EBB4
:1099C000080313F8013C2E2B03D1090701D4A8F199
:1099D0000108002D05DD3E2102F808106D1E08F17A
:1099E0000108407C002E02F8080008F1010804DAA2
:1099F0002D20764202F8080002E02B2002F8080031
:109A00000A214FF47A70864208F101080BDB96FBBD
:109A1000F0F3303302F8083096FBF0F308F1010858
:109A200000FB136601E0642E0CDB642096FBF0F370
:109A3000303302F8083096FBF0F308F1010800FB20
:109A4000136601E00A2E06DB96FBF1F0303002F8D7
:109A5000080008F1010896FBF1F001FB10603030BE
:109A600002F80800A16908F1010808EB050202EB01
:109A70000A00081AA0612078C00602D42046FFF729
:109A800028F9216A08AE01EB0A00206204E0D4E95B
:109A9000012116F8010B9047BAF1010AF7D220789C
:109AA000C00602D52046FFF714F96E4609E016F805
:109AB000010B3E280FD0D4E901219047206A401CB9
:109AC0002062B8F10108F2D22046FFF718F909B078
:109AD0000320BDE8F08F206A2844206203E0D4E927
:109AE0000121302090476D1EEBD3F8E70D090100EE
:109AF00002FCFFFF10B5436913B1AFF3008001E032
:109B0000FFF720F9012010BD127800F124010A703E
:109B100000224A700122EDE711684FF0FF32E9E7B9
:109B200010B5436913B1AFF3008001E0FFF7D8F936
:109B3000012010BD128800F1240182840022C28419
:109B40000122EDE711684FF0FF32E9E72DE9F34F0D
:109B50004FF0000A0C4656468DB001200C9001F1E2
:109B60000C000B9062690B9801219047051E2DD0C7
:109B7000252D2CD0216A8847C0B162690B9801213C
:109B80009047216A88470028F7D16269411E0B98E7
:109B9000904700E0761CA1690D988847216A8847A4
:109BA0000028F7D1E1690D988847DBE7A1690D9896
:109BB0008847A842074601D1761CD3E7E1690D9892
:109BC00088477F1C02D1BAF1000F6FD06BE1626948
:109BD0000B9800273D46394690472A2804D16269F0
:109BE0000B98012190470125DFF8D08262690B981C
:109BF00001219047A0F130010A290AD24745E5DC4E
:109C000007EB870100EB4107303FDFD445F010053B
:109C1000ECE7E90601D46FF000476C280AD04C2825
:109C200014D0682815D06A280DD074281CD07A2842
:109C30001AD01DE062690B98012190476C2802D070
:109C400045F0040514E045F002050DE045F020055F
:109C50000AE062690B9801219047682802D045F01C
:109C6000080505E045F4006562690B9801219047FD
:109C7000C4E9015765283DD019DC58287AD00CDC9E
:109C8000452837D004DC252826D041289ED131E054
:109C900046282FD0472899D12CE05B2877D061281F
:109CA00028D063287CD0642823D15AE0F6E06F28BE
:109CB00048D008DC66281DD067281BD0692821D031
:109CC0006E2816D127E0702845D0732868D07528F3
:109CD00047D078280DD14DE0A1690D9888472528F7
:109CE00005463FF469AFE1690D9888476D1C3FF464
:109CF0006AAFD8E00D9923466A466FF00100AFF3D2
:109D00000080C5E045F0400023464FF0000260604F
:109D1000A80736D43EE0E8077FF447AF2068011D6E
:109D200021600068290501D506701BE7290701D5C8
:109D3000068017E7A90703D5F117C0E9006111E70D
:109D400006600FE745F0400023464FF008026060D0
:109D5000A80716D41EE040F60E0125EA0100606057
:109D600016E045F0400023464FF00A026060A80765
:109D700007D40FE045F040006060A80708D52346EF
:109D800010220D996FF00100AFF3008080E007E032
:109D9000102223460D996FF00100FEF705FD77E0D4
:109DA0004FF0000963284F46C8464B46CB4602D0C9
:109DB0005B2806D038E0E80601D40120A060012726
:109DC00032E06269D4F80CB00B98012190475E280C
:109DD00007D14FF0010949466269D4F80CB00B98DD
:109DE0009047216939B900210A4603AB43F8212085
:109DF000491C0829FADBD8B3216949B308F10108E5
:109E000062690B98012190475D28F4D1B9F1000FE8
:109E100009D0002003A951F82020D24341F8202086
:109E2000401C0828F7DB03AB2069002820794FEAA3
:109E300040701ED05B462246CDF80080CDE90197E8
:109E40000D9900286FF0010020DAAFF300801FE0C9
:109E5000C11703AA00EBD1614B1121F01F0102EBE6
:109E60008302411A13680120884003431360C7E747
:109E700019E00D99224600286FF00100009702DAE0
:109E8000AFF3008004E0AFF3008001E0AFF30080A7
:109E900000280ADA401C06D10C9820B14FF0FF30A0
:109EA0000FB0BDE8F08F5046FAE7E90701D10AF19B
:109EB000010A064400200C9054E60000CCCCCC0CE7
:109EC000007B00F08000704770B516460C460546D2
:109ED000FEF796FE036893F80101012806D0FF2CD7
:109EE0000FD8185D68B101202C7070BDD3F8070140
:109EF0003246214603F2071303442846BDE870406A
:109F000018474FF0FF3070BD10B500F009F9BDE8FB
:109F1000104000F000B930B503461D781DB10A4667
:109F200003E0AC4201D1181A30BD12F8014B002CED
:109F3000F7D15B1CF1E730B503461D783DB10A4609
:109F400012F8014B1CB1AC42FAD15B1CF5E7181AB0
:109F500030BD70477546FFF7CFF9AE46050069463C
:109F6000534620F00700854618B020B5FEF7E4F907
:109F7000BDE820404FF000064FF000074FF000080A
:109F80004FF0000B21F00701AC46ACE8C009ACE88B
:109F9000C009ACE8C009ACE8C0098D4670470000B4
:109FA0002DE9F0411F46044603260168072A01F403
:109FB000006004DB08B116A505E016A503E008B1B2
:109FC00015A500E015A521F010002060A069C01EB5
:109FD000A0610FB1401EA0612046FEF77AFE4FB18E
:109FE000D4E9012138469047206A401C2062C01CF9
:109FF000206206E0206AFAE7D4E9012115F8010B96
:10A000009047761EF8D22046FEF779FEBDE8F08133
:10A010004E414E006E616E00494E4600696E66000C
:10A020002DE9F047814616468AB0354878440DC878
:10A030008DE80D0032487844801C03AC0DC884E8DC
:10A040000D0041F69B300844372190FBF1F290FB64
:10A05000F1F5A5F1800501FB12041B3C02D5644219
:10A06000012000E00020DFF898A080460027FA4495
:10A07000AAF1BE0A0EE0E0070AD03246684607EBB6
:10A08000470101230AEB810100F069FB8DE807001D
:10A0900064107F1C002CEED1194F7F44AE3F19E0B5
:10A0A000E80715D007EB04100DF1180A90E80E0030
:10A0B0008AE80E00C068F04201D198190890324633
:10A0C000012306A903A800F04AFB03AB83E80700BD
:10A0D0006D10641C002DE3D14FF001033246694638
:10A0E000B8F1000F03A802D000F024FB01E000F05B
:10A0F00036FBC9E90001C9F808200AB0BDE8F087BD
:10A100007002010010B50446AFF300802046BDE8A0
:10A110001040FEF7FCB8002801D000F069B8704785
:10A1200010B5012805D0002103A000F067F8012038
:10A1300010BD09A1F8E7000053494752544D454D61
:10A140003A204F7574206F662068656170206D65D8
:10A150006D6F7279000000003A2048656170206DD3
:10A16000656D6F727920636F7272757074656400CB
:10A170004FF0013C50F8042B51F8043B9A4221D196
:10A18000A2EB0C03934313EACC1317D150F8042B22
:10A1900051F8043B9A4215D1A2EB0C03934313EA06
:10A1A000CC130BD150F8042B51F8043B9A4209D13F
:10A1B000A2EB0C03934313EACC13DBD04FF0000067
:10A1C000704700BFD01A01BAB1FA81F101F018014D
:10A1D00022FA01F0CB40C1F12001DBB2C0B2C01ABB
:10A1E0002CFA01F3D11A914311EAC311E6D1704759
:10A1F00001491820ABBEFEE72600020070B50546F7
:10A200000C460A2000E06D1C00F011F835B12878EA
:10A210000028F8D102E0641C00F009F814B120789D
:10A220000028F8D1BDE870400A20AFF3008008B5DF
:10A2300069468DF800000320ABBE08BD5FEA400C04
:10A2400008BF91F0000F4FEA8C234FEAC12243EA86
:10A2500051514FEA1C5018BF00F5F0404FEA300052
:10A2600018BF41F000415FEA6C5C00F02980BCF14E
:10A27000FF3F08BF40F080407047130C06BF120438
:10A280004FF0100C4FF0000C130E04BF12020CF133
:10A29000080C130F04BF12010CF1040C930F04BF40
:10A2A00092000CF1020CD30F04BF52000CF1010C10
:10A2B00011464FF00002A0F11F00A0EB0C00704708
:10A2C00011F0004F08BF704731F000413FF4D5AFA7
:10A2D0000B0C06BF09044FF0100C4FF0000C0B0ED6
:10A2E00004BF09020CF1080C0B0F04BF09010CF1AB
:10A2F000040C8B0F04BF89000CF1020CCB0F04BFC0
:10A3000049000CF1010CCCF12003A0EB0C0022FA67
:10A3100003F302FA0CF241EA030100F10100704775
:10A3200020F07F4C80EA030023F07F47ACEB07036B
:10A3300003F57C5300F0004003F1FF032DE9804951
:10A340004FEA154B09B44FEA144325EA0B4E24EAB1
:10A3500003480FF2042606EB132749083E785FEA0C
:10A36000320203FB0667C7F5000707FB06F64FEA54
:10A3700054374FEAD64606F1020607FB066CCCF1CD
:10A38000005C4FEA1C472CEA074C07FB06F40CFB69
:10A3900006F504EB15464FEA961634BF00204FF041
:10A3A00000404FEAD13706FB07FC4FEA1C4C0CFB80
:10A3B0000BF7D21B03FB0CF761EB07010CFB0EF74D
:10A3C000B0EB074072EB17420CFB08F734BFA2EB6F
:10A3D0000742B2EB074261EB17414FEA0C444FEAE8
:10A3E000910706FB07FC4FEA1C4C0CFB0BF7B0EB8C
:10A3F000C74072EB573203FB0CF734BFA2EBC742E6
:10A40000B2EBC74261EB57310CFB0EF7B0EBC70064
:10A4100072EB57720CFB08F734BFA2EBC702B2EB2A
:10A42000C70261EB5771039F4FEA816141EA9211C4
:10A4300004EBCC044FEAD1374FEA826206FB07FCFB
:10A4400042EA90124FEA80604FEA1C4C0CFB0BF77B
:10A45000D21B03FB0CF761EB07010CFB0EF7B0EB13
:10A46000074072EB17420CFB08F734BFA2EB074220
:10A47000B2EB074261EB17414FEA8C554FEA910767
:10A4800004EB9C2406FB07FC4FEA1C4C0CFB0BF76F
:10A49000B0EBC74072EB573203FB0CF734BFA2EBB3
:10A4A000C742B2EBC74261EB57310CFB0EF7B0EB82
:10A4B000C70072EB57720CFB08F734BFA2EBC70260
:10A4C000B2EBC70261EB577115EB4C254FEA816186
:10A4D00041EA92114FEA82624FEAD13742EA901282
:10A4E00006FB07FC44F100044FEA80604FEA1C4C75
:10A4F0000CFB0BF7D21B03FB0CF761EB07010CFB0A
:10A500000EF7B0EB074072EB17420CFB08F734BFB5
:10A51000A2EB0742B2EB074261EB174115EB1C15AA
:10A520004FEA813141EA92414FEA823242EA904257
:10A530004FEA80304FEA0C7644F1000448EA0343C6
:10A540004EEA0B484FF0000EB2EB080C71EB03071C
:10A5500024BF624639464EEB0E0E4FF0000B00183A
:10A56000524149414BEB0B0BB2EB080C71EB03076B
:10A570007BF1000B24BF624639464EEB0E0E4FF0C6
:10A58000000B0018524149414BEB0B0BB2EB080C8E
:10A5900071EB03077BF1000B24BF624639464EEB9B
:10A5A0000E0E51EA020718BF46F0010616EB0E76B2
:10A5B00055F1000254F1000103D5BDE88901BDE861
:10A5C0000088BDE88901BDE80048B619524141EB59
:10A5D0000101A3F10103704780807F7E7D7C7B7A3F
:10A5E0007978777676757473727171706F6E6E6D3F
:10A5F0006C6C6B6A6A6968686766666564646363E5
:10A6000062616160605F5F5E5E5D5D5C5C5B5B5A6A
:10A610005A595958585757565655555554545353D7
:10A6200052525251515050504F4F4F4E4E4D4D4D32
:10A630004C4C4C4B4B4B4A4A4A494949484848477D
:10A6400047474746464645454544444444434343BB
:10A650004342424242414141002B9C4630D4770064
:10A660002BD01CB54FEA370703B44FF010004FF062
:10A670001001BAF1000F06D0BCF1000FDCBF40F0B2
:10A68000080040F008014FF000000FBCBDE810408A
:10A690000BF1010BBBF1010F08BF5FEA170722BFE7
:10A6A00012F1010211F101014FF0004143F10003E9
:10A6B00000F0004043EA00007047F9D35708D0E7A4
:10A6C00046EA064613F1400F4FEA16461FDD13F126
:10A6D000200FDFBF16430A46002120335B42BED065
:10A6E000C3F1200746EA064602FA07F74FEA164684
:10A6F00046EA0706C3F1200722FA03F201FA07F738
:10A7000021FA03F14FF0000342EA0702A7E746EA05
:10A71000020646EA06464FEA164646EA0106BCBF6E
:10A7200046EA0646360C4FF000034FF000024FF0A9
:10A73000000194E72DE9804C9A46934670B491E865
:10A74000380007C831EA400C48BF34EA430C03D54F
:10A75000FFF7E6FDFFF780FFF0BCBDE8008C2DE9B8
:10A76000804C9A46934670B491E8380007C810F0C0
:10A77000804F08BF13F0804F03D100F005F8FFF7BA
:10A780006BFFF0BCBDE8008C20F07F4780EA03003F
:10A7900023F07F4C07EB0C03A3F57C5300F0004043
:10A7A000A3F1FE0392F0000F00F0B38095F0000FCC
:10A7B00000F077802DE901494FEA11404FEA144635
:10A7C00021EA004800FB06FC24EA064708FB06F6DF
:10A7D00007FB08F800FB07F718EB06484CEB164C94
:10A7E0004FEA124B18EB07484FEA15464CEB17405F
:10A7F00022EA0B4E0BFB06FC25EA06470EFB06F68B
:10A8000007FB0EFE0BFB07F71EEB064E4CEB164C40
:10A810004FF000061EEB074E4CEB174B18EB0B08E6
:10A8200040F1000018EB0E0B58EB000840F100005F
:10A830008F1A4FF000013CBFC943661B14BFB5EB34
:10A84000040C00213CBFC943F61B4FEA17444EEAF3
:10A850008E0E27EA04454FEA1C4704FB07622CEAE8
:10A86000074C05FB07F70CFB05F604FB0CFC16EB8D
:10A87000074642EB174216EB0C4642EB1C421BEB21
:10A88000060658EB0202414146EA9E0601D5BDE8A4
:10A890000189B619524141EB0101A3F10103BDE861
:10A8A00001894FEA14454FEA114724EA054621EA97
:10A8B000074C05FB07F406FB07F70CFB06F105FB4D
:10A8C0000CFC11EB074144EB17444FEA124711EB24
:10A8D0000C4144EB1C4422EA074C05FB07F206FB43
:10A8E00007F70CFB06F605FB0CFC16EB074642EBE4
:10A8F000174216EB0C4642EB1C456A1854F1000156
:10A9000048BF7047B619524141EB0101A3F1010361
:10A91000704795F0000F37D04FEA11424FEA1447C5
:10A9200021EA024624EA074C02FB07F106FB07F77F
:10A930000CFB06F402FB0CFC14EB074441EB174143
:10A940004FEA154714EB0C4441EB1C4125EA074C38
:10A9500002FB07F506FB07F70CFB06F602FB0CFCF7
:10A9600016EB074645EB174516EB0C4645EB1C422C
:10A97000121951F1000148BF7047B619524141EB1D
:10A980000101A3F1010370474FEA14454FEA114753
:10A9900024EA054621EA074C05FB07F106FB07F709
:10A9A0000CFB06F24FF0000605FB0CFC12EB074215
:10A9B00041EB174112EB0C4251EB1C4148BF704771
:10A9C000921841EB0101A3F10103704710B5014654
:10A9D000806B026C12F0500F05D0026CD20626D5A7
:10A9E00001F05BF810BD016C41F400710164016875
:10A9F0008A6812F0405F17D1027EAAB9CA6A12F4BF
:10AA0000700F02D08A6852050ED44A6822F02002E4
:10AA10004A60016C21F480710164016CC90403D4A3
:10AA2000016C41F00101016400F0FCFF10BD806B7E
:10AA3000C26CBDE810400846104710B5806B40213D
:10AA40000164416C41F00401416401F026F810BD3D
:10AA500010B5806B01F020F810BD0000464910B51C
:10AA60004A6822F440324A604A6843681A434A609E
:10AA700001684A6822F480724A6001684A68036982
:10AA800042EA03224A6001684A6822F040724A6042
:10AA900001684A6883681A434A6001688A6822F438
:10AAA00000628A6001688A68C3681A438A60816AA2
:10AAB0006FF07062D14201688A6822F070628A6029
:10AAC00001688A680CD0836A1A438A6001688A68C0
:10AAD00022F040528A6001688A68C36A1A4301E022
:10AAE00022F040528A6001688A6822F002028A607D
:10AAF00001688A68037E42EA43028A6090F8201067
:10AB0000002901684A680FD042F400624A60016877
:10AB10004A6822F460424A6001684A68174C436AF6
:10AB200004EB43331A4301E022F400624A600168F7
:10AB3000CA6A22F47002CA620168CA6A838B104C26
:10AB400004EB03531A43CA6201688A6822F4007254
:10AB50008A6001688A6890F8303042EA43228A604D
:10AB600001688A6822F480628A6001688A684069A4
:10AB700042EA8020886010BD0023014000E0FFFF12
:10AB80000000F0FF2DE9F0410D4C05004FF0FF37BC
:10AB900026680AD002F048F805440020206009E049
:10ABA00009F0B4FF2068864202D13846BDE8F08142
:10ABB0000AF0F2F902F038F8A842F1D30020F5E7E4
:10ABC000C0050020FEE70000014801F0EAB90000DE
:10ABD00064100020014801F0E4B900006410002076
:10ABE000014801F0DEB9000064100020014801F0C6
:10ABF000D8B9000064100020042812DD0A4A202879
:10AC000002D021280DD106E00868506088881081A4
:10AC10008879907205E05068086010898880907A81
:10AC20008871002070470000780A002010B5034C9E
:10AC300020680AF007F92060002010BD780A002083
:10AC400010B500220A490B4806F0AAFA0A49094839
:10AC500006F0A0FA4FF4006001460AF005F9074932
:10AC6000002307A2086009480AF04AF9002010BD35
:10AC7000F480002058760020F4780020780A002024
:10AC800043444320706F6C6C0000000091AC0008DE
:10AC900070B5104C05460068D4F89012002817D003
:10ACA000D1F8141249B9406840220B490AF080F8E3
:10ACB00018B181B2084800F029F894F87402042809
:10ACC00005D194F87502032801D100202860284698
:10ACD00070BD000058760020F480002070B50C464E
:10ACE00005460146074806F055FA064806F036FACA
:10ACF0000548006820B12268006829460AF06EF80D
:10AD0000002070BD58760020780A0020094A10B54E
:10AD1000D2F89022D2F814220AB1012010BD0A46BE
:10AD20000146044806F03CFABDE81040014806F030
:10AD300095BA000058760020014801F0BDBB000024
:10AD4000D8150020014801F0B7BB0000B81400205E
:10AD5000014801F0B1BB000018150020014801F0C6
:10AD6000ABBB000058140020014801F0A5BB000057
:10AD700078150020014801F09FBB0000F813002067
:10AD8000014801F099BB000098130020014801F030
:10AD900093BB000018120020014801F08DBB000099
:10ADA00078120020014801F087BB0000D812002073
:10ADB000014801F081BB000038160020014801F075
:10ADC0007BBB000098160020014801F075BB000015
:10ADD00038130020014801F06FBB0000F816002076
:10ADE00001681823CAB2103AB2FBF3F2054B6FF3B5
:10ADF0000901032A9B5CC36500D9091D81650846CA
:10AE000070470000089D010810B5014600208B69BD
:10AE10008A6A4FF0C07453B1B3F5005F15D072B1B8
:10AE2000012A0CD0022A0AD0032A09D104E01AB15F
:10AE3000012A06D0022A03D1C96AC90100D501201E
:10AE400010BDC96AA142FAD010BD002AF7D0012A6C
:10AE5000F2D0022AF3D0032AF3D010BD30B5046833
:10AE6000256825F480252560046863608368402B8D
:10AE7000036803D099600068C26030BD9A600068C2
:10AE8000C16030BD10B500224FEA020100EB820321
:10AE9000521CC3F884130F2AF8D300224FF4007316
:10AEA0008418521C84F81C119A42F9D30170417025
:10AEB00001228270C0F8C413027640238371417668
:10AEC00080F81C1380F81D2380F81F1380F81E13D0
:10AED000002010BD704700002DE9F04100EB40005C
:10AEE0004FEAC005244C0E004FEAE5772DD0A4F1BF
:10AEF0000408D8F8000020B901F096FE1430C8F814
:10AF000000000021012005EB577701EBE705002247
:10AF100000FA05F316F801C000FA02F51CEA050F65
:10AF20000BD002EB021505EB450504EB8505D5F8C2
:10AF300004C04CEA030CC5F804C0521C062AE9DB25
:10AF4000491C0329E1DBBDE8F08105EB9776B010E1
:10AF5000052200210DF098FF5FF0000501F064FE6E
:10AF600005EBA60104EB810100F57A706D1CC86049
:10AF7000062DF3DBE7E7000084000020F1B5ADF516
:10AF8000387D0024B89A72B11178501C002695AD16
:10AF90003D2973D01EDC302932D016DC2B296ED02F
:10AFA0002D2923D1C1E0802197A80BF08FFB97A911
:10AFB00072A009F085FF73487349006809688842E8
:10AFC00002D172A009F07CFFCEE0312921D03C29CA
:10AFD0000CD14BE0462928D004DC3E2973D03F2910
:10AFE00004D198E0492931D0502926D0002568A104
:10AFF0001046FDF7C7FC97AC979054F82500A1E0E8
:10B00000012264A168460BF067FF0400DCD161A057
:10B0100007E0012261A168460BF05EFF040003D146
:10B020005EA00BF0F7FA04469EE05AA00CF0A0FCDC
:10B03000040001D105F0A6FC96E04FF0FF300CF0C3
:10B04000B9FC014657A0FDF785FA8DE007F0C8FA74
:10B05000564D28B101F0E8FD00F57A70686083E094
:10B0600001F0E2FD00F57A7028607DE01022B8A9B9
:10B07000B890FDF74CFC4E4F8E9003E059E050E045
:10B08000401CB890B89801782029F9D0929608E031
:10B090001022B8A9FDF73BFC929948559298401CA4
:10B0A0009290B898017811B192990829F0D3386834
:10B0B00024228EA9006809F091FEB8980078002833
:10B0C000E0D151E0FFE71022B8A9B890FDF71FFCCE
:10B0D0008E9001E0401CB890B89801782029F9D0F2
:10B0E000929608E01022B8A9FDF711FC92994855F4
:10B0F0009298401C9290B898017811B192990829C1
:10B10000F0D32946929A8E9805F06CFCB898007896
:10B110000028E1D128E0B89000F04EF80DF5397D17
:10B12000F0BDB89000F066F9F8E7B89000F0FAF8D2
:10B13000F4E70020F2E716A10020FDF723FC6D1CC8
:10B1400044F825000028F6D11A4E00249798FDF700
:10B1500029FC024656F834109798FDF742FC28B1B6
:10B16000641C0B2CF2D306242046D7E706EBC40060
:10B1700097A9426828469047D0E700000D0A25733A
:10B180000000000074000020B80500202F0000001F
:10B19000202C0000464C4153483A00005553423A97
:10B1A000000000002E2E2E2564000000E405002083
:10B1B000B40500204C0500202DE9F1412DED048B54
:10B1C00085B009A80DF0F9FC0078612870D07628C8
:10B1D00075D0062005B0BDEC048BBDE8F881DFF822
:10B1E000E880D8F808030EF0C0F99FED388B53ECD7
:10B1F000182B0EF009FA9FED379B53EC192B0EF02C
:10B200002DF89FED361B53EC112B0EF009FC9FED32
:10B21000351B53EC112B0EF021F89FED341B53EC32
:10B22000112B0DF067FF0DF033FF0EF0E3FC064627
:10B23000D8F804030F46A0F6FF7040420EF095F9CF
:10B240009FED2C1B53EC112B0EF0DEF953EC182B59
:10B250000EF00EFB0DF01CFF0EF0CCFC04460D466C
:10B26000D8F800030EF081F953EC182B0EF0CCF94E
:10B2700053EC192B0DF0F2FF9FED201B53EC112B1B
:10B280000EF0C2F99FED1F1B53EC112B0DF0E6FFE2
:10B290000DF0FEFE0EF0AEFC8DE8F00041EC100B60
:10B2A0001AA053EC102B09F00BFEC82009F0AAFEDF
:10B2B0001B48FDF765FB401C91D002E0FFE70DF055
:10B2C000ABFA002086E70000100D00206666666677
:10B2D00066660A400000000000FEAF4052B81E85BE
:10B2E000EB51E83F7B14AE47E17A643F0000000079
:10B2F00000003940166001166001763F9A999999CD
:10B3000099194840333333333333F33F0D252E310E
:10B3100066562C252E3166562C252E316627430085
:10B3200078000020F1B568460DF047FC0078002653
:10B33000012464280DD006DC44280AD0522840D0CD
:10B34000542804D123E072283BD074281FD0062053
:10B35000F8BD20210098FDF71BFB214D009070B92E
:10B360002E6011E0401C0A2269460090FDF7CFFADA
:10B37000296804FA00F081432960009810B101782F
:10B380000029EFD1286840BB1648066025E020213F
:10B390000098FDF7FDFA144D009070B92E601CE086
:10B3A000401C0A2269460090FDF7B1FA296804FAA8
:10B3B00000F081432960009878B101780029EFD12D
:10B3C0000BE00122D103094801F029FC01F02CFC1B
:10B3D0000749C830086005F0D5FA0020F8BD000024
:10B3E000C8050020740A0020A805002000040240BF
:10B3F000E405002031B568460DF0DFFB007801243C
:10B4000064280DD006DC44280AD0522840D05428A5
:10B4100004D121E072283BD074281DD0062038BD0D
:10B4200020210098FDF7B4FA214D00900AE0401C5D
:10B430000A2269460090FDF76AFA296804FA00F0CA
:10B4400008432860009810B101780029EFD119480D
:10B4500019490068086028E020210098FDF798FA53
:10B46000164D009080B94FF0FF3028601DE0401C61
:10B470000A2269460090FDF74AFA296804FA00F0AA
:10B4800008432860009880B101780029EFD10CE0D2
:10B4900000224FF400410A4801F0C1FB01F0C4FB57
:10B4A0000849C830486005F06DFA002038BD00003A
:10B4B000C805002074000020740A0020A8050020A0
:10B4C00000040240E405002010B5D4B0012801DDDD
:10B4D0004B6800E012A313A2694646A80BF0BCF823
:10B4E00000281AD10DF1160421460FA009F0E8FC3E
:10B4F0009DF80800C00602D50DA10EA001E00FA026
:10B50000009909F0DDFC694646A80BF0B5F8002863
:10B5100003D19DF816100029E6D154B010BD0000EB
:10B520002A000000000000000D0A252D31367300AE
:10B530002F000000252D387300000000252D3864F1
:10B54000000000007047000070B51C48FDF718FAB5
:10B550001A4C05462068406928B908210120FCF7EB
:10B56000FDFE216848611B2D0AD0681C20684069D7
:10B5700010D04168E1B1016845EA0121016019E09C
:10B5800020684069056001F04FFB21680A30496975
:10B5900048600FE0406868B101F046FB22685169DD
:10B5A0004B68984206D9002048605069006870BD19
:10B5B000284670BD4FF0FF3070BD000078000020BD
:10B5C000002200F001B8000030B50E4B0546012006
:10B5D0009C7B022C15D2987B00241C54987B03EB97
:10B5E000800045609D7B03F10C002A54987B421C2F
:10B5F0009A73303008703A2048702F208870CC70D1
:10B60000002030BD441E002030B587B00C460546F2
:10B6100001F05AF90020009002200295CDE9034084
:10B6200005A9684601F0BCF8044601F005F907B029
:10B63000204630BD002229B101291AD002291BD091
:10B640004FF440720E490B6823F440730B600B6893
:10B6500013430B600A6822F0F8020A600A680223AA
:10B6600003EBC00002430A60086840F480300860C1
:10B6700070474FF48072E5E74FF40072E2E7000094
:10B68000103C02401348016889050FD5016821F478
:10B6900000710160016841F400610160016821F4FA
:10B6A00000610160016841F40071016001684905B1
:10B6B0000FD5016821F480610160016841F4805177
:10B6C0000160016821F480510160016841F48061EA
:10B6D00001607047003C024008490A6822F4407249
:10B6E0000A600A6842F004020A600A684FF4803374
:10B6F00043EA002002430A6070470000103C024009
:10B7000070B50C460A490546F22008602868A04238
:10B710000CD001F0D9F8224600232946022001F07E
:10B7200095F806460228F6D001F086F8304670BD3E
:10B730000C3C0240064A136823F4407313601368FC
:10B740001360136843F00103136001707047000039
:10B75000103C0240094910B50C6824F440740C6098
:10B760000C6844F440740C600C6844F001040C60F4
:10B770000260BFF36F8F436010BD0000103C0240B9
:10B78000074A136823F440731360136843F480730B
:10B790001360136843F001031360018070470000D9
:10B7A000103C0240074A136823F440731360136887
:10B7B00043F400731360136843F0010313600160E6
:10B7C00070470000103C024017490868C20617483D
:10B7D00005D5C26942F01002C26110220A600A68EF
:10B7E000920605D5C26942F00802C26120220A60B1
:10B7F0000A68520605D5C26942F00402C2614022BD
:10B800000A600A68120605D5C26942F00202C261E6
:10B8100080220A600A68920705D5C26942F02002B8
:10B82000C2610220086070470C3C0240F41D0020F9
:10B8300070B5114904460020C86101F0F5F90646CB
:10B840000E4D09E0601C07D024B101F0EDF9801B1A
:10B85000A04201D9032070BD2868C003F2D4286833
:10B86000C00701D001202860286810F0F200F2D053
:10B87000FFF7AAFF012070BDF41D00200C3C024020
:10B8800030B514494B68283143B1027B457B012018
:10B890008C5CA840184004438C5430BD026A022AD4
:10B8A00004D1027B8B5C43F001038B54026A102AA3
:10B8B00006D9426A22B9027B8B5C43F002038B54A7
:10B8C000426A082AE9D9007B0A5C42F004020A5461
:10B8D00030BD0000A405002078B50024009490F845
:10B8E0003C20012A19D0012280F83C200A68072355
:10B8F0000568092A13D9EE680A3A02EB420293401E
:10B900009E43EE600B788A680A3B03EB43039A4040
:10B910000368DD682A43DA6010E0022078BD2E69F2
:10B9200002EB420293409E432E610B788A6803EB40
:10B9300043039A4003681D692A431A614A681F231A
:10B94000072A13D205686E6B521E02EB82029340E7
:10B950009E436E630B790A885B1E92B203EB8303EE
:10B960009A4003685D6B2A435A6327E005680D2AF5
:10B9700012D22E6BD21F02EB820293409E432E63A3
:10B980000B790A88DB1F92B203EB83039A400368AA
:10B990001D6B2A431A6311E0EE6A0D3A02EB820234
:10B9A00093409E43EE620B790A880D3B92B203EB03
:10B9B00083039A400368DD6A2A43DA62164B0568FE
:10B9C000144A9D4206D10D68122D03D1556845F4E5
:10B9D0008005556005689D4218D10B68102B01D079
:10B9E000112B13D1536843F40003536009681029E5
:10B9F0000CD10A490A4A0968B1FBF2F101EB810155
:10BA0000490000E0491E00910029FBD180F83C402C
:10BA1000002078BD00230140002001403C000020B0
:10BA200040420F0030B51B480021C0F80413C0F895
:10BA30000013C0F8081300BF01EB410300EB430201
:10BA4000D0F808439588491C2C44C0F8084330F8C6
:10BA50001330D0F8004380292344C0F800335288C3
:10BA6000D0F804331A44C0F80423E5D3D0F80823EF
:10BA7000B2FBF1F2C0F80823D0F80023B2FBF1F2D8
:10BA8000C0F80023D0F80423B2FBF1F1C0F804138E
:10BA900030BD0000100D00207047704770B50400E5
:10BAA0004FF0000503D0206C002610B107E0012004
:10BAB00070BD204600F01CF8666484F83C60206C81
:10BAC000C00610D4206C20F4885040F0020020649E
:10BAD0002046FEF7C3FF6664206C20F0020040F0B1
:10BAE0000100206400E0012584F83C60284670BD18
:10BAF000F0B587B0064614216846FDF756F81F4991
:10BB00003068884237D11E480025016841F48071B1
:10BB10000160006800F480700590194814380168CD
:10BB200041F0040101600068032700F00400009761
:10BB30000590CDE901756946124800F08FFF134C5E
:10BB40001148C4E900050015A560C4E90350400090
:10BB500060618000A0614011C4E9070504206062B3
:10BB6000C4E90A752046256300F076FD08B1FFF7A9
:10BB7000E9FCB463A66307B0F0BD000000200140FB
:10BB800044380240000802401064024018120020AD
:10BB9000F8B50E4600210446009190F83C000128BB
:10BBA00007D0012084F83C0020688368DB0702D0BE
:10BBB00011E00220F8BD836843F001038360374839
:10BBC000374B0068B0FBF3F000EB400000E0401E94
:10BBD00000900028FBD120688368DB075CD0236CD1
:10BBE00040F20165AB4343F4807323644068400531
:10BBF00005D5206C20F4005040F480502064206C67
:10BC0000C00404D5606C20F00600606400E061644C
:10BC100084F83C10A16B2448224DC863A16B2348D3
:10BC20000864A16B2248C86421686FF02200086094
:10BC30002068416841F0806141602068816841F47A
:10BC4000807181602168134632464C31A06B00F050
:10BC50006DFD68681749C006206806D088421BD170
:10BC6000816811F0405F13D016E08842F8D0124A84
:10BC7000904203D1D1F80423D206F1D00F4A90426A
:10BC80000AD1D1F8041301F01F011029E8D303E011
:10BC9000816841F0804181600020F8BD3C000020B7
:10BCA00040420F0000230140CDA9000851AA00081E
:10BCB0003BAA000800200140002101400022014071
:10BCC00090F82020012A07D0022A05D0416A41F4C9
:10BCD0008021416201207047006842690A43426145
:10BCE00000207047F0B590F820500468A468012D3A
:10BCF00005D0022D03D0416A41F4802153E014F0B5
:10BD0000406F01D1E5004BD5C4F30164022C03D987
:10BD1000416A41F4000146E00125A5401D608D689F
:10BD20004FF4C0739DB1CE6835434E6845EAC605F1
:10BD3000066803EB0417F5514FF4C275076805EB6D
:10BD400004150E697E51097D012905D009E00E8890
:10BD5000CD6845EA4655EBE701684E5946F48076D2
:10BD60004E511179D2F805504FF4C67641EA0525B7
:10BD7000016806EB04168D511178D2F801204FF4BA
:10BD8000C47541EA0221026805EB041551510068AF
:10BD900003EB0411425842F0010242500020F0BD72
:10BDA000416A41F4001141620120F0BD10B590F8E4
:10BDB0002020012A07D0022A05D0416A41F48021BF
:10BDC0004162012010BD3B48D0F8002242F0010240
:10BDD000C0F80022D0F8002222F47C52C0F80022E1
:10BDE000D0F800224B6A42EA0322C0F800220A7D02
:10BDF00002F01F0301229A40D0F81C329343C0F88E
:10BE00001C32CB69B3B9D0F80C329343C0F80C3272
:10BE10008C894B6864F31F434C6900EBC404C4F87D
:10BE200040320C890B6864F31F434C6900EBC40477
:10BE3000C4F84432CB69012B16D1D0F80C3213432D
:10BE4000C0F80C320C884B6864F31F434C6900EB5C
:10BE5000C404C4F840320C89CB6864F31F434C69B6
:10BE600000EBC404C4F844328B69002BD0F80432D0
:10BE70000ED01343C0F804320B69002BD0F81432F3
:10BE800008D01343C0F81432096A012904D008E02D
:10BE90009343EFE79343F5E7D0F81C121143C0F842
:10BEA0001C12D0F8001221F00101C0F8001200208D
:10BEB00010BD000000640040704730B590F820408D
:10BEC000012C05D0022C03D0416A41F480215DE0B1
:10BED0000468002955D02469A40754D04FF4D874BD
:10BEE000056804EB01142D5915F0040595600568EB
:10BEF0002D594ED0ED08556005682C5904F0020408
:10BF0000D4604FF4DA74056804EB01142D5905F080
:10BF10000F05156105682D59C5F30725956105685D
:10BF20002C59240C54614FF4DC72046802EB0112AA
:10BF3000A4581C700468A458240A5C700468A458AF
:10BF4000240C9C700468A258120EDA704FF4DE7252
:10BF5000046802EB0112A4581C710468A458240A56
:10BF60005C710468A458240C9C710468A258120ED9
:10BF7000DA71006881B1016941F02001016100209E
:10BF800030BDE468A8E7416A41F400114162012034
:10BF900030BD6D0D1560AFE7C16841F02001C16093
:10BFA000EDE72DE9F05F0546006800244669D0F80A
:10BFB00004908768D0F80CB0D0F810A0D0F81880A2
:10BFC000F10748D0F90714D001218160B80703D5E3
:10BFD000284600F014FA0CE0780702D54FF400640C
:10BFE00007E0380702D54FF4805402E0284600F0FD
:10BFF00005FAF80516D529684FF480708860B805F1
:10C0000003D5284600F0FEF90CE0780502D544F48B
:10C01000005407E0380502D544F4804402E0284685
:10C0200000F0EFF9F80316D529684FF480308860E6
:10C03000B80303D5284600F0E9F90CE0780302D5EF
:10C0400044F4004407E0380302D544F4803402E0AD
:10C05000284600F0D9F9300707D55FEACB6004D550
:10C060002968102044F40074C86070074FF0080776
:10C0700007D55FEA0B7004D52868C760284600F032
:10C0800079F9B00706D52868C068800702D028462D
:10C0900000F072F9700607D55FEACA6004D5296816
:10C0A000102044F480640861B00607D55FEA0A7086
:10C0B00004D528680761284600F070F9F00606D517
:10C0C00028680069800702D0284600F068F9B003AC
:10C0D00008D55FEAC96005D5296810204860284660
:10C0E00000F05FF9F00307D55FEA097004D528680E
:10C0F0004760284600F0A2F9300446D55FEA49704F
:10C1000040D5F00504D55FEAC87001D044F00104C1
:10C11000B00504D55FEA887001D544F002047005CB
:10C1200004D55FEA487001D544F00404300529D5F0
:10C1300018F0700F26D008F07000402815D006DCEB
:10C14000102809D020280AD0302816D10AE050281B
:10C150000ED0602811D10EE044F008040DE044F048
:10C1600010040AE044F0200407E044F0400404E036
:10C1700044F0800401E044F480742868816921F06F
:10C1800070018161296804204860002C05D0686A2C
:10C19000204368622846FFF78FFEBDE8F09F70B528
:10C1A000040003D094F8200010B104E0012070BD19
:10C1B000204600F081F82068016821F0020101604A
:10C1C00000F032FD0546052604E000F02DFD401B81
:10C1D0000A2811D8206840688007F6D420680168D2
:10C1E00041F00101016000F01FFD05460BE000F089
:10C1F0001BFD401B0A2806D9606A40F400306062CB
:10C2000084F82060D2E720684068C007EFD0207E25
:10C210000128206801683DD021F080010160607E26
:10C2200001282068016838D021F040010160A07E1B
:10C2300001282068016833D021F020010160E07EF0
:10C240000128206801682ED041F010010160207F94
:10C2500001282068016829D021F008010160607F71
:10C2600001282068016824D021F004010160D4E98C
:10C2700002010843D4E90412114308436168491ECE
:10C2800008432168C86100206062012084F8200012
:10C29000002070BD41F08001C0E741F04001C5E7DA
:10C2A00041F02001CAE721F01001CFE741F0080179
:10C2B000D4E741F00401D9E710B586B00446142153
:10C2C0006846FCF772FC28492068884249D1274813
:10C2D000016841F080610160016801F080610591B1
:10C2E000016841F000710160006800F00070059085
:10C2F0001E481038016841F002010160006869467B
:10C3000000F0020005904FF4405000900220019090
:10C31000012002900320039009200490144800F0AB
:10C320009DFB002203213F2000F02AFF3F2000F068
:10C330001AFF00220321402000F022FF402000F0DD
:10C3400012FF00220321412000F01AFF412000F0DB
:10C350000AFF00220321422000F012FF422000F0D9
:10C3600002FF06B010BD00000068004040380240E7
:10C37000000402407047000000B589B06A46002101
:10C3800007ABFFF79AFD044824226946006900685C
:10C3900008F024FD09B000BDA40500207047FFF798
:10C3A000EBBF704770B5044690F82000012804D018
:10C3B000606A40F40020606218E0022084F82000E7
:10C3C0002068016821F00101016000F02DFC0546A4
:10C3D0000EE000BF00F028FC401B0A2808D9606A64
:10C3E00040F400306062052084F82000012070BD18
:10C3F00020684068C007EDD1606270BD704700F0F2
:10C4000005B8704700F002B870470000094800B551
:10C41000006989B020224068694608F0C9FC0028FC
:10C4200005D008AB6946044806AAFFF75BFC09B0D3
:10C4300000BD0000A405002064100020704730B546
:10C440000223437103689C6844F001049C6000234C
:10C4500004E0056851F823402C605B1C9342F8D33C
:10C460000168096801224271084630BD10B5040018
:10C4700002D0607910B106E0012010BD00202071CB
:10C48000204600F005F801206071002010BD00007A
:10C4900008B500680649884208D10648016841F499
:10C4A00080510160006800F48050009008BD0000D9
:10C4B00000300240303802402DE9F84304464FF086
:10C4C0000009CDF8009063484FF41651A56D00683F
:10C4D000B0FBF1F72E6894F85C10082000FA01F127
:10C4E00031420FD021680A6852070BD50A6822F042
:10C4F00004020A6094F85C108840A860606D40F007
:10C500000100606594F85C104FF0010808FA01F032
:10C51000304208D021684969090604D5A860606DD9
:10C5200040F00200606594F85C10042088403042BE
:10C5300008D021680968890704D5A860606D40F0BB
:10C540000400606594F85C1010208840304218D0D8
:10C5500021680968090714D5A860206801684903A3
:10C5600004D50068000308D5A16C07E00168C9057F
:10C5700003D4016821F008010160216C09B1204653
:10C58000884794F85C1020208840304231D02168E0
:10C590000968C9062DD5A86094F8350005282068DB
:10C5A000016806D0490347D5006800031DD4616CBB
:10C5B0001CE021F0160101602068416921F0800132
:10C5C0004161206C08B9A06C20B12068016821F09D
:10C5D0000801016094F85C103F208840A86084F84E
:10C5E000349084F83580216D1FE0E16B09B120465D
:10C5F0008847606D00282BD0606DC00714D00520DF
:10C6000084F835002068016821F00101016000987C
:10C61000401C0090B84203D820680068C007F6D1DB
:10C6200084F8349084F83580E16C002910D001B092
:10C630002046BDE8F04308470168C905D5D4016824
:10C6400021F01001016084F8349084F83580CCE743
:10C65000BDE8F8833C0000202DE9F041044600F0DD
:10C66000E3FA06465CB1002584F83450022084F8D1
:10C6700035002068016821F0010101600DE0012012
:10C68000BDE8F08100F0D0FA801B052805D92020F4
:10C690006065032084F83500F2E720680068C00771
:10C6A000F0D12268116820480140D4E90103184301
:10C6B000D4E903363343184363691843A369184325
:10C6C000E3691843236A18430843616A042903D1C4
:10C6D000D4E90B1319430843106020684069666A67
:10C6E00020F0070130460E43012704280CD1A06A30
:10C6F0000643E06A40B12046FEF786FB20B14020A9
:10C70000606584F83570BAE7206846612046FEF718
:10C7100067FB94F85C203F2191408160656584F857
:10C7200035700020ACE700003F8010F02DE9F041AB
:10C730000446866D90F83400002501280DD00120B4
:10C7400084F8340094F835700020012F07D084F865
:10C75000340002252846BDE8F0810220FBE70227CD
:10C7600084F8357060652046FEF778FB94F85C101D
:10C770003F208840B0602068016841F016010160E8
:10C78000206C20B12068016841F008010160206838
:10C79000016841F001010160DCE708F033BC0000F2
:10C7A0002DE9F047044622480F46017E01290AD0B0
:10C7B0000121804601764CF250394846FFF738F89F
:10C7C000020003D02FE00220BDE8F0874FF0FF30D9
:10C7D00038602068174D012801D0A6681CE0207C35
:10C7E0006168FEF779FF4846FFF722F8024628689D
:10C7F00020F00400286014E0217C3046FEF71AFF88
:10C800004846FFF715F80200286820F0FA00286073
:10C8100001D03E6005E0761CD4E902100844B04225
:10C82000EAD8FEF72FFF002188F818101046CBE752
:10C83000F41D0020103C02400348016841F0004113
:10C840000160002070470000103C02402DE9F047D5
:10C850001B4E05461446307E1F468946012808D0E7
:10C86000012030764CF250384046FEF7E1FF18B117
:10C8700014E00220BDE8F0879DB1012D16D0022DF5
:10C8800019D022463B464846FEF764FF4046FEF775
:10C89000CFFF0C490A6822F001020A6000213176BC
:10C8A000E8E7E1B24846FEF745FFEFE7A1B24846A8
:10C8B000FEF766FFEAE721464846FEF773FFE5E725
:10C8C000F41D0020103C0240074900200A68002A9D
:10C8D00009DA054A054B0C3A1360054B13600968E9
:10C8E000002900DA01207047103C0240230167450F
:10C8F000AB89EFCD2DE9F04F0022DFF838B10126EA
:10C900004FF00F0906FA02F401EA0403A3427DD1B5
:10C9100022F003075F44D7F8088895074FEA157C93
:10C9200009FA0CFA0AEA0805DFF80C81404502D141
:10C930004FF0000832E0DFF80481404502D14FF0AB
:10C9400001082BE0DFF8F880404502D14FF00208E3
:10C9500024E0DFF8F080404502D14FF003081DE0ED
:10C96000DFF8E480404502D14FF0040816E0DFF81C
:10C97000DC80404502D14FF005080FE0DFF8D080A1
:10C98000404502D14FF0060808E0DFF8C880404576
:10C9900002D14FF0070801E04FF0080808FA0CF840
:10C9A000A84522D12C4DD5F800C02CEA030CC5F8BF
:10C9B00000C005F1040CDCF800509D43CCF8005099
:10C9C0000CF10405D5F800C02CEA030CC5F800C032
:10C9D0002D1DD5F800C02CEA030CC5F800C0D7F80F
:10C9E000085825EA0A05C7F80858056857000323C0
:10C9F000BB409D430560D50800EB8505D5F820C0F8
:10CA000057074FEAD76809FA08F700E00CE02CEA6C
:10CA1000070CC5F820C0C5689D43C5604568A5439F
:10CA2000456084689C438460521C102AFFF46AAFFE
:10CA3000BDE8F08F003001400000024000040240D9
:10CA400000080240000C02400010024000140240A6
:10CA500000180240001C0240003C01402DE9F84F44
:10CA600000224FF0010803254FF00F0E0B6808FA63
:10CA700002F42340A3426ED14E68012E05D0022E4F
:10CA800003D0112E01D0122E12D186684FEA420C2B
:10CA900005FA0CF7BE43CF6807FA0CF737438760F7
:10CAA0004668A6430C79C4F30014944034434460B0
:10CAB000C668570005FA07FC8C6826EA0C06BC40DD
:10CAC0003443C4604C68022C01D0122C13D1D4081A
:10CAD00000EB8404A346D4F8209054074FEAD46AAC
:10CAE0000EFA0AF629EA06090E6906FA0AF646EA75
:10CAF0000906CBF8206006680C7926EA0C0604F0DB
:10CB00000304BC40344304604C68E40065D5364CF3
:10CB1000266846F480462660246822F0030604F462
:10CB200080440094314C3444A446D4F80848960715
:10CB3000370F0EFA07F6B4432D4EB04201D100264E
:10CB400024E02C4EB04201D101261FE02A4EB04213
:10CB500002D102261AE040E0284EB04201D103265D
:10CB600014E0274EB04201D104260FE0254EB0421A
:10CB700001D105260AE0244EB04201D1062605E087
:10CB8000224EB04201D1072600E00826BE402643CF
:10CB9000CCF808681E4E34684F689C43FF0300D5EC
:10CBA0001C4334601A4C241D26684F689E43BF0303
:10CBB00000D51E432660164E083634684F689C43E5
:10CBC000FF0200D51C433460114E0C3634684F68A8
:10CBD0009C43BF0200D51C433460521C102AFFF452
:10CBE00045AFBDE8F88F00004438024000300140F6
:10CBF000000002400004024000080240000C024015
:10CC0000001002400014024000180240001C0240C4
:10CC1000003C01400069084000D0012070470AB183
:10CC2000816170470904FBE7014880687047000094
:10CC300030000020D0F8C00205F0B0BDD0F8C0022E
:10CC400005F0B6BD006807F00DBB006807F01BBB20
:10CC500001EB810100EBC10090F85C00704701EB33
:10CC6000810100EBC100C06C704710B5044690F81C
:10CC7000B802012809D0012084F8B802206807F022
:10CC80000DFB002084F8B80210BD022010BD2DE974
:10CC9000FE430546DDE90B7095F8B842DDF828C083
:10CCA000012C1CD001EB81044FF0010905EBC404F9
:10CCB00085F8B892002684F83D6084F83830A4F8EE
:10CCC000400084F8391084F83F7002F07F0884F83F
:10CCD0003A805FEA026805D584F83B9004E00220C0
:10CCE000BDE8FE8384F83B6084F83CC0CDF800C00A
:10CCF000CDE90170286807F033FB85F8B862EFE7EB
:10CD000070472DE9F0030E46DDE906C9DDE9087438
:10CD100001EB860100EBC101022581F83B2081F87F
:10CD20003F30BCF1000F0AD081F8425000246BB1B3
:10CD3000012B2DD0022B12D0032B16D10FE04FF078
:10CD4000030881F8428081F83D40EFE7BCF1010F14
:10CD50000BD152B9CFB9012281F8512003E0A2B121
:10CD600091F85020A2B181F84250C1E9119781F8A1
:10CD70005C40CC6481F8396081F85D40027C0068D9
:10CD8000BDE8F003383107F067BB91F85120E9E7BF
:10CD900081F84240E9E700002DE9F04104460068CF
:10CDA000064607F077FA01287ED1206807F0ABFC31
:10CDB000002879D0206807F0A6FC800203D52168FE
:10CDC0004FF400104861206807F09DFCC00203D5B5
:10CDD00021684FF480104861206807F094FC4001FE
:10CDE00003D521684FF080604861206807F08BFC14
:10CDF000800702D5216802204861206807F083FC83
:10CE000080000ED521684FF000504861D6F84004EC
:10CE1000C00706D12046FFF711FF0121206807F067
:10CE20002FFC206807F06FFCC00102D5204602F0FD
:10CE3000E3FA206807F067FC000705D5204600F0FC
:10CE4000CAF8216808204861206807F05CFC80016E
:10CE500023D5206807F0FCFA074600254FF00108AB
:10CE600014E000BF05F00F0108FA01F038420CD0C1
:10CE700006EB4510D0F80005E9B20004204602D5C3
:10CE800002F05CF801E002F095F96D1CA068A84280
:10CE9000E8D821684FF000704861206807F033FC43
:10CEA000C043C0060ED400E00CE02068816921F088
:10CEB00010018161204602F0E9FA2068816941F0A1
:10CEC00010018161BDE8F08170B58AB0040005D021
:10CED00094F8B9022568002618B107E001200AB0CD
:10CEE00070BD84F8B862204600F028F8032084F86A
:10CEF000B902E86BC00500D42661206806F058FF2F
:10CF000004F1100128220D466846FBF7FAFD94E86B
:10CF10000F0006F0BBFD0121206807F01FFC28224E
:10CF200029466846FBF7EDFD94E80F0007F03CFB4F
:10CF3000012084F8B9020020D1E7000010B586B0C6
:10CF4000044614216846FBF730FE2068B0F1A04F7C
:10CF50002FD119480021026842F0010202600068E6
:10CF600000F0010005904FF4C05000900220CDE980
:10CF70000101032003900A20049069460F48FFF73F
:10CF80006DFD0D48001D016841F0800101600A48F7
:10CF90001430016841F4804101600068002200F40F
:10CFA000804005900321432000F0EAF8432000F080
:10CFB000DAF806B010BD0000303802400000024030
:10CFC000D0F8C00205F086BCD0F8C00205F086BCDF
:10CFD000006807F0AABBD0F8C00205F035BC10B558
:10CFE000044690F8B80201280DD0012084F8B80258
:10CFF000206807F00FF90121206806F0F1FE0020FB
:10D0000084F8B80210BD022010BD10B5044690F897
:10D01000B802012809D0012084F8B802206807F07E
:10D020005BFC002084F8B80210BD022010BD000097
:10D0300070B5040011D021684CF6CC40086021681E
:10D0400045F255500860D4E9000141602168A068AC
:10D050008860FFF7E9FD054609E0012070BD00BFCB
:10D06000FFF7E2FD401B302801D9032070BD206886
:10D07000C0680028F4D121684AF6AA200860002080
:10D0800070BD00684AF6AA210160002070470000C8
:10D0900002488168027811448160704730000020A6
:10D0A0000B4810B5016841F400710160016841F45A
:10D0B00080610160016841F480710160032000F02B
:10D0C0007FF8002000F006F800F024F8002010BDE2
:10D0D000003C024070B50D4D04464FF47A7128783B
:10D0E000B1FBF0F00A490968B1FBF0F001F0A4F8D7
:10D0F00048B9102C07D200222146501E00F040F8FB
:10D1000000206C6070BD012070BD00003000002068
:10D110003C0000200A4808B5016841F480410160E4
:10D12000006800F4804000900548001F016841F04D
:10D1300080510160006800F08050009008BD000040
:10D140004438024000280DDB00F01F02012191400D
:10D150004009800000F1E020C0F88011BFF34F8F3C
:10D16000BFF36F8F7047002809DB00F01F02012119
:10D1700091404009800000F1E020C0F800117047A4
:10D18000F0B40E4B1B680C46C3F30223C3F1070532
:10D19000042D00D90425191D072901D2002300E020
:10D1A000DB1E012606FA05F1491E214099409E40EA
:10D1B000761E16403143F0BC07F0D8BC0CED00E001
:10D1C000064900F0070208684FF6FF03184040EADE
:10D1D0000220034A10430860704700000CED00E095
:10D1E0000000FA0570470068416200207047F0B502
:10D1F0000368586A39B19C6A4FF4827600EB144494
:10D2000000204D1E0AE040EA024098620FE006EB63
:10D210008007DF59401C04EB1744C0B2A842F6D384
:10D2200044EA02404FF4807202EB81015850002022
:10D23000F0BDD0F8040404F07DBAC1EBC10200EBEC
:10D240008202D0F80404926C04F0C7B9C1EBC102A9
:10D2500000EB8202D0F80404D2F8082204F020BACD
:10D2600010B504000CD0032084F8BD03204600F064
:10D2700095FC204600F0DCFB002084F8BD0310BDC7
:10D28000012010BDD0F8040404F056BA70B504466D
:10D290000B0601F00F00C0EBC00104EB81014FF061
:10D2A00001024FF0000503D581F83D203C3103E039
:10D2B00081F8FD5101F5FE71087094F8BC03012856
:10D2C00008D084F8BC23206806F036FC84F8BC53F0
:10D2D000002070BD022070BD70B5044601F00F0043
:10D2E0006268904201D9012070BD0B0601F00F0168
:10D2F000C1EBC10104EB81014FF001024FF00005C9
:10D3000003D581F83D203C3103E081F8FD5101F562
:10D31000FE718D70087094F8BC03012808D084F861
:10D32000BC23206806F02AFE84F8BC53002070BDA0
:10D33000022070BD10B5044690F8BC0301280AD045
:10D34000012084F8BC03080607D501F00F0120680E
:10D3500006F076FF04E0022010BD206806F060FFB2
:10D36000002084F8BC0310BD01F00F01C1EBC10126
:10D3700000EB8100D0F8140270472DE9F04104461B
:10D380000F0601F00F00C0EBC00104EB81014FF06C
:10D3900001064FF0000503D581F83D603C3103E004
:10D3A00081F8FD5101F5FE7108708A60CB704A78F2
:10D3B00002B1C880022B00D10D7194F8BC03012882
:10D3C00009D084F8BC63206806F012FB284684F874
:10D3D000BC53BDE8F0810220FBE770B50C4601F0BC
:10D3E0000F05C5EBC50100EB8101C1F81032C1F892
:10D3F00008220023C1F8143281F8FD3181F8FC5174
:10D40000036901F5FE71012B00D10A612207027C3C
:10D41000006803D006F00AFE002070BD06F0F6FC9E
:10D42000FAE770B504460D4601F00F0061688842C6
:10D4300001D9012070BD29064FF000064FF001020E
:10D4400007D5C0EBC00104EB810181F83D203C31E0
:10D4500007E0C5EBC50104EB810181F8FD6101F531
:10D46000FE718A70087094F8BC03012807D084F814
:10D47000BC23206806F0AEFD280702D007E002209A
:10D4800070BD217C04F57172206806F04BFD84F8B4
:10D49000BC63002070BD70B50C4601F00F05C5EBF4
:10D4A000C50100EB81010B658A6400234B650123F4
:10D4B00081F83D3001F83C5F0369012B00D10A611E
:10D4C0002207027C006803D006F0B0FD002070BD8A
:10D4D00006F09CFCFAE700002DE9FC5F05680446B5
:10D4E000284606F0D7FE00287ED1206807F00BF909
:10D4F000002879D0206807F006F9800704D5206855
:10D50000416901F002014161206807F0FCF8010364
:10D5100004F571704FF0010A4FF0080B009075D5BB
:10D520000026206807F0CEF80746DFF808946BE085
:10D53000F80767D0F1B2206807F0DDF88046C00731
:10D5400007D005EB4611C1F808AB3146204602F082
:10D55000CBFD5FEA087032D52068016C00EB461005
:10D560000191D0F8081B2269012A019A0FD0F24BD1
:10D570009A4214D1090403D54FF40041C0F8081BA6
:10D58000204600F0E3FA206901280FD013E04A4555
:10D5900005D9090403D54FF40041C0F8081B204603
:10D5A00000F0D4FA01984845EDD804E02068012144
:10D5B000009A06F0B7FC05EB4611C1F808BB5FEA1C
:10D5C000C86004D505EB46111020C1F8080B5FEACE
:10D5D00088600ED52069012804D120680121009AB5
:10D5E00006F0A0FC202100E0A1E105EB4610C0F808
:10D5F000081B5FEA884005D505EB46104FF4005143
:10D60000C0F8081B7F08761C002F91D1206807F016
:10D610007AF840034FF000095FD5206807F04BF817
:10D620000746002657E0F80753D0F1B2206807F00C
:10D6300050F88046C00726D006F00F020AFA02F022
:10D64000D5F834288243C5F8342805EB4610C0F8D5
:10D6500008A92069012807D1C6EBC60004EB8000A9
:10D66000D0E9112111448164F1B22046FFF7E5FDB4
:10D670002069012807D136B9206D20B92068012121
:10D68000009A06F04FFC5FEA087003D505EB4611DF
:10D69000C1F808B95FEAC86004D505EB461110204F
:10D6A000C1F808095FEA486004D505EB461040213F
:10D6B000C0F808195FEA887004D505EB461002210E
:10D6C000C0F808195FEA086003D53146204602F029
:10D6D00079FD7F08761C002FA5D1206807F013F88C
:10D6E000002811DAD5F8040820F00100C5F8040874
:10D6F00094F8F40301282BD0204600F00BFA2068A0
:10D70000416901F000414161206806F0FCFF00051D
:10D710000BD5D5F80808C00702D0204600F05CFA07
:10D720002068416901F400614161206806F0EBFF67
:10D73000C00461D5D5F8040820F00101C5F804182B
:10D740001021206806F07CFD00214FF67F321AE0A0
:10D7500084F8F49300212046FFF744FDCFE700BF93
:10D7600005EB4110C0F80829D0F8003923F4001364
:10D77000C0F80039C0F8082BD0F8003B23F40013A0
:10D78000C0F8003B491C60688842E9D8D5F81C08FD
:10D7900040F00111C5F81C18206B002828460DD058
:10D7A000D0F8840840F00B00C5F88408D5F8440888
:10D7B00040F00B012846C5F844180DE0D0F81408D5
:10D7C00042F22B010843C5F81408D5F8100840F0C0
:10D7D0000B012846C5F81018D0F8000820F4FE61A7
:10D7E000C5F80018217C2068009A06F09BFB206891
:10D7F000416901F480514161206806F084FF800492
:10D8000015D5206806F034F9206806F02FFDE06099
:10D8100000F02EFB0146227B206806F0C7FF204661
:10D8200000F062F92068416901F40051416120680B
:10D8300006F069FFC00634D52068816921F0100127
:10D8400081612F6A07F00F00C0EBC00004EB800677
:10D85000C7F3434006F5FE76022802D0062811D011
:10D860001AE047F6F070074216D0C7F30A121746BF
:10D870002846F16806F04BFFF0683844F060B06964
:10D88000384408E008222846009906F040FFB069B5
:10D89000C7F30A110844B0612168886940F010009C
:10D8A0008861206806F02FFF000707D5204600F0AA
:10D8B00035F92168486900F008004861206806F0E1
:10D8C00022FFC00208D50021204600F037F8216869
:10D8D000486900F480104861206806F014FF800257
:10D8E00008D50021204600F02DF82168486900F491
:10D8F00000104861206806F006FF400007D520466A
:10D90000FFF797FC2068416901F080414161206880
:10D9100006F0F9FE40070AD520684568680702D579
:10D920002046FFF7AFFC2068416829434160BDE80D
:10D93000FC9F00000A30544F0A31544FD0F80404C1
:10D9400003F052BFD0F8040403F050BF2DE9F041BA
:10D950008AB0040005D094F8BD032668002520B1E4
:10D9600008E001200AB0BDE8F08184F8BC532046ED
:10D9700000F078F8032084F8BD03F06BC00500D4F4
:10D980002561206806F014FA04F110012822884667
:10D990006846FBF7B6F894E80F0006F077F8022621
:10D9A000C8BB0021206806F0D9FE002001270EE048
:10D9B000C0EBC00104EB810181F83D7001F83C0F20
:10D9C000C880CD708D60CD60401CC0B24D61616873
:10D9D0008142EDD8002011E0C0EBC00104EB8101D1
:10D9E00081F8FD5181F8FC0181F8FF51C1F8045222
:10D9F000C1F80852401CC0B2C1F81052616881429F
:10DA0000EAD8282241466846FBF77BF894E80F00E5
:10DA100006F014F910B184F8BD63A2E784F8385019
:10DA200084F8BD73206806F0FBF800209AE7000038
:10DA300010B50068B0F1A04F0ED10848016821F080
:10DA4000800101604FF4C0510548FEF753FFBDE867
:10DA500010404320FFF776BB10BD00003438024071
:10DA60000000024010B586B0044614216846FBF75A
:10DA70009CF82068B0F1A04F2FD11948002102680E
:10DA800042F001020260006800F0010005904FF4CE
:10DA9000C05000900220CDE90101032003900A202C
:10DAA000049069460F48FEF7D9FF0D48001D016834
:10DAB00041F0800101600A481430016841F480415E
:10DAC00001600068002200F4804005901146432068
:10DAD000FFF756FB4320FFF746FB06B010BD0000E2
