:020000040800F2
:20000000E820002099010008A1010008A3010008A5010008A7010008A901000800000000B0
:20002000000000000000000000000000AB010008AD01000800000000AF0100083511000850
:20004000B3010008B3010008B3010008B3010008B3010008B3010008B3010008B3010008C0
:20006000B3010008B3010008B3010008B3010008B3010008B3010008B3010008B3010008A0
:20008000B3010008B3010008B3010008B3010008B3010008B3010008B3010008B301000880
:2000A000B3010008B3010008B3010008B3010008B3010008B3010008B3010008B301000860
:2000C000B3010008B3010008B3010008B3010008B3010008B3010008B3010008B301000840
:2000E000B3010008B3010008B3010008B3010008B3010008B3010008B3010008B301000820
:20010000B3010008B3010008B3010008B3010008B3010008B3010008B3010008B3010008FF
:20012000B3010008B3010008B3010008B3010008B3010008B3010008B3010008B3010008DF
:20014000B3010008B3010008B3010008B3010008B3010008B3010008B3010008B3010008BF
:20016000B3010008B3010008B3010008B3010008B3010008B3010008B3010008B30100089F
:20018000B3010008DFF80CD000F0E6F800480047B5210008E82000200648804706480047E3
:2001A000FEE7FEE7FEE7FEE7FEE7FEE7FEE7FEE7FEE7FEE7851100088501000840EA0103F3
:2001C0009B0703D009E008C9121F08C0042AFAD203E011F8013B00F8013B521EF9D27047AF
:2001E00010B5044604E00B7800F8013B03B1491C521EF8D2204610BD30B504460020034637
:2002000000E05B1C934203D2E05CCD5C401BF8D030BD2DE9F05F93460F468046044600269F
:2002200001F05CF8D0F80090824614F8015B2DB100F03EF80068405DC007F6D12B2D02D030
:200240002D2D1AD0641E0021CAF800105A463946204600F031F8014627B13868A04201D1D4
:20026000C7F80080DAF80000022809D0CAF80090700505D54842BDE8F09F46F48066E2E722
:200280000846F8E730B50B46014600202022012409E021FA02F59D4205D303FA02F5491B23
:2002A00004FA02F52844151EA2F10102F1DC30BD00487047D82800082DE9F05F82460078AE
:2002C000002715468B460AF10104B946302801D09DB113E014F8010B0127782803D058282F
:2002E00001D045B10AE00DB1102D07D10027102514F8010B02E0082500E00A250026B046CC
:200300000EE005FB080005FB06F1012701EB10461FFA80F8B6F5803F00D3B94614F8010BA1
:20032000294600F02BF80028EBDABBF1000F05D00FB1641E00E05446CBF80040B9F1000F46
:2003400006D000F0CBFF02210160C81EBDE8F09F48EA0640FAE70000064C074D06E0E06842
:2003600040F0010394E8070098471034AC42F6D3FFF70CFFDC280008FC2800083A2800D27F
:20038000303820F02002412A01D3A2F13700884201D34FF0FF30704710B5002000F080FCA6
:2003A00000F0D0FE05A000F033FF0A4C0020206000F048FE0320206210BD00000D313E4559
:2003C0005241534520323E5349474E20333E52554E0D0A0000000020094910B588424FF054
:2003E000010101D14C0601E04FF08064204600F0B3FD2046BDE81040002100F0ADBD0000F7
:2004000000640040F0B5827A012191402E4A136843F0010313602C4B1C331C688C431C6072
:20042000294D067B294C0C35A6B92E688E432E604688C78846EA0746877A04EBC707C7F8A4
:2004400040660688878846EA0746877A04EBC707C7F84466067B012E12D12E680E432E60AD
:20046000867A056804EBC6064FEA3545C6F84056867A456804EBC6044FEA3545C4F84456DE
:20048000114CC57A241D002D256806D00D4325600D4C0589143415B104E08D43F7E7256806
:2004A0008D4325600589012D02D125680D432560407B012802D1186808431860106820F074
:2004C00001001060F0BD0000006600400060004010B50368002223F002030360036843F04D
:2004E000010303604FF6FF7300E0521C4468E40701D19A42F9D14268D2073ED08A79012AC2
:2005000002683CD022F080020260CA79012A026838D022F0400202600A7A012A026834D0BC
:2005200022F0200202604A7A012A026830D022F0100202608A7A012A02682CD022F0080295
:200540000260CA7A012A026828D022F0040202608A78CC78920742EA04620C7942EA044286
:200560004C79098842EA0452491E0A43C261016821F001010160002114E0002010BD42F0BB
:200580008002C1E742F04002C5E742F02002C9E742F01002CDE742F00802D1E742F00402E9
:2005A000D5E7491C4268D20701D09942F9D14068C007E2D1012010BD0246002029B10129A5
:2005C00002D1106900F003007047D068FAE7000010B500EB0113D3F8B04114F004041472FA
:2005E000D3F8B04134D0E408C2F80440D3F8B04104F002045472D3F8B44104F00F04947208
:20060000D3F8B441240AD474D3F8B841D472D3F8B841240A1473D3F8B841240C5473D3F89B
:20062000B841240E9473D3F8BC41D473D3F8BC41240A1474D3F8BC41240C5474D3F8BC3183
:200640001B0E937439B1016941F02001016110BD640D1460CAE7C16841F02001C16010BD96
:2006600000218171C171017241728172C1728170C170032101710221417101210180704702
:2006800030B50246002093685B0108D49068000101D5012003E09068C00037D5022002EB34
:2006A0000012D2F8803103F00103C2F880310B7A73B3D2F880414D681C434B7A43EAC50347
:2006C0001C43C2F880418B7A03F00F038B72D2F8843123F00F03C2F88431D2F884318C7AA1
:2006E0002343C2F88431CB7ACC6843EA0423C2F88831CB7B096943EA0121C2F88C11D2F8BD
:20070000801141F00101C2F8801130BD042030BDD2F880314C7A23430C8843EA4453C2F813
:200720008031D0E710B50022044B03E050F822401C60521C8A42F9D3186810BD003002404D
:200740000149012088607047003002402DE9F843384F060004D0009600F061FA10BB02E0DD
:2007600035480090F8E70221684601F09AFD05460421684601F095FDDFF8B880A8F13308B0
:20078000B8F81C1000EB01440221684601F089FD06284CD2DFE800F0034B4B4B4545274825
:2007A000844202DA0020BDE8F883DFF88880A221A8F10B08C8F800103C600421204F88F889
:2007C0000A105EB11B4938460B39FFF759FF0428F8D0A3210024C8F800101AE015480B3836
:2007E00000F008FBF5E70221684601F05AFD08EB0402641CD072082C00D055B988F80A407A
:2008000000244EB10B4938460B39FFF739FF0428F8D06D1EE7D20AE006480B3800F0EAFAEA
:20082000F7E70421684601F03CFDC8F81C004FF0FF30B8E733000020640000200080000895
:200840000068004001490860704700000C3C024070B50646002529B1012927D0022928D049
:200860004FF4407500F074F808281ED1124C206820F440702060206828432060206820F0D0
:20088000F8002060206846F0020108432060206840F48030206000F05BF8216821F0020188
:2008A0002160216821F0F801216070BD4FF48075D8E74FF40075D5E7103C02400B49082001
:2008C0000A68D20301D5012070470A68D20601D5052070470A6812F0EF0F01D00620704707
:2008E00009688907FBD50720704700000C3C024070B50D46064600F02BF8082813D10A4C7E
:20090000206820F440702060206840F400702060206840F001002060356000F019F8216807
:2009200021F00101216070BD103C024005480068002805DA034804490C38016003490160C2
:2009400070470000103C024023016745AB89EFCD08B508208DF80000FFF7B0FF8DF80000FE
:200960009DF800000128F7D09DF8000008BD000070B5ADF59A6D87A9002001F041FA002826
:2009800079D101223DA1684601F04EFA0025082478BBCDF8C45400BF00F014FCDDF8C40468
:2009A00004EBC00000F07CF8DDF8C404401CCDF8C4040528F0DB0DF2444600BFDDE9020195
:2009C000884210D000F0FEFB6A4680210DF2444001F0F3F93F22711C2B48FFF701FC00205F
:2009E000FFF7B4FEEAE7002000F038FF684601F0DBF9012225A1684601F016FAB8BBCDF8F4
:200A0000C45400BF00F0DEFBDDF8C40404EBC00000F046F8DDF8C404401CCDF8C404052809
:200A2000F0DB1D4D2C4611E000F0CCFB0DF2CC4304220DF2C441684601F038FA00281AD14B
:200A40002046DDF8C41400F057F8241DDDE902018842E9D110484042204481080F48C0E9EF
:200A60000015002000F0FAFE684601F09DF90021084601F0C5F90DF59A6D70BD4C343035EB
:200A80002E68657800000000640000204C3430352E62696E0000000000800008000000206B
:200AA00010B5040015D0082C16D0102C14D0182C12D0202C10D0282C0ED0302C0CD0382C2E
:200AC0000AD0402C08D0482C06D0502C04D0582C02D04FF0FF3010BDFFF728FFF320FFF7A7
:200AE000B1FE02212046FFF7B3FE0128F9D00828F1D1002010BD000013B50446042201A964
:200B0000FFF77AFB002804D00A48844202D24FF0FF301CBDFFF70AFFF320FFF793FE20463C
:200B20000199FFF7E5FE0128F9D00828F1D100201CBD0000E47F0008F0B5002301240327E3
:200B40000D6804FA03F21540954242D1D0F800C05E0007FA06F52CEA050CC0F800C091F8E4
:200B600004C0D0F800E00CFA06FC4CEA0E0CC0F800C091F804C0BCF1010F02D0BCF1020F9F
:200B80001FD1D0F808C02CEA050CC0F808C091F805C0D0F808E00CFA06FC4CEA0E0CC0F820
:200BA00008C0D0F804C02CEA020CC0F804C0426891F806C00CFA03FC1FFA8CFC42EA0C0268
:200BC0004260C268AA43C260CA79C568B2402A43C2605B1C102BB3D3F0BD4B07DB0E9A404F
:200BE000C90810B500EB8100016A0F249C40A1430162016A1143016210BD4FF6FF7101602D
:200C00000021017141718171C171704742694A40426170470AB10183704741837047F1B50E
:200C20000221684601F03DFB044625466FF0040604E00221684601F034FB05442046641E96
:200C4000B042F6DCE8B2F8BD02494CF6CC4008607047000000300040034A01460020D2686B
:200C60000A4200D0012070470030004002494AF6AA2008607047000000300040014948603A
:200C80007047000000300040014988607047000000300040014908607047000000300040FB
:200CA000F0B589B0074607A8FFF7A7FF02208DF82000C002484E012407908DF8234007A94B
:200CC0003046FFF739FF6003002507908DF8225007A93046FFF730FF09220C213046FFF74B
:200CE0007CFF09220D213046FFF777FF0121480600F026F90121880600F022F904A8FFF762
:200D0000AFFC364E3046FFF767FB8DF818508DF819508DF816508DF81A508DF817408DF8C0
:200D20001B4017B18DF8124001E08DF812500A208DF814008DF813500620ADF810008DF8E6
:200D4000154004A93046FFF7C3FBADF802504FF4A350ADF80000ADF806504FF4A2508DF8E0
:200D60000B40ADF80400ADF808500E208DF80C408DF80A008DF80D406846FFF743FB4FF4FD
:200D8000A050ADF800004FF4A150ADF804000F208DF80A006846FFF735FB4FF4A450ADF873
:200DA00000004FF4A550ADF8040010208DF80A006846FFF727FB4FF4A650ADF800004FF4AC
:200DC000A750ADF8040011208DF80A006846FFF719FB09B0F0BD00000004024000680040A7
:200DE000024A1140014302480160704780FFFF1F08ED00E0F0B585B006004FF0FF3505D016
:200E0000014614226846FFF7D9F90BE0434C00212046FFF7D1FB00287CD06A460021204671
:200E2000FFF7D6FB009800273D4CA0386A46082870D2DFE800F0043B0B136D06476900F082
:200E40003BFA9DF80B0000F009FD36E0DDF80B006061616888425DDA60605BE09DF80A00AC
:200E6000636903E0195C1518401CE9720828F9DBDDF80B101846FFF73FFE05466069001DB4
:200E800060612168491C21609DF80A10042904D9DDF80F10FFF730FE05436069001D606162
:200EA0002068401C206076BB284608E0276000F089F9DDF80B00FFF7F3FD05461EBB00F074
:200EC000C1F827E00021174B9DF80A60A06907E002EB010C9CF80BC003F800C0401C491C0B
:200EE0008E4201DD8028F3DB1918A06111F8011C29B10D2903D00A2901D080280AD10020EC
:200F0000A761FFF723FC05E000251EB90020D6E79DF80B5005B02846F0BD0000006800408E
:200F20000000002064000020044A0029116801D0014300E081431160704700003038024092
:200F4000044A0029116801D0014300E0814311607047000040380240044A0029116801D045
:200F6000014300E08143116070470000203802400248016841F080710160704774380240EC
:200F800070B5204A1168204C11F00C0104D06610042903D0082903D004601BE0066019E0C3
:200FA0001849091F0B68C3F380550B6803F03F0315B1B6FBF3F301E0B4FBF3F30C6809684A
:200FC000C4F388146343C1F30141491C4900B3FBF1F1016011680F2303EA11110B4B5C5CBB
:200FE0000168E14041601468072505EA94241C5D21FA04F48460126805EA52329A5CD14013
:20100000C16070BD083802400024F4003C00002002460020510901290BD002290CD008496D
:20102000096802F01F02012393400B4200D00120704703497439F3E70149091FF0E7000024
:201040007438024070B5054601210803FFF76CFFFFF776FB03210E48FFF764FB0D4C6FF0B6
:201060000041A422216204F128010A6008228A72C4F83350C4F83700074D01E0A068804702
:20108000044928462831FFF7FBFA0428F6D070BD107AFF1F00000020006800400CB50021E0
:2010A000214801910091026842F4803202604FF4A063026802F400320092019A521C0192EA
:2010C000009A12B9019A9A42F3D10268920329D501210091144908310A680A600A6842F4A6
:2010E00000420A600A6842F4A0520A600B1F0F4A1A60026842F08072026002689201FCD585
:201100000B4A40F203701060086820F003000860086840F0020008600868C0F381000228A2
:20112000FAD10CBD00910CBD0038024008544007003C02400248416A491C41627047000072
:20114000000000207FB56846FFF71AFF01984FF47A71B0FBF1F1491E4FF0FF35B1F1807FAF
:201160000AD24FF0E02461610F21284600F094F80020A061072020610321284600F08CF8A5
:201180007FBD00000C48016841F0010101600A4A0021083211600268084B1A400260031D09
:2011A000074A1A60026822F48022026002480C300160FFF773BF000000380240FFFFF6FE65
:2011C0001030002410B545F25550FFF763FDFFF74DFDBDE810400020FFF75CBD10B5044641
:2011E00045F25550FFF756FD0320FFF747FDA0B2FFF74AFD0220FFF72FFD0028FAD0FFF7B2
:2012000035FDFFF721FDBDE810400020FFF742BD0FB4054B10B503A9044A029800F072F8B8
:2012200010BC5DF814FB0000C12000085C00002010B5164C616A2069884216D0606A64219F
:2012400090FBF1F2206101FB120020B94FF440410F48FFF7DBFC20694FF47A7190FBF1F0AD
:20126000216A884201DB00F027F80020FFF7C2FD084800F0D3FE1B2803D14FF0FF3000F0D3
:20128000EDFABDE81040FFF79DBF00000000002000080240580000200907090E002804DB10
:2012A00000F1E02080F80014704700F00F0000F1E02080F8141D7047BFF34F8F0548016864
:2012C000054A01F4E06111430160BFF34F8F00BFFDE700000CED00E00400FA0500487047C6
:2012E0006000002002E008C8121F08C1002AFAD170477047002001E001C1121F002AFBD175
:20130000704700002DE9FF4F8BB088460546002606E025280BD0DDE90D1290476D1C761C53
:2013200028780028F5D10FB03046BDE8F08F0024A146A2460122AE4900E0044315F8013F45
:20134000203B02FA03F00842F7D128782A2810D06FF02F022878A0F13001092915D809EB5A
:20136000890102EB410144F0020400EB01096D1CF0E758F8041B5FEA010903D544F40054FF
:20138000C9F1000944F002046D1C28782E2817D115F8010F44F004042A280ED06FF02F02D0
:2013A0002878A0F1300109290AD80AEB8A0102EB410100EB010A6D1CF2E758F804AB6D1C28
:2013C00028786C280FD006DC4C2817D068280DD06A2814D104E0742810D07A280FD10DE00A
:2013E00044F400140AE044F4801401E044F440146978814202D104F580146D1C6D1C2878C8
:20140000692865D006DC00288DD0632827D0642806D15DE06E2808D073282AD0752877D096
:20142000DDE90D129047761CE0E0C4F30250022809D003280DD0D8F8001004280DD00E6033
:2014400008F10408D2E0D8F80010F217C1E90062F6E7D8F800100E80F2E70E70F0E718F857
:20146000041B8DF8001000208DF80100EB46012003E058F804BB4FF0FF3061074FF00007B2
:2014800001D40AE07F1C57450DDA8742FADB1BF807100029F6D106E07F1C8742FCDB1BF883
:2014A00007100029F8D1DDE90D23A9EB07008146214600F0B1F83044C61904E0DDE90D12AF
:2014C0001BF8010B90477F1EF8D22146484688E058F8040BC4F302514FF00A0B032900D198
:2014E00000B2042900D140B2002802DA40422D2102E0210505D52B218DF82410012104E089
:2015000006E0E10710D02021F6E708AF089113E058F8040BC4F302514FF00A0B032900D102
:2015200080B2042900D1C0B20021EEE75946FEF7A9FE303107F8011D0028F7D1ADEB0700CB
:2015400000F1200B600702D524F4803401E04FF0010ADA4502DDAAEB0B0000E000208246D4
:2015600000EB0B0108980144A9EB01000A90E00306D4DDE90D2321460A9800F04DF8064425
:201580004FF0000908E009A911F80900DDE90D12904709F10109761C08998945F3DBE003E5
:2015A0000CD5DDE90D2321460A9800F035F8064404E0DDE90D1230209047761CBAF10001B6
:2015C000AAF1010AF5DC05E0DDE90D1217F8010B9047761CBBF10001ABF1010BF4DC0A987F
:2015E0002146DDE90D2300F005F806446D1C97E6092801002DE9F041044600251E461746A8
:20160000880404D405E039462020B0476D1C641EF9D52846BDE8F0812DE9F04104460025B8
:201620001E469046C80301D5302700E02027880404D505E041463846B0476D1C641EF9D532
:201640002846BDE8F081000010B504460A464078012304F1280100F083FB08B1032010BD96
:20166000B4F82602A0F52A41553901D0022010BD94F85E00B4F85F1040EA01210848B0EB0C
:20168000012F08D094F87A10B4F87B2041EA0221B0EB012F01D1002010BD012010BD00001F
:2016A0000046415400E0401C02780AB18A42FAD1D0B270472DE9F0470268DFF884A11578CE
:2016C000303D092D02D853783A2B08D09AF8005000260E60022D05D30B20BDE8F087921C13
:2016E0000260F5E75648001D50F825408CB10C60207820B1607800F055FBC007EDD0267000
:20170000E8B2B146607000F022FBC00703D00320E3E70C20E1E700210D462046FFF794FF7D
:2017200001280CD104F5F3700179E9B3017AD0F8090041EA002529462046FFF785FF03281B
:2017400001D088BB01E00120C7E7B4F83300B0F5007F56D1E08F28B994F84C00D4F84D104A
:2017600040EA0120606194F838108446E170012901D0022945D194F835204843A2709AB169
:20178000531E1A423DD1B4F839302381190738D1B4F83B1029B994F84810D4F8496041EA2F
:2017A0000621E78E07B100E02BE03E1806EB1316B14226D3891BB1FBF2F111B3012240F63E
:2017C000F678414500D302224FF6F678414500D303222E44891C3D442662A5612161032A18
:2017E00011D073B12844E061022A17D001F0010001EB410100EB510000F2FF10BCEB502FA1
:201800000ED20D2069E7002BFBD194F85400D4F8553040EA0320E0618800EDE74800EBE73F
:201820002270BAF80210491CAAF80210E180C4F8249084F804900020C4F80C904DE70000AC
:201840004C0000200269891E921E8A4201D800207047026A807801FB0020704770B5064636
:2018600001214FF0FF350803FFF75EFB1B4C2EB14FF4604020601A48606001E0206850B342
:201880000820FFF70DF90546FEF75AFFD4E90010FEF748FF014612481438FFF72DF940EA4F
:2018A00005060F4D2168183D2846FFF725F906430B4861681038FFF71FF940EA0604FEF77D
:2018C0003FFF03212846FEF72DFF0146281FFFF713F940EA0405284670BD00000000002099
:2018E000008000082DE9F84F894680460D6800E06D1C28782F28FBD05C28F9D00024D8F88D
:201900001C702646A85D761C202817D32F2815D05C2813D0FF2C52D2012100F051FB5FEA6D
:20192000000A4CD0BAF1800F04D2014678A0FFF7B9FEE8BB27F814A0641CE3E7AA19C9F821
:201940000020202801D2042500E000250021012C04D0022C31D178882E2816D138882E2879
:2019600013D127F814100020A04201D22E2200E02022D8F818100A54401C0B28F4D3D8F87D
:20198000181045F020020A54C0E007EB440030F8020C202810D02E280ED04CB127F81410C2
:2019A0002021D8F818000A22521E00F8011B00E005E0F9D2002606E0641E002CE5D1062028
:2019C000BDE8F88F761C37F816002028FAD02E28F8D01EB145F0030500E0641E2CB107EB97
:2019E000440030F8020C2E28F7D1002082464FF0080B009037F8160006F101065FEA0009F0
:201A000024D0B9F1200F04D0B9F12E0F04D1A64202D045F00305EDE70098584501D2A642AE
:201A20001AD1BBF10B0F0FD0A64201D045F003050CD84FF0080000904FEA8A6026464FF097
:201A40000B0B4FEA106AD5E745F00305D8F818000178E52938D039E04846B9F1800F10D38A
:201A6000002100F0ADFA5FEA000905D02B4901EB090010F8800C814645F00205B9F1000FCE
:201A800004D0014626A0FFF70DFE20B14FF05F0945F003050FE0A9F14100192802D84AF090
:201AA000020A08E0A9F16100192804D841304AF0010A1FFA80F9D8F81820009902F80190A6
:201AC0000098401C009095E705210170BBF1080F03D14FEA8A604FEA106ACAF38100032899
:201AE00003D06FEA0A01890701D145F00205A90709D40AF00301012901D145F01005012817
:201B000001D145F00805D8F81800C572002057E7222A3A3C3E3F7C7F0000000013230008BC
:201B20002B2C3B3D5B5D00002DE9F84F0546002100F0CEF8002879D14FF0FF0BD946296933
:201B4000286800F09AFB06000ED16C69207850B1E17AE52801F03F0103D00A0705D50F298E
:201B600009D0FF204DE0042672E00F2903D0B9F1000F4BD04FE0E96981B3420606D594F881
:201B80000DB020F04000EA8881462A84484536D1627B5A4533D100912078A04620F04000DE
:201BA000401E00EB80010027DFF8ACA001EBC006012400BF1AF8071001EB0800008874B1B1
:201BC00000F01AFA0446FF2E19D2009830F81600761C00F011FAA04211D104E02FE0A0F5F0
:201BE0007F41FF390BD17F1C0D2FE3D398F80000400608D53CB1009830F8160018B1FF2026
:201C0000C0B281461DE0A9F10100F9E7204600F05BFB58451CD04FF6FF702884A8694FF02E
:201C2000FF09C17AC9070CD10A2102E011E0491E06D314F8013B10F8012B9A1AF7D000E09F
:201C400032B10021284600F009F806003FF477AF3046BDE8F88F00000623000870B5044680
:201C6000C088401C05042D0C1FD02069E8B1290723D1401C2061E168206829B18278521E57
:201C800012EA151F04D018E00089A8420DD914E000F02AFA0146012801D8022070BD481CEB
:201CA00005D0206802698A4203D8042070BD012070BDE160FFF7C6FD2061E58005F00F0131
:201CC0002822206802EB411108446061002070BD70B50D46C1808168044601291ED020680D
:201CE00002698A421AD921B90278032A04D1C16911B18078060117E0E1600189A9420DD9E6
:201D0000C06917E0206800F0EFF90146401C07D0022903D320680069884203D8022070BDE3
:201D2000012070BDA81B85B2B542EBD2E1602068FFF788FD00EB1510206105F00F01282283
:201D4000206802EB411108446061002070BD10B5FEF7ECFDF320FEF775FD002010BD000058
:201D6000F0B500250E4C04E0964200D1254604F50174D4F80062771CF6D105B12C46002504
:201D800040CC6D1CF64340C1802DF9DB5B1E13F0FF0302D0521CFFF7E3FF0020F0BD000090
:201DA000000004080020704710B5044600F099FA002801D10021216010BD2DE9FC410025CD
:201DC0009046074604464E1E0FE001AB01226946404600F06BF80198012808D19DF80000B4
:201DE0006D1C04F8010B0A2801D0B542EDDB0020207015B13846BDE8FC810020FBE7000078
:201E000010B5022801D30B2010BD064B002453F8202002B1147001B10C7043F82010002017
:201E200010BD0000500000202DE9F741ADF50D7D04000DD04FF0000802F00107424680A918
:201E40008EA8C4F80080FFF735FC050005D02BE009200DF5107DBDE8F08189A88690CDF82A
:201E60001CD280A88E9900F0EBF8859E05001BD126B1F07AC00603D5042515E0062513E023
:201E8000A7713146809800F08BF92061307FD6F81D1040EA0120C4E90280C4F81880809816
:201EA00020608098C088A0802846D2E72DE9F047044600201860984615460F46204600F0E8
:201EC00010FA002803D1A079010602D50220BDE8F087C00706D0D4E90210401A85426AD9F7
:201EE000054668E00720F2E7A068C1054BD122689178491E01EA502111F0FF0609D120B35C
:201F00001046616900F0F0F8022820D3411C32D0606161692068FFF795FCC0B100EB060A47
:201F2000680A5FEA00091AD0206806EB090281788A4201D9A1EB060909F0FF0340785246EA
:201F40003946FFF70DFFB0B906E02069DCE7A07940F08000A071B9E74FEA492621E0A16938
:201F600051450ED0206801235246407804F11C01FFF7F6FE28B1A07940F08000A071012021
:201F8000A5E7C4F818A02089C0F30800C0F50076AE4200D92E460119324638461C3100F028
:201FA00063F9A06837443044A060D8F800008119AD1BC8F80010002D96D1002087E70000AA
:201FC000802804D30B4A51B1FF2801D90020704702EB4000A0F58050B0F8000F704732F829
:201FE0001130834203D0491C89B28029F7D38031C8B27047942300080021064B00E0491C9D
:020000040800F2
:2020000033F81120002A04D08242F8D1024830F8110070479424000874260008064AD368B2
:2020200006494FF0FF308B4204D0D3688B4201D0D068D1607047000000000020A55AA55A2B
:2020400073B504460199002508782F280ED05C280CD02068C068A06001980078202809D256
:2020600000212046FFF734FE65617CBD491C0191A560F1E701A92046FFF734FC0028F4D1BB
:202080002046FFF751FDA169C97A68B10428ECD18A0605D5A560002065614907EAD57CBDAA
:2020A0004907FCD405207CBD4907FCD46169C87AC006F7D5206800F073F8A060DAE7000040
:2020C00008490968C90706D0064980390968CA074FF0604101D1704700BF0A68002AFBD0BF
:2020E00008707047800E00E02DE9F0410D460446022902D32069A84202D80120BDE8F081DB
:202100002078012804D0022826D0032837D12FE0A06905EB550600EB5621204600F0ADF817
:2021200068BBC6F308002044761C90F82870A06900EB5621204600F0A0F800BBC6F30800D0
:202140002044E90790F8280047EA002001D00009D4E7C0F30B00D1E7A06900EB152120468F
:2021600000F08BF858B9E8B204EB4000008DC5E7A06900EBD511204600F07FF810B14FF032
:20218000FF30BBE740F2FF1000EA8500204490F82810D0F8290041EA002020F07040ADE70A
:2021A0000246488B1278032A02D1898A40EA0140704700001CB52848012104687F20FEF7E2
:2021C000B3FE4FF47A60FFF709F8244F4FF48046002231463846FEF71DFD0122D103384623
:2021E000FEF718FD6846FEF708FD01208DF8040000208DF806004FF440456946384600954E
:20220000FEF79AFC3146164E00223046FEF702FD694630460095FEF78FFC7C20FEF7F8FE0B
:2022200048B1A4F100617004FEF7DAFD206880F3088860688047FEF7AFF87D20FEF7E8FE41
:2022400018B1FEF795FEFEF793FBFEF791FE054CA0688047FCE70000F07F00080008024062
:20226000000402400000002004E000BF11F8013B00F8013B521EF9D2704770B50446406AD1
:202280000D46A8420BD055B10A466078012304F12801FFF765FD08B1012070BD6562002070
:2022A00070BD7FB50D46044601682A466846FDF797FF002141552068102228442060684604
:2022C000FDF7A7FF04B070BD014600200B22430803EBC01011F8013B521E1844C0B2F6D19C
:2022E000704710B5016829B10A781AB1CA888088824201D0092010BD4878FFF753FDC00720
:20230000F9D0032010BD01030507090E10121416181C1E808182838485868788898A8B8C71
:202320008D8E8F909192939495969798998A9B8C8D8E8FA0A1A2A3A4A5A6A7A8A9AAABAC5D
:20234000ADAEAFB0B1B2A3B4B5B6B7B8A5AABBBCBDBCAFC0C1C2C3C4C5C6C7C8C9CACBCC33
:20236000CDCECFD0D1D2D3D4D5D6D7D8D9DADBDCDDDEDFC0C1C2C3C4C5C6C7C8C9CACBCC6D
:20238000CDCECFD0D1D2D3D4D5D6F7D8D9DADBDCDDDEFF00AC2000001A2000001E20262091
:2023A0002020212000003020600139205A0164017D0179010000182019201C201D202220AE
:2023C000132014200000222161013A205B0165017E017A01A000C702D8024101A4000401AD
:2023E000A600A700A800A9005E01AB00AC00AD00AE007B01B000B100DB024201B400B500C8
:20240000B600B700B80005015F01BB003D01DD023E017C015401C100C2000201C4003901C4
:202420000601C7000C01C9001801CB001A01CD00CE000E01100143014701D300D4005001BA
:20244000D600D70058016E01DA007001DC00DD006201DF005501E100E2000301E4003A0185
:202460000701E7000D01E9001901EB001B01ED00EE000F01110144014801F300F400510191
:20248000F600F70059016F01FA007101FC00FD006301D9026100620063006400650066008C
:2024A0006700680069006A006B006C006D006E006F00700071007200730074007500760034
:2024C0007700780079007A00A100A200A300A500AC00AF00E000E100E200E300E400E500E5
:2024E000E600E700E800E900EA00EB00EC00ED00EE00EF00F000F100F200F300F400F50004
:20250000F600F800F900FA00FB00FC00FD00FE00FF00010103010501070109010B010D01B1
:202520000F01110113011501170119011B011D011F01210123012501270129012B012D01AB
:202540002F0131013301350137013A013C013E01400142014401460148014B014D014F017D
:20256000510153015501570159015B015D015F01610163016501670169016B016D016F014B
:2025800071017301750177017A017C017E019201B103B203B303B403B503B603B703B803A1
:2025A000B903BA03BB03BC03BD03BE03BF03C003C103C303C403C503C603C703C803C903DC
:2025C000CA0330043104320433043404350436043704380439043A043B043C043D043E04B9
:2025E0003F0440044104420443044404450446044704480449044A044B044C044D044E0433
:202600004F045104520453045404550456045704580459045A045B045C045E045F047021D3
:202620007121722173217421752176217721782179217A217B217C217D217E217F2141FF63
:2026400042FF43FF44FF45FF46FF47FF48FF49FF4AFF4BFF4CFF4DFF4EFF4FFF50FF51FFF2
:2026600052FF53FF54FF55FF56FF57FF58FF59FF5AFF0000410042004300440045004600C8
:202680004700480049004A004B004C004D004E004F00500051005200530054005500560052
:2026A0005700580059005A002100E0FFE1FFE5FFE2FFE3FFC000C100C200C300C400C500A2
:2026C000C600C700C800C900CA00CB00CC00CD00CE00CF00D000D100D200D300D400D50022
:2026E000D600D800D900DA00DB00DC00DD00DE007801000102010401060108010A010C015D
:202700000E01100112011401160118011A011C011E01200122012401260128012A012C01D9
:202720002E01300132013401360139013B013D013F0141014301450147014A014C014E01AB
:20274000500152015401560158015A015C015E01600162016401660168016A016C016E0179
:20276000700172017401760179017B017D01910191039203930394039503960397039803C7
:2027800099039A039B039C039D039E039F03A003A103A303A403A503A603A703A803A903FA
:2027A000AA0310041104120413041404150416041704180419041A041B041C041D041E04D7
:2027C0001F0420042104220423042404250426042704280429042A042B042C042D042E0451
:2027E0002F040104020403040404050406040704080409040A040B040C040E040F04602182
:202800006121622163216421652166216721682169216A216B216C216D216E216F2121FF91
:2028200022FF23FF24FF25FF26FF27FF28FF29FF2AFF2BFF2CFF2DFF2EFF2FFF30FF31FF10
:2028400032FF33FF34FF35FF36FF37FF38FF39FF3AFF0000004040404040404040404141D9
:202860004141414040404040404040404040404040404040400502020202020202020202FC
:20288000020202020220202020202020202020020202020202029090909090901010101040
:2028A0001010101010101010101010101010101002020202020288888888888808080808BC
:2028C00008080808080808080808080808080808020202024000000055280008FC2800087F
:2028E0000000002064000000E4120008602900086400002084200000F4120008000000008F
:20290000FFFFFF7F31120008A55AA55A0000000000000000000000000000000000000000F2
:2029200000000000A4000000000000000000010000000000000000000000000001020304E8
:2029400001020304060708090000000000000000000000000000000000000000000000004F
:20296000FFFFFFFFFFFFFFFFFFFFFFFFFFFFFFFFFFFFFFFFFFFFFFFFFFFFFFFFFFFFFFFF77
:20298000FFFFFFFFFFFFFFFFFFFFFFFFFFFFFFFFFFFFFFFFFFFFFFFFFFFFFFFFFFFFFFFF57
:2029A000FFFFFFFFFFFFFFFFFFFFFFFFFFFFFFFFFFFFFFFFFFFFFFFFFFFFFFFFFFFFFFFF37
:2029C000FFFFFFFFFFFFFFFFFFFFFFFFFFFFFFFFFFFFFFFFFFFFFFFFFFFFFFFFFFFFFFFF17
:020000040800F2
:207FE000FFFFFFFF8AB16BDA00E000009C2B18FD00800008FFFFFFFFFFFFFFFFFFFFFFFFCD
:020000040800F2
:20800000D0360120218300083FF6000889ED00083DF600081DAC00085B3C01080000000026
:208020000000000000000000000000007BFD0008EFAD00080000000021F8000899FF00085B
:208040003B8300083B8300083B8300083B8300083B8300083B8300083B8300083B830008F0
:208060003B8300083B8300083B83000851AC00085DAC000869AC000875AC000881AC00081D
:208080008DAC00083B8300083B8300083B8300083B8300083B8300083B8300083B83000835
:2080A0003B8300083B8300083B8300083B8300083B83000875000108810001083B83000814
:2080C0003B8300083B8300083B8300083B8300083B8300083B8300083B8300083B83000870
:2080E0003B8300083B8300083B8300083B8300083B8300083B8300083B83000899AC0008C9
:208100003B8300083B8300083B8300083B8300083B8300083B8300083B8300083B8300082F
:20812000A5AC0008B1AC0008BDAC0008C9AC0008D5AC0008000000000000000045AC000811
:2081400021AC00082DAC000839AC000841F600083B830008E1AC0008EDAC00083B8300087B
:208160003B8300083B8300083B8300083B8300083B8300083B83000800000000000000005B
:208180003B8300083B83000800F002F800F0B6F80AA090E8000C82448344AAF10107DA454E
:2081A00001D100F0ABF8AFF2090EBAE80F0013F0010F18BFFB1A43F001031847C024010077
:2081C000E02401000A444FF0000C10F8013B13F0070408BF10F8014B1D1108BF10F8015B3B
:2081E000641E05D010F8016B641E01F8016BF9D113F0080F1EBF10F8014BAD1C0C1B09D1EE
:208200006D1E58BF01F801CBFAD505E014F8016B01F8016B6D1EF9D59142D6D370470000DA
:208220000023002400250026103A28BF78C1FBD8520728BF30C148BF0B6070476E2900F08E
:208240002985702900F07386662911F02686652911F02386672911F02086612911F01F8613
:2082600003681B0A28BF41F08001692900F0D684642900F0D384752900F0D0846F2900F0BB
:208280000086782900F03F86E92900F09B85E42900F09885F52900F09585EF2900F0FD8514
:2082A000F82900F03E860368DB0928BF41F08001632901F05984732901F05E84E32901F03B
:2082C0006984F32901F06E84002070471FB511F0DAFD9DE8030000F0FDFB00F0E9FF0400E3
:2082E0000020002110F080FF401C60600020002110F090FFE0601FBD10B510BD01F056FEDF
:208300001146FFF7E3FF0FF00BFF01F027FF03B4FFF7F2FF03BC01F097FF0000C0BA7047F9
:208320000948804709480047FEE7FEE7FEE7FEE7FEE7FEE7FEE7FEE7FEE7FEE70448054901
:20834000054A064B704700002900010889810008D0760020D0360120D0F60020D0F6002029
:2083600070B5A0FB0140B4F1805170F1000024BF002070BD204600F007F805001CBF214659
:2083800000F009FB284670BD70B5064600F082FB056806F10B0020F00704B4429CBF002075
:2083A00070BD2B466A68BAB11068A04210D304F1080188423CBF5068586007D351681019B6
:2083C00041601168091B016058601460101D70BD13465268002AE7D12146284600F066FB5D
:2083E0000028DED170BD70B50446051F00F052FB0068002C14BF446870BD002C18BFAC4278
:208400003CBF20466468F8D301680A18AA4218BF456003D12A680546114401602868411920
:20842000A1421CBF6C6070BD6168696021680844286070BD53EA020C00F069802DE9F04BF4
:208440004FF00006002B1FBFB3FA83F503FA05F424FA05F65E4012BF1643B2FA82F502FAB3
:2084600005F4C5F120051EBF22FA05FC44EA0C04203556EA044C4FEA144418BF641C4FF0E4
:2084800000084FF00009904271EB030C39D3002919BFB1FA81F701FA07F6B0FA80F700FA0C
:2084A00007F6C7F120071EBF20FA07FC46EA0C062037B6FBF4FCA7EB0507103F07F01F0B9E
:2084C000CBF120060CFA0BFB2CFA06F644BFB3460026202FA4BF5E464FF0000B5BEA060C73
:2084E00008BF4FF0010B19EB0B09ABFB027C48EB0608C01B06FB02CC0BFB03CC71EB0C0105
:20850000C1E70B46024641464846BDE8F08B13B54FF000004FF00001AFF30080BDE81C407B
:20852000704700007CB51D4616460C00009001D02044401E074B7B442A466946019030462E
:2085400000F0C1FB05461CB10020694600F0CEFB28467CBDBD0700000FB400B58DB010A9F6
:20856000099000910B904FF0FF300A9000200C90064878440690064878446A4607900F99D9
:2085800009A800F0B7FD0DB05DF814FB9F0B0000B70B00002DE9FF5F1D464FF0FF3B9146D2
:2085A0004FF000085F46D5E90146A96901987F1C8847296A824688470028F6D1BAF1FF3FB3
:2085C0000CD0002E24F4C06419DD600614D5BAF12B0F09D0BAF12D0F0ED103E0584604B057
:2085E000BDE8F09F44F48064A96901987F1C8847761E8246002E02DDBAF1300F03D0B9F146
:20860000000F26D032E0A969761E01987F1C44F400748847002E824605DDBAF1780F06D00E
:20862000BAF1580F03D0B9F1000F10D01EE0B9F1000F02D0B9F1100F18D1A969761E019842
:208640007F1C24F4007488478246102002E0082000E00A20814609E0A96908FB0908761EAE
:2086600001987F1C44F4007488478246002E05DD4946504600F02AFD0028EDDAE96901985D
:208680008847A00502D46FF00100A8E7E00725D1600613D5600502D5C8F1000000E040461B
:2086A00029680A1D2A600968220501D5087015E0220701D5088011E008600FE02868011D20
:2086C00029600068210502D580F8008006E0210702D5A0F8008001E0C0F8008038467EE7BB
:2086E00070B5064600F0DAF90468054630460A22002100F07EFD2C6070BD2DE9F05F93466A
:208700000F4680460446002600F0C8F9D0F80090824614F8015B2DB100F0B4F90068405D15
:20872000C007F6D12B2D02D02D2D1AD0641E0021CAF800105A463946204600F00BFD014604
:2087400027B13868A04201D1C7F80080DAF80000022809D0CAF80090700505D54842BDE809
:20876000F09F46F48066E2E70846F8E7014A00F079BD0000A40B0020401ECAB210F8011F12
:208780008A4202D00029F9D10020704740EA0103024630B59B0710D14FF0013400E008C275
:2087A00008C91D1B9D4315EAC41FF8D013F0FF0102F8011B0DD01B0AF8E711F8013B002BBC
:2087C00002F8013B05D011F8013B002B02F8013BF3D130BD10B5431C02E010F8011B71B1EB
:2087E0008107FAD14FF0013202C88C1A8C4314EAC211F9D0C01A0A0603D0C01E10BDC01A99
:2088000010BD0A0401D0801E10BD0902FCD0401E10BD40EA010370B59B072ED14FF00136D5
:20882000042A2AD308C810C99D1B9D43121F15EAC61517D0D8B2E1B2401A50EA056110D1E2
:2088400098B2A1B2401A50EA05410AD123F07F4024F07F41401A50EA052102D1180EA0EBE2
:20886000146070BDA342DBD018BA21BA884201D9012070BD4FF0FF3070BD0AB9002070BD7D
:2088800010F8013B11F8014B63B1A3420AD1521E08D010F8013B11F8014B1BB1A34201D107
:2088A000521EEDD1181B70BD032A40F2308010F0030C00F0158011F8013BBCF1020F6244DE
:2088C00098BF11F801CB00F8013B38BF11F8013BA2F1040298BF00F801CB38BF00F8013B1D
:2088E00011F0030300F02580083AC0F0088051F8043B083A51F804CBA0E80810F5E7121DD5
:208900005CBF51F8043B40F8043BAFF30080D20724BF11F8013B11F801CB48BF11F8012B09
:2089200024BF00F8013B00F801CB48BF00F8012B704710B5203AC0F00B80B1E81850203AC5
:20894000A0E81850B1E81850A0E81850BFF4F5AF5FEA027C24BFB1E81850A0E8185044BF41
:2089600018C918C0BDE810405FEA827C24BF51F8043B40F8043B08BF7047D20728BF31F8B9
:20898000023B48BF11F8012B28BF20F8023B48BF00F8012B70474FF000020429C0F0128090
:2089A00010F0030C00F01B80CCF1040CBCF1020F18BF00F8012BA8BF20F8022BA1EB0C0152
:2089C00000F00DB85FEAC17C24BF00F8012B00F8012B48BF00F8012B70474FF0000200B559
:2089E000134694469646203922BFA0E80C50A0E80C50B1F12001BFF4F7AF090728BFA0E8CB
:208A00000C5048BF0CC05DF804EB890028BF40F8042B08BF704748BF20F8022B11F0804F72
:208A200018BF00F8012B704710B5044610F0030F08BF11F0030F40F015804FF0013E121F15
:208A4000C0F20E8051F8043BA3EB0E0C2CEA030C1CEACE1C08BF40F8043BF0D0A1F10401FC
:208A600002F10402521E08DB11F8013B002B00F8013BF7D11146FFF78EFF204610BD70477A
:208A80007047704710B500F013FC001D10BD00BF590701000048704778760020004870478E
:208AA00070760020704770477047704738B504460A4600206946AFF30080002808BF38BD78
:208AC00002460099204600F0F7FB012038BD012001F046BAF8B5AFF30080054600200C46B9
:208AE000102000BF0646A819A0420DD9324669460020AFF30080070008BF01F031FA0098C7
:208B0000A04218BF0546C419FFF7C4FF05600746F01D20F007004619284600F00AF8B44230
:208B200008BFF8BDA21B31463868BDE8F84000F0C3BB00210160C0E90110704710207047C0
:208B400010B5FFF7ABFF006810BD10B50446FFF7A5FF046010BD70B5044685690068C10615
:208B600001D5302600E02026C00707D070BDD4E9012130469047206A401C20626D1EF6D5EE
:208B800070BD70B5044685690078C00707D170BDD4E9012120209047206A401C20626D1E1E
:208BA000F6D570BD09684A0501D540B27047C905FCD500B2704709684A0501D5C0B27047B7
:208BC000C905FCD580B2704770B50C460546012A05D02878800600D5EA69002302E00123D4
:208BE00005E05B1C934202D2E05C0028F9D1A869E618C01AA861286A184428622846FFF774
:208C0000AAFF04E0D5E9012114F8010B9047B442F8D32846FFF7B5FF70BD00002DE9F041AB
:208C20000646002410687529314616A510D0FFF7B9FF002802DA404213A507E031688A079F
:208C400001D512A502E0490704D511A5012401E0FFF7B1FF00210A2206F1240709E0B0FB17
:208C6000F2FCB0FBF2F302FB1C00303078541846491C0028F3D123462A463046BDE8F0415D
:208C800000F082BB000000002D0000002B0000002000000011680268006A530501D508703C
:208CA0000AE0D30501D5088006E0130603D5C217C1E9000200E008600120704701694A1C48
:208CC00002610878704700B58FB0CDE901310021059105497944CDE903101146684600F09E
:208CE00031F90FB000BD0000E5FFFFFF0A6802F8010B0A607047D1E900239A4202D2531C57
:208D00000B601070704700002DE9FF5F15468A460446DFF8AC80F8440027D8E900103E460D
:208D2000CDE9001010E03AF816106A4602A801F0F7F8411C07D02178890603D5E26939181B
:208D400091420DD80744761C2078800602D5E069B84205DDAE42E6DB3AF816000028E2D190
:208D6000A069C01BA0612046FFF7F5FED8E90010CDE90010002017E03AF818106A4602A85D
:208D800001F0CEF8B0F1FF3F81460BD000250DF1080B05E0D4E901211BF8050090476D1C29
:208DA0004D45F7D308F10100B0428046E4DB206A384420622046FFF7E4FEBDE8FF9F0000DD
:208DC0005E1701002DE9F0418046D21D22F007020025D2E90002F52915A614D0011E72F1E5
:208DE000000106DA0023D0EB030063EB020211A608E0D8F800108B0701D50FA602E0490791
:208E000001D50EA601251146002408F1240704E000F06CFA30323A55641C50EA0102F7D153
:208E20002B46324621464046BDE8F04100F0ACBA000000002D0000002B00000020000000B8
:208E400030B4002100F1240408E002F00705D208303542EA4372DB086554491C52EA0305A9
:208E6000F3D10468002310A2250707D5A40600D421B1C46901230DA2641EC46130BC00F012
:208E800083BA10B5044621461068FFF794FE02462046BDE810400023D2E7D21D22F0070197
:208EA000D1E90023CCE700000000000030000000F0B40D460188090502D5214C7C4402E07E
:208EC0001F4C7C440E34002100F1240608E002F00F071209E75D42EA03721B097754491CA5
:208EE00052EA0307F3D102780023120704D5702D06D009B1022311342246F0BC00F044BA40
:208F000001231034F8E770B504460D4621461068FFF751FE024629462046BDE8704000238F
:208F2000C6E7D21D22F00703D3E90023C0E70368126843F0200303600823C3610023B7E745
:208F4000C01501002DE9F05F894604464FF0000ADFF874B1FB44C0F820A02046E168884743
:208F6000002874D0252806D0D4E901219047206A401C2062F1E700265F462046E168884723
:208F80002028054607DB312D05D2781910F8200C08B10643F1E7B00701D526F00406C4F81F
:208FA0001CA00027C4F818A02A2D09D028460BF063F838B304EB8708303DC8F8185019E06F
:208FC00059F8041B204604EB87029161E1688847012F054618D1E069002820DA26F020062E
:208FE0001DE0D8F8180000EB800005EB40003038C8F818002046E168884705460BF03CF8B9
:209000000028EED1012F0AD02E2D08D12046E16888477F1C0546022F46F02006C4DBA06992
:20902000002803DA404246F00106A061F00701D026F010066C2D0BD0682D09D04C2D39D013
:209040006A2D35D0742D35D07A2D33D016E038E0E1682F4620468847B842054609D16C2F69
:2090600026D04FF48060E168064320468847054604E06C2F1AD04FF4807006430DB3A5F18A
:209080004100192802D8203546F400664A462946204626604E46FFF7D1F880B101280BD00C
:2090A000F61D26F0070000F1080956E74020E4E78020D8E70020D6E706F104094DE7284634
:2090C00052E7206ABDE8F09F501501003A2800D2303820F02002412A01D3A2F13700884292
:2090E00001D34FF0FF307047026811441378016018467047D16005497944516104497944BF
:20910000116200211161114600F050BDEDFFFFFF75020000426842B1016811F8013B23B175
:20912000521EC0E90012184670470121C160881E704742685AB1C368016843B983688B4252
:2091400005D0491E521CC0E90012002070474FF0FF3070472DE9F05F824615468B4600272E
:209160000AF10104B9460078302801D09DB113E014F8010B0127782803D0582801D045B114
:209180000AE00DB1102D07D1002714F8010B102502E0082500E00A250026B0460EE005FB76
:2091A000080005FB06F101271FFA80F801EB1046B6F5803F00D3B94614F8010B2946FFF7FC
:2091C00085FF0028EBDABBF1000F05D00FB1641E00E05446CBF80040B9F1000F06D0FFF74A
:2091E0005DFC02210160C81EBDE8F09F48EA0640FAE72DE9F04791460F4680460446002670
:2092000014F8015B2DB1FFF73DFC0068405DC007F6D12B2D02D02D2D18D0641E4A46394649
:209220002046FFF797FF27B13968A14201D1C7F800804FF0020471050BD54042002803DDAA
:20924000FFF72CFC0460A007BDE8F08746F48066E4E70028F8DAFFF721FC04606FF00040CE
:20926000F2E700002DE9F04115460E46040002D12C6804B90BA4204600F089FE044420788B
:2092800070B127463146384600F071FE0444207810B1002004F8010B38462C60BDE8F08103
:2092A0000027F9E70000000000487047707600200048704790760020034640688C46002892
:2092C00018BF88423CBF03464068F8D318681844884207D00CF1030020F00700001D411A2A
:2092E000521A0146081D0A60FFF77DB830B5B0F10A024FEA900E71F100034EEA817EB0EB61
:209300000E0061EB91014FEA101E4EEA017E10EB0E0041EB11114FEA102E4EEA016E10EBD3
:209320000E0041EB11214FEA104E4EEA014E10EB0E0041EB1141401841F100014FEAD00088
:2093400040EA41704FEAD10110EB80054FEA810444EA907444EB01046D1944EB0404521B59
:20936000A3414FF0000348BF0A3200D530BD401C41F1000130BD10B50446FFF783FB00685B
:20938000005D00F0010010BD2DE9F0470D4699469246044600F124080168880604D5E069DB
:2093A00021F01001216000E00120A84201DD471B00E00027A1697A1902EB0900081AA06122
:2093C0002078C00602D42046FFF7C5FB002608E0D4E901211AF806009047206A401C761CE9
:2093E00020624E45F4DB2078C0060AD52046FFF7B2FB06E0D4E9012130209047206A401C71
:209400002062381EA7F10107F4DC07E0D4E9012118F805009047206A401C2062281EA5F10E
:209420000105F3DC2046FFF7ACFB2078000602D50220BDE8F0870120FBE770472DE9FF4F83
:209440000C461E464FF0FF378BB0D2E90001DDF860800A908A46C1F30A5505B93D46002156
:2094600008464FF00000BAF1000F00F4400005DA00EB80004FF4400101EA50004FEA905946
:20948000B9F1010F00DDB9460A9850EA4A000ED044F61050A5F2FF3545432F14B8F1000F4A
:2094A0001ED07542291E1EDDC9F100021CE0B8F1010F4FF0000001D0302103E0F24305E0F6
:2094C0002154401CB042FBDB30460022002121540B99C1F80880C1E900200FB0BDE8F08F33
:2094E000BD1B6D1CDEE74A4600DA694206A800F0C3FD06AB93E8070003AB83E807005046EA
:209500000A9900F0C7FE8DE80700A0F500501F3800900398002D0ADD42F21F014A460844CC
:20952000002303A90390684601F030F909E0A0F500504A461F38002303A90390684601F04B
:209540003AF98DE807000004000C03D04FF0FF30410800E01046B8F1000F03D0002200924D
:2095600015461EE0751E05D4FFF7C0FE303262556D1EF9D5B3460122084302D000227F1C0A
:2095800004E02078302801D100227F1E002A099784D01DE0112D07DAFFF7A8FE3032625577
:2095A0006D1C50EA0102F5D1084302D00098C8B10EE00021681E05E0235C625C635422540D
:2095C000401E491C8142F7DBAB46A81B401E0990002004F80B000B98099AC0F80880C0E932
:2095E000002B7AE711264FF0000857E72DE9F04F88460446D21D22F0070191B0D1E90001B1
:20960000CDE90A010AF07CFB02460B98C00F01D02D2007E02068810701D52B2002E0202105
:2096200001EAC000032A099001D0072A05DB03464146204600F0E0FC0BE12078800601D5F5
:20964000E06900E00620B8F1650F814606D0B8F1660F18D0B8F1670F70D131E00020B9F1C0
:20966000110F009001DB112301E009F101030AAA01A90CA8FFF7E2FEDDE90C70002609F101
:209680000105834647E001204B4600904FF000470AAA01A90CA8FFF7D1FEDDE90DB00C990D
:2096A0005D46002610B909F101000D18B9EB050003D4C0F1FF3609F10105A5EB09002BE0EE
:2096C000B9F1010F01DA4FF001090020B9F1110F0090484601DD112300E003460AAA01A90B
:2096E0000CA8FFF7ABFEDDE90C704D4600268346207800070AD4AB4500DA5D4601A8012D92
:2097000004DD411911F8011C302907D04F4502DA17F1040F04DA012082460FE06D1EEEE717
:20972000002F02DCED1B3E4403E0781CA84200DD7D1CB81B00F1010A4FF0004720780007C7
:2097400003D4AA4501DB4FF0FF3A0021B7F1004F0DF143088DF8431024D002202B23002F23
:2097600001DA7F422D230A21021EA0F1010000DC5FB197FBF1FC97FBF1F201FB1C7C17464F
:209780000CF1300C08F801CDEEE7A8F1010003702188090501D5452100E06521A0F10108ED
:2097A00000F8011C09980FA9A1EB0807FF1D00B10120411901EBEA70A1693844081A401E0C
:2097C000A0612078C00602D42046FFF7C4F9099828B1D4E901219047206A401C206220780B
:2097E000C00622D52046FFF7B6F91EE0002E04DBB34502DD01A8805D00E03020D4E901212A
:209800009047206A401C2062761CAAF101005FEA000A0AD1FFF74CFDC0680168405CD4E984
:2098200001219047206A401C2062281EA5F10105DCDC07E0D4E9012118F8010B9047206AEA
:20984000401C2062381EA7F10107F3DC2046FFF798F9032011B041E62DE9F04F04460D467B
:20986000D21D22F0070089B0D0E90097484639460AF046FA0246F80F01D02D2307E0206831
:20988000810701D52B2302E0202101EAC0038DF820300BB1012000E00020032A824601D0D3
:2098A000072A04DB2946204600F0A6FB3FE12078800601D40D2500E0E569C7F30A560D2D6B
:2098C00049DA00214FEA175B08464FF00000002F00F4400007DA00EB80004FF4400100EBEE
:2098E000D07001EA60008115012901DD4FF0FF3100224FEA850CBCF1180F06D31346ACF141
:2099000018004FF08052C24003E04FF4801323FA0CF30CF10C0CBCF1200F04D3ACF1200CB6
:2099200009FA0CF001E007FA0CF000294FF0004801DD18B90FE00ED140450CD319EB0209AA
:209940005F4121B9404502D19F4329EA0209BBEB175F00D0761C2088000502D57B487844B4
:2099600002E07A487844193808AA302302F80A30037C0AF10101002E0AF1020A53546A46F5
:2099800002DC4FF0300101E04FF031014FF001088DF8001002D0A6F2FF3603E059EA47013D
:2099A00000D06B4E002D02DC2178090704D54FF002082E218DF80110C44600210BE0C7F393
:2099C00003433F01C35C491C6D1E02F80830052908F1010801DA002DF1DC00210CE000EBC3
:2099E0001973491C1B786D1E082902F808304FEA091908F1010801DA002DF0DC21688B06AA
:209A000002D516E0A8F10108E04505DD02EB080313F8013C302BF5D0B8F1000F09DD02EBE5
:209A2000080313F8013C2E2B03D1090701D4A8F10108002D05DD3E2102F808106D1E08F11B
:209A40000108407C002E02F8080008F1010804DA2D20764202F8080002E02B2002F80800FB
:209A60000A214FF47A70864208F101080BDB96FBF0F3303302F8083096FBF0F308F101085F
:209A800000FB136601E0642E0CDB642096FBF0F3303302F8083096FBF0F308F1010800FBFA
:209AA000136601E00A2E06DB96FBF1F0303002F8080008F1010896FBF1F001FB106030301F
:209AC00002F80800A16908F1010808EB050202EB0A00081AA0612078C00602D42046FFF7D4
:209AE0003AF8216A08AE01EB0A00206204E0D4E9012116F8010B9047BAF1010AF7D22078B0
:209B0000C00602D52046FFF726F86E4609E016F8010B3E280FD0D4E901219047206A401C96
:209B20002062B8F10108F2D22046FFF72AF809B00320BDE8F08F206A2844206203E0D4E997
:209B40000121302090476D1EEBD3F8E76A0B010002FCFFFF10B5436913B1AFF3008001E0EA
:209B6000FFF732F8012010BD127800F124010A7000224A700122EDE711684FF0FF32E9E731
:209B800010B5436913B1AFF3008001E0FFF7BCF8012010BD128800F1240182840022C284D7
:209BA0000122EDE711684FF0FF32E9E72DE9F34F4FF0000A0C4656468DB001200C9001F17A
:209BC0000C000B9062690B9801219047051E2DD0252D2CD0216A8847C0B162690B980121AE
:209BE0009047216A88470028F7D16269411E0B98904700E0761CA1690D988847216A884756
:209C00000028F7D1E1690D988847DBE7A1690D988847A842074601D1761CD3E7E1690D9812
:209C200088477F1C02D1BAF1000F6FD06BE162690B9800273D46394690472A2804D1626942
:209C40000B98012190470125DFF8D08262690B9801219047A0F130010A290AD24745E5DC94
:209C600007EB870100EB4107303FDFD445F01005ECE7E90601D46FF000476C280AD04C28AC
:209C800014D0682815D06A280DD074281CD07A281AD01DE062690B98012190476C2802D01E
:209CA00045F0040514E045F002050DE045F020050AE062690B9801219047682802D045F007
:209CC000080505E045F4006562690B9801219047C4E9015765283DD019DC58287AD00CDC47
:209CE000452837D004DC252826D041289ED131E046282FD0472899D12CE05B2877D061283F
:209D000028D063287CD0642823D15AE0F6E06F2848D008DC66281DD067281BD0692821D0DA
:209D20006E2816D127E0702845D0732868D0752847D078280DD14DE0A1690D9888472528F5
:209D400005463FF469AFE1690D9888476D1C3FF46AAFD8E00D9923466A466FF00100AFF361
:209D60000080C5E045F0400023464FF000026060A80736D43EE0E8077FF447AF2068011D0A
:209D800021600068290501D506701BE7290701D5068017E7A90703D5F117C0E9006111E742
:209DA00006600FE745F0400023464FF008026060A80716D41EE040F60E0125EA01006060B4
:209DC00016E045F0400023464FF00A026060A80707D40FE045F040006060A80708D5234601
:209DE00010220D996FF00100AFF3008080E007E0102223460D996FF00100FEF7CBFB77E00F
:209E00004FF0000963284F46C8464B46CB4602D05B2806D038E0E80601D40120A0600127DB
:209E200032E06269D4F80CB00B98012190475E2807D14FF0010949466269D4F80CB00B98F5
:209E40009047216939B900210A4603AB43F82120491C0829FADBD8B3216949B308F1010896
:209E600062690B98012190475D28F4D1B9F1000F09D0002003A951F82020D24341F82020BC
:209E8000401C0828F7DB03AB2069002820794FEA40701ED05B462246CDF80080CDE90197F9
:209EA0000D9900286FF0010020DAAFF300801FE0C11703AA00EBD1614B1121F01F0102EB3D
:209EC0008302411A13680120884003431360C7E719E00D99224600286FF00100009702DAD5
:209EE000AFF3008004E0AFF3008001E0AFF3008000280ADA401C06D10C9820B14FF0FF3015
:209F00000FB0BDE8F08F5046FAE7E90701D10AF1010A064400200C9054E60000CCCCCC0C6F
:209F200070B516460C460546FEF7ACFD036893F80101012806D0FF2C0FD8185D68B10120AD
:209F40002C7070BDD3F807013246214603F2071303442846BDE8704018474FF0FF3070BD73
:209F600010B500F009F9BDE8104000F000B930B503461D781DB10A4603E0AC4201D1181AD6
:209F800030BD12F8014B002CF7D15B1CF1E730B503461D783DB10A4612F8014B1CB1AC4229
:209FA000FAD15B1CF5E7181A30BD70477546FFF77BF9AE4605006946534620F00700854665
:209FC00018B020B5FEF7BAF9BDE820404FF000064FF000074FF000084FF0000B21F0070102
:209FE000AC46ACE8C009ACE8C009ACE8C009ACE8C0098D46704700002DE9F0411F4604467B
:020000040800F2
:20A0000003260168072A01F4006004DB08B116A505E016A503E008B115A500E015A521F034
:20A0200010002060A069C01EA0610FB1401EA0612046FEF790FD4FB1D4E90121384690476D
:20A04000206A401C2062C01C206206E0206AFAE7D4E9012115F8010B9047761EF8D2204656
:20A06000FEF78FFDBDE8F0814E414E006E616E00494E4600696E66002DE9F04781461646A5
:20A080008AB0354878440DC88DE80D0032487844801C03AC0DC884E80D0041F69B300844D9
:20A0A000372190FBF1F290FBF1F5A5F1800501FB12041B3C02D56442012000E00020DFF870
:20A0C00098A080460027FA44AAF1BE0A0EE0E0070AD03246684607EB470101230AEB810110
:20A0E00000F069FB8DE8070064107F1C002CEED1194F7F44AE3F19E0E80715D007EB0410AB
:20A100000DF1180A90E80E008AE80E00C068F04201D1981908903246012306A903A800F0BE
:20A120004AFB03AB83E807006D10641C002DE3D14FF0010332466946B8F1000F03A802D03D
:20A1400000F024FB01E000F036FBC9E90001C9F808200AB0BDE8F087D404010010B5044694
:20A16000AFF300802046BDE81040FEF7D0B8002801D000F069B8704710B5012805D0002140
:20A1800003A000F067F8012010BD09A1F8E7000053494752544D454D3A204F7574206F6667
:20A1A0002068656170206D656D6F7279000000003A2048656170206D656D6F727920636FA5
:20A1C00072727570746564004FF0013C50F8042B51F8043B9A4221D1A2EB0C03934313EAC1
:20A1E000CC1317D150F8042B51F8043B9A4215D1A2EB0C03934313EACC130BD150F8042B36
:20A2000051F8043B9A4209D1A2EB0C03934313EACC13DBD04FF00000704700BFD01A01BAAD
:20A22000B1FA81F101F0180122FA01F0CB40C1F12001DBB2C0B2C01A2CFA01F3D11A91435A
:20A2400011EAC311E6D1704701491820ABBEFEE72600020070B505460C460A2000E06D1C74
:20A2600000F011F835B128780028F8D102E0641C00F009F814B120780028F8D1BDE8704078
:20A280000A20AFF3008008B569468DF800000320ABBE08BD5FEA400C08BF91F0000F4FEA0B
:20A2A0008C234FEAC12243EA51514FEA1C5018BF00F5F0404FEA300018BF41F000415FEA68
:20A2C0006C5C00F02980BCF1FF3F08BF40F080407047130C06BF12044FF0100C4FF0000C24
:20A2E000130E04BF12020CF1080C130F04BF12010CF1040C930F04BF92000CF1020CD30F6C
:20A3000004BF52000CF1010C11464FF00002A0F11F00A0EB0C00704711F0004F08BF7047BA
:20A3200031F000413FF4D5AF0B0C06BF09044FF0100C4FF0000C0B0E04BF09020CF1080C7D
:20A340000B0F04BF09010CF1040C8B0F04BF89000CF1020CCB0F04BF49000CF1010CCCF16B
:20A360002003A0EB0C0022FA03F302FA0CF241EA030100F10100704720F07F4C80EA0300F7
:20A3800023F07F47ACEB070303F57C5300F0004003F1FF032DE980494FEA154B09B44FEAE8
:20A3A000144325EA0B4E24EA03480FF2042606EB132749083E785FEA320203FB0667C7F584
:20A3C000000707FB06F64FEA54374FEAD64606F1020607FB066CCCF1005C4FEA1C472CEA21
:20A3E000074C07FB06F40CFB06F504EB15464FEA961634BF00204FF000404FEAD13706FB09
:20A4000007FC4FEA1C4C0CFB0BF7D21B03FB0CF761EB07010CFB0EF7B0EB074072EB1742A9
:20A420000CFB08F734BFA2EB0742B2EB074261EB17414FEA0C444FEA910706FB07FC4FEA2C
:20A440001C4C0CFB0BF7B0EBC74072EB573203FB0CF734BFA2EBC742B2EBC74261EB5731FF
:20A460000CFB0EF7B0EBC70072EB57720CFB08F734BFA2EBC702B2EBC70261EB5771039FDD
:20A480004FEA816141EA921104EBCC044FEAD1374FEA826206FB07FC42EA90124FEA8060CB
:20A4A0004FEA1C4C0CFB0BF7D21B03FB0CF761EB07010CFB0EF7B0EB074072EB17420CFB05
:20A4C00008F734BFA2EB0742B2EB074261EB17414FEA8C554FEA910704EB9C2406FB07FC8C
:20A4E0004FEA1C4C0CFB0BF7B0EBC74072EB573203FB0CF734BFA2EBC742B2EBC74261EBAE
:20A5000057310CFB0EF7B0EBC70072EB57720CFB08F734BFA2EBC702B2EBC70261EB577156
:20A5200015EB4C254FEA816141EA92114FEA82624FEAD13742EA901206FB07FC44F1000458
:20A540004FEA80604FEA1C4C0CFB0BF7D21B03FB0CF761EB07010CFB0EF7B0EB074072EBAB
:20A5600017420CFB08F734BFA2EB0742B2EB074261EB174115EB1C154FEA813141EA92410F
:20A580004FEA823242EA90424FEA80304FEA0C7644F1000448EA03434EEA0B484FF0000EA3
:20A5A000B2EB080C71EB030724BF624639464EEB0E0E4FF0000B0018524149414BEB0B0B5A
:20A5C000B2EB080C71EB03077BF1000B24BF624639464EEB0E0E4FF0000B0018524149410F
:20A5E0004BEB0B0BB2EB080C71EB03077BF1000B24BF624639464EEB0E0E51EA020718BF07
:20A6000046F0010616EB0E7655F1000254F1000103D5BDE88901BDE80088BDE88901BDE8E2
:20A620000048B619524141EB0101A3F10103704780807F7E7D7C7B7A797877767675747358
:20A64000727171706F6E6E6D6C6C6B6A6A696868676666656464636362616160605F5F5E08
:20A660005E5D5D5C5C5B5B5A5A59595858575756565555555454535352525251515050500F
:20A680004F4F4F4E4E4D4D4D4C4C4C4B4B4B4A4A4A4949494848484747474746464645457C
:20A6A00045444444444343434342424242414141002B9C4630D477002BD01CB54FEA3707A3
:20A6C00003B44FF010004FF01001BAF1000F06D0BCF1000FDCBF40F0080040F008014FF08D
:20A6E00000000FBCBDE810400BF1010BBBF1010F08BF5FEA170722BF12F1010211F10101BD
:20A700004FF0004143F1000300F0004043EA00007047F9D35708D0E746EA064613F1400FBD
:20A720004FEA16461FDD13F1200FDFBF16430A46002120335B42BED0C3F1200746EA064618
:20A7400002FA07F74FEA164646EA0706C3F1200722FA03F201FA07F721FA03F14FF00003F7
:20A7600042EA0702A7E746EA020646EA06464FEA164646EA0106BCBF46EA0646360C4FF01E
:20A7800000034FF000024FF0000194E72DE9804C9A46934670B491E8380007C831EA400C14
:20A7A00048BF34EA430C03D5FFF7E6FDFFF780FFF0BCBDE8008C2DE9804C9A46934670B463
:20A7C00091E8380007C810F0804F08BF13F0804F03D100F005F8FFF76BFFF0BCBDE8008C93
:20A7E00020F07F4780EA030023F07F4C07EB0C03A3F57C5300F00040A3F1FE0392F0000F7A
:20A8000000F0B38095F0000F00F077802DE901494FEA11404FEA144621EA004800FB06FCCD
:20A8200024EA064708FB06F607FB08F800FB07F718EB06484CEB164C4FEA124B18EB0748F1
:20A840004FEA15464CEB174022EA0B4E0BFB06FC25EA06470EFB06F607FB0EFE0BFB07F7F6
:20A860001EEB064E4CEB164C4FF000061EEB074E4CEB174B18EB0B0840F1000018EB0E0B43
:20A8800058EB000840F100008F1A4FF000013CBFC943661B14BFB5EB040C00213CBFC94320
:20A8A000F61B4FEA17444EEA8E0E27EA04454FEA1C4704FB07622CEA074C05FB07F70CFB53
:20A8C00005F604FB0CFC16EB074642EB174216EB0C4642EB1C421BEB060658EB02024141E9
:20A8E00046EA9E0601D5BDE80189B619524141EB0101A3F10103BDE801894FEA14454FEA5D
:20A90000114724EA054621EA074C05FB07F406FB07F70CFB06F105FB0CFC11EB074144EBB5
:20A9200017444FEA124711EB0C4144EB1C4422EA074C05FB07F206FB07F70CFB06F605FBF8
:20A940000CFC16EB074642EB174216EB0C4642EB1C456A1854F1000148BF7047B619524152
:20A9600041EB0101A3F10103704795F0000F37D04FEA11424FEA144721EA024624EA074CEB
:20A9800002FB07F106FB07F70CFB06F402FB0CFC14EB074441EB17414FEA154714EB0C440B
:20A9A00041EB1C4125EA074C02FB07F506FB07F70CFB06F602FB0CFC16EB074645EB1745D2
:20A9C00016EB0C4645EB1C42121951F1000148BF7047B619524141EB0101A3F1010370478B
:20A9E0004FEA14454FEA114724EA054621EA074C05FB07F106FB07F70CFB06F24FF0000642
:20AA000005FB0CFC12EB074241EB174112EB0C4251EB1C4148BF7047921841EB0101A3F156
:20AA20000103704710B50146806B026C12F0500F05D0026CD20626D501F047F810BD016C15
:20AA400041F40071016401688A6812F0405F17D1027EAAB9CA6A12F4700F02D08A68520550
:20AA60000ED44A6822F020024A60016C21F480710164016CC90403D4016C41F00101016476
:20AA800000F0E8FF10BD806BC26CBDE810400846104710B5806B40210164416C41F0040106
:20AAA000416401F012F810BD10B5806B01F00CF810BD0000464910B54A6822F440324A607F
:20AAC0004A6843681A434A6001684A6822F480724A6001684A68036942EA03224A6001685A
:20AAE0004A6822F040724A6001684A6883681A434A6001688A6822F400628A6001688A6811
:20AB0000C3681A438A60816A6FF07062D14201688A6822F070628A6001688A680CD0836A47
:20AB20001A438A6001688A6822F040528A6001688A68C36A1A4301E022F040528A60016828
:20AB40008A6822F002028A6001688A68037E42EA43028A6090F82010002901684A680FD0F1
:20AB600042F400624A6001684A6822F460424A6001684A68174C436A04EB43331A4301E048
:20AB800022F400624A600168CA6A22F47002CA620168CA6A838B104C04EB03531A43CA626D
:20ABA00001688A6822F400728A6001688A6890F8303042EA43228A6001688A6822F48062B7
:20ABC0008A6001688A68406942EA8020886010BD0023014000E0FFFF0000F0FF2DE9F0418E
:20ABE0000D4C05004FF0FF3726680AD002F048F805440020206009E009F064F82068864271
:20AC000002D13846BDE8F08109F0B0FA02F038F8A842F1D30020F5E728040020FEE700002D
:20AC2000014801F0D6B90000FC0E0020014801F0D0B90000FC0E0020014801F0CAB9000077
:20AC4000FC0E0020014801F0C4B90000FC0E0020014801F055BC0000B0140020014801F080
:20AC60004FBC000090130020014801F049BC0000F0130020014801F043BC00003013002008
:20AC8000014801F03DBC000050140020014801F037BC0000D0120020014801F031BC0000A7
:20ACA00070120020014801F02BBC0000F0100020014801F025BC000050110020014801F0DB
:20ACC0001FBC0000B0110020014801F019BC000010150020014801F013BC000070150020B6
:20ACE000014801F00DBC000010120020014801F007BC0000D015002001681823CAB2103AA3
:20AD0000B2FBF3F2054B6FF30901032A9B5CC36500D9091D8165084670470000B89E010850
:20AD200010B5014600208B698A6A4FF0C07453B1B3F5005F15D072B1012A0CD0022A0AD06C
:20AD4000032A09D104E01AB1012A06D0022A03D1C96AC90100D5012010BDC96AA142FAD09C
:20AD600010BD002AF7D0012AF2D0022AF3D0032AF3D010BD30B50468256825F4802525605B
:20AD8000046863608368402B036803D099600068C26030BD9A600068C16030BD10B5002229
:20ADA0004FEA020100EB8203521CC3F884130F2AF8D300224FF400738418521C84F81C1198
:20ADC0009A42F9D30170417001228270C0F8C413027640238371417680F81C1380F81D2320
:20ADE00080F81F1380F81E13002010BD704770472DE9F047074600EB47004FEAC004DFF805
:20AE0000A4900D004FEAE47635D0A9F10808D8F8000020B901F034FF1430C8F80000224874
:20AE200050F8271011B9696840F82710D8F8041000202B5C13F0780F16D003F007038B42C4
:20AE400012D303EBC30101EB410309EB830104EB567700EBE70C01274B6807FA0CF73B43BC
:20AE60004B60295C01F00701401C0328E1DBC8F80410BDE8F08704EB9675A810052200217C
:20AE80000EF0DAF800244E4601F0FAFE04EBA50106EB810100F57A70641CC860062CF3DBB2
:20AEA000E7E70000900000206C6E0020F1B5AAB000242A9898B12AA80DF0BAFE00783F2885
:20AEC00074D03BDC4FF0000627AD3C2878D030DC2B286DD02D286CD02F283BD147E08248D1
:20AEE000007820B1802168460BF00CF940B17FA16846FDF74BFC69467DA009F0C5F8EAE074
:20AF000003227DA16846FDF784FC00284FF03A01684608D0FDF730FC0146784800783130A4
:20AF200001F8010CE7E7FDF727FC552100F8011CE1E73D2870D03E280CD16EE0562813D03C
:20AF400004DC492828D0552804D119E0752817D0762809D000256AA12A98FDF707FC0090E9
:20AF60006C465DF82500A2E00DF0ECFBB3E0012264A166480BF0CCFC04000CD161A007E04A
:20AF8000012263A161480BF0C3FC040003D160A00BF05CF804469EE006F0C8FA5E4D48B1DC
:20AFA00001F06EFE00F57A70686094E05FE007E064E069E001F064FE00F57A7028608AE042
:20AFC0002A981022401C2AA92A90FDF796FB534F209001E0401C2A902A9801782029F9D079
:20AFE000249608E010222AA9FDF787FB249948552498401C24902A98017811B12499082923
:20B00000F0D33868242220A9006808F0CBFF2A9800780028E0D15EE03CE02A981022401CD7
:20B020002AA92A90FDF769FB209001E0401C2A902A9801782029F9D0249608E010222AA990
:20B04000FDF75BFB249948552498401C24902A98017811B124990829F0D32946249A2098ED
:20B0600004F0FCFE2A9800780028E1D133E02A98401C2A9000F078F82BB0F0BD2A98401CDD
:20B080002A9000F0D9F9F7E72A98401C2A9000F04FF9F1E72A98401C2A9000F041F8EBE79B
:20B0A00017A10020FDF762FB6D1C44F825000028F6D10D4E00241436009840B1FDF78AFBC3
:20B0C000024656F834100098FDF7A3FB28B1641C0F2CF1D306242046CEE706EBC40069466B
:20B0E000426828469047C7E7840300203F3A2F000D0A257300000000303A2F0030040020C8
:20B10000202C0000464C4153483A00007C6E00205553423A00000000D40800201C040020D1
:20B1200031B568460DF084FD0078552803D0752801D0062038BD20210098FDF71DFB094C72
:20B14000009006E0401C0A2269460090FDF7D5FAE060009810B101780029F3D104F00EFEF0
:20B16000002038BD840300202DE9F1412DED048B85B009A80DF05CFD0078742878D07528ED
:20B1800070D0762876D0062005B0BDEC048BBDE8F881DFF83081D8F808030EF0BEFA9FEDB5
:20B1A0004A8B53EC182B0EF007FB9FED499B53EC192B0EF02BF99FED481B53EC112B0EF0BB
:20B1C00007FD9FED471B53EC112B0EF01FF99FED461B53EC112B0EF065F80EF031F80EF004
:20B1E000E1FD0646D8F804030F46A0F6FF7040420EF093FA9FED3E1B53EC112B0EF0DCFAB3
:20B2000053EC182B0EF00CFC0EF01AF80EF0CAFD04460D46D8F800030EF07FFA53EC182B68
:20B220000EF0CAFA53EC192B0EF0F0F89FED321B53EC112B0EF0C0FA9FED311B53EC112B84
:20B240000EF0E4F80DF0FCFF0EF0ACFD8DE8F00041EC100B2CA053EC102B08F015FFC8208E
:20B2600008F0BAFF2D480CF00FFA401C91D026E01BE0FFE70DF066FA21E000BF01F000FDF4
:20B28000B0FBF5F0B0FBF4F104FB1103B0FBF4F1B1FBF4F204FB1212B0FBF6F120A008F0EC
:20B2A000F3FEC82008F098FF04E04FF47A753C244FF4616619480CF0E7F9401CDED000203F
:20B2C00062E70000A80B00206666666666660A400000000000FEAF4052B81E85EB51E83FA7
:20B2E0007B14AE47E17A643F0000000000003940166001166001763F9A9999999919484011
:20B30000333333333333F33F0D252E3166562C252E3166562C252E31662743007C000020F4
:20B320000D253032643A253032643A2530326400F1B568460DF07CFC007800263A4D0124B8
:20B34000642811D008DC44280ED0452845D04D2826D0522806D15CE065283ED06D281FD0B9
:20B36000722856D00620F8BD20210098FDF704FA009070B96E6011E0401C0A226946009028
:20B38000FDF7BBF9696804FA00F081436960009810B101780029EFD16868E0B92E611AE00C
:20B3A00020210098FDF7E8F9204D009070B92E600FE0401C0A2269460090FDF79EF9296859
:20B3C00004FA00F081432960009810B101780029EFD104F0D3FC0020F8BD20210098FDF712
:20B3E000CBF9009088B94FF0FF30A860F1E7401C0A2269460090FDF780F904FA00F1A86837
:20B400000143A96000980028E3D001780029EED1DFE70122D103064801F02CFC01F030FCCA
:20B420000449C8300860D4E7840300203404002000040240D408002031B568460DF0F8FBDF
:20B44000007801243A4D642811D008DC44280ED0452845D04D2824D0522806D15BE0652829
:20B460003ED06D281DD0722855D0062038BD20210098FDF781F900900BE0401C0A22694669
:20B480000090FDF73AF904FA00F1686801436960009810B101780029EFD12648006828610F
:20B4A0001CE020210098FDF767F9234D009080B94FF0FF3028600FE0401C0A22694600907E
:20B4C000FDF71BF904FA00F1286801432960009810B101780029EFD104F050FC002038BD08
:20B4E00020210098FDF748F9009080B90020A860F2E7401C0A2269460090FDF7FEF8A968B2
:20B5000004FA00F08143A96000980028E4D001780029EED1E0E700224FF40041074801F0EE
:20B52000A9FB01F0ADFB0649C8304860D4E700008403002078000020340400200004024047
:20B54000D408002010B5D4B0012801DD4B6800E012A313A2694646A80AF09AFD00281AD161
:20B560000DF1160421460FA008F08EFD9DF80800C00602D50DA10EA001E00FA0009908F063
:20B5800083FD694646A80AF093FD002803D19DF816100029E6D154B010BD00002A00000072
:20B5A000000000000D0A252D313673002F000000252D387300000000252D3864000000002E
:20B5C0007047000070B51F480CF05EF81D4C054620680068406930B908210120FCF7C0FEA5
:20B5E0002168096848611B2D0BD0681C20680068406912D0416801B3016845EA012101600E
:20B600001DE0206800684069056001F039FB21680A3009684969486011E0406878B101F0C9
:20B620002FFB2268116849694B68984207D90020486010684069006870BD284670BD4FF066
:20B64000FF3070BD7C000020002200F001B8000030B50E4B054601209C7B022C15D2987B3E
:20B6600000241C54987B03EB800045609D7B03F10C002A54987B421C9A73303008703A20CA
:20B6800048702F208870CC70002030BD1C1D002030B587B00C46054601F03AF9002000907C
:20B6A00002200295CDE9034005A9684601F09CF8044601F0E5F807B0204630BD002229B1D9
:20B6C00001291AD002291BD04FF440720E490B6823F440730B600B6813430B600A6822F094
:20B6E000F8020A600A68022303EBC00002430A60086840F48030086070474FF48072E5E77E
:20B700004FF40072E2E70000103C02401348016889050FD5016821F400710160016841F4F9
:20B7200000610160016821F400610160016841F400710160016849050FD5016821F480619D
:20B740000160016841F480510160016821F480510160016841F4806101607047003C0240F3
:20B7600008490A6822F440720A600A6842F004020A600A684FF4803343EA002002430A605C
:20B7800070470000103C024070B50C460A490546F22008602868A0420CD001F0B9F822467D
:20B7A00000232946022001F075F806460228F6D001F066F8304670BD0C3C0240064A1368F4
:20B7C00023F44073136013681360136843F001031360017070470000103C0240094910B54C
:20B7E0000C6824F440740C600C6844F440740C600C6844F001040C600260BFF36F8F436003
:20B8000010BD0000103C0240074A136823F440731360136843F480731360136843F00103FA
:20B820001360018070470000103C0240074A136823F440731360136843F4007313601368B3
:20B8400043F001031360016070470000103C024017490868C206174805D5C26942F0100258
:20B86000C26110220A600A68920605D5C26942F00802C26120220A600A68520605D5C26920
:20B8800042F00402C26140220A600A68120605D5C26942F00202C26180220A600A68920782
:20B8A00005D5C26942F02002C2610220086070470C3C0240CC1C002070B511490446002050
:20B8C000C86101F0DDF906460E4D09E0601C07D024B101F0D5F9801BA04201D9032070BD5A
:20B8E0002868C003F2D42868C00701D001202860286810F0F200F2D0FFF7AAFF012070BD2D
:20B90000CC1C00200C3C024078B50024009490F83C20012A19D0012280F83C200A68072325
:20B920000568092A13D9EE680A3A02EB420293409E43EE600B788A680A3B03EB43039A40E6
:20B940000368DD682A43DA6010E0022078BD2E6902EB420293409E432E610B788A6803EBDB
:20B9600043039A4003681D692A431A614A681F23072A13D205686E6B521E02EB82029340CA
:20B980009E436E630B790A885B1E92B203EB83039A4003685D6B2A435A6327E005680D2ACC
:20B9A00012D22E6BD21F02EB820293409E432E630B790A88DB1F92B203EB83039A40036856
:20B9C0001D6B2A431A6311E0EE6A0D3A02EB820293409E43EE620B790A880D3B92B203EB60
:20B9E00083039A400368DD6A2A43DA62164B0568144A9D4206D10D68122D03D1556845F42C
:20BA00008005556005689D4218D10B68102B01D0112B13D1536843F40003536009681029C6
:20BA20000CD10A490A4A0968B1FBF2F101EB8101490000E0491E00910029FBD180F83C400A
:20BA4000002078BD00230140002001403C00002040420F0030B51B480021C0F80413C0F8EF
:20BA60000013C0F8081300BF01EB410300EB4302D0F808439588491C2C44C0F8084330F891
:20BA80001330D0F8004380292344C0F800335288D0F804331A44C0F80423E5D3D0F808239C
:20BAA000B2FBF1F2C0F80823D0F80023B2FBF1F2C0F80023D0F80423B2FBF1F1C0F8041370
:20BAC00030BD0000A80B00207047704770B504004FF0000503D0206C002610B107E001207D
:20BAE00070BD204600F01CF8666484F83C60206CC00610D4206C20F4885040F00200206469
:20BB00002046FEF7D7FF6664206C20F0020040F00100206400E0012584F83C60284670BD1E
:20BB2000F0B587B0064614216846FCF756FF1F493068884237D11E480025016841F48071C6
:20BB40000160006800F48070059019481438016841F0040101600068032700F004000097D9
:20BB60000590CDE901756946124800F09BFF134C1148C4E900050015A560C4E903504000AD
:20BB800060618000A0614011C4E9070504206062C4E90A752046256300F082FD08B1FFF73B
:20BBA0000FFDB463A66307B0F0BD000000200140443802400008024010640240F0100020B6
:20BBC000F8B50E4600210446009190F83C00012807D0012084F83C0020688368DB0702D0A4
:20BBE00011E00220F8BD836843F0010383603748374B0068B0FBF3F000EB400000E0401E18
:20BC000000900028FBD120688368DB075CD0236C40F20165AB4343F480732364406840056C
:20BC200005D5206C20F4005040F480502064206CC00404D5606C20F00600606400E061643E
:20BC400084F83C10A16B2448224DC863A16B23480864A16B2248C86421686FF02200086013
:20BC60002068416841F0806141602068816841F4807181602168134632464C31A06B00F096
:20BC800079FD68681749C006206806D088421BD1816811F0405F13D016E08842F8D0124AD4
:20BCA000904203D1D1F80423D206F1D00F4A90420AD1D1F8041301F01F011029E8D303E087
:20BCC000816841F0804181600020F8BD3C00002040420F000023014025AA0008A9AA000850
:20BCE00093AA000800200140002101400022014090F82020012A07D0022A05D0416A41F42E
:20BD00008021416201207047006842690A43426100207047F0B590F820500468A468012DEA
:20BD200005D0022D03D0416A41F4802153E014F0406F01D1E5004BD5C4F30164022C03D9C8
:20BD4000416A41F4000146E00125A5401D608D684FF4C0739DB1CE6835434E6845EAC6053D
:20BD6000066803EB0417F5514FF4C275076805EB04150E697E51097D012905D009E00E88CA
:20BD8000CD6845EA4655EBE701684E5946F480764E511179D2F805504FF4C67641EA052576
:20BDA000016806EB04168D511178D2F801204FF4C47541EA0221026805EB04155151006876
:20BDC00003EB0411425842F0010242500020F0BD416A41F4001141620120F0BD10B590F883
:20BDE0002020012A07D0022A05D0416A41F480214162012010BD3B48D0F8002242F001024C
:20BE0000C0F80022D0F8002222F47C52C0F80022D0F800224B6A42EA0322C0F800220A7D4F
:20BE200002F01F0301229A40D0F81C329343C0F81C32CB69B3B9D0F80C329343C0F80C328D
:20BE40008C894B6864F31F434C6900EBC404C4F840320C890B6864F31F434C6900EBC404A2
:20BE6000C4F84432CB69012B16D1D0F80C321343C0F80C320C884B6864F31F434C6900EB57
:20BE8000C404C4F840320C89CB6864F31F434C6900EBC404C4F844328B69002BD0F8043274
:20BEA0000ED01343C0F804320B69002BD0F8143208D01343C0F81432096A012904D008E02E
:20BEC0009343EFE79343F5E7D0F81C121143C0F81C12D0F8001221F00101C0F800120020FD
:20BEE00010BD000000640040704730B590F82040012C05D0022C03D0416A41F480215DE08C
:20BF00000468002955D02469A40754D04FF4D874056804EB01142D5915F004059560056815
