:020000040800F2
:10000000982F012021030008D3700008ED6A000832
:10001000D17000081D2C000873B800080000000013
:10002000000000000000000000000000AB780008A5
:10003000532D00080000000041730008457A0008B5
:100040003B0300083B0300083B0300083B03000898
:100050003B0300083B0300083B0300083B03000888
:100060003B0300083B0300083B0300083B03000878
:100070003B0300083B0300083B0300083B03000868
:100080003B0300083B0300083B0300083B03000858
:100090003B0300083B0300083B0300083B03000848
:1000A0003B030008217B00083B0300083B030008DA
:1000B0003B0300083B0300083B0300083B03000828
:1000C0003B0300083B0300083B0300083B03000818
:1000D0003B030008A18100083B0300083B03000824
:1000E0003B0300083B0300083B0300083B030008F8
:1000F0003B0300083B0300083B0300083B030008E8
:100100003B0300083B0300083B0300083B030008D7
:100110003B0300083B0300083B0300083B030008C7
:10012000512C00083B0300083B0300083B03000878
:100130003B0300080000000000000000452C000800
:10014000212C00082D2C0008392C0008D57000083F
:100150003B0300083B0300083B0300083B03000887
:100160003B0300083B0300083B0300083B03000877
:100170003B0300083B0300080000000000000000F3
:100180003B0300083B03000800F002F800F0B6F85B
:100190000AA090E8000C82448344AAF10107DA45E2
:1001A00001D100F0ABF8AFF2090EBAE80F0013F07E
:1001B000010F18BFFB1A43F001031847141B02007C
:1001C000341B02000A444FF0000C10F8013B13F0FE
:1001D000070408BF10F8014B1D1108BF10F8015BA0
:1001E000641E05D010F8016B641E01F8016BF9D193
:1001F00013F0080F1EBF10F8014BAD1C0C1B09D1EA
:100200006D1E58BF01F801CBFAD505E014F8016B5B
:1002100001F8016B6D1EF9D59142D6D370470000ED
:100220000023002400250026103A28BF78C1FBD8FF
:10023000520728BF30C148BF0B6070476E2900F0DD
:100240002985702900F07386662911F0408165299F
:1002500011F03D81672911F03A81612911F039814E
:1002600003681B0A28BF41F08001692900F0D68489
:10027000642900F0D384752900F0D0846F2900F040
:100280000086782900F03F86E92900F09B85E42963
:1002900000F09885F52900F09585EF2900F0FD859F
:1002A000F82900F03E860368DB0928BF41F0800191
:1002B000632901F05984732901F05E84E32901F078
:1002C0006984F32901F06E84002070471FB511F096
:1002D000F4F89DE8030000F0FDFB00F0E9FF0400E6
:1002E0000020002110F09AFA401C606000200021DC
:1002F00010F0AAFAE0601FBD10B510BD01F056FE67
:100300001146FFF7E3FF0FF0C3FA01F027FF03B434
:10031000FFF7F2FF03BC01F097FF0000C0BA70477F
:100320000948804709480047FEE7FEE7FEE7FEE789
:10033000FEE7FEE7FEE7FEE7FEE7FEE704480549C5
:10034000054A064B70470000D57A0008890100086D
:10035000986F0020982F012098EF002098EF002040
:1003600070B5A0FB0140B4F1805170F1000024BFD2
:10037000002070BD204600F007F805001CBF214694
:1003800000F009FB284670BD70B5064600F082FB00
:10039000056806F10B0020F00704B4429CBF002062
:1003A00070BD2B466A68BAB11068A04210D304F140
:1003B000080188423CBF5068586007D35168101943
:1003C00041601168091B016058601460101D70BD08
:1003D00013465268002AE7D12146284600F066FB02
:1003E0000028DED170BD70B50446051F00F052FB39
:1003F0000068002C14BF446870BD002C18BFAC42CC
:100400003CBF20466468F8D301680A18AA4218BFA6
:10041000456003D12A6805461144016028684119E6
:10042000A1421CBF6C6070BD6168696021680844AE
:10043000286070BD53EA020C00F069802DE9F04B92
:100440004FF00006002B1FBFB3FA83F503FA05F443
:1004500024FA05F65E4012BF1643B2FA82F502FA9C
:1004600005F4C5F120051EBF22FA05FC44EA0C0480
:10047000203556EA044C4FEA144418BF641C4FF070
:1004800000084FF00009904271EB030C39D30029AA
:1004900019BFB1FA81F701FA07F6B0FA80F700FA4E
:1004A00007F6C7F120071EBF20FA07FC46EA0C0634
:1004B0002037B6FBF4FCA7EB0507103F07F01F0B36
:1004C000CBF120060CFA0BFB2CFA06F644BFB34620
:1004D0000026202FA4BF5E464FF0000B5BEA060CFF
:1004E00008BF4FF0010B19EB0B09ABFB027C48EB8B
:1004F0000608C01B06FB02CC0BFB03CC71EB0C0106
:10050000C1E70B46024641464846BDE8F08B13B5AD
:100510004FF000004FF00001AFF30080BDE81C4039
:10052000704700007CB51D4616460C00009001D0B7
:100530002044401E074B7B442A46694601903046C2
:1005400000F0C1FB05461CB10020694600F0CEFB5F
:1005500028467CBDBD0700000FB400B58DB010A9C2
:10056000099000910B904FF0FF300A9000200C9002
:10057000064878440690064878446A4607900F99E2
:1005800009A800F0B7FD0DB05DF814FB9F0B00004B
:10059000B70B00002DE9FF5F1D464FF0FF3B914672
:1005A0004FF000085F46D5E90146A96901987F1C14
:1005B0008847296A824688470028F6D1BAF1FF3F6A
:1005C0000CD0002E24F4C06419DD600614D5BAF1F5
:1005D0002B0F09D0BAF12D0F0ED103E0584604B00D
:1005E000BDE8F09F44F48064A96901987F1C8847A6
:1005F000761E8246002E02DDBAF1300F03D0B9F12B
:10060000000F26D032E0A969761E01987F1C44F4C1
:1006100000748847002E824605DDBAF1780F06D0B7
:10062000BAF1580F03D0B9F1000F10D01EE0B9F1A4
:10063000000F02D0B9F1100F18D1A969761E0198E8
:100640007F1C24F4007488478246102002E00820B2
:1006500000E00A20814609E0A96908FB0908761E26
:1006600001987F1C44F4007488478246002E05DD03
:100670004946504600F02AFD0028EDDAE969019864
:100680008847A00502D46FF00100A8E7E00725D154
:10069000600613D5600502D5C8F1000000E04046B1
:1006A00029680A1D2A600968220501D5087015E02D
:1006B000220701D5088011E008600FE02868011DBD
:1006C00029600068210502D580F8008006E0210736
:1006D00002D5A0F8008001E0C0F8008038467EE72F
:1006E00070B5064600F0DAF90468054630460A227D
:1006F000002100F07EFD2C6070BD2DE9F05F934677
:100700000F4680460446002600F0C8F9D0F8009055
:10071000824614F8015B2DB100F0B4F90068405D29
:10072000C007F6D12B2D02D02D2D1AD0641E00212A
:10073000CAF800105A463946204600F00BFD014623
:1007400027B13868A04201D1C7F80080DAF800006C
:10075000022809D0CAF80090700505D54842BDE8C6
:10076000F09F46F48066E2E70846F8E7014A00F0A9
:1007700079BD00003C0C0020401ECAB210F8011FD9
:100780008A4202D00029F9D10020704740EA0103D3
:10079000024630B59B0710D14FF0013400E008C28B
:1007A00008C91D1B9D4315EAC41FF8D013F0FF01B3
:1007B00002F8011B0DD01B0AF8E711F8013B002BD2
:1007C00002F8013B05D011F8013B002B02F8013B78
:1007D000F3D130BD10B5431C02E010F8011B71B11C
:1007E0008107FAD14FF0013202C88C1A8C4314EA07
:1007F000C211F9D0C01A0A0603D0C01E10BDC01A1B
:1008000010BD0A0401D0801E10BD0902FCD0401E9C
:1008100010BD40EA010370B59B072ED14FF00136A1
:10082000042A2AD308C810C99D1B9D43121F15EA2C
:10083000C61517D0D8B2E1B2401A50EA056110D1FE
:1008400098B2A1B2401A50EA05410AD123F07F4084
:1008500024F07F41401A50EA052102D1180EA0EB86
:10086000146070BDA342DBD018BA21BA884201D906
:10087000012070BD4FF0FF3070BD0AB9002070BD7F
:1008800010F8013B11F8014B63B1A3420AD1521E8B
:1008900008D010F8013B11F8014B1BB1A34201D164
:1008A000521EEDD1181B70BD032A40F2308010F0AB
:1008B000030C00F0158011F8013BBCF1020F6244FB
:1008C00098BF11F801CB00F8013B38BF11F8013B8C
:1008D000A2F1040298BF00F801CB38BF00F8013B39
:1008E00011F0030300F02580083AC0F0088051F8A9
:1008F000043B083A51F804CBA0E80810F5E7121DB4
:100900005CBF51F8043B40F8043BAFF30080D207D2
:1009100024BF11F8013B11F801CB48BF11F8012B9E
:1009200024BF00F8013B00F801CB48BF00F8012BC1
:10093000704710B5203AC0F00B80B1E81850203A4B
:10094000A0E81850B1E81850A0E81850BFF4F5AF6F
:100950005FEA027C24BFB1E81850A0E8185044BFF9
:1009600018C918C0BDE810405FEA827C24BF51F866
:10097000043B40F8043B08BF7047D20728BF31F85A
:10098000023B48BF11F8012B28BF20F8023B48BFAB
:1009900000F8012B70474FF000020429C0F01280CC
:1009A00010F0030C00F01B80CCF1040CBCF1020F22
:1009B00018BF00F8012BA8BF20F8022BA1EB0C01F7
:1009C00000F00DB85FEAC17C24BF00F8012B00F8ED
:1009D000012B48BF00F8012B70474FF0000200B513
:1009E000134694469646203922BFA0E80C50A0E852
:1009F0000C50B1F12001BFF4F7AF090728BFA0E800
:100A00000C5048BF0CC05DF804EB890028BF40F8CB
:100A1000042B08BF704748BF20F8022B11F0804F0D
:100A200018BF00F8012B704710B5044610F0030FF3
:100A300008BF11F0030F40F015804FF0013E121F68
:100A4000C0F20E8051F8043BA3EB0E0C2CEA030C11
:100A50001CEACE1C08BF40F8043BF0D0A1F1040111
:100A600002F10402521E08DB11F8013B002B00F8D2
:100A7000013BF7D11146FFF78EFF204610BD7047AE
:100A80007047704710B500F013FC001D10BD00BF8B
:100A90008DFD000000487047406F002000487047FF
:100AA000386F0020704770477047704738B504466C
:100AB0000A4600206946AFF30080002808BF38BD11
:100AC00002460099204600F0F7FB012038BD0120C6
:100AD00001F046BAF8B5AFF30080054600200C4699
:100AE000102000BF0646A819A0420DD9324669461B
:100AF0000020AFF30080070008BF01F031FA009832
:100B0000A04218BF0546C419FFF7C4FF0560074699
:100B1000F01D20F007004619284600F00AF8B442FC
:100B200008BFF8BDA21B31463868BDE8F84000F0A8
:100B3000C3BB00210160C0E901107047102070475D
:100B400010B5FFF7ABFF006810BD10B50446FFF706
:100B5000A5FF046010BD70B5044685690068C10634
:100B600001D5302600E02026C00707D070BDD4E9AB
:100B7000012130469047206A401C20626D1EF6D548
:100B800070BD70B5044685690078C00707D170BD97
:100B9000D4E9012120209047206A401C20626D1E6C
:100BA000F6D570BD09684A0501D540B27047C90540
:100BB000FCD500B2704709684A0501D5C0B270473C
:100BC000C905FCD580B2704770B50C460546012AB0
:100BD00005D02878800600D5EA69002302E00123C9
:100BE00005E05B1C934202D2E05C0028F9D1A869C1
:100BF000E618C01AA861286A184428622846FFF738
:100C0000AAFF04E0D5E9012114F8010B9047B44292
:100C1000F8D32846FFF7B5FF70BD00002DE9F0417D
:100C20000646002410687529314616A510D0FFF736
:100C3000B9FF002802DA404213A507E031688A07AD
:100C400001D512A502E0490704D511A5012401E050
:100C5000FFF7B1FF00210A2206F1240709E0B0FBEB
:100C6000F2FCB0FBF2F302FB1C0030307854184663
:100C7000491C0028F3D123462A463046BDE8F041FE
:100C800000F082BB000000002D0000002B000000DF
:100C90002000000011680268006A530501D5087041
:100CA0000AE0D30501D5088006E0130603D5C21774
:100CB000C1E9000200E008600120704701694A1C98
:100CC00002610878704700B58FB0CDE9013100218D
:100CD000059105497944CDE903101146684600F0B5
:100CE00031F90FB000BD0000E5FFFFFF0A6802F810
:100CF000010B0A607047D1E900239A4202D2531CCB
:100D00000B601070704700002DE9FF5F15468A46A2
:100D10000446DFF8AC80F8440027D8E900103E46CE
:100D2000CDE9001010E03AF816106A4602A801F06A
:100D3000F7F8411C07D02178890603D5E2693918F4
:100D400091420DD80744761C2078800602D5E069D0
:100D5000B84205DDAE42E6DB3AF816000028E2D1E3
:100D6000A069C01BA0612046FFF7F5FED8E900107E
:100D7000CDE90010002017E03AF818106A4602A8E2
:100D800001F0CEF8B0F1FF3F81460BD000250DF108
:100D9000080B05E0D4E901211BF8050090476D1C04
:100DA0004D45F7D308F10100B0428046E4DB206AEC
:100DB000384420622046FFF7E4FEBDE8FF9F0000B4
:100DC000BE0D02002DE9F0418046D21D22F007023F
:100DD0000025D2E90002F52915A614D0011E72F1F2
:100DE000000106DA0023D0EB030063EB020211A638
:100DF00008E0D8F800108B0701D50FA602E04907DC
:100E000001D50EA601251146002408F1240704E0AF
:100E100000F06CFA30323A55641C50EA0102F7D106
:100E20002B46324621464046BDE8F04100F0ACBAC0
:100E3000000000002D0000002B000000200000003A
:100E400030B4002100F1240408E002F00705D208C4
:100E5000303542EA4372DB086554491C52EA030507
:100E6000F3D10468002310A2250707D5A40600D4F7
:100E700021B1C46901230DA2641EC46130BC00F01D
:100E800083BA10B5044621461068FFF794FE024667
:100E90002046BDE810400023D2E7D21D22F0070112
:100EA000D1E90023CCE70000000000003000000082
:100EB000F0B40D460188090502D5214C7C4402E0BE
:100EC0001F4C7C440E34002100F1240608E002F09F
:100ED0000F071209E75D42EA03721B097754491CA8
:100EE00052EA0307F3D102780023120704D5702DCC
:100EF00006D009B1022311342246F0BC00F044BAF6
:100F000001231034F8E770B504460D4621461068F9
:100F1000FFF751FE024629462046BDE870400023F7
:100F2000C6E7D21D22F00703D3E90023C0E7036818
:100F3000126843F0200303600823C3610023B7E76E
:100F4000200C02002DE9F05F894604464FF0000AAC
:100F5000DFF874B1FB44C0F820A02046E168884760
:100F6000002874D0252806D0D4E901219047206AB2
:100F7000401C2062F1E700265F462046E168884772
:100F80002028054607DB312D05D2781910F8200CF2
:100F900008B10643F1E7B00701D526F00406C4F80E
:100FA0001CA00027C4F818A02A2D09D028460AF052
:100FB000C3FE38B304EB8708303DC8F8185019E079
:100FC00059F8041B204604EB87029161E1688847C9
:100FD000012F054618D1E069002820DA26F0200606
:100FE0001DE0D8F8180000EB800005EB4000303819
:100FF000C8F818002046E168884705460AF09CFEBC
:101000000028EED1012F0AD02E2D08D12046E1680C
:1010100088477F1C0546022F46F02006C4DBA069E6
:10102000002803DA404246F00106A061F00701D033
:1010300026F010066C2D0BD0682D09D04C2D39D020
:101040006A2D35D0742D35D07A2D33D016E038E0A6
:10105000E1682F4620468847B842054609D16C2FE3
:1010600026D04FF48060E168064320468847054655
:1010700004E06C2F1AD04FF4807006430DB3A5F135
:101080004100192802D8203546F400664A46294610
:10109000204626604E46FFF7D1F880B101280BD0DC
:1010A000F61D26F0070000F1080956E74020E4E7A6
:1010B0008020D8E70020D6E706F104094DE728464E
:1010C00052E7206ABDE8F09FB00B02003A2800D238
:1010D000303820F02002412A01D3A2F137008842A3
:1010E00001D34FF0FF30704702681144137801605C
:1010F00018467047D16005497944516104497944E3
:10110000116200211161114600F050BDEDFFFFFF9B
:1011100075020000426842B1016811F8013B23B139
:10112000521EC0E90012184670470121C160881E96
:10113000704742685AB1C368016843B983688B42FB
:1011400005D0491E521CC0E90012002070474FF024
:10115000FF3070472DE9F05F824615468B46002729
:101160000AF10104B9460078302801D09DB113E09E
:1011700014F8010B0127782803D0582801D045B175
:101180000AE00DB1102D07D1002714F8010B10252E
:1011900002E0082500E00A250026B0460EE005FB27
:1011A000080005FB06F101271FFA80F801EB104645
:1011B000B6F5803F00D3B94614F8010B2946FFF776
:1011C00085FF0028EBDABBF1000F05D00FB1641EDC
:1011D00000E05446CBF80040B9F1000F06D0FFF70D
:1011E0005DFC02210160C81EBDE8F09F48EA064090
:1011F000FAE72DE9F04791460F468046044600265F
:1012000014F8015B2DB1FFF73DFC0068405DC0079D
:10121000F6D12B2D02D02D2D18D0641E4A4639460A
:101220002046FFF797FF27B13968A14201D1C7F8DF
:1012300000804FF0020471050BD54042002803DD09
:10124000FFF72CFC0460A007BDE8F08746F4806639
:10125000E4E70028F8DAFFF721FC04606FF00040B3
:10126000F2E700002DE9F04115460E46040002D1D8
:101270002C6804B90BA4204600F089FE04442078B1
:1012800070B127463146384600F071FE044420789C
:1012900010B1002004F8010B38462C60BDE8F08145
:1012A0000027F9E70000000000487047386F002071
:1012B00000487047586F0020034640688C4600285D
:1012C00018BF88423CBF03464068F8D318681844EA
:1012D000884207D00CF1030020F00700001D411ADE
:1012E000521A0146081D0A60FFF77DB830B5B0F10B
:1012F0000A024FEA900E71F100034EEA817EB0EBD4
:101300000E0061EB91014FEA101E4EEA017E10EBD8
:101310000E0041EB11114FEA102E4EEA016E10EB58
:101320000E0041EB11214FEA104E4EEA014E10EB38
:101330000E0041EB1141401841F100014FEAD0008D
:1013400040EA41704FEAD10110EB80054FEA810479
:1013500044EA907444EB01046D1944EB0404521BFD
:10136000A3414FF0000348BF0A3200D530BD401CF6
:1013700041F1000130BD10B50446FFF783FB006862
:10138000005D00F0010010BD2DE9F0470D469946C3
:101390009246044600F124080168880604D5E069F5
:1013A00021F01001216000E00120A84201DD471B6F
:1013B00000E00027A1697A1902EB0900081AA06170
:1013C0002078C00602D42046FFF7C5FB002608E0BF
:1013D000D4E901211AF806009047206A401C761CC7
:1013E00020624E45F4DB2078C0060AD52046FFF780
:1013F000B2FB06E0D4E9012130209047206A401C6E
:101400002062381EA7F10107F4DC07E0D4E90121CE
:1014100018F805009047206A401C2062281EA5F19C
:101420000105F3DC2046FFF7ACFB2078000602D56F
:101430000220BDE8F0870120FBE770472DE9FF4F50
:101440000C461E464FF0FF378BB0D2E90001DDF8A5
:1014500060800A908A46C1F30A5505B93D460021CD
:1014600008464FF00000BAF1000F00F4400005DA22
:1014700000EB80004FF4400101EA50004FEA905920
:10148000B9F1010F00DDB9460A9850EA4A000ED0C2
:1014900044F61050A5F2FF3545432F14B8F1000F64
:1014A0001ED07542291E1EDDC9F100021CE0B8F1F4
:1014B000010F4FF0000001D0302103E0F24305E0BE
:1014C0002154401CB042FBDB304600220021215455
:1014D0000B99C1F80880C1E900200FB0BDE8F08F7A
:1014E000BD1B6D1CDEE74A4600DA694206A800F023
:1014F000C3FD06AB93E8070003AB83E80700504643
:101500000A9900F0C7FE8DE80700A0F500501F38CB
:1015100000900398002D0ADD42F21F014A4608445C
:10152000002303A90390684601F030F909E0A0F513
:1015300000504A461F38002303A90390684601F073
:101540003AF98DE807000004000C03D04FF0FF309B
:10155000410800E01046B8F1000F03D000220092CD
:1015600015461EE0751E05D4FFF7C0FE30326255E9
:101570006D1EF9D5B3460122084302D000227F1C1C
:1015800004E02078302801D100227F1E002A09972C
:1015900084D01DE0112D07DAFFF7A8FE3032625526
:1015A0006D1C50EA0102F5D1084302D00098C8B181
:1015B0000EE00021681E05E0235C625C6354225447
:1015C000401E491C8142F7DBAB46A81B401E099018
:1015D000002004F80B000B98099AC0F80880C0E9B5
:1015E000002B7AE711264FF0000857E72DE9F04F5E
:1015F00088460446D21D22F0070191B0D1E90001CE
:10160000CDE90A010AF0DCF902460B98C00F01D0BF
:101610002D2007E02068810701D52B2002E0202142
:1016200001EAC000032A099001D0072A05DB03461E
:101630004146204600F0E0FC0BE12078800601D511
:10164000E06900E00620B8F1650F814606D0B8F1E8
:10165000660F18D0B8F1670F70D131E00020B9F1F2
:10166000110F009001DB112301E009F101030AAA27
:1016700001A90CA8FFF7E2FEDDE90C70002609F1D4
:101680000105834647E001204B4600904FF000479C
:101690000AAA01A90CA8FFF7D1FEDDE90DB00C994B
:1016A0005D46002610B909F101000D18B9EB0500DF
:1016B00003D4C0F1FF3609F10105A5EB09002BE0C9
:1016C000B9F1010F01DA4FF001090020B9F1110F52
:1016D0000090484601DD112300E003460AAA01A953
:1016E0000CA8FFF7ABFEDDE90C704D4600268346E3
:1016F000207800070AD4AB4500DA5D4601A8012D29
:1017000004DD411911F8011C302907D04F4502DAD8
:1017100017F1040F04DA012082460FE06D1EEEE798
:10172000002F02DCED1B3E4403E0781CA84200DDE4
:101730007D1CB81B00F1010A4FF00047207800071C
:1017400003D4AA4501DB4FF0FF3A0021B7F1004F67
:101750000DF143088DF8431024D002202B23002FD5
:1017600001DA7F422D230A21021EA0F1010000DCD4
:101770005FB197FBF1FC97FBF1F201FB1C7C174674
:101780000CF1300C08F801CDEEE7A8F10100037070
:101790002188090501D5452100E06521A0F1010856
:1017A00000F8011C09980FA9A1EB0807FF1D00B163
:1017B0000120411901EBEA70A1693844081A401E62
:1017C000A0612078C00602D42046FFF7C4F909982A
:1017D00028B1D4E901219047206A401C206220787A
:1017E000C00622D52046FFF7B6F91EE0002E04DB26
:1017F000B34502DD01A8805D00E03020D4E901217D
:101800009047206A401C2062761CAAF101005FEA22
:10181000000A0AD1FFF74CFDC0680168405CD4E9BA
:1018200001219047206A401C2062281EA5F1010575
:10183000DCDC07E0D4E9012118F8010B9047206AAD
:10184000401C2062381EA7F10107F3DC2046FFF799
:1018500098F9032011B041E62DE9F04F04460D46FA
:10186000D21D22F0070089B0D0E9009748463946DA
:101870000AF0A6F80246F80F01D02D2307E02068F1
:10188000810701D52B2302E0202101EAC0038DF856
:1018900020300BB1012000E00020032A824601D055
:1018A000072A04DB2946204600F0A6FB3FE120780A
:1018B000800601D40D2500E0E569C7F30A560D2D19
:1018C00049DA00214FEA175B08464FF00000002F6D
:1018D00000F4400007DA00EB80004FF4400100EB19
:1018E000D07001EA60008115012901DD4FF0FF3160
:1018F00000224FEA850CBCF1180F06D31346ACF159
:1019000018004FF08052C24003E04FF4801323FAD6
:101910000CF30CF10C0CBCF1200F04D3ACF1200C37
:1019200009FA0CF001E007FA0CF000294FF000482A
:1019300001DD18B90FE00ED140450CD319EB0209B7
:101940005F4121B9404502D19F4329EA0209BBEB1F
:10195000175F00D0761C2088000502D57B487844AC
:1019600002E07A487844193808AA302302F80A308D
:10197000037C0AF10101002E0AF1020A53546A465F
:1019800002DC4FF0300101E04FF031014FF001086F
:101990008DF8001002D0A6F2FF3603E059EA4701A5
:1019A00000D06B4E002D02DC2178090704D54FF0E2
:1019B00002082E218DF80110C44600210BE0C7F368
:1019C00003433F01C35C491C6D1E02F80830052922
:1019D00008F1010801DA002DF1DC00210CE000EB38
:1019E0001973491C1B786D1E082902F808304FEA4C
:1019F000091908F1010801DA002DF0DC21688B06D5
:101A000002D516E0A8F10108E04505DD02EB080368
:101A100013F8013C302BF5D0B8F1000F09DD02EBD3
:101A2000080313F8013C2E2B03D1090701D4A8F1B8
:101A30000108002D05DD3E2102F808106D1E08F199
:101A40000108407C002E02F8080008F1010804DAC1
:101A50002D20764202F8080002E02B2002F8080050
:101A60000A214FF47A70864208F101080BDB96FBDD
:101A7000F0F3303302F8083096FBF0F308F1010878
:101A800000FB136601E0642E0CDB642096FBF0F390
:101A9000303302F8083096FBF0F308F1010800FB40
:101AA000136601E00A2E06DB96FBF1F0303002F8F7
:101AB000080008F1010896FBF1F001FB10603030DE
:101AC00002F80800A16908F1010808EB050202EB21
:101AD0000A00081AA0612078C00602D42046FFF749
:101AE0003AF8216A08AE01EB0A00206204E0D4E96A
:101AF000012116F8010B9047BAF1010AF7D22078BC
:101B0000C00602D52046FFF726F86E4609E016F813
:101B1000010B3E280FD0D4E901219047206A401CD8
:101B20002062B8F10108F2D22046FFF72AF809B086
:101B30000320BDE8F08F206A2844206203E0D4E946
:101B40000121302090476D1EEBD3F8E7CA01020057
:101B500002FCFFFF10B5436913B1AFF3008001E051
:101B6000FFF732F8012010BD127800F124010A704D
:101B700000224A700122EDE711684FF0FF32E9E7D9
:101B800010B5436913B1AFF3008001E0FFF7BCF873
:101B9000012010BD128800F1240182840022C28439
:101BA0000122EDE711684FF0FF32E9E72DE9F34F2D
:101BB0004FF0000A0C4656468DB001200C9001F102
:101BC0000C000B9062690B9801219047051E2DD0E7
:101BD000252D2CD0216A8847C0B162690B9801215C
:101BE0009047216A88470028F7D16269411E0B9807
:101BF000904700E0761CA1690D988847216A8847C4
:101C00000028F7D1E1690D988847DBE7A1690D98B5
:101C10008847A842074601D1761CD3E7E1690D98B1
:101C200088477F1C02D1BAF1000F6FD06BE1626967
:101C30000B9800273D46394690472A2804D162690F
:101C40000B98012190470125DFF8D08262690B983B
:101C500001219047A0F130010A290AD24745E5DC6D
:101C600007EB870100EB4107303FDFD445F010055B
:101C7000ECE7E90601D46FF000476C280AD04C2845
:101C800014D0682815D06A280DD074281CD07A2862
:101C90001AD01DE062690B98012190476C2802D090
:101CA00045F0040514E045F002050DE045F020057F
:101CB0000AE062690B9801219047682802D045F03C
:101CC000080505E045F4006562690B98012190471D
:101CD000C4E9015765283DD019DC58287AD00CDCBE
:101CE000452837D004DC252826D041289ED131E074
:101CF00046282FD0472899D12CE05B2877D061283F
:101D000028D063287CD0642823D15AE0F6E06F28DD
:101D100048D008DC66281DD067281BD0692821D050
:101D20006E2816D127E0702845D0732868D0752812
:101D300047D078280DD14DE0A1690D988847252816
:101D400005463FF469AFE1690D9888476D1C3FF483
:101D50006AAFD8E00D9923466A466FF00100AFF3F1
:101D60000080C5E045F0400023464FF0000260606F
:101D7000A80736D43EE0E8077FF447AF2068011D8E
:101D800021600068290501D506701BE7290701D5E8
:101D9000068017E7A90703D5F117C0E9006111E72D
:101DA00006600FE745F0400023464FF008026060F0
:101DB000A80716D41EE040F60E0125EA0100606077
:101DC00016E045F0400023464FF00A026060A80785
:101DD00007D40FE045F040006060A80708D523460F
:101DE00010220D996FF00100AFF3008080E007E052
:101DF000102223460D996FF00100FEF7CBFB77E030
:101E00004FF0000963284F46C8464B46CB4602D0E8
:101E10005B2806D038E0E80601D40120A060012745
:101E200032E06269D4F80CB00B98012190475E282B
:101E300007D14FF0010949466269D4F80CB00B98FC
:101E40009047216939B900210A4603AB43F82120A4
:101E5000491C0829FADBD8B3216949B308F1010804
:101E600062690B98012190475D28F4D1B9F1000F08
:101E700009D0002003A951F82020D24341F82020A6
:101E8000401C0828F7DB03AB2069002820794FEAC3
:101E900040701ED05B462246CDF80080CDE9019708
:101EA0000D9900286FF0010020DAAFF300801FE0E9
:101EB000C11703AA00EBD1614B1121F01F0102EB06
:101EC0008302411A13680120884003431360C7E767
:101ED00019E00D99224600286FF00100009702DA00
:101EE000AFF3008004E0AFF3008001E0AFF30080C7
:101EF00000280ADA401C06D10C9820B14FF0FF30C0
:101F00000FB0BDE8F08F5046FAE7E90701D10AF1BA
:101F1000010A064400200C9054E60000CCCCCC0C06
:101F200070B516460C460546FEF7ACFD036893F8FF
:101F30000101012806D0FF2C0FD8185D68B10120DF
:101F40002C7070BDD3F807013246214603F2071307
:101F500003442846BDE8704018474FF0FF3070BD7D
:101F600010B500F009F9BDE8104000F000B930B537
:101F700003461D781DB10A4603E0AC4201D1181A90
:101F800030BD12F8014B002CF7D15B1CF1E730B5E6
:101F900003461D783DB10A4612F8014B1CB1AC4214
:101FA000FAD15B1CF5E7181A30BD70477546FFF78C
:101FB0007BF9AE4605006946534620F0070085468A
:101FC00018B020B5FEF7BAF9BDE820404FF0000682
:101FD0004FF000074FF000084FF0000B21F0070111
:101FE000AC46ACE8C009ACE8C009ACE8C009ACE854
:101FF000C0098D46704700002DE9F0411F46044698
:1020000003260168072A01F4006004DB08B116A565
:1020100005E016A503E008B115A500E015A521F01F
:1020200010002060A069C01EA0610FB1401EA06119
:102030002046FEF790FD4FB1D4E901213846904784
:10204000206A401C2062C01C206206E0206AFAE779
:10205000D4E9012115F8010B9047761EF8D22046ED
:10206000FEF78FFDBDE8F0814E414E006E616E00BF
:10207000494E4600696E66002DE9F04781461646D6
:102080008AB0354878440DC88DE80D003248784450
:10209000801C03AC0DC884E80D0041F69B30084459
:1020A000372190FBF1F290FBF1F5A5F1800501FBE2
:1020B00012041B3C02D56442012000E00020DFF83E
:1020C00098A080460027FA44AAF1BE0A0EE0E00775
:1020D0000AD03246684607EB470101230AEB81012B
:1020E00000F069FB8DE8070064107F1C002CEED126
:1020F000194F7F44AE3F19E0E80715D007EB0410F5
:102100000DF1180A90E80E008AE80E00C068F0424F
:1021100001D1981908903246012306A903A800F0BE
:102120004AFB03AB83E807006D10641C002DE3D16C
:102130004FF0010332466946B8F1000F03A802D000
:1021400000F024FB01E000F036FBC9E90001C9F80A
:1021500008200AB0BDE8F08734FB010010B5044642
:10216000AFF300802046BDE81040FEF7D0B800284D
:1021700001D000F069B8704710B5012805D00021E2
:1021800003A000F067F8012010BD09A1F8E70000E6
:1021900053494752544D454D3A204F7574206F6650
:1021A0002068656170206D656D6F727900000000B8
:1021B0003A2048656170206D656D6F727920636F9C
:1021C00072727570746564004FF0013C50F8042B16
:1021D00051F8043B9A4221D1A2EB0C03934313EA3A
:1021E000CC1317D150F8042B51F8043B9A4215D167
:1021F000A2EB0C03934313EACC130BD150F8042B3E
:1022000051F8043B9A4209D1A2EB0C03934313EA21
:10221000CC13DBD04FF00000704700BFD01A01BADA
:10222000B1FA81F101F0180122FA01F0CB40C1F1BD
:102230002001DBB2C0B2C01A2CFA01F3D11A9143CB
:1022400011EAC311E6D1704701491820ABBEFEE781
:102250002600020070B505460C460A2000E06D1C01
:1022600000F011F835B128780028F8D102E0641C9C
:1022700000F009F814B120780028F8D1BDE87040CA
:102280000A20AFF3008008B569468DF800000320EE
:10229000ABBE08BD5FEA400C08BF91F0000F4FEAEB
:1022A0008C234FEAC12243EA51514FEA1C5018BF18
:1022B00000F5F0404FEA300018BF41F000415FEAFE
:1022C0006C5C00F02980BCF1FF3F08BF40F080400B
:1022D0007047130C06BF12044FF0100C4FF0000CA7
:1022E000130E04BF12020CF1080C130F04BF1201ED
:1022F0000CF1040C930F04BF92000CF1020CD30FED
:1023000004BF52000CF1010C11464FF00002A0F185
:102310001F00A0EB0C00704711F0004F08BF704782
:1023200031F000413FF4D5AF0B0C06BF09044FF06C
:10233000100C4FF0000C0B0E04BF09020CF1080C3E
:102340000B0F04BF09010CF1040C8B0F04BF8900B3
:102350000CF1020CCB0F04BF49000CF1010CCCF1C5
:102360002003A0EB0C0022FA03F302FA0CF241EA7C
:10237000030100F10100704720F07F4C80EA030068
:1023800023F07F47ACEB070303F57C5300F00040DC
:1023900003F1FF032DE980494FEA154B09B44FEAD9
:1023A000144325EA0B4E24EA03480FF2042606EBF9
:1023B000132749083E785FEA320203FB0667C7F538
:1023C000000707FB06F64FEA54374FEAD64606F1F8
:1023D000020607FB066CCCF1005C4FEA1C472CEAB6
:1023E000074C07FB06F40CFB06F504EB15464FEA19
:1023F000961634BF00204FF000404FEAD13706FB5D
:1024000007FC4FEA1C4C0CFB0BF7D21B03FB0CF731
:1024100061EB07010CFB0EF7B0EB074072EB1742C4
:102420000CFB08F734BFA2EB0742B2EB074261EBAB
:1024300017414FEA0C444FEA910706FB07FC4FEAAD
:102440001C4C0CFB0BF7B0EBC74072EB573203FB95
:102450000CF734BFA2EBC742B2EBC74261EB573176
:102460000CFB0EF7B0EBC70072EB57720CFB08F7D2
:1024700034BFA2EBC702B2EBC70261EB5771039FF7
:102480004FEA816141EA921104EBCC044FEAD13763
:102490004FEA826206FB07FC42EA90124FEA806034
:1024A0004FEA1C4C0CFB0BF7D21B03FB0CF761EB48
:1024B00007010CFB0EF7B0EB074072EB17420CFB69
:1024C00008F734BFA2EB0742B2EB074261EB1741BA
:1024D0004FEA8C554FEA910704EB9C2406FB07FC5E
:1024E0004FEA1C4C0CFB0BF7B0EBC74072EB5732BA
:1024F00003FB0CF734BFA2EBC742B2EBC74261EB60
:1025000057310CFB0EF7B0EBC70072EB57720CFBA8
:1025100008F734BFA2EBC702B2EBC70261EB5771F9
:1025200015EB4C254FEA816141EA92114FEA826234
:102530004FEAD13742EA901206FB07FC44F100044F
:102540004FEA80604FEA1C4C0CFB0BF7D21B03FBDD
:102550000CF761EB07010CFB0EF7B0EB074072EBD9
:1025600017420CFB08F734BFA2EB0742B2EB07425D
:1025700061EB174115EB1C154FEA813141EA92419D
:102580004FEA823242EA90424FEA80304FEA0C76BC
:1025900044F1000448EA03434EEA0B484FF0000EB2
:1025A000B2EB080C71EB030724BF624639464EEBD1
:1025B0000E0E4FF0000B0018524149414BEB0B0B34
:1025C000B2EB080C71EB03077BF1000B24BF6246F2
:1025D00039464EEB0E0E4FF0000B001852414941A8
:1025E0004BEB0B0BB2EB080C71EB03077BF1000B11
:1025F00024BF624639464EEB0E0E51EA020718BF61
:1026000046F0010616EB0E7655F1000254F100017A
:1026100003D5BDE88901BDE80088BDE88901BDE8B2
:102620000048B619524141EB0101A3F10103704783
:1026300080807F7E7D7C7B7A7978777676757473FF
:10264000727171706F6E6E6D6C6C6B6A6A696868BE
:10265000676666656464636362616160605F5F5E54
:102660005E5D5D5C5C5B5B5A5A59595858575756CA
:10267000565555555454535352525251515050502F
:102680004F4F4F4E4E4D4D4D4C4C4C4B4B4B4A4A81
:102690004A494949484848474747474646464545C5
:1026A00045444444444343434342424242414141FE
:1026B000002B9C4630D477002BD01CB54FEA37074F
:1026C00003B44FF010004FF01001BAF1000F06D024
:1026D000BCF1000FDCBF40F0080040F008014FF0F3
:1026E00000000FBCBDE810400BF1010BBBF1010F66
:1026F00008BF5FEA170722BF12F1010211F10101C1
:102700004FF0004143F1000300F0004043EA0000B5
:102710007047F9D35708D0E746EA064613F1400F51
:102720004FEA16461FDD13F1200FDFBF16430A469E
:10273000002120335B42BED0C3F1200746EA0646A3
:1027400002FA07F74FEA164646EA0706C3F12007E2
:1027500022FA03F201FA07F721FA03F14FF000031E
:1027600042EA0702A7E746EA020646EA06464FEAB9
:10277000164646EA0106BCBF46EA0646360C4FF04E
:1027800000034FF000024FF0000194E72DE9804C68
:102790009A46934670B491E8380007C831EA400C75
:1027A00048BF34EA430C03D5FFF7E6FDFFF780FF8F
:1027B000F0BCBDE8008C2DE9804C9A46934670B47D
:1027C00091E8380007C810F0804F08BF13F0804F21
:1027D00003D100F005F8FFF76BFFF0BCBDE8008CFB
:1027E00020F07F4780EA030023F07F4C07EB0C03C7
:1027F000A3F57C5300F00040A3F1FE0392F0000F1C
:1028000000F0B38095F0000F00F077802DE90149CA
:102810004FEA11404FEA144621EA004800FB06FC4B
:1028200024EA064708FB06F607FB08F800FB07F753
:1028300018EB06484CEB164C4FEA124B18EB0748C6
:102840004FEA15464CEB174022EA0B4E0BFB06FCF9
:1028500025EA06470EFB06F607FB0EFE0BFB07F705
:102860001EEB064E4CEB164C4FF000061EEB074ECF
:102870004CEB174B18EB0B0840F1000018EB0E0B5C
:1028800058EB000840F100008F1A4FF000013CBFE8
:10289000C943661B14BFB5EB040C00213CBFC94300
:1028A000F61B4FEA17444EEA8E0E27EA04454FEA1C
:1028B0001C4704FB07622CEA074C05FB07F70CFBDF
:1028C00005F604FB0CFC16EB074642EB174216EB31
:1028D0000C4642EB1C421BEB060658EB0202414140
:1028E00046EA9E0601D5BDE80189B619524141EB81
:1028F0000101A3F10103BDE801894FEA14454FEA44
:10290000114724EA054621EA074C05FB07F406FBBC
:1029100007F70CFB06F105FB0CFC11EB074144EB40
:1029200017444FEA124711EB0C4144EB1C4422EAD6
:10293000074C05FB07F206FB07F70CFB06F605FB49
:102940000CFC16EB074642EB174216EB0C4642EB2B
:102950001C456A1854F1000148BF7047B61952412E
:1029600041EB0101A3F10103704795F0000F37D04F
:102970004FEA11424FEA144721EA024624EA074C83
:1029800002FB07F106FB07F70CFB06F402FB0CFC4D
:1029900014EB074441EB17414FEA154714EB0C4485
:1029A00041EB1C4125EA074C02FB07F506FB07F744
:1029B0000CFB06F602FB0CFC16EB074645EB174535
:1029C00016EB0C4645EB1C42121951F1000148BFB1
:1029D0007047B619524141EB0101A3F10103704761
:1029E0004FEA14454FEA114724EA054621EA074C0D
:1029F00005FB07F106FB07F70CFB06F24FF000069C
:102A000005FB0CFC12EB074241EB174112EB0C42A9
:102A100051EB1C4148BF7047921841EB0101A3F1F3
:102A20000103704710B50146806B026C12F0500F25
:102A300005D0026CD20626D500F083FF10BD016CD4
:102A400041F40071016401688A6812F0405F17D197
:102A5000027EAAB9CA6A12F4700F02D08A685205BF
:102A60000ED44A6822F020024A60016C21F4807181
:102A70000164016CC90403D4016C41F001010164DB
:102A800000F024FF10BD806BC26CBDE8104008460A
:102A9000104710B5806B40210164416C41F0040186
:102AA000416400F04EFF10BD10B5806B00F048FF90
:102AB00010BD0000464910B54A6822F440324A6011
:102AC0004A6843681A434A6001684A6822F480727F
:102AD0004A6001684A68036942EA03224A60016861
:102AE0004A6822F040724A6001684A6883681A4363
:102AF0004A6001688A6822F400628A6001688A6814
:102B0000C3681A438A60816A6FF07062D1420168BB
:102B10008A6822F070628A6001688A680CD0836AD1
:102B20001A438A6001688A6822F040528A6001680C
:102B30008A68C36A1A4301E022F040528A60016841
:102B40008A6822F002028A6001688A68037E42EA8B
:102B500043028A6090F82010002901684A680FD06B
:102B600042F400624A6001684A6822F460424A60A6
:102B700001684A68174C436A04EB43331A4301E087
:102B800022F400624A600168CA6A22F47002CA62D2
:102B90000168CA6A838B104C04EB03531A43CA6260
:102BA00001688A6822F400728A6001688A6890F875
:102BB000303042EA43228A6001688A6822F48062E7
:102BC0008A6001688A68406942EA8020886010BD96
:102BD0000023014000E0FFFF0000F0FF2DE9F0417D
:102BE0000D4C05004FF0FF3726680AD001F0A6FF14
:102BF00005440020206009E008F0BAFE2068864203
:102C000002D13846BDE8F08109F010F901F096FFD5
:102C1000A842F1D30020F5E778000020FEE700008D
:102C2000014801F012B90000940F0020014801F0A2
:102C30000CB90000940F0020014801F006B9000013
:102C4000940F0020014801F000B90000940F00200B
:102C5000014801F0B3BB0000881000200168182370
:102C6000CAB2103AB2FBF3F2054B6FF30901032A23
:102C70009B5CC36500D9091D81650846704700004B
:102C8000EC14010810B5014600208B698A6A4FF0E8
:102C9000C07453B1B3F5005F15D072B1012A0CD0E6
:102CA000022A0AD0032A09D104E01AB1012A06D067
:102CB000022A03D1C96AC90100D5012010BDC96A21
:102CC000A142FAD010BD002AF7D0012AF2D0022A80
:102CD000F3D0032AF3D010BD30B50468256825F47D
:102CE00080252560046863608368402B036803D0F7
:102CF00099600068C26030BD9A600068C16030BDF4
:102D000010B500224FEA020100EB8203521CC3F807
:102D100084130F2AF8D300224FF400738418521C36
:102D200084F81C119A42F9D301704170012282701B
:102D3000C0F8C413027640238371417680F81C13D7
:102D400080F81D2380F81F1380F81E13002010BD8B
:102D5000704770472DE9F04100EB4000DFF8DC8060
:102D60004FEAC0050C004FEAE57650D0A8F10C07F9
:102D7000386818B901F0E2FE143038607868E0B1C4
:102D8000B968D1B1A288E388101A8B423DD10228DC
:102D90003BDC002800DA7A6010F1020F11DA002023
:102DA0000246414600EBC00303EB430301EB830300
:102DB000401C5A600628F5DB03E0A0887860E088B4
:102DC000B860002105EB56770120454601EBE70688
:102DD000002200FA06F300BF14F801C000FA02F660
:102DE0001CEA060F0BD002EBC20606EB460605EB0B
:102DF0008606D6F804C04CEA030CC6F804C0521C80
:102E0000062AE9DB491C0329E0DBBDE8F08105EB7C
:102E10009675A810052200210DF028FC00244646D6
:102E200001F08CFE04EBA50106EB810100F57A7040
:102E3000641CC860062CF3DBE7E70000580600209E
:102E4000F1B5AAB000242A9898B12AA80DF048FA42
:102E500000783F2874D03BDC4FF0000627AD3C28BB
:102E600078D030DC2B286DD02D286CD02F283BD18A
:102E700047E08048007820B1802168460AF048FD8C
:102E800040B17DA16846FDF781FC69467BA008F052
:102E90005BFFE5E003227BA16846FDF7BAFC002852
:102EA0004FF03A01684608D0FDF766FC01467648C7
:102EB0000078313001F8010CE7E7FDF75DFC5521A2
:102EC00000F8011CE1E73D2870D03E280CD16EE0EF
:102ED000562813D004DC492828D0552804D119E0FD
:102EE000752817D0762809D0002568A12A98FDF703
:102EF0003DFC00906C465DF825009EE00DF016F854
:102F0000AEE0012262A164480BF008F904000CD184
:102F10005FA007E0012261A15F480BF0FFF8040009
:102F200003D15EA00AF098FC044699E006F00AF985
:102F30005C4D48B101F002FE00F57A7068608FE0E8
:102F40005FE007E064E069E001F0F8FD00F57A7009
:102F5000286085E02A981022401C2AA92A90FDF7B3
:102F6000CCFB514F209001E0401C2A902A98017818
:102F70002029F9D0249608E010222AA9FDF7BDFBEC
:102F8000249948552498401C24902A98017811B11E
:102F900024990829F0D33868242220A9006808F071
:102FA00061FE2A9800780028E0D159E03CE02A9898
:102FB0001022401C2AA92A90FDF79FFB209001E0D7
:102FC000401C2A902A9801782029F9D0249608E0FC
:102FD00010222AA9FDF791FB249948552498401CFA
:102FE00024902A98017811B124990829F0D3294610
:102FF000249A209804F0AAFC2A9800780028E1D1AD
:103000002EE02A98401C2A9000F050F82BB0F0BD1A
:103010002A98401C2A9000F067F9F7E72A98401C8C
:103020002A9000F0F9F8F1E70020EFE717A100205F
:10303000FDF79CFB6D1C44F825000028F6D10D4ED1
:103040000024361D0098FDF7C5FB024656F83410E3
:103050000098FDF7DEFB28B1641C0D2CF2D306248A
:103060002046D3E706EBC4006946426828469047ED
:10307000CCE70000C40500203F3A2F000D0A25735D
:1030800000000000303A2F0084000020202C0000B7
:10309000464C4153483A0000041900205553423A27
:1030A000000000004C090020640000202DE9F141DF
:1030B0002DED048B85B009A80DF012F90078612878
:1030C00070D0762875D0062005B0BDEC048BBDE825
:1030D000F881DFF8E880D8F808030DF038FE9FED9E
:1030E000388B53EC182B0DF081FE9FED379B53EC82
:1030F000192B0DF0A5FC9FED361B53EC112B0EF098
:1031000081F89FED351B53EC112B0DF099FC9FEDD1
:10311000341B53EC112B0DF0DFFB0DF0ABFB0EF06D
:103120005BF90646D8F804030F46A0F6FF7040424C
:103130000DF00DFE9FED2C1B53EC112B0DF056FEE8
:1031400053EC182B0DF086FF0DF094FB0EF044F9B4
:1031500004460D46D8F800030DF0F9FD53EC182B8A
:103160000DF044FE53EC192B0DF06AFC9FED201B73
:1031700053EC112B0DF03AFE9FED1F1B53EC112B5E
:103180000DF05EFC0DF076FB0EF026F98DE8F000F8
:1031900041EC100B1AA053EC102B08F0D5FDC82001
:1031A00008F07AFE1B480BF071FE401C91D002E043
:1031B000FFE70CF0BBFE002086E70000400C00207B
:1031C0006666666666660A400000000000FEAF4064
:1031D00052B81E85EB51E83F7B14AE47E17A643F5D
:1031E0000000000000003940166001166001763FC3
:1031F0009A99999999194840333333333333F33FCC
:103200000D252E3166562C252E3166562C252E3155
:103210006627430040060020F1B568460DF060F8CF
:1032200000780026012464280DD006DC44280AD04A
:103230004D2826D0522804D140E06D2821D0722894
:103240003CD00620F8BD20210098FDF795FA214DCD
:10325000009070B92E6011E0401C0A22694600906F
:10326000FDF74BFA296804FA00F0814329600098C1
:1032700010B101780029EFD12868E8B91648066036
:103280001AE020210098FDF777FA144D009070B9EC
:103290002E600FE0401C0A2269460090FDF72DFACF
:1032A000296804FA00F081432960009810B1017880
:1032B0000029EFD104F0FAFA0020F8BD0122D10371
:1032C000074801F035FC01F039FC0649C8300860B8
:1032D000F0E70000800000206C0000208800002043
:1032E000000402404C09002031B568460CF0F8FF9C
:1032F0000078012464280DD006DC44280AD04D282B
:1033000024D0522804D140E06D281FD072283CD030
:10331000062038BD20210098FDF72EFA214D00909F
:103320000AE0401C0A2269460090FDF7E6F9296888
:1033300004FA00F008432860009810B101780029D1
:10334000EFD119481949006808601CE02021009855
:10335000FDF712FA164D009080B94FF0FF3028604B
:103360000FE0401C0A2269460090FDF7C6F9296863
:1033700004FA00F008432860009810B10178002991
:10338000EFD104F093FA002038BD00224FF4004141
:10339000084801F0CDFB01F0D1FB0749C830486077
:1033A000EFE70000800000203C0600206C000020B9
:1033B00088000020000402404C09002010B5D4B061
:1033C000012801DD4B6800E012A313A2694646A85C
:1033D0000AF064FA00281AD10DF1160421460FA054
:1033E00008F0B2FC9DF80800C00602D50DA10EA0A1
:1033F00001E00FA0009908F0A7FC694646A80AF072
:103400005DFA002803D19DF816100029E6D154B0CA
:1034100010BD00002A000000000000000D0A252D4C
:10342000313673002F000000252D38730000000096
:10343000252D3864000000007047000070B51F485B
:103440000BF024FD1D4C054620680068406930B92A
:1034500008210120FCF784FF2168096848611B2DC1
:103460000BD0681C20680068406912D0416801B325
:10347000016845EA012101601DE02068006840699B
:10348000056001F05BFB21680A3009684969486002
:1034900011E0406878B101F051FB22681168496978
:1034A0004B68984207D9002048601068406900685E
:1034B00070BD284670BD4FF0FF3070BD4006002043
:1034C000002200F001B8000030B50E4B0546012087
:1034D0009C7B022C15D2987B00241C54987B03EB18
:1034E000800045609D7B03F10C002A54987B421CB0
:1034F0009A73303008703A2048702F208870CC7052
:10350000002030BDD418002030B587B00C460546E9
:1035100001F05CF90020009002200295CDE9034003
:1035200005A9684601F0BEF8044601F007F907B0A6
:10353000204630BD002229B101291AD002291BD012
:103540004FF440720E490B6823F440730B600B6814
:1035500013430B600A6822F0F8020A600A6802232B
:1035600003EBC00002430A60086840F48030086042
:1035700070474FF48072E5E74FF40072E2E7000015
:10358000103C02401348016889050FD5016821F4F9
:1035900000710160016841F400610160016821F47B
:1035A00000610160016841F4007101600168490532
:1035B0000FD5016821F480610160016841F48051F8
:1035C0000160016821F480510160016841F480616B
:1035D00001607047003C024008490A6822F44072CA
:1035E0000A600A6842F004020A600A684FF48033F5
:1035F00043EA002002430A6070470000103C02408A
:1036000070B50C460A490546F22008602868A042B9
:103610000CD001F0DBF8224600232946022001F0FD
:1036200097F806460228F6D001F088F8304670BDBB
:103630000C3C0240064A136823F44073136013687D
:103640001360136843F001031360017070470000BA
:10365000103C0240094910B50C6824F440740C6019
:103660000C6844F440740C600C6844F001040C6075
:103670000260BFF36F8F436010BD0000103C02403A
:10368000074A136823F440731360136843F480738C
:103690001360136843F0010313600180704700005A
:1036A000103C0240074A136823F440731360136808
:1036B00043F400731360136843F001031360016067
:1036C00070470000103C024017490868C2061748BE
:1036D00005D5C26942F01002C26110220A600A6870
:1036E000920605D5C26942F00802C26120220A6032
:1036F0000A68520605D5C26942F00402C26140223E
:103700000A600A68120605D5C26942F00202C26167
:1037100080220A600A68920705D5C26942F0200239
:10372000C2610220086070470C3C024084180020EF
:1037300070B5114904460020C86101F0FFF9064642
:103740000E4D09E0601C07D024B101F0F7F9801B91
:10375000A04201D9032070BD2868C003F2D42868B4
:10376000C00701D001202860286810F0F200F2D0D4
:10377000FFF7AAFF012070BD841800200C3C024016
:1037800078B50024009490F83C20012A19D0012239
:1037900080F83C200A6807230568092A13D9EE68D7
:1037A0000A3A02EB420293409E43EE600B788A682D
:1037B0000A3B03EB43039A400368DD682A43DA605F
:1037C00010E0022078BD2E6902EB420293409E4336
:1037D0002E610B788A6803EB43039A4003681D69E6
:1037E0002A431A614A681F23072A13D205686E6BA1
:1037F000521E02EB820293409E436E630B790A884D
:103800005B1E92B203EB83039A4003685D6B2A430D
:103810005A6327E005680D2A12D22E6BD21F02EBE5
:10382000820293409E432E630B790A88DB1F92B27B
:1038300003EB83039A4003681D6B2A431A6311E06C
:10384000EE6A0D3A02EB820293409E43EE620B79E0
:103850000A880D3B92B203EB83039A400368DD6A4A
:103860002A43DA62164B0568144A9D4206D10D6858
:10387000122D03D1556845F48005556005689D42B9
:1038800018D10B68102B01D0112B13D1536843F4BE
:1038900000035360096810290CD10A490A4A0968D3
:1038A000B1FBF2F101EB8101490000E0491E0091FA
:1038B0000029FBD180F83C40002078BD0023014066
:1038C000002001403C00002040420F0030B51B4862
:1038D0000021C0F80413C0F80013C0F8081300BF9B
:1038E00001EB410300EB4302D0F808439588491CE3
:1038F0002C44C0F8084330F81330D0F80043802936
:103900002344C0F800335288D0F804331A44C0F876
:103910000423E5D3D0F80823B2FBF1F2C0F8082362
:10392000D0F80023B2FBF1F2C0F80023D0F8042352
:10393000B2FBF1F1C0F8041330BD0000400C0020D0
:103940007047704770B504004FF0000503D0206C3D
:10395000002610B107E0012070BD204600F01CF8E1
:10396000666484F83C60206CC00610D4206C20F49F
:10397000885040F0020020642046FFF79BF8666400
:10398000206C20F0020040F00100206400E00125DE
:1039900084F83C60284670BDF0B587B00646142117
:1039A0006846FDF71AF81F493068884237D11E482B
:1039B0000025016841F480710160006800F48070A6
:1039C000059019481438016841F00401016000684D
:1039D000032700F0040000970590CDE901756946C2
:1039E000124800F0BDFF134C1148C4E90005001552
:1039F000A560C4E90350400060618000A0614011EF
:103A0000C4E9070504206062C4E90A7520462563FD
:103A100000F0A4FD08B1FFF70FFDB463A66307B083
:103A2000F0BD000000200140443802400008024080
:103A30001064024088100020F8B50E4600210446AC
:103A4000009190F83C00012807D0012084F83C0048
:103A500020688368DB0702D011E00220F8BD83688C
:103A600043F0010383603748374B0068B0FBF3F045
:103A700000EB400000E0401E00900028FBD12068D1
:103A80008368DB075CD0236C40F20165AB4343F4F1
:103A9000807323644068400505D5206C20F40050F5
:103AA00040F480502064206CC00404D5606C20F089
:103AB0000600606400E0616484F83C10A16B244857
:103AC000224DC863A16B23480864A16B2248C864D7
:103AD00021686FF0220008602068416841F0806131
:103AE00041602068816841F48071816021681346DB
:103AF00032464C31A06B00F09BFD68681749C00648
:103B0000206806D088421BD1816811F0405F13D035
:103B100016E08842F8D0124A904203D1D1F804232B
:103B2000D206F1D00F4A90420AD1D1F8041301F025
:103B30001F011029E8D303E0816841F080418160D2
:103B40000020F8BD3C00002040420F00002301404F
:103B5000252A0008A92A0008932A0008002001400D
:103B6000002101400022014090F82020012A07D0C6
:103B7000022A05D0416A41F4802141620120704748
:103B8000006842690A43426100207047F0B590F82E
:103B900020500468A468012D05D0022D03D0416A8D
:103BA00041F4802153E014F0406F01D1E5004BD582
:103BB000C4F30164022C03D9416A41F4000146E0D8
:103BC0000125A5401D608D684FF4C0739DB1CE687E
:103BD00035434E6845EAC605066803EB0417F55100
:103BE0004FF4C275076805EB04150E697E51097D17
:103BF000012905D009E00E88CD6845EA4655EBE776
:103C000001684E5946F480764E511179D2F805502C
:103C10004FF4C67641EA0525016806EB04168D517E
:103C20001178D2F801204FF4C47541EA02210268EC
:103C300005EB04155151006803EB0411425842F0A2
:103C4000010242500020F0BD416A41F4001141627E
:103C50000120F0BD10B590F82020012A07D0022ADB
:103C600005D0416A41F480214162012010BD3B48EA
:103C7000D0F8002242F00102C0F80022D0F8002261
:103C800022F47C52C0F80022D0F800224B6A42EAAB
:103C90000322C0F800220A7D02F01F0301229A408D
:103CA000D0F81C329343C0F81C32CB69B3B9D0F8BA
:103CB0000C329343C0F80C328C894B6864F31F4379
:103CC0004C6900EBC404C4F840320C890B6864F3FF
:103CD0001F434C6900EBC404C4F84432CB69012B88
:103CE00016D1D0F80C321343C0F80C320C884B6854
:103CF00064F31F434C6900EBC404C4F840320C89E0
:103D0000CB6864F31F434C6900EBC404C4F844322D
:103D10008B69002BD0F804320ED01343C0F8043264
:103D20000B69002BD0F8143208D01343C0F81432BA
:103D3000096A012904D008E09343EFE79343F5E7CC
:103D4000D0F81C121143C0F81C12D0F8001221F058
:103D50000101C0F80012002010BD00000064004006
:103D6000704730B590F82040012C05D0022C03D0CC
:103D7000416A41F480215DE00468002955D024693E
:103D8000A40754D04FF4D874056804EB01142D59DE
:103D900015F00405956005682D594ED0ED08556065
:103DA00005682C5904F00204D4604FF4DA740568F5
:103DB00004EB01142D5905F00F05156105682D5907
:103DC000C5F30725956105682C59240C54614FF4FF
:103DD000DC72046802EB0112A4581C700468A45839
:103DE000240A5C700468A458240C9C700468A258CF
:103DF000120EDA704FF4DE72046802EB0112A4585E
:103E00001C710468A458240A5C710468A458240C2A
:103E10009C710468A258120EDA71006881B10169C0
:103E200041F020010161002030BDE468A8E7416A4B
:103E300041F400114162012030BD6D0D1560AFE706
:103E4000C16841F02001C160EDE72DE9F05F054652
:103E5000006800244669D0F804908768D0F80CB058
:103E6000D0F810A0D0F81880F10748D0F90714D086
:103E700001218160B80703D5284600F030FA0CE034
:103E8000780702D54FF4006407E0380702D54FF4F5
:103E9000805402E0284600F021FAF80516D529687A
:103EA0004FF480708860B80503D5284600F01AFAF0
:103EB0000CE0780502D544F4005407E0380502D53B
:103EC00044F4804402E0284600F00BFAF80316D5CB
:103ED00029684FF480308860B80303D5284600F085
:103EE00005FA0CE0780302D544F4004407E03803F7
:103EF00002D544F4803402E0284600F0F5F930079A
:103F000007D55FEACB6004D52968102044F400741B
:103F1000C86070074FF0080707D55FEA0B7004D53B
:103F20002868C760284600F079F9B00706D52868E8
:103F3000C068800702D0284600F072F9700607D5E5
:103F40005FEACA6004D52968102044F480640861DF
:103F5000B00607D55FEA0A7004D5286807612846CD
:103F600000F08CF9F00606D528680069800702D0B9
:103F7000284600F084F9B00308D55FEAC96005D58A
:103F8000296810204860284600F07BF9F00307D527
:103F90005FEA097004D528684760284600F0BEF93A
:103FA000300446D55FEA497040D5F00504D55FEA94
:103FB000C87001D044F00104B00504D55FEA8870F0
:103FC00001D544F00204700504D55FEA487001D5BC
:103FD00044F00404300529D518F0700F26D008F0FD
:103FE0007000402815D006DC102809D020280AD0FF
:103FF000302816D10AE050280ED0602811D10EE0EA
:1040000044F008040DE044F010040AE044F02004F9
:1040100007E044F0400404E044F0800401E044F48C
:1040200080742868816921F0700181612968042009
:104030004860002C05D0686A204368622846FFF774
:104040008FFEBDE8F09F70B5040003D094F8200007
:1040500010B104E0012070BD204600F081F8206816
:10406000016821F00201016000F068FD05460526A7
:1040700004E000F063FD401B0A2811D82068406866
:104080008007F6D42068016841F00101016000F06A
:1040900055FD05460BE000F051FD401B0A2806D9EE
:1040A000606A40F40030606284F82060D2E72068E3
:1040B0004068C007EFD0207E0128206801683DD00D
:1040C00021F080010160607E01282068016838D0FD
:1040D00021F040010160A07E01282068016833D0F2
:1040E00021F020010160E07E0128206801682ED0C7
:1040F00041F010010160207F01282068016829D06B
:1041000021F008010160607F01282068016824D047
:1041100021F004010160D4E902010843D4E904124A
:10412000114308436168491E08432168C8610020A3
:104130006062012084F82000002070BD41F0800101
:10414000C0E741F04001C5E741F02001CAE721F096
:104150001001CFE741F00801D4E741F00401D9E7AD
:1041600010B586B0044614216846FCF736FC284991
:104170002068884249D12748016841F08061016088
:10418000016801F080610591016841F000710160F2
:10419000006800F0007005901E481038016841F07A
:1041A000020101600068694600F00200059042F2D9
:1041B0002000009002200190012002900320039033
:1041C00009200490144800F0CBFB002203213F207B
:1041D00000F038FF3F2000F028FF0022022140209D
:1041E00000F030FF402000F020FF0022022141209B
:1041F00000F028FF412000F018FF00220321422098
:1042000000F020FF422000F010FF06B010BD0000BB
:10421000006800404038024000040240704700003F
:1042200010B58AB007AB1C466A460021FFF799FD1E
:10423000009940F21620A1F50072153A08D00A46FE
:104240000B4982420CD10B48406A48620AB010BD4B
:10425000009009AB224669460748FFF797FCF5E74F
:10426000886924226946006807F0FCFCEEE700003C
:104270004C00002000000140940F00207047FFF721
:10428000CFBF704770B5044690F82000012804D0D5
:10429000606A40F40020606218E0022084F8200088
:1042A0002068016821F00101016000F047FC05462B
:1042B0000EE000BF00F042FC401B0A2808D9606AEB
:1042C00040F400306062052084F82000012070BDB9
:1042D00020684068C007EDD1606270BD704700F093
:1042E00005B8704700F002B870470000094800B5F3
:1042F000806989B020224068694607F09DFC00284B
:1043000005D008AB6946044806AAFFF73FFC09B090
:1043100000BD00004C000020940F0020704730B515
:104320000223437103689C6844F001049C600023ED
:1043300004E0056851F823402C605B1C9342F8D3DD
:104340000168096801224271084630BD10B50400B9
:1043500002D0607910B106E0012010BD002020716C
:10436000204600F005F801206071002010BD00001B
:1043700008B500680649884208D10648016841F43A
:1043800080510160006800F48050009008BD00007A
:10439000003002403038024090F83510022903D036
:1043A0008021416501207047052180F835100068A3
:1043B000016821F001010160002070472DE9F843F8
:1043C00004464FF00009CDF8009063484FF41651B1
:1043D000A56D0068B0FBF1F72E6894F85C1008201A
:1043E00000FA01F131420FD021680A6852070BD55B
:1043F0000A6822F004020A6094F85C108840A86001
:10440000606D40F00100606594F85C104FF00108A9
:1044100008FA01F0304208D021684969090604D53C
:10442000A860606D40F00200606594F85C100420A4
:104430008840304208D021680968890704D5A860FF
:10444000606D40F00400606594F85C1010208840B6
:10445000304218D021680968090714D5A86020687F
:104460000168490304D50068000308D5A16C07E082
:104470000168C90503D4016821F008010160216CBD
:1044800009B12046884794F85C10202088403042CB
:1044900031D021680968C9062DD5A86094F8350087
:1044A00005282068016806D0490347D50068000345
:1044B0001DD4616C1CE021F0160101602068416987
:1044C00021F080014161206C08B9A06C20B1206806
:1044D000016821F00801016094F85C103F208840D9
:1044E000A86084F8349084F83580216D1FE0E16B7A
:1044F00009B120468847606D00282BD0606DC00749
:1045000014D0052084F835002068016821F00101ED
:1045100001600098401C0090B84203D820680068F1
:10452000C007F6D184F8349084F83580E16C002916
:1045300010D001B02046BDE8F04308470168C90526
:10454000D5D4016821F01001016084F8349084F81A
:104550003580CCE7BDE8F8833C0000202DE9F04130
:10456000044600F0EBFA06465CB1002584F83450AE
:10457000022084F835002068016821F00101016003
:104580000DE00120BDE8F08100F0D8FA801B05287D
:1045900005D920206065032084F83500F2E7206803
:1045A0000068C007F0D12268116820480140D4E9B2
:1045B00001031843D4E903363343184363691843AE
:1045C000A3691843E3691843236A18430843616ADF
:1045D000042903D1D4E90B13194308431060206860
:1045E0004069666A20F0070130460E43012704281F
:1045F0000CD1A06A0643E06A40B12046FEF742FBB8
:1046000020B14020606584F83570BAE720684661C3
:104610002046FEF723FB94F85C203F219140816007
:10462000656584F835700020ACE700003F8010F02D
:104630002DE9F0410446866D90F8340000250128EC
:104640000DD0012084F8340094F835700020012F3B
:1046500007D084F8340002252846BDE8F081022006
:10466000FBE7022784F8357060652046FEF734FBCF
:1046700094F85C103F208840B0602068016841F0E9
:1046800016010160206C20B12068016841F008012A
:1046900001602068016841F001010160DCE707F07A
:1046A000FBBB00002DE9F047044622480F46017E7F
:1046B00001290AD00121804601764CF25039484642
:1046C000FFF736F8020003D02FE00220BDE8F087A4
:1046D0004FF0FF3038602068174D012801D0A668E0
:1046E0001CE0207C6168FEF777FF4846FFF720F862
:1046F0000246286820F00400286014E0217C30463F
:10470000FEF718FF4846FFF713F80200286820F06C
:10471000FA00286001D03E6005E0761CD4E9021062
:104720000844B042EAD8FEF72DFF002188F818109F
:104730001046CBE784180020103C02400348016873
:1047400041F000410160002070470000103C024031
:104750002DE9F0471B4E05461446307E1F4689461C
:10476000012808D0012030764CF250384046FEF740
:10477000DFFF18B114E00220BDE8F0879DB1012DE4
:1047800016D0022D19D022463B464846FEF762FF5E
:104790004046FEF7CDFF0C490A6822F001020A608C
:1047A00000213176E8E7E1B24846FEF743FFEFE744
:1047B000A1B24846FEF764FFEAE721464846FEF705
:1047C00071FFE5E784180020103C024007490020F3
:1047D0000A68002A09DA054A054B0C3A1360054BB2
:1047E00013600968002900DA01207047103C02407C
:1047F00023016745AB89EFCD2DE9F04F0022DFF8AB
:1048000038B101264FF00F0906FA02F401EA040359
:10481000A3427DD122F003075F44D7F808889507AB
:104820004FEA157C09FA0CFA0AEA0805DFF80C8150
:10483000404502D14FF0000832E0DFF804814045E6
:1048400002D14FF001082BE0DFF8F880404502D19B
:104850004FF0020824E0DFF8F080404502D14FF02D
:1048600003081DE0DFF8E480404502D14FF0040862
:1048700016E0DFF8DC80404502D14FF005080FE07C
:10488000DFF8D080404502D14FF0060808E0DFF89D
:10489000C880404502D14FF0070801E04FF00808FA
:1048A00008FA0CF8A84522D12C4DD5F800C02CEA06
:1048B000030CC5F800C005F1040CDCF800509D4362
:1048C000CCF800500CF10405D5F800C02CEA030C1C
:1048D000C5F800C02D1DD5F800C02CEA030CC5F8A2
:1048E00000C0D7F8085825EA0A05C7F8085805682F
:1048F00057000323BB409D430560D50800EB8505A9
:10490000D5F820C057074FEAD76809FA08F700E042
:104910000CE02CEA070CC5F820C0C5689D43C560B3
:104920004568A543456084689C438460521C102AF6
:10493000FFF46AAFBDE8F08F003001400000024094
:104940000004024000080240000C02400010024037
:104950000014024000180240001C0240003C0140CC
:104960002DE9F84F00224FF0010803254FF00F0EFC
:104970000B6808FA02F42340A3426ED14E68012E60
:1049800005D0022E03D0112E01D0122E12D186682E
:104990004FEA420C05FA0CF7BE43CF6807FA0CF752
:1049A000374387604668A6430C79C4F300149440EB
:1049B00034434460C668570005FA07FC8C6826EA51
:1049C0000C06BC403443C4604C68022C01D0122C4D
:1049D00013D1D40800EB8404A346D4F820905407E4
:1049E0004FEAD46A0EFA0AF629EA06090E6906FAAF
:1049F0000AF646EA0906CBF8206006680C7926EA32
:104A00000C0604F00304BC40344304604C68E4002A
:104A100065D5364C266846F480462660246822F028
:104A2000030604F480440094314C3444A446D4F882
:104A300008489607370F0EFA07F6B4432D4EB042DA
:104A400001D1002624E02C4EB04201D101261FE006
:104A50002A4EB04202D102261AE040E0284EB0426F
:104A600001D1032614E0274EB04201D104260FE005
:104A7000254EB04201D105260AE0244EB04201D1B4
:104A8000062605E0224EB04201D1072600E00826A6
:104A9000BE402643CCF808681E4E34684F689C43DD
:104AA000FF0300D51C4334601A4C241D26684F6850
:104AB0009E43BF0300D51E432660164E0836346859
:104AC0004F689C43FF0200D51C433460114E0C36E6
:104AD00034684F689C43BF0200D51C433460521CAD
:104AE000102AFFF445AFBDE8F88F000044380240BB
:104AF0000030014000000240000402400008024073
:104B0000000C024000100240001402400018024055
:104B1000001C0240003C01400069084000D0012018
:104B20007047426931EA020200D10904816170478D
:104B30000AB1816170470904FBE700000148806801
:104B40007047000030000020D0F8C00204F0D8BB4D
:104B5000D0F8C00204F0DEBB006805F0B9BD006803
:104B600005F0BABD01EB810100EBC10090F85C00DB
:104B7000704701EB810100EBC100C06C704710B5BC
:104B8000044690F8B802012809D0012084F8B80240
:104B9000206805F0ACFD002084F8B80210BD0220AA
:104BA00010BD2DE9FE430546DDE90B7095F8B842CE
:104BB000DDF828C0012C1CD001EB81044FF0010965
:104BC00005EBC40485F8B892002684F83D6084F8AB
:104BD0003830A4F8400084F8391084F83F7002F0AF
:104BE0007F0884F83A805FEA026805D584F83B9034
:104BF00004E00220BDE8FE8384F83B6084F83CC0FA
:104C0000CDF800C0CDE90170286805F0D1FD85F828
:104C1000B862EFE770472DE9F0030E46DDE906C9FB
:104C2000DDE9087401EB860100EBC101022581F882
:104C30003B2081F83F30BCF1000F0AD081F8425090
:104C400000246BB1012B2DD0022B12D0032B16D1D7
:104C50000FE04FF0030881F8428081F83D40EFE714
:104C6000BCF1010F0BD152B9CFB9012281F851200B
:104C700003E0A2B191F85020A2B181F84250C1E9FD
:104C8000119781F85C40CC6481F8396081F85D400F
:104C9000027C0068BDE8F003383105F005BE91F8EC
:104CA0005120E9E781F84240E9E700002DE9F041B1
:104CB00004460068064605F016FD01287ED12068EE
:104CC00005F021FF002879D0206805F01CFF800244
:104CD00003D521684FF400104861206805F013FFE8
:104CE000C00203D521684FF480104861206805F0A8
:104CF0000AFF400103D521684FF0806048612068B9
:104D000005F001FF800702D5216802204861206874
:104D100005F0F9FE80000ED521684FF00050486183
:104D2000D6F84004C00706D12046FFF711FF012145
:104D3000206805F0CDFE206805F0E5FEC00102D533
:104D4000204601F095FD206805F0DDFE000705D541
:104D5000204600F0CAF8216808204861206805F064
:104D6000D2FE800123D5206805F09AFD0746002574
:104D70004FF0010814E000BF05F00F0108FA01F040
:104D800038420CD006EB4510D0F80005E9B200041B
:104D9000204602D501F00EFB01E001F047FC6D1C3E
:104DA000A068A842E8D821684FF0007048612068E8
:104DB00005F0A9FEC043C0060ED400E00CE0206858
:104DC000816921F010018161204601F09BFD20687E
:104DD000816941F010018161BDE8F08170B58AB050
:104DE000040005D094F8B9022568002618B107E040
:104DF00001200AB070BD84F8B862204600F028F89F
:104E0000032084F8B902E86BC00500D4266120684D
:104E100005F008FC04F1100128220D466846FBF756
:104E200088FD94E80F0005F0A7FB0121206805F03C
:104E300095FE282229466846FBF77BFD94E80F0083
:104E400005F0DAFD012084F8B9020020D1E7000066
:104E500010B586B0044614216846FBF7BEFD2068F5
:104E6000B0F1A04F2FD119480021026842F0010291
:104E70000260006800F0010005904FF4C0500090FF
:104E80000220CDE90101032003900A200490694625
:104E90000F48FFF765FD0D48001D016841F08001D6
:104EA00001600A481430016841F4804101600068E3
:104EB000002200F4804005901146432000F0C2F823
:104EC000432000F0B2F806B010BD000030380240B8
:104ED00000000240D0F8C00204F0AEBAD0F8C00220
:104EE00004F0AEBA006805F020BED0F8C00204F0AD
:104EF0005DBA10B5044690F8B80201280DD0012023
:104F000084F8B802206805F0BBFB0121206805F099
:104F1000A1FB002084F8B80210BD022010BD10B51E
:104F2000044690F8B802012809D0012084F8B8029C
:104F3000206805F02BFE002084F8B80210BD022086
:104F400010BD0020704700684AF6AA2101600020C9
:104F50007047000002488168027811448160704700
:104F6000300000200B4810B5016841F40071016069
:104F7000016841F480610160016841F48071016061
:104F8000032000F07FF8032000F006F800F024F87A
:104F9000002010BD003C024070B50D4D04464FF49A
:104FA0007A712878B1FBF0F00A490968B1FBF0F09A
:104FB00000F0B2FB48B9102C07D200222146501E47
:104FC00000F040F800206C6070BD012070BD000052
:104FD000300000203C0000200A4808B5016841F478
:104FE00080410160006800F4804000900548001F87
:104FF000016841F080510160006800F0805000902D
:1050000008BD00004438024000280DDB00F01F02FC
:10501000012191404009800000F1E020C0F880119A
:10502000BFF34F8FBFF36F8F7047002809DB00F08D
:105030001F02012191404009800000F1E020C0F8EA
:1050400000117047F0B40E4B1B680C46C3F30223EB
:10505000C3F10705042D00D90425191D072901D224
:10506000002300E0DB1E012606FA05F1491E21405F
:1050700099409E40761E16403143F0BC06F0B8BC05
:105080000CED00E0064900F0070208684FF6FF0348
:10509000184040EA0220034A1043086070470000AD
:1050A0000CED00E00000FA052DE9F0470E46050082
:1050B00065D0DFF81481D8F80000F7B200F00F00D7
:1050C000B04207D288F80070D8F8000000F00F0056
:1050D000B04254D128683D4C810712D5400703D512
:1050E000206840F4E05020602878000703D520684D
:1050F00040F4604020602068A96820F0F000084378
:1051000020602878C0072DD0304968680839012808
:1051100012D0022813D0032811D00968890700296A
:105120002DDA216821F0030101432160FFF706FD1C
:10513000814641F2883A0EE009688903EFE7096881
:105140008901ECE7FFF7FAFCA0EB0901514502D910
:105150000320BDE8F0872068696800F00C00B0EB20
:10516000810FEFD1D8F80010404601F00F01B14295
:1051700007D90770006800F00F00B04201D001208D
:10518000E7E72878400705D52068E96820F4E05073
:10519000084320602878000706D52068296920F494
:1051A000604040EAC100206000F0D8F82168084A59
:1051B000C1F30311515CC840064908600648006805
:1051C000FFF7EAFE0020C4E7003C02400838024036
:1051D000F41401083C000020340000202DE9F041C7
:1051E000FFF7ACFC444C0546206840F0010020600D
:1051F00005E000BFFFF7A2FC401B022847D820684B
:105200008007F7D5206840F080002060FFF796FC0B
:105210000546394E00200836306041F2883704E0F8
:10522000FFF78CFC401BB84231D8306810F00C0FEF
:10523000F6D1FFF783FC0546206820F4502020605B
:1052400005E000BFFFF77AFC401B64281FD82068E8
:105250008003F7D4FFF772FC0546206820F08070C9
:10526000206004E0FFF76AFC401B02280FD820688A
:105270008001F7D4FFF762FC0546206820F08060CB
:10528000206007E0FFF75AFC401B022802D90320E8
:10529000BDE8F08120680001F4D417491748091DC2
:1052A0000860154916488431086013480C300168BD
:1052B00021F4F8510160016821F400510160016896
:1052C00041F41F010160016841F4001101600A48C6
:1052D0007430016821F001010160016841F08071C2
:1052E000016009490748086008480068FFF754FE54
:1052F0000028CDD00120CBE7003802401030000458
:10530000003000200024F4003C0000203400002085
:1053100001480068704700003C000020044805492F
:1053200000680968044AC1F38221515CC840704793
:105330003C000020083802400415010804480549D3
:1053400000680968044AC1F34231515CC8407047A3
:105350003C0000200838024004150108154810B52B
:10536000006810F00C02144813D04110042A0FD02A
:10537000082A0ED10F4C241F2268236802F03F0236
:105380005B0207D52068C0F38810A0FB010106E08E
:10539000084610BD2168C1F38811A1FB000100235C
:1053A000FBF748F82168C1F30141491C4900B0FBF3
:1053B000F1F010BD083802400024F4002DE9F84F48
:1053C00004006ED02078DFF83C93C007A9F10405F3
:1053D0004AD009F104000168C1F38101012908D014
:1053E0000068C0F3810002280AD1D9F80000400209
:1053F00006D52868800337D560680028E1D033E0FF
:105400006068B0F5803F10D0B0F5A02F286810D0AC
:1054100020F480302860286820F4802028606068AC
:10542000A8B1FFF78BFB06460DE0286840F48030FA
:10543000F4E740F480202860F7E700BFFFF77EFB29
:10544000801B642873D828688003F7D50CE0FFF729
:1054500075FB064605E000BFFFF770FB801B642864
:10546000F0D828688003F7D42078DFF89C82800782
:105470004FF0000A3ED5A348001D016811F00C0F43
:1054800008D00068C0F3810002280BD1D9F80000D1
:10549000400207D42868800716D5E068012800D1AB
:1054A00012E02BE1E068B8B10120C8F80000FFF776
:1054B00045FB064605E000BFFFF740FB801B0228C6
:1054C000C0D828688007F7D52868216920F0F8003F
:1054D00040EAC10028600DE0C8F800A0FFF72EFBED
:1054E000064604E0FFF72AFB801B02281FD8286825
:1054F0008007F7D42078000722D5824E834861695F
:10550000703671B101210160FFF718FB074604E016
:10551000FFF714FBC01B022809D830688007F7D5B5
:105520000EE0C0F800A0FFF709FB074605E082E0A7
:10553000FFF704FBC01B02287DD830688007F7D432
:105540002078400768D5DFF8BCB100270BF13C0B91
:10555000DBF80000C0000BD4DBF8001041F08051F4
:10556000CBF80010DBF80000012700F0805000901D
:10557000674E3068C00510D4306840F480703060E9
:10558000FFF7DCFA009005E0FFF7D8FA0099401A1F
:10559000022850D83068C005F6D55A4EA0686C363F
:1055A00001280FD00528306810D020F001003060AD
:1055B000306820F004003060A068B8B1FFF7BEFA90
:1055C00000900FE0306840F00100F4E740F0040084
:1055D0003060F7E7FFF7B2FA0099411A41F28830DC
:1055E000814266D830688007F4D50EE0FFF7A6FA4E
:1055F000009007E0FFF7A2FA0099411A41F28830C3
:10560000814256D830688007F4D42FB1DBF80010FF
:1056100021F08051CBF80010A069C8B33949091DA9
:105620000968C1F3810102294AD00228504607D0F7
:10563000C8F8600000E03CE0FFF780FA04463BE079
:105640004746C8F86000FFF779FA064605E000BF54
:10565000FFF774FA801B02282BD828688001F7D442
:10566000D4E907010843A16A2A4A490802EB01412B
:10567000626A41EA8211084394F82C1040EA016101
:10568000C9F8001001203866FFF758FA044606E012
:1056900036E000BFFFF752FA001B022809D828683D
:1056A0008001F7D52CE000BFFFF748FA001B022865
:1056B00002D90320BDE8F88F28688001F4D41FE0E8
:1056C0000128F7D0D9F80000E26900F48001914286
:1056D00014D1226A00F03F0191420FD147F6C07108
:1056E000626A0140914209D1A26A00F440319142BC
:1056F00004D1E16A00F07060884201D00120D9E74E
:105700000020D7E70438024000004742800E47429D
:10571000007000400000FFFF10B5401EB0F1807F18
:1057200001D3012010BD4FF0E02460610F2160170C
:1057300006F05EF90020A06107202061002010BD66
:105740007047704770B590F83C20012A32D0012490
:1057500080F83C40022280F83D2003685A689D682A
:1057600022F070060A6832435A60134B02689A426C
:1057700014D0B2F1804F11D0104B9A420ED0104B82
:105780009A420BD00F4B9A4208D00F4B9A4205D049
:105790000E4B9A4202D00E4B9A4204D1496825F032
:1057A00080031943916080F83D40002180F83C104F
:1057B000084670BD022070BD00000140000400409A
:1057C00000080040000C004000040140004001407F
:1057D0000018004010B50446022084F83D002068FF
:1057E000016A41F21112114207D1016A921011426D
:1057F00003D1016821F001010160204600F021F889
:10580000002084F83D0084F83C0010BD10B5040071
:1058100003D094F83D0010B107E0012010BD002036
:1058200084F83C00204600F00DF8022084F83D008A
:10583000211D206802F07AF9012084F83D00002043
:1058400010BD70477047022180F83D1001688A68DA
:1058500002F00702062A03D00A6842F001020A6039
:10586000012180F83D1000207047704738B501686D
:105870000024B1F1804F06D1017F08292CD11749AE
:105880000A6C521C0A64164A0168914200D1154CF8
:10589000154A914201D1134CCC34002C1CD0017F0D
:1058A00001290AD004290ED0082915D10C2100F0B5
:1058B000D5FB0090D4F888000AE0002100F0CEFB70
:1058C0000090206804E0082100F0C8FB0090606CA4
:1058D0000422694606F0C6F938BD00004C000020DD
:1058E00000040040E803002000080040704700006A
:1058F0002DE9F041044690F83C000D4601283DD0CA
:10590000012684F83C60022084F83D00AAB3042AF2
:1059100046D02068082A55D0D5E90027E968036AEF
:1059200023F480530362D0F81CC0036A2CF4407C3B
:105930004CEA07274FF6FF7C27F470470CEA013149
:1059400039434FF4204723F4204307EA02321A4335
:10595000C16102622068C16921F44061C1612068AF
:10596000C169AA6841EA0221C0F81C1084F83D60B0
:10597000002084F83C00BDE8F08101E00220FAE755
:10598000D5E90012EB68206802F088FA2068816986
:1059900021F00C01816120688169AA6811430FE040
:1059A000D5E90012EB68206802F0B8FA2068816936
:1059B00021F44061816120688169AA6841EA02217D
:1059C0008161D3E7D5E9002C2F7B016A21F4807136
:1059D0000162C169036A21F0030141EA0C0121F06F
:1059E000F00C39074FF420674CEA116123F420636F
:1059F00007EA02221A43C16102622068C16921F0EC
:105A00000C01C1612068C169AA681143ACE710B5F7
:105A1000040003D094F83D0010B107E0012010BD50
:105A2000002084F83C00204600F00CF8022084F8A6
:105A30003D00211D206802F079F8012084F83D0026
:105A4000002010BD10B586B0044614216846FAF750
:105A5000C4FF2068B0F1804F28D11548016841F09B
:105A600001010160006800F0010005901048103845
:105A7000016841F0020101600068032100F00200AA
:105A800005904FF400600090022001900120CDE9C4
:105A90000201049069460748FEF762FF00220321D5
:105AA0001C20FFF7CFFA1C20FFF7BFFA06B010BD8D
:105AB00040380240000402402DE9F041044690F8CD
:105AC0003D000E46022846D094F83D00012805D13D
:105AD0000AB9002B5FD1022084F83D003148324DD5
