:020000040800F2
:10000000D820002099010008A1010008A3010008E0
:10001000A5010008A7010008A901000800000000D0
:10002000000000000000000000000000AB0100081C
:10003000AD01000800000000AF010008E910000851
:10004000B3010008B3010008B3010008B3010008C0
:10005000B3010008B3010008B3010008B3010008B0
:10006000B3010008B3010008B3010008B3010008A0
:10007000B3010008B3010008B3010008B301000890
:10008000B3010008B3010008B3010008B301000880
:10009000B3010008B3010008B3010008B301000870
:1000A000B3010008B3010008B3010008B301000860
:1000B000B3010008B3010008B3010008B301000850
:1000C000B3010008B3010008B3010008B301000840
:1000D000B3010008B3010008B3010008B301000830
:1000E000B3010008B3010008B3010008B301000820
:1000F000B3010008B3010008B3010008B301000810
:10010000B3010008B3010008B3010008B3010008FF
:10011000B3010008B3010008B3010008B3010008EF
:10012000B3010008B3010008B3010008B3010008DF
:10013000B3010008B3010008B3010008B3010008CF
:10014000B3010008B3010008B3010008B3010008BF
:10015000B3010008B3010008B3010008B3010008AF
:10016000B3010008B3010008B3010008B30100089F
:10017000B3010008B3010008B3010008B30100088F
:10018000B3010008DFF80CD000F0D0F800480047B9
:10019000E51D0008D8200020064880470648004793
:1001A000FEE7FEE7FEE7FEE7FEE7FEE7FEE7FEE727
:1001B000FEE7FEE7391100088501000840EA010367
:1001C0009B0703D009E008C9121F08C0042AFAD20D
:1001D00003E011F8013B00F8013B521EF9D27047D1
:1001E00010B5044604E00B7800F8013B03B1491C4C
:1001F000521EF8D2204610BD30B5044600200346FA
:1002000000E05B1C934203D2E05CCD5C401BF8D065
:1002100030BD2DE9F05F93460F4680460446002628
:1002200001F01AF8D0F80090824614F8015B2DB165
:1002300000F028F80068405DC007F6D12B2D02D0F1
:100240002D2D1AD0641E0021CAF800105A463946D6
:10025000204600F01BF8014627B13868A04201D1C2
:10026000C7F80080DAF80000022809D0CAF8009028
:10027000700505D54842BDE8F09F46F48066E2E788
:100280000846F8E700487047F02400082DE9F05FC1
:1002900082460078002715468B460AF10104B946CC
:1002A000302801D09DB113E014F8010B0127782804
:1002B00003D0582801D045B10AE00DB1102D07D167
:1002C0000027102514F8010B02E0082500E00A259C
:1002D0000026B0460EE005FB080005FB06F10127ED
:1002E00001EB10461FFA80F8B6F5803F00D3B946FF
:1002F00014F8010B294600F02BF80028EBDABBF1CB
:10030000000F05D00FB1641E00E05446CBF800404A
:10031000B9F1000F06D000F09FFF02210160C81E56
:10032000BDE8F09F48EA0640FAE70000064C074D9A
:1003300006E0E06840F0010394E8070098471034B5
:10034000AC42F6D3FFF722FFF4240008142500087E
:100350003A2800D2303820F02002412A01D3A2F1FD
:100360003700884201D34FF0FF30704710B50020AE
:1003700000F070FC00F0C0FE034C0020206000F094
:100380003BFE0320E06110BD00000020094910B5CC
:1003900088424FF0010101D14C0601E04FF080642A
:1003A000204600F0B3FD2046BDE81040002100F0DB
:1003B000ADBD000000640040F0B5827A012191409B
:1003C0002E4A136843F0010313602C4B1C331C6846
:1003D0008C431C60294D067B294C0C35A6B92E6830
:1003E0008E432E604688C78846EA0746877A04EB24
:1003F000C707C7F840660688878846EA0746877AAF
:1004000004EBC707C7F84466067B012E12D12E689D
:100410000E432E60867A056804EBC6064FEA354522
:10042000C6F84056867A456804EBC6044FEA35455F
:10043000C4F84456114CC57A241D002D256806D0F9
:100440000D4325600D4C0589143415B104E08D432E
:10045000F7E725688D4325600589012D02D12568C0
:100460000D432560407B012802D1186808431860BD
:10047000106820F001001060F0BD00000066004030
:100480000060004010B50368002223F002030360FF
:10049000036843F0010303604FF6FF7300E0521C52
:1004A0004468E40701D19A42F9D14268D2073ED0AC
:1004B0008A79012A02683CD022F080020260CA795F
:1004C000012A026838D022F0400202600A7A012A2A
:1004D000026834D022F0200202604A7A012A0268BF
:1004E00030D022F0100202608A7A012A02682CD0F1
:1004F00022F008020260CA7A012A026828D022F09B
:10050000040202608A78CC78920742EA04620C798D
:1005100042EA04424C79098842EA0452491E0A43DD
:10052000C261016821F001010160002114E0002096
:1005300010BD42F08002C1E742F04002C5E742F040
:100540002002C9E742F01002CDE742F00802D1E7ED
:1005500042F00402D5E7491C4268D20701D0994213
:10056000F9D14068C007E2D1012010BD0246002049
:1005700029B1012902D1106900F003007047D06849
:10058000FAE7000010B500EB0113D3F8B04114F006
:1005900004041472D3F8B04134D0E408C2F8044023
:1005A000D3F8B04104F002045472D3F8B44104F01B
:1005B0000F049472D3F8B441240AD474D3F8B84128
:1005C000D472D3F8B841240A1473D3F8B841240C78
:1005D0005473D3F8B841240E9473D3F8BC41D47348
:1005E000D3F8BC41240A1474D3F8BC41240C5474CD
:1005F000D3F8BC311B0E937439B1016941F020016D
:10060000016110BD640D1460CAE7C16841F02001AA
:10061000C16010BD00218171C1710172417281728E
:10062000C1728170C17003210171022141710121E8
:100630000180704730B50246002093685B0108D402
:100640009068000101D5012003E09068C00037D513
:10065000022002EB0012D2F8803103F00103C2F84D
:1006600080310B7A73B3D2F880414D681C434B7ACA
:1006700043EAC5031C43C2F880418B7A03F00F03A1
:100680008B72D2F8843123F00F03C2F88431D2F890
:1006900084318C7A2343C2F88431CB7ACC6843EA24
:1006A0000423C2F88831CB7B096943EA0121C2F8EF
:1006B0008C11D2F8801141F00101C2F8801130BDD7
:1006C000042030BDD2F880314C7A23430C8843EAB1
:1006D0004453C2F88031D0E710B50022044B03E048
:1006E00050F822401C60521C8A42F9D3186810BD91
:1006F000003002400149012088607047003002400C
:100700002DE9F843384F060004D0009600F061FA56
:1007100010BB02E035480090F8E70221684601F07E
:10072000CCFB05460421684601F0C7FBDFF8B88022
:10073000A8F12F08B8F8181000EB01440221684610
:1007400001F0BBFB06284CD2DFE800F0034B4B4B1B
:1007500045452748844202DA0020BDE8F883DFF8E7
:100760008880A221A8F10B08C8F800103C60042181
:10077000204F88F80A105EB11B4938460B39FFF745
:1007800059FF0428F8D0A3210024C8F800101AE06B
:1007900015480B3800F008FBF5E70221684601F028
:1007A0008CFB08EB0402641CD072082C00D055B9F5
:1007B00088F80A4000244EB10B4938460B39FFF740
:1007C00039FF0428F8D06D1EE7D20AE006480B383E
:1007D00000F0EAFAF7E70421684601F06EFBC8F87A
:1007E00018004FF0FF30B8E72F000020580000201D
:1007F0000080000800680040014908607047000060
:100800000C3C024070B50646002529B1012927D0CD
:10081000022928D04FF4407500F074F808281ED142
:10082000124C206820F4407020602068284320602B
:10083000206820F0F8002060206846F0020108439C
:100840002060206840F48030206000F05BF8216870
:1008500021F002012160216821F0F801216070BDC2
:100860004FF48075D8E74FF40075D5E7103C02408F
:100870000B4908200A68D20301D5012070470A6895
:10088000D20601D5052070470A6812F0EF0F01D09B
:100890000620704709688907FBD5072070470000CC
:1008A0000C3C024070B50D46064600F02BF80828B7
:1008B00013D10A4C206820F440702060206840F476
:1008C00000702060206840F001002060356000F07A
:1008D00019F8216821F00101216070BD103C02402F
:1008E00005480068002805DA034804490C3801600F
:1008F0000349016070470000103C02402301674536
:10090000AB89EFCD08B508208DF80000FFF7B0FFE8
:100910008DF800009DF800000128F7D09DF8000038
:1009200008BD000070B5ADF59A6D87A9002001F0F3
:10093000A7F8002879D101223DA1684601F0B4F85A
:100940000025082478BBCDF8C45400BF00F014FC87
:10095000DDF8C40404EBC00000F07CF8DDF8C4044A
:10096000401CCDF8C4040528F0DB0DF2444600BF5E
:10097000DDE90201884210D000F0FEFB6A468021CA
:100980000DF2444001F059F83F22711C2B48FFF74B
:1009900027FC0020FFF7B4FEEAE7002000F09EFDF0
:1009A000684601F041F8012225A1684601F07CF873
:1009B000B8BBCDF8C45400BF00F0DEFBDDF8C404C2
:1009C00004EBC00000F046F8DDF8C404401CCDF88C
:1009D000C4040528F0DB1D4D2C4611E000F0CCFBD3
:1009E0000DF2CC4304220DF2C441684601F09EF89A
:1009F00000281AD12046DDF8C41400F057F8241D51
:100A0000DDE902018842E9D11048404220448108D2
:100A10000F48C0E90015002000F060FD684601F0B5
:100A200003F80021084601F02BF80DF59A6D70BD12
:100A30004C3430352E6865780000000058000020E6
:100A40004C3430352E62696E0000000000800008D2
:100A50000000002010B5040015D0082C16D0102C72
:100A600014D0182C12D0202C10D0282C0ED0302CC2
:100A70000CD0382C0AD0402C08D0482C06D0502C52
:100A800004D0582C02D04FF0FF3010BDFFF728FFE4
:100A9000F320FFF7B1FE02212046FFF7B3FE012845
:100AA000F9D00828F1D1002010BD000013B504468C
:100AB000042201A9FFF7A0FB002804D00A488442C1
:100AC00002D24FF0FF301CBDFFF70AFFF320FFF703
:100AD00093FE20460199FFF7E5FE0128F9D008288A
:100AE000F1D100201CBD0000E47F0008F0B5002318
:100AF000012403270D6804FA03F21540954242D100
:100B0000D0F800C05E0007FA06F52CEA050CC0F824
:100B100000C091F804C0D0F800E00CFA06FC4CEAE2
:100B20000E0CC0F800C091F804C0BCF1010F02D057
:100B3000BCF1020F1FD1D0F808C02CEA050CC0F898
:100B400008C091F805C0D0F808E00CFA06FC4CEAA1
:100B50000E0CC0F808C0D0F804C02CEA020CC0F893
:100B600004C0426891F806C00CFA03FC1FFA8CFC22
:100B700042EA0C024260C268AA43C260CA79C568F0
:100B8000B2402A43C2605B1C102BB3D3F0BD4B07AD
:100B9000DB0E9A40C90810B500EB8100016A0F24F2
:100BA0009C40A1430162016A1143016210BD4FF6EE
:100BB000FF7101600021017141718171C171704744
:100BC00042694A40426170470AB1018370474183DC
:100BD0007047F1B50221684601F06FF904462546D9
:100BE0006FF0040604E00221684601F066F905444E
:100BF0002046641EB042F6DCE8B2F8BD02494CF66D
:100C0000CC4008607047000000300040034A0146B5
:100C10000020D2680A4200D0012070470030004016
:100C200002494AF6AA2008607047000000300040E0
:100C30000149486070470000003000400149886069
:100C40007047000000300040014908607047000014
:100C500000300040F0B589B0064607A8FFF7A7FFAF
:100C600002208DF82000C002484D012407908DF825
:100C7000234007A92846FFF739FF600307908DF846
:100C8000224007A92846FFF731FF09220C212846F8
:100C9000FFF77DFF09220D212846FFF778FF01218C
:100CA000480600F027F90121880600F023F904A87E
:100CB000FFF7B0FC364F3846FFF768FB00258DF88C
:100CC00018508DF819508DF816508DF81A508DF86F
:100CD00017408DF81B4016B18DF8124001E08DF8D9
:100CE0001250092103208DF814108DF813008DF88F
:100CF00015000420ADF8100004A93846FFF7C2FB28
:100D0000ADF802504FF4A350ADF80000ADF8065016
:100D10004FF4A2508DF80B40ADF80400ADF8085028
:100D20000E208DF80C408DF80A008DF80D406846B5
:100D3000FFF742FB4FF4A050ADF800004FF4A15074
:100D4000ADF804000F208DF80A006846FFF734FB69
:100D50004FF4A450ADF800004FF4A550ADF80400D6
:100D600010208DF80A006846FFF726FB4FF4A650C6
:100D7000ADF800004FF4A750ADF8040011208DF835
:100D80000A006846FFF718FB09B0F0BD00040240F6
:100D900000680040024A1140014302480160704768
:100DA00080FFFF1F08ED00E0F0B585B006004FF0B2
:100DB000FF3505D0014614226846FFF7FFF90BE026
:100DC000434C00212046FFF7D1FB00287CD06A4627
:100DD00000212046FFF7D6FB009800273D4CA038A5
:100DE0006A46082870D2DFE800F0043B0B136D065A
:100DF000476900F01FFA9DF80B0000F06FFB36E02A
:100E0000DDF80B002061616888425DDA60605BE0BC
:100E10009DF80A00236903E0195C1518401CE9726B
:100E20000828F9DBDDF80B101846FFF73FFE0546F2
:100E30002069001D20612168491C21609DF80A106D
:100E4000042904D9DDF80F10FFF730FE05432069AF
:100E5000001D20612068401C206076BB284608E009
:100E6000276000F089F9DDF80B00FFF7F3FD054678
:100E70001EBB00F0C1F827E00021174B9DF80A6067
:100E8000606907E002EB010C9CF80BC003F800C09E
:100E9000401C491C8E4201DD8028F3DB191860617B
:100EA00011F8011C29B10D2903D00A2901D080288D
:100EB0000AD100206761FFF723FC05E000251EB979
:100EC0000020D6E79DF80B5005B02846F0BD000085
:100ED000006800400000002058000020044A00295B
:100EE000116801D0014300E08143116070470000A8
:100EF00030380240044A0029116801D0014300E063
:100F0000814311607047000040380240044A0029C4
:100F1000116801D0014300E0814311607047000077
:100F2000203802400248016841F08071016070473A
:100F30007438024070B5204A1168204C11F00C0141
:100F400004D06610042903D0082903D004601BE0F4
:100F5000066019E01849091F0B68C3F380550B6838
:100F600003F03F0315B1B6FBF3F301E0B4FBF3F379
:100F70000C680968C4F388146343C1F30141491C38
:100F80004900B3FBF1F1016011680F2303EA11116D
:100F90000B4B5C5C0168E14041601468072505EA81
:100FA00094241C5D21FA04F48460126805EA52322C
:100FB0009A5CD140C16070BD083802400024F40042
:100FC0003800002002460020510901290BD00229D7
:100FD0000CD00849096802F01F02012393400B421C
:100FE00000D00120704703497439F3E70149091F14
:100FF000F0E700007438024070B50546012108038F
:10100000FFF76CFFFFF776FB03210E48FFF764FB49
:101010000D4C6FF00041A422E16104F124010A604B
:1010200008228A72C4F82F50C4F83300074D01E03B
:10103000A0688047044928462431FFF7FBFA0428BA
:10104000F6D070BD107AFF1F00000020006800403D
:101050000CB50021214801910091026842F48032D0
:1010600002604FF4A063026802F400320092019A19
:10107000521C0192009A12B9019A9A42F3D1026865
:10108000920329D501210091144908310A680A60A8
:101090000A6842F400420A600A6842F4A0520A60F8
:1010A0000B1F0F4A1A60026842F0807202600268E9
:1010B0009201FCD50B4A40F203701060086820F0E2
:1010C00003000860086840F0020008600868C0F388
:1010D00081000228FAD10CBD00910CBD00380240FD
:1010E000083C4005003C02400248016A491C01627C
:1010F00070470000000000207FB56846FFF71AFF28
:1011000001984FF47A71B0FBF1F1491E4FF0FF35B1
:10111000B1F1807F0AD24FF0E02461610F212846AF
:1011200000F078F80020A061072020610321284604
:1011300000F070F87FBD00000C48016841F001012B
:1011400001600A4A0021083211600268084B1A4007
:101150000260031D074A1A60026822F480220260BE
:1011600002480C300160FFF773BF000000380240F6
:10117000FFFFF6FE1030002410B545F25550FFF782
:1011800063FDFFF74DFDBDE810400020FFF75CBD9B
:1011900010B5044645F25550FFF756FD0320FFF702
:1011A00047FDA0B2FFF74AFD0220FFF72FFD002800
:1011B000FAD0FFF735FDFFF721FDBDE81040002014
:1011C000FFF742BD10B5114C216AE068884216D085
:1011D000206A642190FBF1F2E06001FB120020B96B
:1011E0004FF440410A48FFF7EBFCE0684FF47A7196
:1011F00090FBF1F0E169884201DB00F01BF8002070
:10120000FFF7D2FDBDE81040FFF7B6BF0000002099
:10121000000802400907090E002804DB00F1E02065
:1012200080F80014704700F00F0000F1E02080F813
:10123000141D7047BFF34F8F05480168054A01F43C
:10124000E06111430160BFF34F8F00BFFDE7000075
:101250000CED00E00400FA0500487047540000203F
:1012600002E008C8121F08C1002AFAD1704770476F
:10127000002001E001C1121F002AFBD170470000CD
:1012800010B504460A464078012304F1280100F015
:10129000A7FB08B1032010BDB4F82602A0F52A412F
:1012A000553901D0022010BD94F85E00B4F85F10EB
:1012B00040EA01210848B0EB012F08D094F87A10D9
:1012C000B4F87B2041EA0221B0EB012F01D10020CC
:1012D00010BD012010BD00000046415400E0401C3C
:1012E00002780AB18A42FAD1D0B270472DE9F047AC
:1012F0000268DFF884A11578303D092D02D85378B3
:101300003A2B08D09AF8005000260E60022D05D323
:101310000B20BDE8F087921C0260F5E75648001DDF
:1013200050F825408CB10C60207820B1607800F036
:1013300079FBC007EDD02670E8B2B146607000F0CE
:1013400046FBC00703D00320E3E70C20E1E70021C0
:101350000D462046FFF794FF01280CD104F5F370E9
:101360000179E9B3017AD0F8090041EA002529465C
:101370002046FFF785FF032801D088BB01E001204C
:10138000C7E7B4F83300B0F5007F56D1E08F28B935
:1013900094F84C00D4F84D1040EA0120606194F8B4
:1013A00038108446E170012901D0022945D194F812
:1013B00035204843A2709AB1531E1A423DD1B4F869
:1013C00039302381190738D1B4F83B1029B994F882
:1013D0004810D4F8496041EA0621E78E07B100E0E1
:1013E0002BE03E1806EB1316B14226D3891BB1FB46
:1013F000F2F111B3012240F6F678414500D3022202
:101400004FF6F678414500D303222E44891C3D4413
:101410002662A5612161032A11D073B12844E061DD
:10142000022A17D001F0010001EB410100EB51004D
:1014300000F2FF10BCEB502F0ED20D2069E7002BFD
:10144000FBD194F85400D4F8553040EA0320E06111
:101450008800EDE74800EBE72270BAF80210491C5B
:10146000AAF80210E180C4F8249084F804900020C7
:10147000C4F80C904DE70000480000200269891E66
:10148000921E8A4201D800207047026A807801FBD0
:101490000020704710B501210803FFF71FFDFFF77B
:1014A00029F90D4C03212046FFF716F9211F096881
:1014B00088420DD1FFF71EF90748216808300068FF
:1014C000FFF70AF9211D0968814201D1002010BDF2
:1014D0004FF0FF3010BD0000E87F000870B50646F1
:1014E00001214FF0FF350803FFF7F8FC1B4C2EB12C
:1014F0004FF4604020601A48606001E0206850B3FB
:101500000820FFF7A7FA0546FFF7F4F8D4E9001022
:10151000FFF7E2F8014612481438FFF7C7FA40EA2D
:1015200005060F4D2168183D2846FFF7BFFA064310
:101530000B4861681038FFF7B9FA40EA0604FFF774
:10154000D9F803212846FFF7C7F80146281FFFF7FF
:10155000ADFA40EA0405284670BD000000000020F6
:10156000008000082DE9F84F894680460D6800E0AC
:101570006D1C28782F28FBD05C28F9D00024D8F8DF
:101580001C702646A85D761C202817D32F2815D05E
:101590005C2813D0FF2C52D2012100F051FB5FEAEE
:1015A000000A4CD0BAF1800F04D2014678A0FFF7B0
:1015B00095FEE8BB27F814A0641CE3E7AA19C9F854
:1015C0000020202801D2042500E000250021012C64
:1015D00004D0022C31D178882E2816D138882E28B4
:1015E00013D127F814100020A04201D22E2200E0CF
:1015F0002022D8F818100A54401C0B28F4D3D8F82D
:10160000181045F020020A54C0E007EB440030F8FF
:10161000020C202810D02E280ED04CB127F8141020
:101620002021D8F818000A22521E00F8011B00E001
:1016300005E0F9D2002606E0641E002CE5D1062064
:10164000BDE8F88F761C37F816002028FAD02E282F
:10165000F8D01EB145F0030500E0641E2CB107EB85
:10166000440030F8020C2E28F7D1002082464FF0BB
:10167000080B009037F8160006F101065FEA000932
:1016800024D0B9F1200F04D0B9F12E0F04D1A64215
:1016900002D045F00305EDE70098584501D2A64277
:1016A0001AD1BBF10B0F0FD0A64201D045F00305B4
:1016B0000CD84FF0080000904FEA8A6026464FF0A1
:1016C0000B0B4FEA106AD5E745F00305D8F8180070
:1016D0000178E52938D039E04846B9F1800F10D3B8
:1016E000002100F0ADFA5FEA000905D02B4901EBBB
:1016F000090010F8800C814645F00205B9F1000F91
:1017000004D0014626A0FFF7E9FD20B14FF05F09A4
:1017100045F003050FE0A9F14100192802D84AF06D
:10172000020A08E0A9F16100192804D841304AF002
:10173000010A1FFA80F9D8F81820009902F80190E0
:101740000098401C009095E705210170BBF1080F3F
:1017500003D14FEA8A604FEA106ACAF38100032876
:1017600003D06FEA0A01890701D145F00205A907F4
:1017700009D40AF00301012901D145F0100501281F
:1017800001D145F00805D8F81800C572002057E7C8
:10179000222A3A3C3E3F7C7F000000002B1F0008BD
:1017A0002B2C3B3D5B5D00002DE9F84F05460021E9
:1017B00000F0CEF8002879D14FF0FF0BD946296907
:1017C000286800F066FB06000ED16C69207850B1E5
:1017D000E17AE52801F03F0103D00A0705D50F297A
:1017E00009D0FF204DE0042672E00F2903D0B9F1A3
:1017F000000F4BD04FE0E96981B3420606D594F85B
:101800000DB020F04000EA8881462A84484536D150
:10181000627B5A4533D100912078A04620F04000E9
:10182000401E00EB80010027DFF8ACA001EBC006F2
:10183000012400BF1AF8071001EB0800008874B1FA
:1018400000F01AFA0446FF2E19D2009830F816005C
:10185000761C00F011FAA04211D104E02FE0A0F5AF
:101860007F41FF390BD17F1C0D2FE3D398F8000087
:10187000400608D53CB1009830F8160018B1FF209A
:10188000C0B281461DE0A9F10100F9E7204600F051
:1018900027FB58451CD04FF6FF702884A8694FF0ED
:1018A000FF09C17AC9070CD10A2102E011E0491EE3
:1018B00006D314F8013B10F8012B9A1AF7D000E078
:1018C00032B10021284600F009F806003FF477AF56
:1018D0003046BDE8F88F00001E1F000870B50446B2
:1018E000C088401C05042D0C1FD02069E8B12907D1
:1018F00023D1401C2061E168206829B18278521E02
:1019000012EA151F04D018E00089A8420DD914E08E
:1019100000F003FA0146012801D8022070BD481CDE
:1019200005D0206802698A4203D8042070BD0120D6
:1019300070BDE160FFF7A2FD2061E58005F00F01B9
:101940002822206802EB411108446061002070BD2C
:1019500070B50D46C1808168044601291ED02068FB
:1019600002698A421AD921B90278032A04D1C169CD
:1019700011B18078060117E0E1600189A9420DD913
:10198000C06917E0206800F0C8F90146401C07D084
:10199000022903D320680069884203D8022070BD61
:1019A000012070BDA81B85B2B542EBD2E160206872
:1019B000FFF764FD00EB1510206105F00F012822F0
:1019C000206802EB411108446061002070BD10B531
:1019D000FEF786FFF320FEF70FFF002010BD00008A
:1019E000F0B500250E4C04E0964200D1254604F5E2
:1019F0000174D4F80062771CF6D105B12C4600259D
:101A000040CC6D1CF64340C1802DF9DB5B1E13F00A
:101A1000FF0302D0521CFFF7E3FF0020F0BD0000DF
:101A2000000004080020704710B5044600F065FA75
:101A3000002801D10021216010BD2DE9FC410025C5
:101A40009046074604464E1E0FE001AB0122694650
:101A5000404600F06BF80198012808D19DF800007D
:101A60006D1C04F8010B0A2801D0B542EDDB002003
:101A7000207015B13846BDE8FC810020FBE700006E
:101A800010B5022801D30B2010BD064B002453F8DB
:101A9000202002B1147001B10C7043F82010002016
:101AA00010BD00004C0000202DE9F741ADF50D7D83
:101AB00004000DD04FF0000802F00107424680A953
:101AC0008EA8C4F80080FFF711FC050005D02BE0BC
:101AD00009200DF5107DBDE8F08189A88690CDF82C
:101AE0001CD280A88E9900F0D9F8859E05001BD1E4
:101AF00026B1F07AC00603D5042515E0062513E0CB
:101B0000A7713146809800F064F92061307FD6F8E3
:101B10001D1040EA0120C4E90280C4F818808098B2
:101B200020608098C088A0802846D2E72DE9F04741
:101B3000044600201860984615460F46204600F0DF
:101B4000DCF9002803D1A079010602D50220BDE806
:101B5000F087C00706D0D4E90210401A85426AD93E
:101B6000054668E00720F2E7A068C1054BD122686E
:101B70009178491E01EA502111F0FF0609D120B3E6
:101B80001046616900F0C9F8022820D3411C32D008
:101B9000606161692068FFF771FCC0B100EB060A63
:101BA000680A5FEA00091AD0206806EB090281780A
:101BB0008A4201D9A1EB060909F0FF034078524699
:101BC0003946FFF70DFFB0B906E02069DCE7A079E0
:101BD00040F08000A071B9E74FEA492621E0A169F1
:101BE00051450ED0206801235246407804F11C0173
:101BF000FFF7F6FE28B1A07940F08000A071012027
:101C0000A5E7C4F818A02089C0F30800C0F5007645
:101C1000AE4200D92E460119324638461C3100F03A
:101C20002FF9A06837443044A060D8F8000081192B
:101C3000AD1BC8F80010002D96D1002087E70000EA
:101C4000802804D30B4A51B1FF2801D900207047E6
:101C500002EB4000A0F58050B0F8000F704732F85A
:101C60001130834203D0491C89B28029F7D38031D7
:101C7000C8B27047AC1F00080021064B00E0491CA9
:101C800033F81120002A04D08242F8D1024830F8FB
:101C900011007047AC2000088C22000873B5044680
:101CA0000199002508782F280ED05C280CD02068D8
:101CB000C068A06001980078202809D20021204641
:101CC000FFF746FE65617CBD491C0191A560F1E707
:101CD00001A92046FFF746FC0028F4D12046FFF773
:101CE00063FDA169C97A68B10428ECD18A0605D5DB
:101CF000A560002065614907EAD57CBD4907FCD491
:101D000005207CBD4907FCD46169C87AC006F7D5B7
:101D1000206800F05EF8A060DAE72DE9F0410D469A
:101D20000446022902D32069A84202D80120BDE856
:101D3000F0812078012804D0022826D0032837D14A
:101D40002FE0A06905EB550600EB5621204600F078
:101D5000A0F868BBC6F308002044761C90F82870F1
:101D6000A06900EB5621204600F093F800BBC6F3B3
:101D700008002044E90790F8280047EA002001D035
:101D80000009D4E7C0F30B00D1E7A06900EB1521EF
:101D9000204600F07EF858B9E8B204EB4000008D10
:101DA000C5E7A06900EBD511204600F072F810B12C
:101DB0004FF0FF30BBE740F2FF1000EA85002044FF
:101DC00090F82810D0F8290041EA002020F0704057
:101DD000ADE70246488B1278032A02D1898A40EA8D
:101DE000014070471CB52348012104687F20FFF79C
:101DF00075F84FF47A60FFF7CBF91F4D00224FF4CE
:101E000080412846FEF7E0FE0122D1032846FEF776
:101E1000DBFE6846FEF7CBFE01208DF804000020B3
:101E20008DF806004FF44040009069462846FEF7C2
:101E30005DFE7C20FFF7C6F860B1FFF72BFB48B9C9
:101E4000A4F100612804FEF7A5FF206880F308884C
:101E500060688047FEF78AFA7D20FFF7B3F818B173
:101E6000FFF760F8FEF75EFDFFF75CF8034CA06833
:101E70008047FCE7F07F00080008024000000020D7
:101E800004E000BF11F8013B00F8013B521EF9D2FB
:101E9000704770B50446406A0D46A8420BD055B154
:101EA0000A466078012304F12801FFF799FD08B183
:101EB000012070BD6562002070BD7FB50D460446EF
:101EC00001682A466846FEF78BF9002141552068D3
:101ED0001022284420606846FEF79BF904B070BDCC
:101EE000014600200B22430803EBC01011F8013B10
:101EF000521E1844C0B2F6D1704710B5016829B11E
:101F00000A781AB1CA888088824201D0092010BD9F
:101F10004878FFF787FDC007F9D0032010BD010303
:101F20000507090E10121416181C1E808182838466
:101F300085868788898A8B8C8D8E8F9091929394D9
:101F400095969798998A9B8C8D8E8FA0A1A2A3A419
:101F5000A5A6A7A8A9AAABACADAEAFB0B1B2A3B4C9
:101F6000B5B6B7B8A5AABBBCBDBCAFC0C1C2C3C4DF
:101F7000C5C6C7C8C9CACBCCCDCECFD0D1D2D3D499
:101F8000D5D6D7D8D9DADBDCDDDEDFC0C1C2C3C429
:101F9000C5C6C7C8C9CACBCCCDCECFD0D1D2D3D479
:101FA000D5D6F7D8D9DADBDCDDDEFF00AC200000C7
:101FB0001A2000001E202620202021200000302092
:101FC000600139205A0164017D0179010000182067
:101FD00019201C201D202220132014200000222163
:101FE00061013A205B0165017E017A01A000C70210
:101FF000D8024101A4000401A600A700A800A9007E
:102000005E01AB00AC00AD00AE007B01B000B100E2
:10201000DB024201B400B500B600B700B80005010C
:102020005F01BB003D01DD023E017C015401C100A6
:10203000C2000201C40039010601C7000C01C90039
:102040001801CB001A01CD00CE000E011001430192
:102050004701D300D4005001D600D70058016E01CB
:10206000DA007001DC00DD006201DF005501E100F3
:10207000E2000301E4003A010701E7000D01E90075
:102080001901EB001B01ED00EE000F0111014401ED
:102090004801F300F4005101F600F70059016F0107
:1020A000FA007101FC00FD006301D90261006200C9
:1020B00063006400650066006700680069006A00EC
:1020C0006B006C006D006E006F007000710072009C
:1020D00073007400750076007700780079007A004C
:1020E000A100A200A300A500AC00AF00E000E10049
:1020F000E200E300E400E500E600E700E800E900B4
:10210000EA00EB00EC00ED00EE00EF00F000F10063
:10211000F200F300F400F500F600F800F900FA0010
:10212000FB00FC00FD00FE00FF00010103010501B2
:10213000070109010B010D010F0111011301150127
:10214000170119011B011D011F0121012301250197
:10215000270129012B012D012F0131013301350107
:1021600037013A013C013E01400142014401460170
:1021700048014B014D014F015101530155015701D8
:1021800059015B015D015F01610163016501670147
:1021900069016B016D016F017101730175017701B7
:1021A0007A017C017E019201B103B203B303B4034F
:1021B000B503B603B703B803B903BA03BB03BC0343
:1021C000BD03BE03BF03C003C103C303C403C503F0
:1021D000C603C703C803C903CA0330043104320469
:1021E00033043404350436043704380439043A041B
:1021F0003B043C043D043E043F04400441044204CB
:1022000043044404450446044704480449044A047A
:102210004B044C044D044E044F0451045204530427
:102220005404550456045704580459045A045B04D2
:102230005C045E045F04702171217221732174219A
:10224000752176217721782179217A217B217C21C2
:102250007D217E217F2141FF42FF43FF44FF45FF57
:1022600046FF47FF48FF49FF4AFF4BFF4CFF4DFF2A
:102270004EFF4FFF50FF51FF52FF53FF54FF55FFDA
:1022800056FF57FF58FF59FF5AFF00004100420018
:1022900043004400450046004700480049004A000A
:1022A0004B004C004D004E004F00500051005200BA
:1022B00053005400550056005700580059005A006A
:1022C0002100E0FFE1FFE5FFE2FFE3FFC000C10006
:1022D000C200C300C400C500C600C700C800C900D2
:1022E000CA00CB00CC00CD00CE00CF00D000D10082
:1022F000D200D300D400D500D600D800D900DA002F
:10230000DB00DC00DD00DE007801000102010401D9
:10231000060108010A010C010E011001120114014D
:10232000160118011A011C011E01200122012401BD
:10233000260128012A012C012E013001320134012D
:10234000360139013B013D013F0141014301450196
:1023500047014A014C014E015001520154015601FE
:1023600058015A015C015E0160016201640166016D
:1023700068016A016C016E017001720174017601DD
:1023800079017B017D0191019103920393039403F1
:10239000950396039703980399039A039B039C0361
:1023A0009D039E039F03A003A103A303A403A5030E
:1023B000A603A703A803A903AA0310041104120487
:1023C00013041404150416041704180419041A0439
:1023D0001B041C041D041E041F04200421042204E9
:1023E00023042404250426042704280429042A0499
:1023F0002B042C042D042E042F04010402040304D6
:102400000404050406040704080409040A040B0470
:102410000C040E040F0460216121622163216421F8
:10242000652166216721682169216A216B216C2160
:102430006D216E216F2121FF22FF23FF24FF25FF45
:1024400026FF27FF28FF29FF2AFF2BFF2CFF2DFF48
:102450002EFF2FFF30FF31FF32FF33FF34FF35FFF8
:1024600036FF37FF38FF39FF3AFF00000040404099
:102470004040404040404141414141404040404057
:102480004040404040404040404040404005020203
:1024900002020202020202020202020202202020C2
:1024A000202020202020200202020202020290901E
:1024B000909090901010101010101010101010101C
:1024C0001010101010101010020202020202888870
:1024D000888888880808080808080808080808087C
:1024E0000808080808080808020202024000000064
:1024F0006D2400081425000800000020580000008A
:10250000601200086C2500085800002080200000A0
:102510007012000800000000FFFFFF7FC5110008D7
:1025200000000000000000000000000000000000AB
:102530000000000000000000A400000000000000F7
:10254000000001000000000000000000000000008A
:102550000102030401020304060708090000000049
:0C2560000000000000000000000000006F
:040000050800018569
:00000001FF
